{"contracts/test/MockERC721.sol":{"MockERC721":{"abi":[{"inputs":[],"stateMutability":"nonpayable","type":"constructor"},{"inputs":[{"internalType":"address","name":"sender","type":"address"},{"internalType":"uint256","name":"tokenId","type":"uint256"},{"internalType":"address","name":"owner","type":"address"}],"name":"ERC721IncorrectOwner","type":"error"},{"inputs":[{"internalType":"address","name":"operator","type":"address"},{"internalType":"uint256","name":"tokenId","type":"uint256"}],"name":"ERC721InsufficientApproval","type":"error"},{"inputs":[{"internalType":"address","name":"approver","type":"address"}],"name":"ERC721InvalidApprover","type":"error"},{"inputs":[{"internalType":"address","name":"operator","type":"address"}],"name":"ERC721InvalidOperator","type":"error"},{"inputs":[{"internalType":"address","name":"owner","type":"address"}],"name":"ERC721InvalidOwner","type":"error"},{"inputs":[{"internalType":"address","name":"receiver","type":"address"}],"name":"ERC721InvalidReceiver","type":"error"},{"inputs":[{"internalType":"address","name":"sender","type":"address"}],"name":"ERC721InvalidSender","type":"error"},{"inputs":[{"internalType":"uint256","name":"tokenId","type":"uint256"}],"name":"ERC721NonexistentToken","type":"error"},{"anonymous":false,"inputs":[{"indexed":true,"internalType":"address","name":"owner","type":"address"},{"indexed":true,"internalType":"address","name":"approved","type":"address"},{"indexed":true,"internalType":"uint256","name":"tokenId","type":"uint256"}],"name":"Approval","type":"event"},{"anonymous":false,"inputs":[{"indexed":true,"internalType":"address","name":"owner","type":"address"},{"indexed":true,"internalType":"address","name":"operator","type":"address"},{"indexed":false,"internalType":"bool","name":"approved","type":"bool"}],"name":"ApprovalForAll","type":"event"},{"anonymous":false,"inputs":[{"indexed":true,"internalType":"address","name":"from","type":"address"},{"indexed":true,"internalType":"address","name":"to","type":"address"},{"indexed":true,"internalType":"uint256","name":"tokenId","type":"uint256"}],"name":"Transfer","type":"event"},{"inputs":[{"internalType":"address","name":"to","type":"address"},{"internalType":"uint256","name":"tokenId","type":"uint256"}],"name":"approve","outputs":[],"stateMutability":"nonpayable","type":"function"},{"inputs":[{"internalType":"address","name":"owner","type":"address"}],"name":"balanceOf","outputs":[{"internalType":"uint256","name":"","type":"uint256"}],"stateMutability":"view","type":"function"},{"inputs":[{"internalType":"address","name":"to","type":"address"},{"internalType":"uint256[]","name":"tokenIds","type":"uint256[]"}],"name":"batchMint","outputs":[],"stateMutability":"nonpayable","type":"function"},{"inputs":[{"internalType":"uint256","name":"tokenId","type":"uint256"}],"name":"getApproved","outputs":[{"internalType":"address","name":"","type":"address"}],"stateMutability":"view","type":"function"},{"inputs":[{"internalType":"address","name":"owner","type":"address"},{"internalType":"address","name":"operator","type":"address"}],"name":"isApprovedForAll","outputs":[{"internalType":"bool","name":"","type":"bool"}],"stateMutability":"view","type":"function"},{"inputs":[{"internalType":"address","name":"to","type":"address"},{"internalType":"uint256","name":"tokenId","type":"uint256"}],"name":"mint","outputs":[],"stateMutability":"nonpayable","type":"function"},{"inputs":[],"name":"name","outputs":[{"internalType":"string","name":"","type":"string"}],"stateMutability":"view","type":"function"},{"inputs":[{"internalType":"uint256","name":"tokenId","type":"uint256"}],"name":"ownerOf","outputs":[{"internalType":"address","name":"","type":"address"}],"stateMutability":"view","type":"function"},{"inputs":[{"internalType":"address","name":"from","type":"address"},{"internalType":"address","name":"to","type":"address"},{"internalType":"uint256","name":"tokenId","type":"uint256"}],"name":"safeTransferFrom","outputs":[],"stateMutability":"nonpayable","type":"function"},{"inputs":[{"internalType":"address","name":"from","type":"address"},{"internalType":"address","name":"to","type":"address"},{"internalType":"uint256","name":"tokenId","type":"uint256"},{"internalType":"bytes","name":"data","type":"bytes"}],"name":"safeTransferFrom","outputs":[],"stateMutability":"nonpayable","type":"function"},{"inputs":[{"internalType":"address","name":"operator","type":"address"},{"internalType":"bool","name":"approved","type":"bool"}],"name":"setApprovalForAll","outputs":[],"stateMutability":"nonpayable","type":"function"},{"inputs":[{"internalType":"bytes4","name":"interfaceId","type":"bytes4"}],"name":"supportsInterface","outputs":[{"internalType":"bool","name":"","type":"bool"}],"stateMutability":"view","type":"function"},{"inputs":[],"name":"symbol","outputs":[{"internalType":"string","name":"","type":"string"}],"stateMutability":"view","type":"function"},{"inputs":[{"internalType":"uint256","name":"tokenId","type":"uint256"}],"name":"tokenURI","outputs":[{"internalType":"string","name":"","type":"string"}],"stateMutability":"view","type":"function"},{"inputs":[{"internalType":"address","name":"from","type":"address"},{"internalType":"address","name":"to","type":"address"},{"internalType":"uint256","name":"tokenId","type":"uint256"}],"name":"transferFrom","outputs":[],"stateMutability":"nonpayable","type":"function"}],"evm":{"bytecode":{"linkReferences":{},"object":"608034620002e0576001600160401b039060409080820183811182821017620001fe578252600881526020926726b7b1b5a9b630b160c11b8483015282519383850185811083821117620001fe578452600585526426a9a620a160d91b81860152825190828211620001fe575f54916001948584811c94168015620002d5575b83851014620001df578190601f9485811162000282575b5083908583116001146200021e575f9262000212575b50505f19600383901b1c191690851b175f555b8551928311620001fe5783548481811c91168015620001f3575b82821014620001df5782811162000197575b5080918311600114620001325750819293945f9262000126575b50505f19600383901b1c191690821b1790555b51610c8b9081620002e58239f35b015190505f8062000105565b90601f19831695845f52825f20925f905b8882106200017f575050838596971062000166575b505050811b01905562000118565b01515f1960f88460031b161c191690555f808062000158565b80878596829496860151815501950193019062000143565b845f52815f208380860160051c820192848710620001d5575b0160051c019085905b828110620001c9575050620000eb565b5f8155018590620001b9565b92508192620001b0565b634e487b7160e01b5f52602260045260245ffd5b90607f1690620000d9565b634e487b7160e01b5f52604160045260245ffd5b015190505f80620000ac565b90879350601f198316915f8052855f20925f5b878282106200026b575050841162000252575b505050811b015f55620000bf565b01515f1960f88460031b161c191690555f808062000244565b8385015186558b9790950194938401930162000231565b9091505f8052835f208580850160051c820192868610620002cb575b918991869594930160051c01915b828110620002bc57505062000096565b5f8155859450899101620002ac565b925081926200029e565b93607f16936200007f565b5f80fdfe6080604090808252600480361015610015575f80fd5b5f3560e01c91826301ffc9a7146106ee5750816306fdde0314610628578163081812fc146105f0578163095ea7b31461051557816323b872dd146104fe57816340c10f19146104da57816342842e0e146104b25781634684d7e9146104375781636352211e1461040857816370a08231146103b457816395d89b41146102a5578163a22cb465146101ee578163b88d4fde14610168578163c87b56dd14610116575063e985e9c5146100c5575f80fd5b346101125780600319360112610112576020906100e0610796565b6100e86107ac565b9060018060a01b038091165f5260058452825f2091165f52825260ff815f20541690519015158152f35b5f80fd5b8234610112576020366003190112610112576101356101649235610b49565b505f8151610142816107f7565b5280519061014f826107f7565b5f825251918291602083526020830190610758565b0390f35b823461011257608036600319011261011257610182610796565b61018a6107ac565b6064359367ffffffffffffffff85116101125736602386011215610112578401356101c06101b782610849565b94519485610827565b8084523660248287010111610112576020815f9260246101ec98018388013785010152604435916109fb565b005b8234610112578060031936011261011257610207610796565b906024359182151580930361011257331561028f576001600160a01b031692831561027a5750335f526005602052805f20835f52602052805f2060ff1981541660ff8416179055519081527f17307eab39ab6107e8899845ad3d59bd9653f200f220920489ca2b5937696c3160203392a3005b836024925191630b61174360e31b8352820152fd5b815163a9fbf51f60e01b81525f81860152602490fd5b8234610112575f366003190112610112578051905f90600191600154928360011c90600185169485156103aa575b60209586841081146103975783885287949392918790821561037557505060011461031a575b5050610164929161030b910385610827565b51928284938452830190610758565b9085925060015f527fb10e2d527612073b26eecdfd717e6a320cf44b4afac2b0732d9fcbe2b7fa0cf6915f925b82841061035d575050508201018161030b6102f9565b8054848a018601528895508794909301928101610347565b60ff19168682015292151560051b8501909201925083915061030b90506102f9565b602289634e487b7160e01b5f525260245ffd5b91607f16916102d3565b8234610112576020366003190112610112576001600160a01b036103d6610796565b1680156103f257602092505f5260038252805f20549051908152f35b81516322718ad960e21b81525f81850152602490fd5b82346101125760203660031901126101125761042660209235610b49565b90516001600160a01b039091168152f35b8234610112573660031901126101125761044f610796565b90602480359267ffffffffffffffff92838511610112573660238601121561011257840135928311610112576005913660248560051b87010111610112575f5b84811061049857005b806104ac83600193871b8901013585610b83565b0161048f565b8234610112576101ec906104c5366107c2565b919251926104d2846107f7565b5f84526109fb565b823461011257366003190112610112576101ec6104f5610796565b60243590610b83565b34610112576101ec61050f366107c2565b91610865565b823461011257806003193601126101125761052e610796565b9160243561053b81610b49565b331515806105dd575b806105b6575b6105a0576001600160a01b039485169482918691167f8c5be1e5ebec7d5bd14f71427d1e84f3dd0314c0f7b2291e5b200ac8c7c3b9255f80a45f526020525f20906001600160601b0360a01b8254161790555f80f35b835163a9fbf51f60e01b81523381850152602490fd5b5060018060a01b0381165f526005602052835f20335f5260205260ff845f2054161561054a565b506001600160a01b038116331415610544565b823461011257602036600319011261011257816020923561061081610b49565b505f52825260018060a01b03815f2054169051908152f35b8234610112575f366003190112610112578051905f905f549160018360011c90600185169485156106e4575b60209586841081146103975783885287949392918790821561037557505060011461068b575050610164929161030b910385610827565b5f80805286935091907f290decd9548b62a8d60345a988386fc84ba6bc95484008f6362f93160ef3e5635b8284106106cc575050508201018161030b6102f9565b8054848a0186015288955087949093019281016106b6565b91607f1691610654565b903461011257602036600319011261011257359063ffffffff60e01b8216809203610112576020916380ac58cd60e01b8114908115610747575b8115610736575b5015158152f35b6301ffc9a760e01b1490508361072f565b635b5e139f60e01b81149150610728565b91908251928382525f5b848110610782575050825f602080949584010152601f8019910116010190565b602081830181015184830182015201610762565b600435906001600160a01b038216820361011257565b602435906001600160a01b038216820361011257565b6060906003190112610112576001600160a01b0390600435828116810361011257916024359081168103610112579060443590565b6020810190811067ffffffffffffffff82111761081357604052565b634e487b7160e01b5f52604160045260245ffd5b90601f8019910116810190811067ffffffffffffffff82111761081357604052565b67ffffffffffffffff811161081357601f01601f191660200190565b6001600160a01b0391821692909183156109e357815f52602092600284528260409583875f2054169533151580610951575b5060029087610920575b825f5260038152885f2060018154019055835f5252865f20816001600160601b0360a01b825416179055857fddf252ad1be2c89b69c2b068fc378daa952ba7f163c4a11628f55a4df523b3ef5f80a416928383036108ff5750505050565b6064945051926364283d7b60e01b8452600484015260248301526044820152fd5b5f84815260046020526040812080546001600160a01b03191690558881526003825289902080545f190190556108a1565b91925090806109a2575b15610969579084915f610897565b868587610986576024915190637e27328960e01b82526004820152fd5b604491519063177e802f60e01b82523360048301526024820152fd5b5033861480156109c7575b8061095b5750845f52600481523384885f2054161461095b565b50855f5260058152865f20335f52815260ff875f2054166109ad565b604051633250574960e11b81525f6004820152602490fd5b9192610a08848385610865565b813b610a15575b50505050565b604051630a85bd0160e11b8082523360048301526001600160a01b03948516602483015260448201959095526080606482015260209593909216939190859082908190610a66906084830190610758565b03815f885af15f9181610b09575b50610ad3575050503d5f14610acb573d91610a8e83610849565b92610a9c6040519485610827565b83523d5f8285013e5b82519283610ac657604051633250574960e11b815260048101849052602490fd5b019050fd5b606091610aa5565b9193506001600160e01b031990911603610af157505f808080610a0f565b60249060405190633250574960e11b82526004820152fd5b9091508581813d8311610b42575b610b218183610827565b8101031261011257516001600160e01b03198116810361011257905f610a74565b503d610b17565b5f818152600260205260409020546001600160a01b0316908115610b6b575090565b60249060405190637e27328960e01b82526004820152fd5b6001600160a01b03908116919082156109e357815f52600260205260405f205416918215159283610c22575b815f52600360205260405f2060018154019055825f52600260205260405f20826001600160601b0360a01b8254161790557fddf252ad1be2c89b69c2b068fc378daa952ba7f163c4a11628f55a4df523b3ef5f80a4610c0a57565b6040516339e3563760e11b81525f6004820152602490fd5b5f83815260046020526040902080546001600160a01b0319169055805f52600360205260405f205f198154019055610baf56fea2646970667358221220d8476de4472df863728f874fc69793ee30e2f62e748acd8022eb09fde22e31d664736f6c63430008180033","opcodes":"PUSH1 0x80 CALLVALUE PUSH3 0x2E0 JUMPI PUSH1 0x1 PUSH1 0x1 PUSH1 0x40 SHL SUB SWAP1 PUSH1 0x40 SWAP1 DUP1 DUP3 ADD DUP4 DUP2 GT DUP3 DUP3 LT OR PUSH3 0x1FE JUMPI DUP3 MSTORE PUSH1 0x8 DUP2 MSTORE PUSH1 0x20 SWAP3 PUSH8 0x26B7B1B5A9B630B1 PUSH1 0xC1 SHL DUP5 DUP4 ADD MSTORE DUP3 MLOAD SWAP4 DUP4 DUP6 ADD DUP6 DUP2 LT DUP4 DUP3 GT OR PUSH3 0x1FE JUMPI DUP5 MSTORE PUSH1 0x5 DUP6 MSTORE PUSH5 0x26A9A620A1 PUSH1 0xD9 SHL DUP2 DUP7 ADD MSTORE DUP3 MLOAD SWAP1 DUP3 DUP3 GT PUSH3 0x1FE JUMPI PUSH0 SLOAD SWAP2 PUSH1 0x1 SWAP5 DUP6 DUP5 DUP2 SHR SWAP5 AND DUP1 ISZERO PUSH3 0x2D5 JUMPI JUMPDEST DUP4 DUP6 LT EQ PUSH3 0x1DF JUMPI DUP2 SWAP1 PUSH1 0x1F SWAP5 DUP6 DUP2 GT PUSH3 0x282 JUMPI JUMPDEST POP DUP4 SWAP1 DUP6 DUP4 GT PUSH1 0x1 EQ PUSH3 0x21E JUMPI PUSH0 SWAP3 PUSH3 0x212 JUMPI JUMPDEST POP POP PUSH0 NOT PUSH1 0x3 DUP4 SWAP1 SHL SHR NOT AND SWAP1 DUP6 SHL OR PUSH0 SSTORE JUMPDEST DUP6 MLOAD SWAP3 DUP4 GT PUSH3 0x1FE JUMPI DUP4 SLOAD DUP5 DUP2 DUP2 SHR SWAP2 AND DUP1 ISZERO PUSH3 0x1F3 JUMPI JUMPDEST DUP3 DUP3 LT EQ PUSH3 0x1DF JUMPI DUP3 DUP2 GT PUSH3 0x197 JUMPI JUMPDEST POP DUP1 SWAP2 DUP4 GT PUSH1 0x1 EQ PUSH3 0x132 JUMPI POP DUP2 SWAP3 SWAP4 SWAP5 PUSH0 SWAP3 PUSH3 0x126 JUMPI JUMPDEST POP POP PUSH0 NOT PUSH1 0x3 DUP4 SWAP1 SHL SHR NOT AND SWAP1 DUP3 SHL OR SWAP1 SSTORE JUMPDEST MLOAD PUSH2 0xC8B SWAP1 DUP2 PUSH3 0x2E5 DUP3 CODECOPY RETURN JUMPDEST ADD MLOAD SWAP1 POP PUSH0 DUP1 PUSH3 0x105 JUMP JUMPDEST SWAP1 PUSH1 0x1F NOT DUP4 AND SWAP6 DUP5 PUSH0 MSTORE DUP3 PUSH0 KECCAK256 SWAP3 PUSH0 SWAP1 JUMPDEST DUP9 DUP3 LT PUSH3 0x17F JUMPI POP POP DUP4 DUP6 SWAP7 SWAP8 LT PUSH3 0x166 JUMPI JUMPDEST POP POP POP DUP2 SHL ADD SWAP1 SSTORE PUSH3 0x118 JUMP JUMPDEST ADD MLOAD PUSH0 NOT PUSH1 0xF8 DUP5 PUSH1 0x3 SHL AND SHR NOT AND SWAP1 SSTORE PUSH0 DUP1 DUP1 PUSH3 0x158 JUMP JUMPDEST DUP1 DUP8 DUP6 SWAP7 DUP3 SWAP5 SWAP7 DUP7 ADD MLOAD DUP2 SSTORE ADD SWAP6 ADD SWAP4 ADD SWAP1 PUSH3 0x143 JUMP JUMPDEST DUP5 PUSH0 MSTORE DUP2 PUSH0 KECCAK256 DUP4 DUP1 DUP7 ADD PUSH1 0x5 SHR DUP3 ADD SWAP3 DUP5 DUP8 LT PUSH3 0x1D5 JUMPI JUMPDEST ADD PUSH1 0x5 SHR ADD SWAP1 DUP6 SWAP1 JUMPDEST DUP3 DUP2 LT PUSH3 0x1C9 JUMPI POP POP PUSH3 0xEB JUMP JUMPDEST PUSH0 DUP2 SSTORE ADD DUP6 SWAP1 PUSH3 0x1B9 JUMP JUMPDEST SWAP3 POP DUP2 SWAP3 PUSH3 0x1B0 JUMP JUMPDEST PUSH4 0x4E487B71 PUSH1 0xE0 SHL PUSH0 MSTORE PUSH1 0x22 PUSH1 0x4 MSTORE PUSH1 0x24 PUSH0 REVERT JUMPDEST SWAP1 PUSH1 0x7F AND SWAP1 PUSH3 0xD9 JUMP JUMPDEST PUSH4 0x4E487B71 PUSH1 0xE0 SHL PUSH0 MSTORE PUSH1 0x41 PUSH1 0x4 MSTORE PUSH1 0x24 PUSH0 REVERT JUMPDEST ADD MLOAD SWAP1 POP PUSH0 DUP1 PUSH3 0xAC JUMP JUMPDEST SWAP1 DUP8 SWAP4 POP PUSH1 0x1F NOT DUP4 AND SWAP2 PUSH0 DUP1 MSTORE DUP6 PUSH0 KECCAK256 SWAP3 PUSH0 JUMPDEST DUP8 DUP3 DUP3 LT PUSH3 0x26B JUMPI POP POP DUP5 GT PUSH3 0x252 JUMPI JUMPDEST POP POP POP DUP2 SHL ADD PUSH0 SSTORE PUSH3 0xBF JUMP JUMPDEST ADD MLOAD PUSH0 NOT PUSH1 0xF8 DUP5 PUSH1 0x3 SHL AND SHR NOT AND SWAP1 SSTORE PUSH0 DUP1 DUP1 PUSH3 0x244 JUMP JUMPDEST DUP4 DUP6 ADD MLOAD DUP7 SSTORE DUP12 SWAP8 SWAP1 SWAP6 ADD SWAP5 SWAP4 DUP5 ADD SWAP4 ADD PUSH3 0x231 JUMP JUMPDEST SWAP1 SWAP2 POP PUSH0 DUP1 MSTORE DUP4 PUSH0 KECCAK256 DUP6 DUP1 DUP6 ADD PUSH1 0x5 SHR DUP3 ADD SWAP3 DUP7 DUP7 LT PUSH3 0x2CB JUMPI JUMPDEST SWAP2 DUP10 SWAP2 DUP7 SWAP6 SWAP5 SWAP4 ADD PUSH1 0x5 SHR ADD SWAP2 JUMPDEST DUP3 DUP2 LT PUSH3 0x2BC JUMPI POP POP PUSH3 0x96 JUMP JUMPDEST PUSH0 DUP2 SSTORE DUP6 SWAP5 POP DUP10 SWAP2 ADD PUSH3 0x2AC JUMP JUMPDEST SWAP3 POP DUP2 SWAP3 PUSH3 0x29E JUMP JUMPDEST SWAP4 PUSH1 0x7F AND SWAP4 PUSH3 0x7F JUMP JUMPDEST PUSH0 DUP1 REVERT INVALID PUSH1 0x80 PUSH1 0x40 SWAP1 DUP1 DUP3 MSTORE PUSH1 0x4 DUP1 CALLDATASIZE LT ISZERO PUSH2 0x15 JUMPI PUSH0 DUP1 REVERT JUMPDEST PUSH0 CALLDATALOAD PUSH1 0xE0 SHR SWAP2 DUP3 PUSH4 0x1FFC9A7 EQ PUSH2 0x6EE JUMPI POP DUP2 PUSH4 0x6FDDE03 EQ PUSH2 0x628 JUMPI DUP2 PUSH4 0x81812FC EQ PUSH2 0x5F0 JUMPI DUP2 PUSH4 0x95EA7B3 EQ PUSH2 0x515 JUMPI DUP2 PUSH4 0x23B872DD EQ PUSH2 0x4FE JUMPI DUP2 PUSH4 0x40C10F19 EQ PUSH2 0x4DA JUMPI DUP2 PUSH4 0x42842E0E EQ PUSH2 0x4B2 JUMPI DUP2 PUSH4 0x4684D7E9 EQ PUSH2 0x437 JUMPI DUP2 PUSH4 0x6352211E EQ PUSH2 0x408 JUMPI DUP2 PUSH4 0x70A08231 EQ PUSH2 0x3B4 JUMPI DUP2 PUSH4 0x95D89B41 EQ PUSH2 0x2A5 JUMPI DUP2 PUSH4 0xA22CB465 EQ PUSH2 0x1EE JUMPI DUP2 PUSH4 0xB88D4FDE EQ PUSH2 0x168 JUMPI DUP2 PUSH4 0xC87B56DD EQ PUSH2 0x116 JUMPI POP PUSH4 0xE985E9C5 EQ PUSH2 0xC5 JUMPI PUSH0 DUP1 REVERT JUMPDEST CALLVALUE PUSH2 0x112 JUMPI DUP1 PUSH1 0x3 NOT CALLDATASIZE ADD SLT PUSH2 0x112 JUMPI PUSH1 0x20 SWAP1 PUSH2 0xE0 PUSH2 0x796 JUMP JUMPDEST PUSH2 0xE8 PUSH2 0x7AC JUMP JUMPDEST SWAP1 PUSH1 0x1 DUP1 PUSH1 0xA0 SHL SUB DUP1 SWAP2 AND PUSH0 MSTORE PUSH1 0x5 DUP5 MSTORE DUP3 PUSH0 KECCAK256 SWAP2 AND PUSH0 MSTORE DUP3 MSTORE PUSH1 0xFF DUP2 PUSH0 KECCAK256 SLOAD AND SWAP1 MLOAD SWAP1 ISZERO ISZERO DUP2 MSTORE RETURN JUMPDEST PUSH0 DUP1 REVERT JUMPDEST DUP3 CALLVALUE PUSH2 0x112 JUMPI PUSH1 0x20 CALLDATASIZE PUSH1 0x3 NOT ADD SLT PUSH2 0x112 JUMPI PUSH2 0x135 PUSH2 0x164 SWAP3 CALLDATALOAD PUSH2 0xB49 JUMP JUMPDEST POP PUSH0 DUP2 MLOAD PUSH2 0x142 DUP2 PUSH2 0x7F7 JUMP JUMPDEST MSTORE DUP1 MLOAD SWAP1 PUSH2 0x14F DUP3 PUSH2 0x7F7 JUMP JUMPDEST PUSH0 DUP3 MSTORE MLOAD SWAP2 DUP3 SWAP2 PUSH1 0x20 DUP4 MSTORE PUSH1 0x20 DUP4 ADD SWAP1 PUSH2 0x758 JUMP JUMPDEST SUB SWAP1 RETURN JUMPDEST DUP3 CALLVALUE PUSH2 0x112 JUMPI PUSH1 0x80 CALLDATASIZE PUSH1 0x3 NOT ADD SLT PUSH2 0x112 JUMPI PUSH2 0x182 PUSH2 0x796 JUMP JUMPDEST PUSH2 0x18A PUSH2 0x7AC JUMP JUMPDEST PUSH1 0x64 CALLDATALOAD SWAP4 PUSH8 0xFFFFFFFFFFFFFFFF DUP6 GT PUSH2 0x112 JUMPI CALLDATASIZE PUSH1 0x23 DUP7 ADD SLT ISZERO PUSH2 0x112 JUMPI DUP5 ADD CALLDATALOAD PUSH2 0x1C0 PUSH2 0x1B7 DUP3 PUSH2 0x849 JUMP JUMPDEST SWAP5 MLOAD SWAP5 DUP6 PUSH2 0x827 JUMP JUMPDEST DUP1 DUP5 MSTORE CALLDATASIZE PUSH1 0x24 DUP3 DUP8 ADD ADD GT PUSH2 0x112 JUMPI PUSH1 0x20 DUP2 PUSH0 SWAP3 PUSH1 0x24 PUSH2 0x1EC SWAP9 ADD DUP4 DUP9 ADD CALLDATACOPY DUP6 ADD ADD MSTORE PUSH1 0x44 CALLDATALOAD SWAP2 PUSH2 0x9FB JUMP JUMPDEST STOP JUMPDEST DUP3 CALLVALUE PUSH2 0x112 JUMPI DUP1 PUSH1 0x3 NOT CALLDATASIZE ADD SLT PUSH2 0x112 JUMPI PUSH2 0x207 PUSH2 0x796 JUMP JUMPDEST SWAP1 PUSH1 0x24 CALLDATALOAD SWAP2 DUP3 ISZERO ISZERO DUP1 SWAP4 SUB PUSH2 0x112 JUMPI CALLER ISZERO PUSH2 0x28F JUMPI PUSH1 0x1 PUSH1 0x1 PUSH1 0xA0 SHL SUB AND SWAP3 DUP4 ISZERO PUSH2 0x27A JUMPI POP CALLER PUSH0 MSTORE PUSH1 0x5 PUSH1 0x20 MSTORE DUP1 PUSH0 KECCAK256 DUP4 PUSH0 MSTORE PUSH1 0x20 MSTORE DUP1 PUSH0 KECCAK256 PUSH1 0xFF NOT DUP2 SLOAD AND PUSH1 0xFF DUP5 AND OR SWAP1 SSTORE MLOAD SWAP1 DUP2 MSTORE PUSH32 0x17307EAB39AB6107E8899845AD3D59BD9653F200F220920489CA2B5937696C31 PUSH1 0x20 CALLER SWAP3 LOG3 STOP JUMPDEST DUP4 PUSH1 0x24 SWAP3 MLOAD SWAP2 PUSH4 0xB611743 PUSH1 0xE3 SHL DUP4 MSTORE DUP3 ADD MSTORE REVERT JUMPDEST DUP2 MLOAD PUSH4 0xA9FBF51F PUSH1 0xE0 SHL DUP2 MSTORE PUSH0 DUP2 DUP7 ADD MSTORE PUSH1 0x24 SWAP1 REVERT JUMPDEST DUP3 CALLVALUE PUSH2 0x112 JUMPI PUSH0 CALLDATASIZE PUSH1 0x3 NOT ADD SLT PUSH2 0x112 JUMPI DUP1 MLOAD SWAP1 PUSH0 SWAP1 PUSH1 0x1 SWAP2 PUSH1 0x1 SLOAD SWAP3 DUP4 PUSH1 0x1 SHR SWAP1 PUSH1 0x1 DUP6 AND SWAP5 DUP6 ISZERO PUSH2 0x3AA JUMPI JUMPDEST PUSH1 0x20 SWAP6 DUP7 DUP5 LT DUP2 EQ PUSH2 0x397 JUMPI DUP4 DUP9 MSTORE DUP8 SWAP5 SWAP4 SWAP3 SWAP2 DUP8 SWAP1 DUP3 ISZERO PUSH2 0x375 JUMPI POP POP PUSH1 0x1 EQ PUSH2 0x31A JUMPI JUMPDEST POP POP PUSH2 0x164 SWAP3 SWAP2 PUSH2 0x30B SWAP2 SUB DUP6 PUSH2 0x827 JUMP JUMPDEST MLOAD SWAP3 DUP3 DUP5 SWAP4 DUP5 MSTORE DUP4 ADD SWAP1 PUSH2 0x758 JUMP JUMPDEST SWAP1 DUP6 SWAP3 POP PUSH1 0x1 PUSH0 MSTORE PUSH32 0xB10E2D527612073B26EECDFD717E6A320CF44B4AFAC2B0732D9FCBE2B7FA0CF6 SWAP2 PUSH0 SWAP3 JUMPDEST DUP3 DUP5 LT PUSH2 0x35D JUMPI POP POP POP DUP3 ADD ADD DUP2 PUSH2 0x30B PUSH2 0x2F9 JUMP JUMPDEST DUP1 SLOAD DUP5 DUP11 ADD DUP7 ADD MSTORE DUP9 SWAP6 POP DUP8 SWAP5 SWAP1 SWAP4 ADD SWAP3 DUP2 ADD PUSH2 0x347 JUMP JUMPDEST PUSH1 0xFF NOT AND DUP7 DUP3 ADD MSTORE SWAP3 ISZERO ISZERO PUSH1 0x5 SHL DUP6 ADD SWAP1 SWAP3 ADD SWAP3 POP DUP4 SWAP2 POP PUSH2 0x30B SWAP1 POP PUSH2 0x2F9 JUMP JUMPDEST PUSH1 0x22 DUP10 PUSH4 0x4E487B71 PUSH1 0xE0 SHL PUSH0 MSTORE MSTORE PUSH1 0x24 PUSH0 REVERT JUMPDEST SWAP2 PUSH1 0x7F AND SWAP2 PUSH2 0x2D3 JUMP JUMPDEST DUP3 CALLVALUE PUSH2 0x112 JUMPI PUSH1 0x20 CALLDATASIZE PUSH1 0x3 NOT ADD SLT PUSH2 0x112 JUMPI PUSH1 0x1 PUSH1 0x1 PUSH1 0xA0 SHL SUB PUSH2 0x3D6 PUSH2 0x796 JUMP JUMPDEST AND DUP1 ISZERO PUSH2 0x3F2 JUMPI PUSH1 0x20 SWAP3 POP PUSH0 MSTORE PUSH1 0x3 DUP3 MSTORE DUP1 PUSH0 KECCAK256 SLOAD SWAP1 MLOAD SWAP1 DUP2 MSTORE RETURN JUMPDEST DUP2 MLOAD PUSH4 0x22718AD9 PUSH1 0xE2 SHL DUP2 MSTORE PUSH0 DUP2 DUP6 ADD MSTORE PUSH1 0x24 SWAP1 REVERT JUMPDEST DUP3 CALLVALUE PUSH2 0x112 JUMPI PUSH1 0x20 CALLDATASIZE PUSH1 0x3 NOT ADD SLT PUSH2 0x112 JUMPI PUSH2 0x426 PUSH1 0x20 SWAP3 CALLDATALOAD PUSH2 0xB49 JUMP JUMPDEST SWAP1 MLOAD PUSH1 0x1 PUSH1 0x1 PUSH1 0xA0 SHL SUB SWAP1 SWAP2 AND DUP2 MSTORE RETURN JUMPDEST DUP3 CALLVALUE PUSH2 0x112 JUMPI CALLDATASIZE PUSH1 0x3 NOT ADD SLT PUSH2 0x112 JUMPI PUSH2 0x44F PUSH2 0x796 JUMP JUMPDEST SWAP1 PUSH1 0x24 DUP1 CALLDATALOAD SWAP3 PUSH8 0xFFFFFFFFFFFFFFFF SWAP3 DUP4 DUP6 GT PUSH2 0x112 JUMPI CALLDATASIZE PUSH1 0x23 DUP7 ADD SLT ISZERO PUSH2 0x112 JUMPI DUP5 ADD CALLDATALOAD SWAP3 DUP4 GT PUSH2 0x112 JUMPI PUSH1 0x5 SWAP2 CALLDATASIZE PUSH1 0x24 DUP6 PUSH1 0x5 SHL DUP8 ADD ADD GT PUSH2 0x112 JUMPI PUSH0 JUMPDEST DUP5 DUP2 LT PUSH2 0x498 JUMPI STOP JUMPDEST DUP1 PUSH2 0x4AC DUP4 PUSH1 0x1 SWAP4 DUP8 SHL DUP10 ADD ADD CALLDATALOAD DUP6 PUSH2 0xB83 JUMP JUMPDEST ADD PUSH2 0x48F JUMP JUMPDEST DUP3 CALLVALUE PUSH2 0x112 JUMPI PUSH2 0x1EC SWAP1 PUSH2 0x4C5 CALLDATASIZE PUSH2 0x7C2 JUMP JUMPDEST SWAP2 SWAP3 MLOAD SWAP3 PUSH2 0x4D2 DUP5 PUSH2 0x7F7 JUMP JUMPDEST PUSH0 DUP5 MSTORE PUSH2 0x9FB JUMP JUMPDEST DUP3 CALLVALUE PUSH2 0x112 JUMPI CALLDATASIZE PUSH1 0x3 NOT ADD SLT PUSH2 0x112 JUMPI PUSH2 0x1EC PUSH2 0x4F5 PUSH2 0x796 JUMP JUMPDEST PUSH1 0x24 CALLDATALOAD SWAP1 PUSH2 0xB83 JUMP JUMPDEST CALLVALUE PUSH2 0x112 JUMPI PUSH2 0x1EC PUSH2 0x50F CALLDATASIZE PUSH2 0x7C2 JUMP JUMPDEST SWAP2 PUSH2 0x865 JUMP JUMPDEST DUP3 CALLVALUE PUSH2 0x112 JUMPI DUP1 PUSH1 0x3 NOT CALLDATASIZE ADD SLT PUSH2 0x112 JUMPI PUSH2 0x52E PUSH2 0x796 JUMP JUMPDEST SWAP2 PUSH1 0x24 CALLDATALOAD PUSH2 0x53B DUP2 PUSH2 0xB49 JUMP JUMPDEST CALLER ISZERO ISZERO DUP1 PUSH2 0x5DD JUMPI JUMPDEST DUP1 PUSH2 0x5B6 JUMPI JUMPDEST PUSH2 0x5A0 JUMPI PUSH1 0x1 PUSH1 0x1 PUSH1 0xA0 SHL SUB SWAP5 DUP6 AND SWAP5 DUP3 SWAP2 DUP7 SWAP2 AND PUSH32 0x8C5BE1E5EBEC7D5BD14F71427D1E84F3DD0314C0F7B2291E5B200AC8C7C3B925 PUSH0 DUP1 LOG4 PUSH0 MSTORE PUSH1 0x20 MSTORE PUSH0 KECCAK256 SWAP1 PUSH1 0x1 PUSH1 0x1 PUSH1 0x60 SHL SUB PUSH1 0xA0 SHL DUP3 SLOAD AND OR SWAP1 SSTORE PUSH0 DUP1 RETURN JUMPDEST DUP4 MLOAD PUSH4 0xA9FBF51F PUSH1 0xE0 SHL DUP2 MSTORE CALLER DUP2 DUP6 ADD MSTORE PUSH1 0x24 SWAP1 REVERT JUMPDEST POP PUSH1 0x1 DUP1 PUSH1 0xA0 SHL SUB DUP2 AND PUSH0 MSTORE PUSH1 0x5 PUSH1 0x20 MSTORE DUP4 PUSH0 KECCAK256 CALLER PUSH0 MSTORE PUSH1 0x20 MSTORE PUSH1 0xFF DUP5 PUSH0 KECCAK256 SLOAD AND ISZERO PUSH2 0x54A JUMP JUMPDEST POP PUSH1 0x1 PUSH1 0x1 PUSH1 0xA0 SHL SUB DUP2 AND CALLER EQ ISZERO PUSH2 0x544 JUMP JUMPDEST DUP3 CALLVALUE PUSH2 0x112 JUMPI PUSH1 0x20 CALLDATASIZE PUSH1 0x3 NOT ADD SLT PUSH2 0x112 JUMPI DUP2 PUSH1 0x20 SWAP3 CALLDATALOAD PUSH2 0x610 DUP2 PUSH2 0xB49 JUMP JUMPDEST POP PUSH0 MSTORE DUP3 MSTORE PUSH1 0x1 DUP1 PUSH1 0xA0 SHL SUB DUP2 PUSH0 KECCAK256 SLOAD AND SWAP1 MLOAD SWAP1 DUP2 MSTORE RETURN JUMPDEST DUP3 CALLVALUE PUSH2 0x112 JUMPI PUSH0 CALLDATASIZE PUSH1 0x3 NOT ADD SLT PUSH2 0x112 JUMPI DUP1 MLOAD SWAP1 PUSH0 SWAP1 PUSH0 SLOAD SWAP2 PUSH1 0x1 DUP4 PUSH1 0x1 SHR SWAP1 PUSH1 0x1 DUP6 AND SWAP5 DUP6 ISZERO PUSH2 0x6E4 JUMPI JUMPDEST PUSH1 0x20 SWAP6 DUP7 DUP5 LT DUP2 EQ PUSH2 0x397 JUMPI DUP4 DUP9 MSTORE DUP8 SWAP5 SWAP4 SWAP3 SWAP2 DUP8 SWAP1 DUP3 ISZERO PUSH2 0x375 JUMPI POP POP PUSH1 0x1 EQ PUSH2 0x68B JUMPI POP POP PUSH2 0x164 SWAP3 SWAP2 PUSH2 0x30B SWAP2 SUB DUP6 PUSH2 0x827 JUMP JUMPDEST PUSH0 DUP1 DUP1 MSTORE DUP7 SWAP4 POP SWAP2 SWAP1 PUSH32 0x290DECD9548B62A8D60345A988386FC84BA6BC95484008F6362F93160EF3E563 JUMPDEST DUP3 DUP5 LT PUSH2 0x6CC JUMPI POP POP POP DUP3 ADD ADD DUP2 PUSH2 0x30B PUSH2 0x2F9 JUMP JUMPDEST DUP1 SLOAD DUP5 DUP11 ADD DUP7 ADD MSTORE DUP9 SWAP6 POP DUP8 SWAP5 SWAP1 SWAP4 ADD SWAP3 DUP2 ADD PUSH2 0x6B6 JUMP JUMPDEST SWAP2 PUSH1 0x7F AND SWAP2 PUSH2 0x654 JUMP JUMPDEST SWAP1 CALLVALUE PUSH2 0x112 JUMPI PUSH1 0x20 CALLDATASIZE PUSH1 0x3 NOT ADD SLT PUSH2 0x112 JUMPI CALLDATALOAD SWAP1 PUSH4 0xFFFFFFFF PUSH1 0xE0 SHL DUP3 AND DUP1 SWAP3 SUB PUSH2 0x112 JUMPI PUSH1 0x20 SWAP2 PUSH4 0x80AC58CD PUSH1 0xE0 SHL DUP2 EQ SWAP1 DUP2 ISZERO PUSH2 0x747 JUMPI JUMPDEST DUP2 ISZERO PUSH2 0x736 JUMPI JUMPDEST POP ISZERO ISZERO DUP2 MSTORE RETURN JUMPDEST PUSH4 0x1FFC9A7 PUSH1 0xE0 SHL EQ SWAP1 POP DUP4 PUSH2 0x72F JUMP JUMPDEST PUSH4 0x5B5E139F PUSH1 0xE0 SHL DUP2 EQ SWAP2 POP PUSH2 0x728 JUMP JUMPDEST SWAP2 SWAP1 DUP3 MLOAD SWAP3 DUP4 DUP3 MSTORE PUSH0 JUMPDEST DUP5 DUP2 LT PUSH2 0x782 JUMPI POP POP DUP3 PUSH0 PUSH1 0x20 DUP1 SWAP5 SWAP6 DUP5 ADD ADD MSTORE PUSH1 0x1F DUP1 NOT SWAP2 ADD AND ADD ADD SWAP1 JUMP JUMPDEST PUSH1 0x20 DUP2 DUP4 ADD DUP2 ADD MLOAD DUP5 DUP4 ADD DUP3 ADD MSTORE ADD PUSH2 0x762 JUMP JUMPDEST PUSH1 0x4 CALLDATALOAD SWAP1 PUSH1 0x1 PUSH1 0x1 PUSH1 0xA0 SHL SUB DUP3 AND DUP3 SUB PUSH2 0x112 JUMPI JUMP JUMPDEST PUSH1 0x24 CALLDATALOAD SWAP1 PUSH1 0x1 PUSH1 0x1 PUSH1 0xA0 SHL SUB DUP3 AND DUP3 SUB PUSH2 0x112 JUMPI JUMP JUMPDEST PUSH1 0x60 SWAP1 PUSH1 0x3 NOT ADD SLT PUSH2 0x112 JUMPI PUSH1 0x1 PUSH1 0x1 PUSH1 0xA0 SHL SUB SWAP1 PUSH1 0x4 CALLDATALOAD DUP3 DUP2 AND DUP2 SUB PUSH2 0x112 JUMPI SWAP2 PUSH1 0x24 CALLDATALOAD SWAP1 DUP2 AND DUP2 SUB PUSH2 0x112 JUMPI SWAP1 PUSH1 0x44 CALLDATALOAD SWAP1 JUMP JUMPDEST PUSH1 0x20 DUP2 ADD SWAP1 DUP2 LT PUSH8 0xFFFFFFFFFFFFFFFF DUP3 GT OR PUSH2 0x813 JUMPI PUSH1 0x40 MSTORE JUMP JUMPDEST PUSH4 0x4E487B71 PUSH1 0xE0 SHL PUSH0 MSTORE PUSH1 0x41 PUSH1 0x4 MSTORE PUSH1 0x24 PUSH0 REVERT JUMPDEST SWAP1 PUSH1 0x1F DUP1 NOT SWAP2 ADD AND DUP2 ADD SWAP1 DUP2 LT PUSH8 0xFFFFFFFFFFFFFFFF DUP3 GT OR PUSH2 0x813 JUMPI PUSH1 0x40 MSTORE JUMP JUMPDEST PUSH8 0xFFFFFFFFFFFFFFFF DUP2 GT PUSH2 0x813 JUMPI PUSH1 0x1F ADD PUSH1 0x1F NOT AND PUSH1 0x20 ADD SWAP1 JUMP JUMPDEST PUSH1 0x1 PUSH1 0x1 PUSH1 0xA0 SHL SUB SWAP2 DUP3 AND SWAP3 SWAP1 SWAP2 DUP4 ISZERO PUSH2 0x9E3 JUMPI DUP2 PUSH0 MSTORE PUSH1 0x20 SWAP3 PUSH1 0x2 DUP5 MSTORE DUP3 PUSH1 0x40 SWAP6 DUP4 DUP8 PUSH0 KECCAK256 SLOAD AND SWAP6 CALLER ISZERO ISZERO DUP1 PUSH2 0x951 JUMPI JUMPDEST POP PUSH1 0x2 SWAP1 DUP8 PUSH2 0x920 JUMPI JUMPDEST DUP3 PUSH0 MSTORE PUSH1 0x3 DUP2 MSTORE DUP9 PUSH0 KECCAK256 PUSH1 0x1 DUP2 SLOAD ADD SWAP1 SSTORE DUP4 PUSH0 MSTORE MSTORE DUP7 PUSH0 KECCAK256 DUP2 PUSH1 0x1 PUSH1 0x1 PUSH1 0x60 SHL SUB PUSH1 0xA0 SHL DUP3 SLOAD AND OR SWAP1 SSTORE DUP6 PUSH32 0xDDF252AD1BE2C89B69C2B068FC378DAA952BA7F163C4A11628F55A4DF523B3EF PUSH0 DUP1 LOG4 AND SWAP3 DUP4 DUP4 SUB PUSH2 0x8FF JUMPI POP POP POP POP JUMP JUMPDEST PUSH1 0x64 SWAP5 POP MLOAD SWAP3 PUSH4 0x64283D7B PUSH1 0xE0 SHL DUP5 MSTORE PUSH1 0x4 DUP5 ADD MSTORE PUSH1 0x24 DUP4 ADD MSTORE PUSH1 0x44 DUP3 ADD MSTORE REVERT JUMPDEST PUSH0 DUP5 DUP2 MSTORE PUSH1 0x4 PUSH1 0x20 MSTORE PUSH1 0x40 DUP2 KECCAK256 DUP1 SLOAD PUSH1 0x1 PUSH1 0x1 PUSH1 0xA0 SHL SUB NOT AND SWAP1 SSTORE DUP9 DUP2 MSTORE PUSH1 0x3 DUP3 MSTORE DUP10 SWAP1 KECCAK256 DUP1 SLOAD PUSH0 NOT ADD SWAP1 SSTORE PUSH2 0x8A1 JUMP JUMPDEST SWAP2 SWAP3 POP SWAP1 DUP1 PUSH2 0x9A2 JUMPI JUMPDEST ISZERO PUSH2 0x969 JUMPI SWAP1 DUP5 SWAP2 PUSH0 PUSH2 0x897 JUMP JUMPDEST DUP7 DUP6 DUP8 PUSH2 0x986 JUMPI PUSH1 0x24 SWAP2 MLOAD SWAP1 PUSH4 0x7E273289 PUSH1 0xE0 SHL DUP3 MSTORE PUSH1 0x4 DUP3 ADD MSTORE REVERT JUMPDEST PUSH1 0x44 SWAP2 MLOAD SWAP1 PUSH4 0x177E802F PUSH1 0xE0 SHL DUP3 MSTORE CALLER PUSH1 0x4 DUP4 ADD MSTORE PUSH1 0x24 DUP3 ADD MSTORE REVERT JUMPDEST POP CALLER DUP7 EQ DUP1 ISZERO PUSH2 0x9C7 JUMPI JUMPDEST DUP1 PUSH2 0x95B JUMPI POP DUP5 PUSH0 MSTORE PUSH1 0x4 DUP2 MSTORE CALLER DUP5 DUP9 PUSH0 KECCAK256 SLOAD AND EQ PUSH2 0x95B JUMP JUMPDEST POP DUP6 PUSH0 MSTORE PUSH1 0x5 DUP2 MSTORE DUP7 PUSH0 KECCAK256 CALLER PUSH0 MSTORE DUP2 MSTORE PUSH1 0xFF DUP8 PUSH0 KECCAK256 SLOAD AND PUSH2 0x9AD JUMP JUMPDEST PUSH1 0x40 MLOAD PUSH4 0x32505749 PUSH1 0xE1 SHL DUP2 MSTORE PUSH0 PUSH1 0x4 DUP3 ADD MSTORE PUSH1 0x24 SWAP1 REVERT JUMPDEST SWAP2 SWAP3 PUSH2 0xA08 DUP5 DUP4 DUP6 PUSH2 0x865 JUMP JUMPDEST DUP2 EXTCODESIZE PUSH2 0xA15 JUMPI JUMPDEST POP POP POP POP JUMP JUMPDEST PUSH1 0x40 MLOAD PUSH4 0xA85BD01 PUSH1 0xE1 SHL DUP1 DUP3 MSTORE CALLER PUSH1 0x4 DUP4 ADD MSTORE PUSH1 0x1 PUSH1 0x1 PUSH1 0xA0 SHL SUB SWAP5 DUP6 AND PUSH1 0x24 DUP4 ADD MSTORE PUSH1 0x44 DUP3 ADD SWAP6 SWAP1 SWAP6 MSTORE PUSH1 0x80 PUSH1 0x64 DUP3 ADD MSTORE PUSH1 0x20 SWAP6 SWAP4 SWAP1 SWAP3 AND SWAP4 SWAP2 SWAP1 DUP6 SWAP1 DUP3 SWAP1 DUP2 SWAP1 PUSH2 0xA66 SWAP1 PUSH1 0x84 DUP4 ADD SWAP1 PUSH2 0x758 JUMP JUMPDEST SUB DUP2 PUSH0 DUP9 GAS CALL PUSH0 SWAP2 DUP2 PUSH2 0xB09 JUMPI JUMPDEST POP PUSH2 0xAD3 JUMPI POP POP POP RETURNDATASIZE PUSH0 EQ PUSH2 0xACB JUMPI RETURNDATASIZE SWAP2 PUSH2 0xA8E DUP4 PUSH2 0x849 JUMP JUMPDEST SWAP3 PUSH2 0xA9C PUSH1 0x40 MLOAD SWAP5 DUP6 PUSH2 0x827 JUMP JUMPDEST DUP4 MSTORE RETURNDATASIZE PUSH0 DUP3 DUP6 ADD RETURNDATACOPY JUMPDEST DUP3 MLOAD SWAP3 DUP4 PUSH2 0xAC6 JUMPI PUSH1 0x40 MLOAD PUSH4 0x32505749 PUSH1 0xE1 SHL DUP2 MSTORE PUSH1 0x4 DUP2 ADD DUP5 SWAP1 MSTORE PUSH1 0x24 SWAP1 REVERT JUMPDEST ADD SWAP1 POP REVERT JUMPDEST PUSH1 0x60 SWAP2 PUSH2 0xAA5 JUMP JUMPDEST SWAP2 SWAP4 POP PUSH1 0x1 PUSH1 0x1 PUSH1 0xE0 SHL SUB NOT SWAP1 SWAP2 AND SUB PUSH2 0xAF1 JUMPI POP PUSH0 DUP1 DUP1 DUP1 PUSH2 0xA0F JUMP JUMPDEST PUSH1 0x24 SWAP1 PUSH1 0x40 MLOAD SWAP1 PUSH4 0x32505749 PUSH1 0xE1 SHL DUP3 MSTORE PUSH1 0x4 DUP3 ADD MSTORE REVERT JUMPDEST SWAP1 SWAP2 POP DUP6 DUP2 DUP2 RETURNDATASIZE DUP4 GT PUSH2 0xB42 JUMPI JUMPDEST PUSH2 0xB21 DUP2 DUP4 PUSH2 0x827 JUMP JUMPDEST DUP2 ADD SUB SLT PUSH2 0x112 JUMPI MLOAD PUSH1 0x1 PUSH1 0x1 PUSH1 0xE0 SHL SUB NOT DUP2 AND DUP2 SUB PUSH2 0x112 JUMPI SWAP1 PUSH0 PUSH2 0xA74 JUMP JUMPDEST POP RETURNDATASIZE PUSH2 0xB17 JUMP JUMPDEST PUSH0 DUP2 DUP2 MSTORE PUSH1 0x2 PUSH1 0x20 MSTORE PUSH1 0x40 SWAP1 KECCAK256 SLOAD PUSH1 0x1 PUSH1 0x1 PUSH1 0xA0 SHL SUB AND SWAP1 DUP2 ISZERO PUSH2 0xB6B JUMPI POP SWAP1 JUMP JUMPDEST PUSH1 0x24 SWAP1 PUSH1 0x40 MLOAD SWAP1 PUSH4 0x7E273289 PUSH1 0xE0 SHL DUP3 MSTORE PUSH1 0x4 DUP3 ADD MSTORE REVERT JUMPDEST PUSH1 0x1 PUSH1 0x1 PUSH1 0xA0 SHL SUB SWAP1 DUP2 AND SWAP2 SWAP1 DUP3 ISZERO PUSH2 0x9E3 JUMPI DUP2 PUSH0 MSTORE PUSH1 0x2 PUSH1 0x20 MSTORE PUSH1 0x40 PUSH0 KECCAK256 SLOAD AND SWAP2 DUP3 ISZERO ISZERO SWAP3 DUP4 PUSH2 0xC22 JUMPI JUMPDEST DUP2 PUSH0 MSTORE PUSH1 0x3 PUSH1 0x20 MSTORE PUSH1 0x40 PUSH0 KECCAK256 PUSH1 0x1 DUP2 SLOAD ADD SWAP1 SSTORE DUP3 PUSH0 MSTORE PUSH1 0x2 PUSH1 0x20 MSTORE PUSH1 0x40 PUSH0 KECCAK256 DUP3 PUSH1 0x1 PUSH1 0x1 PUSH1 0x60 SHL SUB PUSH1 0xA0 SHL DUP3 SLOAD AND OR SWAP1 SSTORE PUSH32 0xDDF252AD1BE2C89B69C2B068FC378DAA952BA7F163C4A11628F55A4DF523B3EF PUSH0 DUP1 LOG4 PUSH2 0xC0A JUMPI JUMP JUMPDEST PUSH1 0x40 MLOAD PUSH4 0x39E35637 PUSH1 0xE1 SHL DUP2 MSTORE PUSH0 PUSH1 0x4 DUP3 ADD MSTORE PUSH1 0x24 SWAP1 REVERT JUMPDEST PUSH0 DUP4 DUP2 MSTORE PUSH1 0x4 PUSH1 0x20 MSTORE PUSH1 0x40 SWAP1 KECCAK256 DUP1 SLOAD PUSH1 0x1 PUSH1 0x1 PUSH1 0xA0 SHL SUB NOT AND SWAP1 SSTORE DUP1 PUSH0 MSTORE PUSH1 0x3 PUSH1 0x20 MSTORE PUSH1 0x40 PUSH0 KECCAK256 PUSH0 NOT DUP2 SLOAD ADD SWAP1 SSTORE PUSH2 0xBAF JUMP INVALID LOG2 PUSH5 0x6970667358 0x22 SLT KECCAK256 0xD8 SELFBALANCE PUSH14 0xE4472DF863728F874FC69793EE30 0xE2 0xF6 0x2E PUSH21 0x8ACD8022EB09FDE22E31D664736F6C634300081800 CALLER "},"methodIdentifiers":{"approve(address,uint256)":"095ea7b3","balanceOf(address)":"70a08231","batchMint(address,uint256[])":"4684d7e9","getApproved(uint256)":"081812fc","isApprovedForAll(address,address)":"e985e9c5","mint(address,uint256)":"40c10f19","name()":"06fdde03","ownerOf(uint256)":"6352211e","safeTransferFrom(address,address,uint256)":"42842e0e","safeTransferFrom(address,address,uint256,bytes)":"b88d4fde","setApprovalForAll(address,bool)":"a22cb465","supportsInterface(bytes4)":"01ffc9a7","symbol()":"95d89b41","tokenURI(uint256)":"c87b56dd","transferFrom(address,address,uint256)":"23b872dd"}}}}}