{"contracts/BindrGacha.sol":{"BindrGacha":{"abi":[{"inputs":[{"internalType":"address","name":"nft","type":"address"},{"internalType":"address","name":"vault","type":"address"},{"internalType":"address","name":"initialBackend","type":"address"}],"stateMutability":"nonpayable","type":"constructor"},{"inputs":[],"name":"AlreadyClaimed","type":"error"},{"inputs":[],"name":"CardAlreadyRegistered","type":"error"},{"inputs":[],"name":"CardNotFound","type":"error"},{"inputs":[],"name":"EnforcedPause","type":"error"},{"inputs":[],"name":"ExpectedPause","type":"error"},{"inputs":[],"name":"InvalidBucket","type":"error"},{"inputs":[],"name":"InvalidPackTier","type":"error"},{"inputs":[],"name":"LengthMismatch","type":"error"},{"inputs":[],"name":"NotBackend","type":"error"},{"inputs":[{"internalType":"address","name":"owner","type":"address"}],"name":"OwnableInvalidOwner","type":"error"},{"inputs":[{"internalType":"address","name":"account","type":"address"}],"name":"OwnableUnauthorizedAccount","type":"error"},{"inputs":[],"name":"PoolEmpty","type":"error"},{"inputs":[],"name":"WeightsDoNotSumTo10000","type":"error"},{"inputs":[],"name":"ZeroAddress","type":"error"},{"anonymous":false,"inputs":[{"indexed":true,"internalType":"address","name":"previous","type":"address"},{"indexed":true,"internalType":"address","name":"current","type":"address"}],"name":"BackendSignerChanged","type":"event"},{"anonymous":false,"inputs":[{"indexed":true,"internalType":"uint8","name":"packTier","type":"uint8"},{"indexed":true,"internalType":"uint256","name":"tokenId","type":"uint256"},{"indexed":false,"internalType":"uint8","name":"bucket","type":"uint8"}],"name":"CardAdded","type":"event"},{"anonymous":false,"inputs":[{"indexed":true,"internalType":"uint8","name":"packTier","type":"uint8"},{"indexed":true,"internalType":"uint256","name":"tokenId","type":"uint256"}],"name":"CardRemoved","type":"event"},{"anonymous":false,"inputs":[{"indexed":true,"internalType":"address","name":"user","type":"address"},{"indexed":true,"internalType":"uint8","name":"packTier","type":"uint8"},{"indexed":true,"internalType":"uint256","name":"tokenId","type":"uint256"},{"indexed":false,"internalType":"uint8","name":"bucket","type":"uint8"},{"indexed":false,"internalType":"bytes32","name":"solanaHash","type":"bytes32"}],"name":"Giveaway","type":"event"},{"anonymous":false,"inputs":[{"indexed":true,"internalType":"address","name":"previousOwner","type":"address"},{"indexed":true,"internalType":"address","name":"newOwner","type":"address"}],"name":"OwnershipTransferred","type":"event"},{"anonymous":false,"inputs":[{"indexed":false,"internalType":"address","name":"account","type":"address"}],"name":"Paused","type":"event"},{"anonymous":false,"inputs":[{"indexed":true,"internalType":"address","name":"user","type":"address"},{"indexed":true,"internalType":"uint8","name":"packTier","type":"uint8"},{"indexed":true,"internalType":"uint256","name":"tokenId","type":"uint256"},{"indexed":false,"internalType":"uint8","name":"bucket","type":"uint8"},{"indexed":false,"internalType":"bytes32","name":"burnProof","type":"bytes32"}],"name":"Pulled","type":"event"},{"anonymous":false,"inputs":[{"indexed":false,"internalType":"address","name":"account","type":"address"}],"name":"Unpaused","type":"event"},{"anonymous":false,"inputs":[{"indexed":true,"internalType":"uint8","name":"packTier","type":"uint8"},{"indexed":false,"internalType":"uint16[6]","name":"weights","type":"uint16[6]"}],"name":"WeightsUpdated","type":"event"},{"inputs":[],"name":"NFT","outputs":[{"internalType":"contract IERC721","name":"","type":"address"}],"stateMutability":"view","type":"function"},{"inputs":[],"name":"NUM_BUCKETS","outputs":[{"internalType":"uint8","name":"","type":"uint8"}],"stateMutability":"view","type":"function"},{"inputs":[],"name":"NUM_PACK_TIERS","outputs":[{"internalType":"uint8","name":"","type":"uint8"}],"stateMutability":"view","type":"function"},{"inputs":[],"name":"VAULT","outputs":[{"internalType":"address","name":"","type":"address"}],"stateMutability":"view","type":"function"},{"inputs":[],"name":"WEIGHT_TOTAL_BPS","outputs":[{"internalType":"uint16","name":"","type":"uint16"}],"stateMutability":"view","type":"function"},{"inputs":[{"internalType":"uint8","name":"packTier","type":"uint8"},{"internalType":"uint256[]","name":"tokenIds","type":"uint256[]"},{"internalType":"uint8[]","name":"buckets","type":"uint8[]"}],"name":"addCards","outputs":[],"stateMutability":"nonpayable","type":"function"},{"inputs":[{"internalType":"uint8","name":"packTier","type":"uint8"},{"internalType":"uint8","name":"bucket","type":"uint8"}],"name":"availableInBucket","outputs":[{"internalType":"uint256","name":"","type":"uint256"}],"stateMutability":"view","type":"function"},{"inputs":[{"internalType":"uint8","name":"packTier","type":"uint8"}],"name":"availableInPack","outputs":[{"internalType":"uint256","name":"total","type":"uint256"}],"stateMutability":"view","type":"function"},{"inputs":[],"name":"backendSigner","outputs":[{"internalType":"address","name":"","type":"address"}],"stateMutability":"view","type":"function"},{"inputs":[{"internalType":"uint8","name":"","type":"uint8"},{"internalType":"uint256","name":"","type":"uint256"}],"name":"cards","outputs":[{"internalType":"uint8","name":"bucket","type":"uint8"},{"internalType":"bool","name":"available","type":"bool"}],"stateMutability":"view","type":"function"},{"inputs":[{"internalType":"uint8","name":"packTier","type":"uint8"}],"name":"getBucketWeights","outputs":[{"internalType":"uint16[6]","name":"","type":"uint16[6]"}],"stateMutability":"view","type":"function"},{"inputs":[{"internalType":"address","name":"user","type":"address"},{"internalType":"bytes32","name":"solanaHash","type":"bytes32"},{"internalType":"uint8","name":"packTier","type":"uint8"}],"name":"giveaway","outputs":[{"internalType":"uint256","name":"tokenId","type":"uint256"},{"internalType":"uint8","name":"bucket","type":"uint8"}],"stateMutability":"nonpayable","type":"function"},{"inputs":[],"name":"owner","outputs":[{"internalType":"address","name":"","type":"address"}],"stateMutability":"view","type":"function"},{"inputs":[],"name":"paused","outputs":[{"internalType":"bool","name":"","type":"bool"}],"stateMutability":"view","type":"function"},{"inputs":[{"internalType":"address","name":"","type":"address"}],"name":"polygonGiveawayUsed","outputs":[{"internalType":"bool","name":"","type":"bool"}],"stateMutability":"view","type":"function"},{"inputs":[{"internalType":"address","name":"user","type":"address"},{"internalType":"uint8","name":"packTier","type":"uint8"},{"internalType":"bytes32","name":"burnProof","type":"bytes32"}],"name":"pull","outputs":[{"internalType":"uint256","name":"tokenId","type":"uint256"},{"internalType":"uint8","name":"bucket","type":"uint8"}],"stateMutability":"nonpayable","type":"function"},{"inputs":[{"internalType":"uint8","name":"packTier","type":"uint8"},{"internalType":"uint256","name":"tokenId","type":"uint256"}],"name":"removeCard","outputs":[],"stateMutability":"nonpayable","type":"function"},{"inputs":[],"name":"renounceOwnership","outputs":[],"stateMutability":"nonpayable","type":"function"},{"inputs":[{"internalType":"address","name":"newSigner","type":"address"}],"name":"setBackendSigner","outputs":[],"stateMutability":"nonpayable","type":"function"},{"inputs":[{"internalType":"uint8","name":"packTier","type":"uint8"},{"internalType":"uint16[6]","name":"weights","type":"uint16[6]"}],"name":"setBucketWeights","outputs":[],"stateMutability":"nonpayable","type":"function"},{"inputs":[{"internalType":"bool","name":"paused_","type":"bool"}],"name":"setPaused","outputs":[],"stateMutability":"nonpayable","type":"function"},{"inputs":[{"internalType":"bytes32","name":"","type":"bytes32"}],"name":"solanaGiveawayUsed","outputs":[{"internalType":"bool","name":"","type":"bool"}],"stateMutability":"view","type":"function"},{"inputs":[{"internalType":"address","name":"newOwner","type":"address"}],"name":"transferOwnership","outputs":[],"stateMutability":"nonpayable","type":"function"}],"evm":{"bytecode":{"linkReferences":{},"object":"60c03462000264576001600160401b0390601f6200151138819003918201601f1916830192919084841183851017620002145781606092849260409687528339810103126200026457620000538162000268565b9260209162000072846200006a6020840162000268565b920162000268565b33156200024d575f549160018060a01b03928360018060a01b031998338a8416175f55885192823391167f8be0079c531659141344cd1fd0a4f28419497f9722a3daafe3b4186f6b6457e05f80a316908115801562000242575b801562000237575b62000228575060805260a05216938460019182541617815583519160c0830190838210908211176200021457845260c036833761271082525f80526006906006602052845f2083905f915f5b87868210620001df5750505055805f52845f2092915f945f5b828110620001a95750505050505551905f7f60c5293782c70b9080e83e261790b280285209d93c36a68814b4c9a150f047de8180a361129390816200027e82396080518181816102e60152818161062901526107e4015260a0518181816104d20152818161066701526108220152f35b90919282620001d2869861ffff849851169085851b60031b9161ffff809116831b921b19161790565b9701949392910162000139565b62000207839561ffff889998949551169085851b60031b9161ffff809116831b921b19161790565b9401910194939462000120565b634e487b7160e01b5f52604160045260245ffd5b63d92e233d60e01b8152600490fd5b5084841615620000d4565b5084831615620000cc565b8451631e4fbdf760e01b81525f6004820152602490fd5b5f80fd5b51906001600160a01b0382168203620002645756fe6080806040526004361015610012575f80fd5b5f3560e01c9081630194f9a314610df457508063122e934e14610bc957806314ef0c2c14610a9057806316c38b3c146109c757806321ab305b146108ec57806326a9192b146107365780632c4507a4146105c4578063314252941461058757806336f9567014610501578063411557d1146104bd5780635c975abb1461049957806365d65e861461047157806368f1fb9314610456578063715018a6146103ff57806375506c47146103d057806379396b32146103155780637c0b8de2146102d15780638da5cb5b146102aa578063bcd82de91461025e578063c56ca84e14610243578063d7894b82146101c3578063f2fde38b146101395763f6c5996114610119575f80fd5b34610135575f3660031901126101355760206040516127108152f35b5f80fd5b3461013557602036600319011261013557610152610ec6565b61015a610f75565b6001600160a01b039081169081156101ab575f54826bffffffffffffffffffffffff60a01b8216175f55167f8be0079c531659141344cd1fd0a4f28419497f9722a3daafe3b4186f6b6457e05f80a3005b604051631e4fbdf760e01b81525f6004820152602490fd5b34610135576040366003190112610135576101dc610e75565b60ff6101e6610e85565b91169060028210156102315760ff1690600682101561021f575f52600460205260405f20905f52602052602060405f2054604051908152f35b60405163778aa76b60e01b8152600490fd5b60405163d694977f60e01b8152600490fd5b34610135575f36600319011261013557602060405160068152f35b346101355760403660031901126101355760ff610279610e75565b165f52600360205260405f206024355f526020526040805f205460ff825191818116835260081c1615156020820152f35b34610135575f366003190112610135575f546040516001600160a01b039091168152602090f35b34610135575f366003190112610135576040517f00000000000000000000000000000000000000000000000000000000000000006001600160a01b03168152602090f35b34610135576020806003193601126101355760ff610331610e75565b60c060405161033f81610f35565b369037166002811015610231575f52600680825260405f209160405192549261ffff84818096168352818160101c16848401528181851c166040840152818160301c166060840152818160401c16608084015260501c1660a08201526103a481610f35565b604051935f9190855b8584106103b95760c087f35b8480600192848651168152019301930192916103ad565b34610135576020366003190112610135576004355f526008602052602060ff60405f2054166040519015158152f35b34610135575f36600319011261013557610417610f75565b5f80546001600160a01b0319811682556001600160a01b03167f8be0079c531659141344cd1fd0a4f28419497f9722a3daafe3b4186f6b6457e08280a3005b34610135575f36600319011261013557602060405160028152f35b34610135575f366003190112610135576001546040516001600160a01b039091168152602090f35b34610135575f36600319011261013557602060ff5f5460a01c166040519015158152f35b34610135575f366003190112610135576040517f00000000000000000000000000000000000000000000000000000000000000006001600160a01b03168152602090f35b346101355760203660031901126101355761051a610ec6565b610522610f75565b6001600160a01b0390811690811561057557600154826bffffffffffffffffffffffff60a01b821617600155167f60c5293782c70b9080e83e261790b280285209d93c36a68814b4c9a150f047de5f80a3005b60405163d92e233d60e01b8152600490fd5b34610135576020366003190112610135576001600160a01b036105a8610ec6565b165f526007602052602060ff60405f2054166040519015158152f35b34610135576060366003190112610135576105dd610ec6565b6105e5610e85565b60015490916001600160a01b03918216330361072457610603610fa0565b60ff8316600281101561023157828216938415610575576106249083610fc0565b9490937f000000000000000000000000000000000000000000000000000000000000000016803b1561013557604051632142170760e11b81526001600160a01b037f0000000000000000000000000000000000000000000000000000000000000000811660048301529094166024850152604484018590525f9084908183816064810103925af192831561071957849361070a575b506040805160ff8716815260443560208201527f6ca982706910d730e2729a6c3ae2a0202b7787ff8465d0695e3893677fa8ac7f91819081015b0390a46040805191825260ff929092166020820152f35b61071390610f21565b856106b9565b6040513d5f823e3d90fd5b604051630a31c3dd60e41b8152600490fd5b346101355760603660031901126101355761074f610ec6565b60443560243560ff821680830361013557610768610f75565b610770610fa0565b6002811015610231576001600160a01b039284841690811561057557815f52600760205260ff60405f20541680156108d6575b6108c4576107df90825f52600760205260405f2060ff1990600182825416179055855f526008602052600160405f209182541617905586610fc0565b9590947f000000000000000000000000000000000000000000000000000000000000000016803b1561013557604051632142170760e11b81526001600160a01b037f0000000000000000000000000000000000000000000000000000000000000000811660048301529092166024830152604482018690525f9082908183816064810103925af180156107195785947ffa44e081ba05562bc113adb11188fa32fc0f8b00c7f449c826d9b4cc4d1e869a926106f3926108b5575b506040805160ff8a168152602081019290925290918291820190565b6108be90610f21565b88610899565b604051630c8d9eab60e31b8152600490fd5b50835f52600860205260ff60405f2054166107a3565b3461013557604036600319011261013557610905610e75565b60243590610911610f75565b60ff811690600282101561023157815f526020906003825260405f20845f52825260ff60405f205460081c16156109b55761097990835f526003835260405f20855f52835260ff60405f205416845f526005845260405f20865f52845260405f20549161112d565b815f526003815260405f2090835f52525f60408120557f028a4fc8b4696cbcc4f5a8f6a710136792e31ca8bdd587a3ca8e506955582a925f80a3005b604051630479201160e41b8152600490fd5b34610135576020366003190112610135576004358015158103610135576109ec610f75565b15610a39576109f9610fa0565b5f805460ff60a01b1916600160a01b1790556040513381527f62e78cea01bee320cd4e420270b5ea74000d11b0c9f74754ebdbfc544b05a25890602090a1005b5f5460ff8160a01c1615610a7e5760ff60a01b19165f556040513381527f5db9ee0a495bf2e6ff9c91a7834c1ba4fdd244a5e8aa4e537bd38aeae4b073aa90602090a1005b604051638dfc202b60e01b8152600490fd5b346101355760e036600319011261013557610aa9610e75565b3660e41161013557610ab9610f75565b60ff809116906002821015610231575f80915b600681841610610b9b57836127108303610b8957805f5260066020600660205260405f206024905f915f5b84868210610b5f5750505055604051916024915f845b838210610b3c57867fead69bde6b49ca7ed74a5fc780b639e2b515c739e118d2565f811f8f0a36dade60c088a2005b84359061ffff821680920361013557838160019382935201950191019093610b0d565b8294610b6d60019394610f66565b908460041b9161ffff809116831b921b19161794019101610af7565b604051632fb3cc0760e11b8152600490fd5b6001610bbf829361ffff610bb8611fe08860051b16602401610f66565b1690610edc565b9301169190610acc565b3461013557606036600319011261013557610be2610e75565b60243567ffffffffffffffff811161013557610c02903690600401610e95565b9060443567ffffffffffffffff811161013557610c23903690600401610e95565b929091610c2e610f75565b600260ff8616101561023157838203610ddf575f5b828110610c4c57005b610c57818484610efd565b3590610c64818787610efd565b359160ff8316830361013557600660ff8416101561021f5760ff88165f52600360205260405f20815f5260205260405f20549260ff600894851c16610dcd5760405180604081011067ffffffffffffffff604083011117610db9576040818101815260ff838116808452600160208086018281528f85165f818152600384528781208b8252845287812098518954935161ffff19909416971696909617911515909b1b61ff0016179095558883526004855283832082845280865284842080549a85526005875285852089865287529484208a90559190925290925290949068010000000000000000821015610db957610d69828592600198610d8195018155610f51565b90919082549060031b91821b915f19901b1916179055565b60ff604051911681527f6160b95463eef162e89880a58d5ff8c73f401ae0a3de33147826ad9b64b4d3d6602060ff8b1692a301610c43565b634e487b7160e01b5f52604160045260245ffd5b604051631b74344b60e01b8152600490fd5b6040516001621398b960e31b03198152600490fd5b34610135576020806003193601126101355760ff9060ff610e13610e75565b16926002841015610e6657505f92835b8385166006811015610e5b57610e528592600192855f526004875260405f20905f52865260405f205490610edc565b95011693610e23565b602082604051908152f35b63d694977f60e01b8152600490fd5b6004359060ff8216820361013557565b6024359060ff8216820361013557565b9181601f840112156101355782359167ffffffffffffffff8311610135576020808501948460051b01011161013557565b600435906001600160a01b038216820361013557565b91908201809211610ee957565b634e487b7160e01b5f52601160045260245ffd5b9190811015610f0d5760051b0190565b634e487b7160e01b5f52603260045260245ffd5b67ffffffffffffffff8111610db957604052565b60c0810190811067ffffffffffffffff821117610db957604052565b8054821015610f0d575f5260205f2001905f90565b3561ffff811681036101355790565b5f546001600160a01b03163303610f8857565b60405163118cdaa760e01b8152336004820152602490fd5b60ff5f5460a01c16610fae57565b60405163d93c066560e01b8152600490fd5b909160025491604090815160209182820190448252428584015260018060a01b0316606083015260ff90818816928360808201528760a082015260a0815261100781610f35565b519020600180970160025561101c88826111e1565b96805f915b6110a6575b5050825f5260048452845f2091871691825f528452845f2054908115611095579061107a929160801c0690835f5260048552855f20905f5284528661106d82875f20610f51565b90549060031b1c9861112d565b5f5260038152815f2090855f52525f2061ff00198154169055565b85516305ce024d60e51b8152600490fd5b9097845f52600490818752875f209085811691825f528852885f20541580611121575b156111195750820184811161110657600685809216069916908482146110f3575081019080611021565b601190634e487b7160e01b5f525260245ffd5b601182634e487b7160e01b5f525260245ffd5b995050611026565b506006868c16106110c9565b60ff909291921691825f52600460205260ff60405f2091165f5260205260405f20908154925f1993848101908111610ee9578083036111a3575b5050508054801561118f5782019161117f8383610f51565b909182549160031b1b1916905555565b634e487b7160e01b5f52603160045260245ffd5b6111ad9084610f51565b90549060031b1c906111c382610d698587610f51565b5f52600560205260405f20905f5260205260405f20555f8080611167565b60ff8092165f52600690600660205261271060405f209161ffff9182910616915f805b85878216106112195750505050505050600590565b85811015610f0d57600491848083851c86015460f085871b161c16911601918483116110f357508382168510611253576001018616611204565b955050505050509056fea26469706673582212208677ef1debeab7180d32dce7c45d134208a1d2d0dad066c660cca27c5784bed164736f6c63430008180033","opcodes":"PUSH1 0xC0 CALLVALUE PUSH3 0x264 JUMPI PUSH1 0x1 PUSH1 0x1 PUSH1 0x40 SHL SUB SWAP1 PUSH1 0x1F PUSH3 0x1511 CODESIZE DUP2 SWAP1 SUB SWAP2 DUP3 ADD PUSH1 0x1F NOT AND DUP4 ADD SWAP3 SWAP2 SWAP1 DUP5 DUP5 GT DUP4 DUP6 LT OR PUSH3 0x214 JUMPI DUP2 PUSH1 0x60 SWAP3 DUP5 SWAP3 PUSH1 0x40 SWAP7 DUP8 MSTORE DUP4 CODECOPY DUP2 ADD SUB SLT PUSH3 0x264 JUMPI PUSH3 0x53 DUP2 PUSH3 0x268 JUMP JUMPDEST SWAP3 PUSH1 0x20 SWAP2 PUSH3 0x72 DUP5 PUSH3 0x6A PUSH1 0x20 DUP5 ADD PUSH3 0x268 JUMP JUMPDEST SWAP3 ADD PUSH3 0x268 JUMP JUMPDEST CALLER ISZERO PUSH3 0x24D JUMPI PUSH0 SLOAD SWAP2 PUSH1 0x1 DUP1 PUSH1 0xA0 SHL SUB SWAP3 DUP4 PUSH1 0x1 DUP1 PUSH1 0xA0 SHL SUB NOT SWAP9 CALLER DUP11 DUP5 AND OR PUSH0 SSTORE DUP9 MLOAD SWAP3 DUP3 CALLER SWAP2 AND PUSH32 0x8BE0079C531659141344CD1FD0A4F28419497F9722A3DAAFE3B4186F6B6457E0 PUSH0 DUP1 LOG3 AND SWAP1 DUP2 ISZERO DUP1 ISZERO PUSH3 0x242 JUMPI JUMPDEST DUP1 ISZERO PUSH3 0x237 JUMPI JUMPDEST PUSH3 0x228 JUMPI POP PUSH1 0x80 MSTORE PUSH1 0xA0 MSTORE AND SWAP4 DUP5 PUSH1 0x1 SWAP2 DUP3 SLOAD AND OR DUP2 SSTORE DUP4 MLOAD SWAP2 PUSH1 0xC0 DUP4 ADD SWAP1 DUP4 DUP3 LT SWAP1 DUP3 GT OR PUSH3 0x214 JUMPI DUP5 MSTORE PUSH1 0xC0 CALLDATASIZE DUP4 CALLDATACOPY PUSH2 0x2710 DUP3 MSTORE PUSH0 DUP1 MSTORE PUSH1 0x6 SWAP1 PUSH1 0x6 PUSH1 0x20 MSTORE DUP5 PUSH0 KECCAK256 DUP4 SWAP1 PUSH0 SWAP2 PUSH0 JUMPDEST DUP8 DUP7 DUP3 LT PUSH3 0x1DF JUMPI POP POP POP SSTORE DUP1 PUSH0 MSTORE DUP5 PUSH0 KECCAK256 SWAP3 SWAP2 PUSH0 SWAP5 PUSH0 JUMPDEST DUP3 DUP2 LT PUSH3 0x1A9 JUMPI POP POP POP POP POP SSTORE MLOAD SWAP1 PUSH0 PUSH32 0x60C5293782C70B9080E83E261790B280285209D93C36A68814B4C9A150F047DE DUP2 DUP1 LOG3 PUSH2 0x1293 SWAP1 DUP2 PUSH3 0x27E DUP3 CODECOPY PUSH1 0x80 MLOAD DUP2 DUP2 DUP2 PUSH2 0x2E6 ADD MSTORE DUP2 DUP2 PUSH2 0x629 ADD MSTORE PUSH2 0x7E4 ADD MSTORE PUSH1 0xA0 MLOAD DUP2 DUP2 DUP2 PUSH2 0x4D2 ADD MSTORE DUP2 DUP2 PUSH2 0x667 ADD MSTORE PUSH2 0x822 ADD MSTORE RETURN JUMPDEST SWAP1 SWAP2 SWAP3 DUP3 PUSH3 0x1D2 DUP7 SWAP9 PUSH2 0xFFFF DUP5 SWAP9 MLOAD AND SWAP1 DUP6 DUP6 SHL PUSH1 0x3 SHL SWAP2 PUSH2 0xFFFF DUP1 SWAP2 AND DUP4 SHL SWAP3 SHL NOT AND OR SWAP1 JUMP JUMPDEST SWAP8 ADD SWAP5 SWAP4 SWAP3 SWAP2 ADD PUSH3 0x139 JUMP JUMPDEST PUSH3 0x207 DUP4 SWAP6 PUSH2 0xFFFF DUP9 SWAP10 SWAP9 SWAP5 SWAP6 MLOAD AND SWAP1 DUP6 DUP6 SHL PUSH1 0x3 SHL SWAP2 PUSH2 0xFFFF DUP1 SWAP2 AND DUP4 SHL SWAP3 SHL NOT AND OR SWAP1 JUMP JUMPDEST SWAP5 ADD SWAP2 ADD SWAP5 SWAP4 SWAP5 PUSH3 0x120 JUMP JUMPDEST PUSH4 0x4E487B71 PUSH1 0xE0 SHL PUSH0 MSTORE PUSH1 0x41 PUSH1 0x4 MSTORE PUSH1 0x24 PUSH0 REVERT JUMPDEST PUSH4 0xD92E233D PUSH1 0xE0 SHL DUP2 MSTORE PUSH1 0x4 SWAP1 REVERT JUMPDEST POP DUP5 DUP5 AND ISZERO PUSH3 0xD4 JUMP JUMPDEST POP DUP5 DUP4 AND ISZERO PUSH3 0xCC JUMP JUMPDEST DUP5 MLOAD PUSH4 0x1E4FBDF7 PUSH1 0xE0 SHL DUP2 MSTORE PUSH0 PUSH1 0x4 DUP3 ADD MSTORE PUSH1 0x24 SWAP1 REVERT JUMPDEST PUSH0 DUP1 REVERT JUMPDEST MLOAD SWAP1 PUSH1 0x1 PUSH1 0x1 PUSH1 0xA0 SHL SUB DUP3 AND DUP3 SUB PUSH3 0x264 JUMPI JUMP INVALID PUSH1 0x80 DUP1 PUSH1 0x40 MSTORE PUSH1 0x4 CALLDATASIZE LT ISZERO PUSH2 0x12 JUMPI PUSH0 DUP1 REVERT JUMPDEST PUSH0 CALLDATALOAD PUSH1 0xE0 SHR SWAP1 DUP2 PUSH4 0x194F9A3 EQ PUSH2 0xDF4 JUMPI POP DUP1 PUSH4 0x122E934E EQ PUSH2 0xBC9 JUMPI DUP1 PUSH4 0x14EF0C2C EQ PUSH2 0xA90 JUMPI DUP1 PUSH4 0x16C38B3C EQ PUSH2 0x9C7 JUMPI DUP1 PUSH4 0x21AB305B EQ PUSH2 0x8EC JUMPI DUP1 PUSH4 0x26A9192B EQ PUSH2 0x736 JUMPI DUP1 PUSH4 0x2C4507A4 EQ PUSH2 0x5C4 JUMPI DUP1 PUSH4 0x31425294 EQ PUSH2 0x587 JUMPI DUP1 PUSH4 0x36F95670 EQ PUSH2 0x501 JUMPI DUP1 PUSH4 0x411557D1 EQ PUSH2 0x4BD JUMPI DUP1 PUSH4 0x5C975ABB EQ PUSH2 0x499 JUMPI DUP1 PUSH4 0x65D65E86 EQ PUSH2 0x471 JUMPI DUP1 PUSH4 0x68F1FB93 EQ PUSH2 0x456 JUMPI DUP1 PUSH4 0x715018A6 EQ PUSH2 0x3FF JUMPI DUP1 PUSH4 0x75506C47 EQ PUSH2 0x3D0 JUMPI DUP1 PUSH4 0x79396B32 EQ PUSH2 0x315 JUMPI DUP1 PUSH4 0x7C0B8DE2 EQ PUSH2 0x2D1 JUMPI DUP1 PUSH4 0x8DA5CB5B EQ PUSH2 0x2AA JUMPI DUP1 PUSH4 0xBCD82DE9 EQ PUSH2 0x25E JUMPI DUP1 PUSH4 0xC56CA84E EQ PUSH2 0x243 JUMPI DUP1 PUSH4 0xD7894B82 EQ PUSH2 0x1C3 JUMPI DUP1 PUSH4 0xF2FDE38B EQ PUSH2 0x139 JUMPI PUSH4 0xF6C59961 EQ PUSH2 0x119 JUMPI PUSH0 DUP1 REVERT JUMPDEST CALLVALUE PUSH2 0x135 JUMPI PUSH0 CALLDATASIZE PUSH1 0x3 NOT ADD SLT PUSH2 0x135 JUMPI PUSH1 0x20 PUSH1 0x40 MLOAD PUSH2 0x2710 DUP2 MSTORE RETURN JUMPDEST PUSH0 DUP1 REVERT JUMPDEST CALLVALUE PUSH2 0x135 JUMPI PUSH1 0x20 CALLDATASIZE PUSH1 0x3 NOT ADD SLT PUSH2 0x135 JUMPI PUSH2 0x152 PUSH2 0xEC6 JUMP JUMPDEST PUSH2 0x15A PUSH2 0xF75 JUMP JUMPDEST PUSH1 0x1 PUSH1 0x1 PUSH1 0xA0 SHL SUB SWAP1 DUP2 AND SWAP1 DUP2 ISZERO PUSH2 0x1AB JUMPI PUSH0 SLOAD DUP3 PUSH12 0xFFFFFFFFFFFFFFFFFFFFFFFF PUSH1 0xA0 SHL DUP3 AND OR PUSH0 SSTORE AND PUSH32 0x8BE0079C531659141344CD1FD0A4F28419497F9722A3DAAFE3B4186F6B6457E0 PUSH0 DUP1 LOG3 STOP JUMPDEST PUSH1 0x40 MLOAD PUSH4 0x1E4FBDF7 PUSH1 0xE0 SHL DUP2 MSTORE PUSH0 PUSH1 0x4 DUP3 ADD MSTORE PUSH1 0x24 SWAP1 REVERT JUMPDEST CALLVALUE PUSH2 0x135 JUMPI PUSH1 0x40 CALLDATASIZE PUSH1 0x3 NOT ADD SLT PUSH2 0x135 JUMPI PUSH2 0x1DC PUSH2 0xE75 JUMP JUMPDEST PUSH1 0xFF PUSH2 0x1E6 PUSH2 0xE85 JUMP JUMPDEST SWAP2 AND SWAP1 PUSH1 0x2 DUP3 LT ISZERO PUSH2 0x231 JUMPI PUSH1 0xFF AND SWAP1 PUSH1 0x6 DUP3 LT ISZERO PUSH2 0x21F JUMPI PUSH0 MSTORE PUSH1 0x4 PUSH1 0x20 MSTORE PUSH1 0x40 PUSH0 KECCAK256 SWAP1 PUSH0 MSTORE PUSH1 0x20 MSTORE PUSH1 0x20 PUSH1 0x40 PUSH0 KECCAK256 SLOAD PUSH1 0x40 MLOAD SWAP1 DUP2 MSTORE RETURN JUMPDEST PUSH1 0x40 MLOAD PUSH4 0x778AA76B PUSH1 0xE0 SHL DUP2 MSTORE PUSH1 0x4 SWAP1 REVERT JUMPDEST PUSH1 0x40 MLOAD PUSH4 0xD694977F PUSH1 0xE0 SHL DUP2 MSTORE PUSH1 0x4 SWAP1 REVERT JUMPDEST CALLVALUE PUSH2 0x135 JUMPI PUSH0 CALLDATASIZE PUSH1 0x3 NOT ADD SLT PUSH2 0x135 JUMPI PUSH1 0x20 PUSH1 0x40 MLOAD PUSH1 0x6 DUP2 MSTORE RETURN JUMPDEST CALLVALUE PUSH2 0x135 JUMPI PUSH1 0x40 CALLDATASIZE PUSH1 0x3 NOT ADD SLT PUSH2 0x135 JUMPI PUSH1 0xFF PUSH2 0x279 PUSH2 0xE75 JUMP JUMPDEST AND PUSH0 MSTORE PUSH1 0x3 PUSH1 0x20 MSTORE PUSH1 0x40 PUSH0 KECCAK256 PUSH1 0x24 CALLDATALOAD PUSH0 MSTORE PUSH1 0x20 MSTORE PUSH1 0x40 DUP1 PUSH0 KECCAK256 SLOAD PUSH1 0xFF DUP3 MLOAD SWAP2 DUP2 DUP2 AND DUP4 MSTORE PUSH1 0x8 SHR AND ISZERO ISZERO PUSH1 0x20 DUP3 ADD MSTORE RETURN JUMPDEST CALLVALUE PUSH2 0x135 JUMPI PUSH0 CALLDATASIZE PUSH1 0x3 NOT ADD SLT PUSH2 0x135 JUMPI PUSH0 SLOAD PUSH1 0x40 MLOAD PUSH1 0x1 PUSH1 0x1 PUSH1 0xA0 SHL SUB SWAP1 SWAP2 AND DUP2 MSTORE PUSH1 0x20 SWAP1 RETURN JUMPDEST CALLVALUE PUSH2 0x135 JUMPI PUSH0 CALLDATASIZE PUSH1 0x3 NOT ADD SLT PUSH2 0x135 JUMPI PUSH1 0x40 MLOAD PUSH32 0x0 PUSH1 0x1 PUSH1 0x1 PUSH1 0xA0 SHL SUB AND DUP2 MSTORE PUSH1 0x20 SWAP1 RETURN JUMPDEST CALLVALUE PUSH2 0x135 JUMPI PUSH1 0x20 DUP1 PUSH1 0x3 NOT CALLDATASIZE ADD SLT PUSH2 0x135 JUMPI PUSH1 0xFF PUSH2 0x331 PUSH2 0xE75 JUMP JUMPDEST PUSH1 0xC0 PUSH1 0x40 MLOAD PUSH2 0x33F DUP2 PUSH2 0xF35 JUMP JUMPDEST CALLDATASIZE SWAP1 CALLDATACOPY AND PUSH1 0x2 DUP2 LT ISZERO PUSH2 0x231 JUMPI PUSH0 MSTORE PUSH1 0x6 DUP1 DUP3 MSTORE PUSH1 0x40 PUSH0 KECCAK256 SWAP2 PUSH1 0x40 MLOAD SWAP3 SLOAD SWAP3 PUSH2 0xFFFF DUP5 DUP2 DUP1 SWAP7 AND DUP4 MSTORE DUP2 DUP2 PUSH1 0x10 SHR AND DUP5 DUP5 ADD MSTORE DUP2 DUP2 DUP6 SHR AND PUSH1 0x40 DUP5 ADD MSTORE DUP2 DUP2 PUSH1 0x30 SHR AND PUSH1 0x60 DUP5 ADD MSTORE DUP2 DUP2 PUSH1 0x40 SHR AND PUSH1 0x80 DUP5 ADD MSTORE PUSH1 0x50 SHR AND PUSH1 0xA0 DUP3 ADD MSTORE PUSH2 0x3A4 DUP2 PUSH2 0xF35 JUMP JUMPDEST PUSH1 0x40 MLOAD SWAP4 PUSH0 SWAP2 SWAP1 DUP6 JUMPDEST DUP6 DUP5 LT PUSH2 0x3B9 JUMPI PUSH1 0xC0 DUP8 RETURN JUMPDEST DUP5 DUP1 PUSH1 0x1 SWAP3 DUP5 DUP7 MLOAD AND DUP2 MSTORE ADD SWAP4 ADD SWAP4 ADD SWAP3 SWAP2 PUSH2 0x3AD JUMP JUMPDEST CALLVALUE PUSH2 0x135 JUMPI PUSH1 0x20 CALLDATASIZE PUSH1 0x3 NOT ADD SLT PUSH2 0x135 JUMPI PUSH1 0x4 CALLDATALOAD PUSH0 MSTORE PUSH1 0x8 PUSH1 0x20 MSTORE PUSH1 0x20 PUSH1 0xFF PUSH1 0x40 PUSH0 KECCAK256 SLOAD AND PUSH1 0x40 MLOAD SWAP1 ISZERO ISZERO DUP2 MSTORE RETURN JUMPDEST CALLVALUE PUSH2 0x135 JUMPI PUSH0 CALLDATASIZE PUSH1 0x3 NOT ADD SLT PUSH2 0x135 JUMPI PUSH2 0x417 PUSH2 0xF75 JUMP JUMPDEST PUSH0 DUP1 SLOAD PUSH1 0x1 PUSH1 0x1 PUSH1 0xA0 SHL SUB NOT DUP2 AND DUP3 SSTORE PUSH1 0x1 PUSH1 0x1 PUSH1 0xA0 SHL SUB AND PUSH32 0x8BE0079C531659141344CD1FD0A4F28419497F9722A3DAAFE3B4186F6B6457E0 DUP3 DUP1 LOG3 STOP JUMPDEST CALLVALUE PUSH2 0x135 JUMPI PUSH0 CALLDATASIZE PUSH1 0x3 NOT ADD SLT PUSH2 0x135 JUMPI PUSH1 0x20 PUSH1 0x40 MLOAD PUSH1 0x2 DUP2 MSTORE RETURN JUMPDEST CALLVALUE PUSH2 0x135 JUMPI PUSH0 CALLDATASIZE PUSH1 0x3 NOT ADD SLT PUSH2 0x135 JUMPI PUSH1 0x1 SLOAD PUSH1 0x40 MLOAD PUSH1 0x1 PUSH1 0x1 PUSH1 0xA0 SHL SUB SWAP1 SWAP2 AND DUP2 MSTORE PUSH1 0x20 SWAP1 RETURN JUMPDEST CALLVALUE PUSH2 0x135 JUMPI PUSH0 CALLDATASIZE PUSH1 0x3 NOT ADD SLT PUSH2 0x135 JUMPI PUSH1 0x20 PUSH1 0xFF PUSH0 SLOAD PUSH1 0xA0 SHR AND PUSH1 0x40 MLOAD SWAP1 ISZERO ISZERO DUP2 MSTORE RETURN JUMPDEST CALLVALUE PUSH2 0x135 JUMPI PUSH0 CALLDATASIZE PUSH1 0x3 NOT ADD SLT PUSH2 0x135 JUMPI PUSH1 0x40 MLOAD PUSH32 0x0 PUSH1 0x1 PUSH1 0x1 PUSH1 0xA0 SHL SUB AND DUP2 MSTORE PUSH1 0x20 SWAP1 RETURN JUMPDEST CALLVALUE PUSH2 0x135 JUMPI PUSH1 0x20 CALLDATASIZE PUSH1 0x3 NOT ADD SLT PUSH2 0x135 JUMPI PUSH2 0x51A PUSH2 0xEC6 JUMP JUMPDEST PUSH2 0x522 PUSH2 0xF75 JUMP JUMPDEST PUSH1 0x1 PUSH1 0x1 PUSH1 0xA0 SHL SUB SWAP1 DUP2 AND SWAP1 DUP2 ISZERO PUSH2 0x575 JUMPI PUSH1 0x1 SLOAD DUP3 PUSH12 0xFFFFFFFFFFFFFFFFFFFFFFFF PUSH1 0xA0 SHL DUP3 AND OR PUSH1 0x1 SSTORE AND PUSH32 0x60C5293782C70B9080E83E261790B280285209D93C36A68814B4C9A150F047DE PUSH0 DUP1 LOG3 STOP JUMPDEST PUSH1 0x40 MLOAD PUSH4 0xD92E233D PUSH1 0xE0 SHL DUP2 MSTORE PUSH1 0x4 SWAP1 REVERT JUMPDEST CALLVALUE PUSH2 0x135 JUMPI PUSH1 0x20 CALLDATASIZE PUSH1 0x3 NOT ADD SLT PUSH2 0x135 JUMPI PUSH1 0x1 PUSH1 0x1 PUSH1 0xA0 SHL SUB PUSH2 0x5A8 PUSH2 0xEC6 JUMP JUMPDEST AND PUSH0 MSTORE PUSH1 0x7 PUSH1 0x20 MSTORE PUSH1 0x20 PUSH1 0xFF PUSH1 0x40 PUSH0 KECCAK256 SLOAD AND PUSH1 0x40 MLOAD SWAP1 ISZERO ISZERO DUP2 MSTORE RETURN JUMPDEST CALLVALUE PUSH2 0x135 JUMPI PUSH1 0x60 CALLDATASIZE PUSH1 0x3 NOT ADD SLT PUSH2 0x135 JUMPI PUSH2 0x5DD PUSH2 0xEC6 JUMP JUMPDEST PUSH2 0x5E5 PUSH2 0xE85 JUMP JUMPDEST PUSH1 0x1 SLOAD SWAP1 SWAP2 PUSH1 0x1 PUSH1 0x1 PUSH1 0xA0 SHL SUB SWAP2 DUP3 AND CALLER SUB PUSH2 0x724 JUMPI PUSH2 0x603 PUSH2 0xFA0 JUMP JUMPDEST PUSH1 0xFF DUP4 AND PUSH1 0x2 DUP2 LT ISZERO PUSH2 0x231 JUMPI DUP3 DUP3 AND SWAP4 DUP5 ISZERO PUSH2 0x575 JUMPI PUSH2 0x624 SWAP1 DUP4 PUSH2 0xFC0 JUMP JUMPDEST SWAP5 SWAP1 SWAP4 PUSH32 0x0 AND DUP1 EXTCODESIZE ISZERO PUSH2 0x135 JUMPI PUSH1 0x40 MLOAD PUSH4 0x21421707 PUSH1 0xE1 SHL DUP2 MSTORE PUSH1 0x1 PUSH1 0x1 PUSH1 0xA0 SHL SUB PUSH32 0x0 DUP2 AND PUSH1 0x4 DUP4 ADD MSTORE SWAP1 SWAP5 AND PUSH1 0x24 DUP6 ADD MSTORE PUSH1 0x44 DUP5 ADD DUP6 SWAP1 MSTORE PUSH0 SWAP1 DUP5 SWAP1 DUP2 DUP4 DUP2 PUSH1 0x64 DUP2 ADD SUB SWAP3 GAS CALL SWAP3 DUP4 ISZERO PUSH2 0x719 JUMPI DUP5 SWAP4 PUSH2 0x70A JUMPI JUMPDEST POP PUSH1 0x40 DUP1 MLOAD PUSH1 0xFF DUP8 AND DUP2 MSTORE PUSH1 0x44 CALLDATALOAD PUSH1 0x20 DUP3 ADD MSTORE PUSH32 0x6CA982706910D730E2729A6C3AE2A0202B7787FF8465D0695E3893677FA8AC7F SWAP2 DUP2 SWAP1 DUP2 ADD JUMPDEST SUB SWAP1 LOG4 PUSH1 0x40 DUP1 MLOAD SWAP2 DUP3 MSTORE PUSH1 0xFF SWAP3 SWAP1 SWAP3 AND PUSH1 0x20 DUP3 ADD MSTORE RETURN JUMPDEST PUSH2 0x713 SWAP1 PUSH2 0xF21 JUMP JUMPDEST DUP6 PUSH2 0x6B9 JUMP JUMPDEST PUSH1 0x40 MLOAD RETURNDATASIZE PUSH0 DUP3 RETURNDATACOPY RETURNDATASIZE SWAP1 REVERT JUMPDEST PUSH1 0x40 MLOAD PUSH4 0xA31C3DD PUSH1 0xE4 SHL DUP2 MSTORE PUSH1 0x4 SWAP1 REVERT JUMPDEST CALLVALUE PUSH2 0x135 JUMPI PUSH1 0x60 CALLDATASIZE PUSH1 0x3 NOT ADD SLT PUSH2 0x135 JUMPI PUSH2 0x74F PUSH2 0xEC6 JUMP JUMPDEST PUSH1 0x44 CALLDATALOAD PUSH1 0x24 CALLDATALOAD PUSH1 0xFF DUP3 AND DUP1 DUP4 SUB PUSH2 0x135 JUMPI PUSH2 0x768 PUSH2 0xF75 JUMP JUMPDEST PUSH2 0x770 PUSH2 0xFA0 JUMP JUMPDEST PUSH1 0x2 DUP2 LT ISZERO PUSH2 0x231 JUMPI PUSH1 0x1 PUSH1 0x1 PUSH1 0xA0 SHL SUB SWAP3 DUP5 DUP5 AND SWAP1 DUP2 ISZERO PUSH2 0x575 JUMPI DUP2 PUSH0 MSTORE PUSH1 0x7 PUSH1 0x20 MSTORE PUSH1 0xFF PUSH1 0x40 PUSH0 KECCAK256 SLOAD AND DUP1 ISZERO PUSH2 0x8D6 JUMPI JUMPDEST PUSH2 0x8C4 JUMPI PUSH2 0x7DF SWAP1 DUP3 PUSH0 MSTORE PUSH1 0x7 PUSH1 0x20 MSTORE PUSH1 0x40 PUSH0 KECCAK256 PUSH1 0xFF NOT SWAP1 PUSH1 0x1 DUP3 DUP3 SLOAD AND OR SWAP1 SSTORE DUP6 PUSH0 MSTORE PUSH1 0x8 PUSH1 0x20 MSTORE PUSH1 0x1 PUSH1 0x40 PUSH0 KECCAK256 SWAP2 DUP3 SLOAD AND OR SWAP1 SSTORE DUP7 PUSH2 0xFC0 JUMP JUMPDEST SWAP6 SWAP1 SWAP5 PUSH32 0x0 AND DUP1 EXTCODESIZE ISZERO PUSH2 0x135 JUMPI PUSH1 0x40 MLOAD PUSH4 0x21421707 PUSH1 0xE1 SHL DUP2 MSTORE PUSH1 0x1 PUSH1 0x1 PUSH1 0xA0 SHL SUB PUSH32 0x0 DUP2 AND PUSH1 0x4 DUP4 ADD MSTORE SWAP1 SWAP3 AND PUSH1 0x24 DUP4 ADD MSTORE PUSH1 0x44 DUP3 ADD DUP7 SWAP1 MSTORE PUSH0 SWAP1 DUP3 SWAP1 DUP2 DUP4 DUP2 PUSH1 0x64 DUP2 ADD SUB SWAP3 GAS CALL DUP1 ISZERO PUSH2 0x719 JUMPI DUP6 SWAP5 PUSH32 0xFA44E081BA05562BC113ADB11188FA32FC0F8B00C7F449C826D9B4CC4D1E869A SWAP3 PUSH2 0x6F3 SWAP3 PUSH2 0x8B5 JUMPI JUMPDEST POP PUSH1 0x40 DUP1 MLOAD PUSH1 0xFF DUP11 AND DUP2 MSTORE PUSH1 0x20 DUP2 ADD SWAP3 SWAP1 SWAP3 MSTORE SWAP1 SWAP2 DUP3 SWAP2 DUP3 ADD SWAP1 JUMP JUMPDEST PUSH2 0x8BE SWAP1 PUSH2 0xF21 JUMP JUMPDEST DUP9 PUSH2 0x899 JUMP JUMPDEST PUSH1 0x40 MLOAD PUSH4 0xC8D9EAB PUSH1 0xE3 SHL DUP2 MSTORE PUSH1 0x4 SWAP1 REVERT JUMPDEST POP DUP4 PUSH0 MSTORE PUSH1 0x8 PUSH1 0x20 MSTORE PUSH1 0xFF PUSH1 0x40 PUSH0 KECCAK256 SLOAD AND PUSH2 0x7A3 JUMP JUMPDEST CALLVALUE PUSH2 0x135 JUMPI PUSH1 0x40 CALLDATASIZE PUSH1 0x3 NOT ADD SLT PUSH2 0x135 JUMPI PUSH2 0x905 PUSH2 0xE75 JUMP JUMPDEST PUSH1 0x24 CALLDATALOAD SWAP1 PUSH2 0x911 PUSH2 0xF75 JUMP JUMPDEST PUSH1 0xFF DUP2 AND SWAP1 PUSH1 0x2 DUP3 LT ISZERO PUSH2 0x231 JUMPI DUP2 PUSH0 MSTORE PUSH1 0x20 SWAP1 PUSH1 0x3 DUP3 MSTORE PUSH1 0x40 PUSH0 KECCAK256 DUP5 PUSH0 MSTORE DUP3 MSTORE PUSH1 0xFF PUSH1 0x40 PUSH0 KECCAK256 SLOAD PUSH1 0x8 SHR AND ISZERO PUSH2 0x9B5 JUMPI PUSH2 0x979 SWAP1 DUP4 PUSH0 MSTORE PUSH1 0x3 DUP4 MSTORE PUSH1 0x40 PUSH0 KECCAK256 DUP6 PUSH0 MSTORE DUP4 MSTORE PUSH1 0xFF PUSH1 0x40 PUSH0 KECCAK256 SLOAD AND DUP5 PUSH0 MSTORE PUSH1 0x5 DUP5 MSTORE PUSH1 0x40 PUSH0 KECCAK256 DUP7 PUSH0 MSTORE DUP5 MSTORE PUSH1 0x40 PUSH0 KECCAK256 SLOAD SWAP2 PUSH2 0x112D JUMP JUMPDEST DUP2 PUSH0 MSTORE PUSH1 0x3 DUP2 MSTORE PUSH1 0x40 PUSH0 KECCAK256 SWAP1 DUP4 PUSH0 MSTORE MSTORE PUSH0 PUSH1 0x40 DUP2 KECCAK256 SSTORE PUSH32 0x28A4FC8B4696CBCC4F5A8F6A710136792E31CA8BDD587A3CA8E506955582A92 PUSH0 DUP1 LOG3 STOP JUMPDEST PUSH1 0x40 MLOAD PUSH4 0x4792011 PUSH1 0xE4 SHL DUP2 MSTORE PUSH1 0x4 SWAP1 REVERT JUMPDEST CALLVALUE PUSH2 0x135 JUMPI PUSH1 0x20 CALLDATASIZE PUSH1 0x3 NOT ADD SLT PUSH2 0x135 JUMPI PUSH1 0x4 CALLDATALOAD DUP1 ISZERO ISZERO DUP2 SUB PUSH2 0x135 JUMPI PUSH2 0x9EC PUSH2 0xF75 JUMP JUMPDEST ISZERO PUSH2 0xA39 JUMPI PUSH2 0x9F9 PUSH2 0xFA0 JUMP JUMPDEST PUSH0 DUP1 SLOAD PUSH1 0xFF PUSH1 0xA0 SHL NOT AND PUSH1 0x1 PUSH1 0xA0 SHL OR SWAP1 SSTORE PUSH1 0x40 MLOAD CALLER DUP2 MSTORE PUSH32 0x62E78CEA01BEE320CD4E420270B5EA74000D11B0C9F74754EBDBFC544B05A258 SWAP1 PUSH1 0x20 SWAP1 LOG1 STOP JUMPDEST PUSH0 SLOAD PUSH1 0xFF DUP2 PUSH1 0xA0 SHR AND ISZERO PUSH2 0xA7E JUMPI PUSH1 0xFF PUSH1 0xA0 SHL NOT AND PUSH0 SSTORE PUSH1 0x40 MLOAD CALLER DUP2 MSTORE PUSH32 0x5DB9EE0A495BF2E6FF9C91A7834C1BA4FDD244A5E8AA4E537BD38AEAE4B073AA SWAP1 PUSH1 0x20 SWAP1 LOG1 STOP JUMPDEST PUSH1 0x40 MLOAD PUSH4 0x8DFC202B PUSH1 0xE0 SHL DUP2 MSTORE PUSH1 0x4 SWAP1 REVERT JUMPDEST CALLVALUE PUSH2 0x135 JUMPI PUSH1 0xE0 CALLDATASIZE PUSH1 0x3 NOT ADD SLT PUSH2 0x135 JUMPI PUSH2 0xAA9 PUSH2 0xE75 JUMP JUMPDEST CALLDATASIZE PUSH1 0xE4 GT PUSH2 0x135 JUMPI PUSH2 0xAB9 PUSH2 0xF75 JUMP JUMPDEST PUSH1 0xFF DUP1 SWAP2 AND SWAP1 PUSH1 0x2 DUP3 LT ISZERO PUSH2 0x231 JUMPI PUSH0 DUP1 SWAP2 JUMPDEST PUSH1 0x6 DUP2 DUP5 AND LT PUSH2 0xB9B JUMPI DUP4 PUSH2 0x2710 DUP4 SUB PUSH2 0xB89 JUMPI DUP1 PUSH0 MSTORE PUSH1 0x6 PUSH1 0x20 PUSH1 0x6 PUSH1 0x20 MSTORE PUSH1 0x40 PUSH0 KECCAK256 PUSH1 0x24 SWAP1 PUSH0 SWAP2 PUSH0 JUMPDEST DUP5 DUP7 DUP3 LT PUSH2 0xB5F JUMPI POP POP POP SSTORE PUSH1 0x40 MLOAD SWAP2 PUSH1 0x24 SWAP2 PUSH0 DUP5 JUMPDEST DUP4 DUP3 LT PUSH2 0xB3C JUMPI DUP7 PUSH32 0xEAD69BDE6B49CA7ED74A5FC780B639E2B515C739E118D2565F811F8F0A36DADE PUSH1 0xC0 DUP9 LOG2 STOP JUMPDEST DUP5 CALLDATALOAD SWAP1 PUSH2 0xFFFF DUP3 AND DUP1 SWAP3 SUB PUSH2 0x135 JUMPI DUP4 DUP2 PUSH1 0x1 SWAP4 DUP3 SWAP4 MSTORE ADD SWAP6 ADD SWAP2 ADD SWAP1 SWAP4 PUSH2 0xB0D JUMP JUMPDEST DUP3 SWAP5 PUSH2 0xB6D PUSH1 0x1 SWAP4 SWAP5 PUSH2 0xF66 JUMP JUMPDEST SWAP1 DUP5 PUSH1 0x4 SHL SWAP2 PUSH2 0xFFFF DUP1 SWAP2 AND DUP4 SHL SWAP3 SHL NOT AND OR SWAP5 ADD SWAP2 ADD PUSH2 0xAF7 JUMP JUMPDEST PUSH1 0x40 MLOAD PUSH4 0x2FB3CC07 PUSH1 0xE1 SHL DUP2 MSTORE PUSH1 0x4 SWAP1 REVERT JUMPDEST PUSH1 0x1 PUSH2 0xBBF DUP3 SWAP4 PUSH2 0xFFFF PUSH2 0xBB8 PUSH2 0x1FE0 DUP9 PUSH1 0x5 SHL AND PUSH1 0x24 ADD PUSH2 0xF66 JUMP JUMPDEST AND SWAP1 PUSH2 0xEDC JUMP JUMPDEST SWAP4 ADD AND SWAP2 SWAP1 PUSH2 0xACC JUMP JUMPDEST CALLVALUE PUSH2 0x135 JUMPI PUSH1 0x60 CALLDATASIZE PUSH1 0x3 NOT ADD SLT PUSH2 0x135 JUMPI PUSH2 0xBE2 PUSH2 0xE75 JUMP JUMPDEST PUSH1 0x24 CALLDATALOAD PUSH8 0xFFFFFFFFFFFFFFFF DUP2 GT PUSH2 0x135 JUMPI PUSH2 0xC02 SWAP1 CALLDATASIZE SWAP1 PUSH1 0x4 ADD PUSH2 0xE95 JUMP JUMPDEST SWAP1 PUSH1 0x44 CALLDATALOAD PUSH8 0xFFFFFFFFFFFFFFFF DUP2 GT PUSH2 0x135 JUMPI PUSH2 0xC23 SWAP1 CALLDATASIZE SWAP1 PUSH1 0x4 ADD PUSH2 0xE95 JUMP JUMPDEST SWAP3 SWAP1 SWAP2 PUSH2 0xC2E PUSH2 0xF75 JUMP JUMPDEST PUSH1 0x2 PUSH1 0xFF DUP7 AND LT ISZERO PUSH2 0x231 JUMPI DUP4 DUP3 SUB PUSH2 0xDDF JUMPI PUSH0 JUMPDEST DUP3 DUP2 LT PUSH2 0xC4C JUMPI STOP JUMPDEST PUSH2 0xC57 DUP2 DUP5 DUP5 PUSH2 0xEFD JUMP JUMPDEST CALLDATALOAD SWAP1 PUSH2 0xC64 DUP2 DUP8 DUP8 PUSH2 0xEFD JUMP JUMPDEST CALLDATALOAD SWAP2 PUSH1 0xFF DUP4 AND DUP4 SUB PUSH2 0x135 JUMPI PUSH1 0x6 PUSH1 0xFF DUP5 AND LT ISZERO PUSH2 0x21F JUMPI PUSH1 0xFF DUP9 AND PUSH0 MSTORE PUSH1 0x3 PUSH1 0x20 MSTORE PUSH1 0x40 PUSH0 KECCAK256 DUP2 PUSH0 MSTORE PUSH1 0x20 MSTORE PUSH1 0x40 PUSH0 KECCAK256 SLOAD SWAP3 PUSH1 0xFF PUSH1 0x8 SWAP5 DUP6 SHR AND PUSH2 0xDCD JUMPI PUSH1 0x40 MLOAD DUP1 PUSH1 0x40 DUP2 ADD LT PUSH8 0xFFFFFFFFFFFFFFFF PUSH1 0x40 DUP4 ADD GT OR PUSH2 0xDB9 JUMPI PUSH1 0x40 DUP2 DUP2 ADD DUP2 MSTORE PUSH1 0xFF DUP4 DUP2 AND DUP1 DUP5 MSTORE PUSH1 0x1 PUSH1 0x20 DUP1 DUP7 ADD DUP3 DUP2 MSTORE DUP16 DUP6 AND PUSH0 DUP2 DUP2 MSTORE PUSH1 0x3 DUP5 MSTORE DUP8 DUP2 KECCAK256 DUP12 DUP3 MSTORE DUP5 MSTORE DUP8 DUP2 KECCAK256 SWAP9 MLOAD DUP10 SLOAD SWAP4 MLOAD PUSH2 0xFFFF NOT SWAP1 SWAP5 AND SWAP8 AND SWAP7 SWAP1 SWAP7 OR SWAP2 ISZERO ISZERO SWAP1 SWAP12 SHL PUSH2 0xFF00 AND OR SWAP1 SWAP6 SSTORE DUP9 DUP4 MSTORE PUSH1 0x4 DUP6 MSTORE DUP4 DUP4 KECCAK256 DUP3 DUP5 MSTORE DUP1 DUP7 MSTORE DUP5 DUP5 KECCAK256 DUP1 SLOAD SWAP11 DUP6 MSTORE PUSH1 0x5 DUP8 MSTORE DUP6 DUP6 KECCAK256 DUP10 DUP7 MSTORE DUP8 MSTORE SWAP5 DUP5 KECCAK256 DUP11 SWAP1 SSTORE SWAP2 SWAP1 SWAP3 MSTORE SWAP1 SWAP3 MSTORE SWAP1 SWAP5 SWAP1 PUSH9 0x10000000000000000 DUP3 LT ISZERO PUSH2 0xDB9 JUMPI PUSH2 0xD69 DUP3 DUP6 SWAP3 PUSH1 0x1 SWAP9 PUSH2 0xD81 SWAP6 ADD DUP2 SSTORE PUSH2 0xF51 JUMP JUMPDEST SWAP1 SWAP2 SWAP1 DUP3 SLOAD SWAP1 PUSH1 0x3 SHL SWAP2 DUP3 SHL SWAP2 PUSH0 NOT SWAP1 SHL NOT AND OR SWAP1 SSTORE JUMP JUMPDEST PUSH1 0xFF PUSH1 0x40 MLOAD SWAP2 AND DUP2 MSTORE PUSH32 0x6160B95463EEF162E89880A58D5FF8C73F401AE0A3DE33147826AD9B64B4D3D6 PUSH1 0x20 PUSH1 0xFF DUP12 AND SWAP3 LOG3 ADD PUSH2 0xC43 JUMP JUMPDEST PUSH4 0x4E487B71 PUSH1 0xE0 SHL PUSH0 MSTORE PUSH1 0x41 PUSH1 0x4 MSTORE PUSH1 0x24 PUSH0 REVERT JUMPDEST PUSH1 0x40 MLOAD PUSH4 0x1B74344B PUSH1 0xE0 SHL DUP2 MSTORE PUSH1 0x4 SWAP1 REVERT JUMPDEST PUSH1 0x40 MLOAD PUSH1 0x1 PUSH3 0x1398B9 PUSH1 0xE3 SHL SUB NOT DUP2 MSTORE PUSH1 0x4 SWAP1 REVERT JUMPDEST CALLVALUE PUSH2 0x135 JUMPI PUSH1 0x20 DUP1 PUSH1 0x3 NOT CALLDATASIZE ADD SLT PUSH2 0x135 JUMPI PUSH1 0xFF SWAP1 PUSH1 0xFF PUSH2 0xE13 PUSH2 0xE75 JUMP JUMPDEST AND SWAP3 PUSH1 0x2 DUP5 LT ISZERO PUSH2 0xE66 JUMPI POP PUSH0 SWAP3 DUP4 JUMPDEST DUP4 DUP6 AND PUSH1 0x6 DUP2 LT ISZERO PUSH2 0xE5B JUMPI PUSH2 0xE52 DUP6 SWAP3 PUSH1 0x1 SWAP3 DUP6 PUSH0 MSTORE PUSH1 0x4 DUP8 MSTORE PUSH1 0x40 PUSH0 KECCAK256 SWAP1 PUSH0 MSTORE DUP7 MSTORE PUSH1 0x40 PUSH0 KECCAK256 SLOAD SWAP1 PUSH2 0xEDC JUMP JUMPDEST SWAP6 ADD AND SWAP4 PUSH2 0xE23 JUMP JUMPDEST PUSH1 0x20 DUP3 PUSH1 0x40 MLOAD SWAP1 DUP2 MSTORE RETURN JUMPDEST PUSH4 0xD694977F PUSH1 0xE0 SHL DUP2 MSTORE PUSH1 0x4 SWAP1 REVERT JUMPDEST PUSH1 0x4 CALLDATALOAD SWAP1 PUSH1 0xFF DUP3 AND DUP3 SUB PUSH2 0x135 JUMPI JUMP JUMPDEST PUSH1 0x24 CALLDATALOAD SWAP1 PUSH1 0xFF DUP3 AND DUP3 SUB PUSH2 0x135 JUMPI JUMP JUMPDEST SWAP2 DUP2 PUSH1 0x1F DUP5 ADD SLT ISZERO PUSH2 0x135 JUMPI DUP3 CALLDATALOAD SWAP2 PUSH8 0xFFFFFFFFFFFFFFFF DUP4 GT PUSH2 0x135 JUMPI PUSH1 0x20 DUP1 DUP6 ADD SWAP5 DUP5 PUSH1 0x5 SHL ADD ADD GT PUSH2 0x135 JUMPI JUMP JUMPDEST PUSH1 0x4 CALLDATALOAD SWAP1 PUSH1 0x1 PUSH1 0x1 PUSH1 0xA0 SHL SUB DUP3 AND DUP3 SUB PUSH2 0x135 JUMPI JUMP JUMPDEST SWAP2 SWAP1 DUP3 ADD DUP1 SWAP3 GT PUSH2 0xEE9 JUMPI JUMP JUMPDEST PUSH4 0x4E487B71 PUSH1 0xE0 SHL PUSH0 MSTORE PUSH1 0x11 PUSH1 0x4 MSTORE PUSH1 0x24 PUSH0 REVERT JUMPDEST SWAP2 SWAP1 DUP2 LT ISZERO PUSH2 0xF0D JUMPI PUSH1 0x5 SHL ADD SWAP1 JUMP JUMPDEST PUSH4 0x4E487B71 PUSH1 0xE0 SHL PUSH0 MSTORE PUSH1 0x32 PUSH1 0x4 MSTORE PUSH1 0x24 PUSH0 REVERT JUMPDEST PUSH8 0xFFFFFFFFFFFFFFFF DUP2 GT PUSH2 0xDB9 JUMPI PUSH1 0x40 MSTORE JUMP JUMPDEST PUSH1 0xC0 DUP2 ADD SWAP1 DUP2 LT PUSH8 0xFFFFFFFFFFFFFFFF DUP3 GT OR PUSH2 0xDB9 JUMPI PUSH1 0x40 MSTORE JUMP JUMPDEST DUP1 SLOAD DUP3 LT ISZERO PUSH2 0xF0D JUMPI PUSH0 MSTORE PUSH1 0x20 PUSH0 KECCAK256 ADD SWAP1 PUSH0 SWAP1 JUMP JUMPDEST CALLDATALOAD PUSH2 0xFFFF DUP2 AND DUP2 SUB PUSH2 0x135 JUMPI SWAP1 JUMP JUMPDEST PUSH0 SLOAD PUSH1 0x1 PUSH1 0x1 PUSH1 0xA0 SHL SUB AND CALLER SUB PUSH2 0xF88 JUMPI JUMP JUMPDEST PUSH1 0x40 MLOAD PUSH4 0x118CDAA7 PUSH1 0xE0 SHL DUP2 MSTORE CALLER PUSH1 0x4 DUP3 ADD MSTORE PUSH1 0x24 SWAP1 REVERT JUMPDEST PUSH1 0xFF PUSH0 SLOAD PUSH1 0xA0 SHR AND PUSH2 0xFAE JUMPI JUMP JUMPDEST PUSH1 0x40 MLOAD PUSH4 0xD93C0665 PUSH1 0xE0 SHL DUP2 MSTORE PUSH1 0x4 SWAP1 REVERT JUMPDEST SWAP1 SWAP2 PUSH1 0x2 SLOAD SWAP2 PUSH1 0x40 SWAP1 DUP2 MLOAD PUSH1 0x20 SWAP2 DUP3 DUP3 ADD SWAP1 PREVRANDAO DUP3 MSTORE TIMESTAMP DUP6 DUP5 ADD MSTORE PUSH1 0x1 DUP1 PUSH1 0xA0 SHL SUB AND PUSH1 0x60 DUP4 ADD MSTORE PUSH1 0xFF SWAP1 DUP2 DUP9 AND SWAP3 DUP4 PUSH1 0x80 DUP3 ADD MSTORE DUP8 PUSH1 0xA0 DUP3 ADD MSTORE PUSH1 0xA0 DUP2 MSTORE PUSH2 0x1007 DUP2 PUSH2 0xF35 JUMP JUMPDEST MLOAD SWAP1 KECCAK256 PUSH1 0x1 DUP1 SWAP8 ADD PUSH1 0x2 SSTORE PUSH2 0x101C DUP9 DUP3 PUSH2 0x11E1 JUMP JUMPDEST SWAP7 DUP1 PUSH0 SWAP2 JUMPDEST PUSH2 0x10A6 JUMPI JUMPDEST POP POP DUP3 PUSH0 MSTORE PUSH1 0x4 DUP5 MSTORE DUP5 PUSH0 KECCAK256 SWAP2 DUP8 AND SWAP2 DUP3 PUSH0 MSTORE DUP5 MSTORE DUP5 PUSH0 KECCAK256 SLOAD SWAP1 DUP2 ISZERO PUSH2 0x1095 JUMPI SWAP1 PUSH2 0x107A SWAP3 SWAP2 PUSH1 0x80 SHR MOD SWAP1 DUP4 PUSH0 MSTORE PUSH1 0x4 DUP6 MSTORE DUP6 PUSH0 KECCAK256 SWAP1 PUSH0 MSTORE DUP5 MSTORE DUP7 PUSH2 0x106D DUP3 DUP8 PUSH0 KECCAK256 PUSH2 0xF51 JUMP JUMPDEST SWAP1 SLOAD SWAP1 PUSH1 0x3 SHL SHR SWAP9 PUSH2 0x112D JUMP JUMPDEST PUSH0 MSTORE PUSH1 0x3 DUP2 MSTORE DUP2 PUSH0 KECCAK256 SWAP1 DUP6 PUSH0 MSTORE MSTORE PUSH0 KECCAK256 PUSH2 0xFF00 NOT DUP2 SLOAD AND SWAP1 SSTORE JUMP JUMPDEST DUP6 MLOAD PUSH4 0x5CE024D PUSH1 0xE5 SHL DUP2 MSTORE PUSH1 0x4 SWAP1 REVERT JUMPDEST SWAP1 SWAP8 DUP5 PUSH0 MSTORE PUSH1 0x4 SWAP1 DUP2 DUP8 MSTORE DUP8 PUSH0 KECCAK256 SWAP1 DUP6 DUP2 AND SWAP2 DUP3 PUSH0 MSTORE DUP9 MSTORE DUP9 PUSH0 KECCAK256 SLOAD ISZERO DUP1 PUSH2 0x1121 JUMPI JUMPDEST ISZERO PUSH2 0x1119 JUMPI POP DUP3 ADD DUP5 DUP2 GT PUSH2 0x1106 JUMPI PUSH1 0x6 DUP6 DUP1 SWAP3 AND MOD SWAP10 AND SWAP1 DUP5 DUP3 EQ PUSH2 0x10F3 JUMPI POP DUP2 ADD SWAP1 DUP1 PUSH2 0x1021 JUMP JUMPDEST PUSH1 0x11 SWAP1 PUSH4 0x4E487B71 PUSH1 0xE0 SHL PUSH0 MSTORE MSTORE PUSH1 0x24 PUSH0 REVERT JUMPDEST PUSH1 0x11 DUP3 PUSH4 0x4E487B71 PUSH1 0xE0 SHL PUSH0 MSTORE MSTORE PUSH1 0x24 PUSH0 REVERT JUMPDEST SWAP10 POP POP PUSH2 0x1026 JUMP JUMPDEST POP PUSH1 0x6 DUP7 DUP13 AND LT PUSH2 0x10C9 JUMP JUMPDEST PUSH1 0xFF SWAP1 SWAP3 SWAP2 SWAP3 AND SWAP2 DUP3 PUSH0 MSTORE PUSH1 0x4 PUSH1 0x20 MSTORE PUSH1 0xFF PUSH1 0x40 PUSH0 KECCAK256 SWAP2 AND PUSH0 MSTORE PUSH1 0x20 MSTORE PUSH1 0x40 PUSH0 KECCAK256 SWAP1 DUP2 SLOAD SWAP3 PUSH0 NOT SWAP4 DUP5 DUP2 ADD SWAP1 DUP2 GT PUSH2 0xEE9 JUMPI DUP1 DUP4 SUB PUSH2 0x11A3 JUMPI JUMPDEST POP POP POP DUP1 SLOAD DUP1 ISZERO PUSH2 0x118F JUMPI DUP3 ADD SWAP2 PUSH2 0x117F DUP4 DUP4 PUSH2 0xF51 JUMP JUMPDEST SWAP1 SWAP2 DUP3 SLOAD SWAP2 PUSH1 0x3 SHL SHL NOT AND SWAP1 SSTORE SSTORE JUMP JUMPDEST PUSH4 0x4E487B71 PUSH1 0xE0 SHL PUSH0 MSTORE PUSH1 0x31 PUSH1 0x4 MSTORE PUSH1 0x24 PUSH0 REVERT JUMPDEST PUSH2 0x11AD SWAP1 DUP5 PUSH2 0xF51 JUMP JUMPDEST SWAP1 SLOAD SWAP1 PUSH1 0x3 SHL SHR SWAP1 PUSH2 0x11C3 DUP3 PUSH2 0xD69 DUP6 DUP8 PUSH2 0xF51 JUMP JUMPDEST PUSH0 MSTORE PUSH1 0x5 PUSH1 0x20 MSTORE PUSH1 0x40 PUSH0 KECCAK256 SWAP1 PUSH0 MSTORE PUSH1 0x20 MSTORE PUSH1 0x40 PUSH0 KECCAK256 SSTORE PUSH0 DUP1 DUP1 PUSH2 0x1167 JUMP JUMPDEST PUSH1 0xFF DUP1 SWAP3 AND PUSH0 MSTORE PUSH1 0x6 SWAP1 PUSH1 0x6 PUSH1 0x20 MSTORE PUSH2 0x2710 PUSH1 0x40 PUSH0 KECCAK256 SWAP2 PUSH2 0xFFFF SWAP2 DUP3 SWAP2 MOD AND SWAP2 PUSH0 DUP1 JUMPDEST DUP6 DUP8 DUP3 AND LT PUSH2 0x1219 JUMPI POP POP POP POP POP POP POP PUSH1 0x5 SWAP1 JUMP JUMPDEST DUP6 DUP2 LT ISZERO PUSH2 0xF0D JUMPI PUSH1 0x4 SWAP2 DUP5 DUP1 DUP4 DUP6 SHR DUP7 ADD SLOAD PUSH1 0xF0 DUP6 DUP8 SHL AND SHR AND SWAP2 AND ADD SWAP2 DUP5 DUP4 GT PUSH2 0x10F3 JUMPI POP DUP4 DUP3 AND DUP6 LT PUSH2 0x1253 JUMPI PUSH1 0x1 ADD DUP7 AND PUSH2 0x1204 JUMP JUMPDEST SWAP6 POP POP POP POP POP POP SWAP1 JUMP INVALID LOG2 PUSH5 0x6970667358 0x22 SLT KECCAK256 DUP7 PUSH24 0xEF1DEBEAB7180D32DCE7C45D134208A1D2D0DAD066C660CC LOG2 PUSH29 0x5784BED164736F6C634300081800330000000000000000000000000000 "},"methodIdentifiers":{"NFT()":"7c0b8de2","NUM_BUCKETS()":"c56ca84e","NUM_PACK_TIERS()":"68f1fb93","VAULT()":"411557d1","WEIGHT_TOTAL_BPS()":"f6c59961","addCards(uint8,uint256[],uint8[])":"122e934e","availableInBucket(uint8,uint8)":"d7894b82","availableInPack(uint8)":"0194f9a3","backendSigner()":"65d65e86","cards(uint8,uint256)":"bcd82de9","getBucketWeights(uint8)":"79396b32","giveaway(address,bytes32,uint8)":"26a9192b","owner()":"8da5cb5b","paused()":"5c975abb","polygonGiveawayUsed(address)":"31425294","pull(address,uint8,bytes32)":"2c4507a4","removeCard(uint8,uint256)":"21ab305b","renounceOwnership()":"715018a6","setBackendSigner(address)":"36f95670","setBucketWeights(uint8,uint16[6])":"14ef0c2c","setPaused(bool)":"16c38b3c","solanaGiveawayUsed(bytes32)":"75506c47","transferOwnership(address)":"f2fde38b"}}}}}