{"contracts/BindrGachaV2.sol":{"BindrGachaV2":{"abi":[{"inputs":[{"components":[{"internalType":"address","name":"nft","type":"address"},{"internalType":"address","name":"initialVault","type":"address"},{"internalType":"address","name":"initialBackend","type":"address"},{"internalType":"address","name":"initialPauseGuardian","type":"address"},{"internalType":"address","name":"vrfCoordinator","type":"address"},{"internalType":"bytes32","name":"vrfKeyHash","type":"bytes32"},{"internalType":"uint256","name":"vrfSubscriptionId","type":"uint256"},{"internalType":"bool","name":"vrfNativePayment","type":"bool"},{"internalType":"uint32","name":"callbackGasLimit","type":"uint32"},{"internalType":"uint16","name":"requestConfirmations","type":"uint16"},{"internalType":"uint256","name":"minPullIntervalBlocks","type":"uint256"},{"internalType":"uint8","name":"maxPullsPerBlock","type":"uint8"}],"internalType":"struct BindrGachaV2.InitConfig","name":"cfg","type":"tuple"}],"stateMutability":"nonpayable","type":"constructor"},{"inputs":[],"name":"AlreadyClaimed","type":"error"},{"inputs":[],"name":"BlockPullCapReached","type":"error"},{"inputs":[],"name":"BurnProofAlreadyUsed","type":"error"},{"inputs":[],"name":"CardAlreadyRegistered","type":"error"},{"inputs":[],"name":"CardNotFound","type":"error"},{"inputs":[],"name":"EnforcedPause","type":"error"},{"inputs":[],"name":"ExpectedPause","type":"error"},{"inputs":[],"name":"InvalidBucket","type":"error"},{"inputs":[],"name":"InvalidPackTier","type":"error"},{"inputs":[],"name":"LengthMismatch","type":"error"},{"inputs":[],"name":"NotAuthorizedToPause","type":"error"},{"inputs":[],"name":"NotBackend","type":"error"},{"inputs":[{"internalType":"address","name":"have","type":"address"},{"internalType":"address","name":"want","type":"address"}],"name":"OnlyCoordinatorCanFulfill","type":"error"},{"inputs":[{"internalType":"address","name":"have","type":"address"},{"internalType":"address","name":"owner","type":"address"},{"internalType":"address","name":"coordinator","type":"address"}],"name":"OnlyOwnerOrCoordinator","type":"error"},{"inputs":[],"name":"PoolEmpty","type":"error"},{"inputs":[],"name":"PullCooldownActive","type":"error"},{"inputs":[],"name":"RequestAlreadyFulfilled","type":"error"},{"inputs":[],"name":"RequestNotPending","type":"error"},{"inputs":[],"name":"WeightsDoNotSumTo10000","type":"error"},{"inputs":[],"name":"ZeroAddress","type":"error"},{"anonymous":false,"inputs":[{"indexed":true,"internalType":"address","name":"previous","type":"address"},{"indexed":true,"internalType":"address","name":"current","type":"address"}],"name":"BackendSignerChanged","type":"event"},{"anonymous":false,"inputs":[{"indexed":true,"internalType":"uint8","name":"packTier","type":"uint8"},{"indexed":true,"internalType":"uint256","name":"tokenId","type":"uint256"},{"indexed":false,"internalType":"uint8","name":"bucket","type":"uint8"}],"name":"CardAdded","type":"event"},{"anonymous":false,"inputs":[{"indexed":true,"internalType":"uint8","name":"packTier","type":"uint8"},{"indexed":true,"internalType":"uint256","name":"tokenId","type":"uint256"}],"name":"CardRemoved","type":"event"},{"anonymous":false,"inputs":[{"indexed":true,"internalType":"uint8","name":"packTier","type":"uint8"},{"indexed":true,"internalType":"uint256","name":"tokenId","type":"uint256"},{"indexed":true,"internalType":"address","name":"to","type":"address"}],"name":"CardWithdrawn","type":"event"},{"anonymous":false,"inputs":[{"indexed":false,"internalType":"address","name":"vrfCoordinator","type":"address"}],"name":"CoordinatorSet","type":"event"},{"anonymous":false,"inputs":[{"indexed":true,"internalType":"address","name":"user","type":"address"},{"indexed":true,"internalType":"uint8","name":"packTier","type":"uint8"},{"indexed":true,"internalType":"uint256","name":"tokenId","type":"uint256"},{"indexed":false,"internalType":"uint8","name":"bucket","type":"uint8"},{"indexed":false,"internalType":"bytes32","name":"solanaHash","type":"bytes32"}],"name":"Giveaway","type":"event"},{"anonymous":false,"inputs":[{"indexed":true,"internalType":"address","name":"from","type":"address"},{"indexed":true,"internalType":"address","name":"to","type":"address"}],"name":"OwnershipTransferRequested","type":"event"},{"anonymous":false,"inputs":[{"indexed":true,"internalType":"address","name":"from","type":"address"},{"indexed":true,"internalType":"address","name":"to","type":"address"}],"name":"OwnershipTransferred","type":"event"},{"anonymous":false,"inputs":[{"indexed":true,"internalType":"address","name":"previous","type":"address"},{"indexed":true,"internalType":"address","name":"current","type":"address"}],"name":"PauseGuardianChanged","type":"event"},{"anonymous":false,"inputs":[{"indexed":false,"internalType":"address","name":"account","type":"address"}],"name":"Paused","type":"event"},{"anonymous":false,"inputs":[{"indexed":true,"internalType":"uint256","name":"requestId","type":"uint256"},{"indexed":true,"internalType":"address","name":"user","type":"address"}],"name":"PullCancelled","type":"event"},{"anonymous":false,"inputs":[{"indexed":true,"internalType":"uint256","name":"requestId","type":"uint256"},{"indexed":true,"internalType":"address","name":"user","type":"address"},{"indexed":true,"internalType":"uint8","name":"packTier","type":"uint8"},{"indexed":false,"internalType":"bytes32","name":"burnProof","type":"bytes32"}],"name":"PullRequested","type":"event"},{"anonymous":false,"inputs":[{"indexed":true,"internalType":"uint256","name":"requestId","type":"uint256"},{"indexed":true,"internalType":"address","name":"user","type":"address"},{"indexed":true,"internalType":"uint8","name":"packTier","type":"uint8"},{"indexed":false,"internalType":"uint256","name":"tokenId","type":"uint256"},{"indexed":false,"internalType":"uint8","name":"bucket","type":"uint8"},{"indexed":false,"internalType":"bytes32","name":"burnProof","type":"bytes32"}],"name":"Pulled","type":"event"},{"anonymous":false,"inputs":[{"indexed":false,"internalType":"uint256","name":"minPullIntervalBlocks","type":"uint256"},{"indexed":false,"internalType":"uint8","name":"maxPullsPerBlock","type":"uint8"}],"name":"RateLimitsUpdated","type":"event"},{"anonymous":false,"inputs":[{"indexed":false,"internalType":"address","name":"account","type":"address"}],"name":"Unpaused","type":"event"},{"anonymous":false,"inputs":[{"indexed":true,"internalType":"address","name":"previous","type":"address"},{"indexed":true,"internalType":"address","name":"current","type":"address"}],"name":"VaultChanged","type":"event"},{"anonymous":false,"inputs":[{"indexed":false,"internalType":"uint32","name":"callbackGasLimit","type":"uint32"},{"indexed":false,"internalType":"uint16","name":"requestConfirmations","type":"uint16"}],"name":"VrfConfigUpdated","type":"event"},{"anonymous":false,"inputs":[{"indexed":true,"internalType":"uint8","name":"packTier","type":"uint8"},{"indexed":false,"internalType":"uint16[6]","name":"weights","type":"uint16[6]"}],"name":"WeightsUpdated","type":"event"},{"inputs":[],"name":"NFT","outputs":[{"internalType":"contract IERC721","name":"","type":"address"}],"stateMutability":"view","type":"function"},{"inputs":[],"name":"NUM_BUCKETS","outputs":[{"internalType":"uint8","name":"","type":"uint8"}],"stateMutability":"view","type":"function"},{"inputs":[],"name":"NUM_PACK_TIERS","outputs":[{"internalType":"uint8","name":"","type":"uint8"}],"stateMutability":"view","type":"function"},{"inputs":[],"name":"VRF_KEY_HASH","outputs":[{"internalType":"bytes32","name":"","type":"bytes32"}],"stateMutability":"view","type":"function"},{"inputs":[],"name":"VRF_NATIVE_PAYMENT","outputs":[{"internalType":"bool","name":"","type":"bool"}],"stateMutability":"view","type":"function"},{"inputs":[],"name":"VRF_SUBSCRIPTION_ID","outputs":[{"internalType":"uint256","name":"","type":"uint256"}],"stateMutability":"view","type":"function"},{"inputs":[],"name":"WEIGHT_TOTAL_BPS","outputs":[{"internalType":"uint16","name":"","type":"uint16"}],"stateMutability":"view","type":"function"},{"inputs":[],"name":"acceptOwnership","outputs":[],"stateMutability":"nonpayable","type":"function"},{"inputs":[{"internalType":"uint8","name":"packTier","type":"uint8"},{"internalType":"uint256[]","name":"tokenIds","type":"uint256[]"},{"internalType":"uint8[]","name":"buckets","type":"uint8[]"}],"name":"addCards","outputs":[],"stateMutability":"nonpayable","type":"function"},{"inputs":[{"internalType":"uint8","name":"packTier","type":"uint8"},{"internalType":"uint8","name":"bucket","type":"uint8"}],"name":"availableInBucket","outputs":[{"internalType":"uint256","name":"","type":"uint256"}],"stateMutability":"view","type":"function"},{"inputs":[{"internalType":"uint8","name":"packTier","type":"uint8"}],"name":"availableInPack","outputs":[{"internalType":"uint256","name":"total","type":"uint256"}],"stateMutability":"view","type":"function"},{"inputs":[],"name":"backendSigner","outputs":[{"internalType":"address","name":"","type":"address"}],"stateMutability":"view","type":"function"},{"inputs":[],"name":"callbackGasLimit","outputs":[{"internalType":"uint32","name":"","type":"uint32"}],"stateMutability":"view","type":"function"},{"inputs":[{"internalType":"uint256","name":"requestId","type":"uint256"}],"name":"cancelPendingPull","outputs":[],"stateMutability":"nonpayable","type":"function"},{"inputs":[{"internalType":"uint8","name":"","type":"uint8"},{"internalType":"uint256","name":"","type":"uint256"}],"name":"cards","outputs":[{"internalType":"uint8","name":"bucket","type":"uint8"},{"internalType":"bool","name":"available","type":"bool"}],"stateMutability":"view","type":"function"},{"inputs":[],"name":"emergencyPause","outputs":[],"stateMutability":"nonpayable","type":"function"},{"inputs":[{"internalType":"uint8","name":"packTier","type":"uint8"}],"name":"getBucketWeights","outputs":[{"internalType":"uint16[6]","name":"","type":"uint16[6]"}],"stateMutability":"view","type":"function"},{"inputs":[{"internalType":"address","name":"user","type":"address"},{"internalType":"bytes32","name":"solanaHash","type":"bytes32"},{"internalType":"uint8","name":"packTier","type":"uint8"},{"internalType":"uint256","name":"tokenId","type":"uint256"}],"name":"giveaway","outputs":[],"stateMutability":"nonpayable","type":"function"},{"inputs":[{"internalType":"address","name":"","type":"address"}],"name":"lastPullBlock","outputs":[{"internalType":"uint256","name":"","type":"uint256"}],"stateMutability":"view","type":"function"},{"inputs":[],"name":"maxPullsPerBlock","outputs":[{"internalType":"uint8","name":"","type":"uint8"}],"stateMutability":"view","type":"function"},{"inputs":[],"name":"minPullIntervalBlocks","outputs":[{"internalType":"uint256","name":"","type":"uint256"}],"stateMutability":"view","type":"function"},{"inputs":[],"name":"owner","outputs":[{"internalType":"address","name":"","type":"address"}],"stateMutability":"view","type":"function"},{"inputs":[],"name":"pauseGuardian","outputs":[{"internalType":"address","name":"","type":"address"}],"stateMutability":"view","type":"function"},{"inputs":[],"name":"paused","outputs":[{"internalType":"bool","name":"","type":"bool"}],"stateMutability":"view","type":"function"},{"inputs":[{"internalType":"uint256","name":"","type":"uint256"}],"name":"pendingPulls","outputs":[{"internalType":"address","name":"user","type":"address"},{"internalType":"uint8","name":"packTier","type":"uint8"},{"internalType":"bytes32","name":"burnProof","type":"bytes32"},{"internalType":"uint64","name":"timestamp","type":"uint64"},{"internalType":"bool","name":"fulfilled","type":"bool"},{"internalType":"bool","name":"cancelled","type":"bool"}],"stateMutability":"view","type":"function"},{"inputs":[{"internalType":"address","name":"","type":"address"}],"name":"polygonGiveawayUsed","outputs":[{"internalType":"bool","name":"","type":"bool"}],"stateMutability":"view","type":"function"},{"inputs":[{"internalType":"uint256","name":"","type":"uint256"}],"name":"pullsInBlock","outputs":[{"internalType":"uint8","name":"","type":"uint8"}],"stateMutability":"view","type":"function"},{"inputs":[{"internalType":"uint256","name":"requestId","type":"uint256"},{"internalType":"uint256[]","name":"randomWords","type":"uint256[]"}],"name":"rawFulfillRandomWords","outputs":[],"stateMutability":"nonpayable","type":"function"},{"inputs":[{"internalType":"uint8","name":"packTier","type":"uint8"},{"internalType":"uint256","name":"tokenId","type":"uint256"}],"name":"removeCard","outputs":[],"stateMutability":"nonpayable","type":"function"},{"inputs":[],"name":"requestConfirmations","outputs":[{"internalType":"uint16","name":"","type":"uint16"}],"stateMutability":"view","type":"function"},{"inputs":[{"internalType":"address","name":"user","type":"address"},{"internalType":"uint8","name":"packTier","type":"uint8"},{"internalType":"bytes32","name":"burnProof","type":"bytes32"}],"name":"requestPull","outputs":[{"internalType":"uint256","name":"requestId","type":"uint256"}],"stateMutability":"nonpayable","type":"function"},{"inputs":[],"name":"s_vrfCoordinator","outputs":[{"internalType":"contract IVRFCoordinatorV2Plus","name":"","type":"address"}],"stateMutability":"view","type":"function"},{"inputs":[{"internalType":"address","name":"newSigner","type":"address"}],"name":"setBackendSigner","outputs":[],"stateMutability":"nonpayable","type":"function"},{"inputs":[{"internalType":"uint8","name":"packTier","type":"uint8"},{"internalType":"uint16[6]","name":"weights","type":"uint16[6]"}],"name":"setBucketWeights","outputs":[],"stateMutability":"nonpayable","type":"function"},{"inputs":[{"internalType":"address","name":"_vrfCoordinator","type":"address"}],"name":"setCoordinator","outputs":[],"stateMutability":"nonpayable","type":"function"},{"inputs":[{"internalType":"address","name":"newGuardian","type":"address"}],"name":"setPauseGuardian","outputs":[],"stateMutability":"nonpayable","type":"function"},{"inputs":[{"internalType":"uint256","name":"newMinPullIntervalBlocks","type":"uint256"},{"internalType":"uint8","name":"newMaxPullsPerBlock","type":"uint8"}],"name":"setRateLimits","outputs":[],"stateMutability":"nonpayable","type":"function"},{"inputs":[{"internalType":"address","name":"newVault","type":"address"}],"name":"setVault","outputs":[],"stateMutability":"nonpayable","type":"function"},{"inputs":[{"internalType":"uint32","name":"newCallbackGasLimit","type":"uint32"},{"internalType":"uint16","name":"newRequestConfirmations","type":"uint16"}],"name":"setVrfConfig","outputs":[],"stateMutability":"nonpayable","type":"function"},{"inputs":[{"internalType":"bytes32","name":"","type":"bytes32"}],"name":"solanaGiveawayUsed","outputs":[{"internalType":"bool","name":"","type":"bool"}],"stateMutability":"view","type":"function"},{"inputs":[{"internalType":"address","name":"to","type":"address"}],"name":"transferOwnership","outputs":[],"stateMutability":"nonpayable","type":"function"},{"inputs":[],"name":"unpause","outputs":[],"stateMutability":"nonpayable","type":"function"},{"inputs":[{"internalType":"bytes32","name":"","type":"bytes32"}],"name":"usedBurnProofs","outputs":[{"internalType":"bool","name":"","type":"bool"}],"stateMutability":"view","type":"function"},{"inputs":[],"name":"vault","outputs":[{"internalType":"address","name":"","type":"address"}],"stateMutability":"view","type":"function"},{"inputs":[{"internalType":"uint8","name":"packTier","type":"uint8"},{"internalType":"uint256","name":"tokenId","type":"uint256"},{"internalType":"address","name":"to","type":"address"}],"name":"withdrawCard","outputs":[],"stateMutability":"nonpayable","type":"function"}],"evm":{"bytecode":{"linkReferences":{},"object":"61010034620005c357620028106001600160401b0338829003601f8101601f1916840182811185821017620005c75784938291604052843961018092839181010312620005c35760405191820190811182821017620005c7576040526200006682620005fb565b81526200007660208301620005fb565b60208201526200008960408301620005fb565b60408201526200009c60608301620005fb565b6060820152620000af60808301620005fb565b80608083015260a083015160a083015260c083015160c083015260e08301518015158103620005c35760e08301526101008084015163ffffffff81168103620005c35781840152610120918285015161ffff81168103620005c357838501526101409081860151828601526101608096015160ff81168103620005c357858701526001600160a01b031633156200057e575f80546001600160a01b0319163317905580156200052a57600280546001600160a01b03191691909117905583516001600160a01b031615801562000568575b801562000552575b80156200053c575b6200052a5760018060a01b0384511660805260a084015160a05260c084015160c05260e0840151151560e05260018060a01b0360208501511660018060a01b0319600354161760035560018060a01b0360408501511660018060a01b0319600454161760045560018060a01b036060850151166005549063ffffffff60a01b8487015160a01b169061ffff60c01b8688015160c01b169260018060d01b0319161717176005558084015160065560ff858501511660ff19600754161760075562000259620005db565b9460c0368737610c128652611186602087015261082e604087015261012c606087015260146080870152600a60a08701525f8052600b60205260405f2086905f915f5b60068110620004f757505055620002b2620005db565b60c036823761137981526109bd6020820152610891604082015261012b6060820152601e60808201525f60a082015260015f52600b60205260405f2081905f915f5b60068110620004c2575050604097969463ffffffff946001620003906200039f61ffff9a975f7fc200da6168c2cb10c35e700df518f666b8b23aab8715e5fe688ae6d89bb1881b9f8f98997f3fa9c0902c04787995e15507b0e0ab98b30c606ee451ed0e0701bc3b1d9d5fab9a558851807fead69bde6b49ca7ed74a5fc780b639e2b515c739e118d2565f811f8f0a36dade9687938262000610565b0390a286519182918262000610565b0390a28883015183519260ff916001600160a01b03165f7f60c5293782c70b9080e83e261790b280285209d93c36a68814b4c9a150f047de8180a360208b01516001600160a01b03165f7f16e2accad9173abff57b295b56993ec5d86b3cbf791fea02f02a6616463754ea8180a360608b01516001600160a01b03165f7fecd28f4c275f6f16f8579ec28c3e7c3658b59088d30de9ddd62b8ca1977ef6ee8180a38a0151918a0151169082526020820152a1840151169201511682519182526020820152a16040516121cc9081620006448239608051818181610a0d01528181610ce9015281816114e601526118c2015260a0518181816103ce015261063c015260c0518181816106630152610cb1015260e05181818161039101526105d10152f35b9099926020620004ec60019261ffff8e51169085851b60031b9161ffff809116831b921b19161790565b949b019101620002f4565b909260206200052060019261ffff8751169085851b60031b9161ffff809116831b921b19161790565b940191016200029c565b60405163d92e233d60e01b8152600490fd5b5060608401516001600160a01b03161562000190565b5060408401516001600160a01b03161562000188565b5060208401516001600160a01b03161562000180565b60405162461bcd60e51b815260206004820152601860248201527f43616e6e6f7420736574206f776e657220746f207a65726f00000000000000006044820152606490fd5b5f80fd5b634e487b7160e01b5f52604160045260245ffd5b6040519060c082016001600160401b03811183821017620005c757604052565b51906001600160a01b0382168203620005c357565b60c0810192915f915b600683106200062757505050565b60019061ffff835116815260208091019201920191906200061956fe6080604081815260049182361015610015575f80fd5b5f925f3560e01c9182630194f9a314611e0f5750816308a52d0514611d99578163122e934e14611b9657816314ef0c2c14611a4f5781631fe543e31461174b57816321ab305b1461167957816324a3d6221461165057816324f7469714611628578163257ad931146115fd57816326d3f3d8146113da578163314252941461139c57816336f956701461131c5781633f4ba83a146112ac57816348bde20c1461123857816348f87f7b146112165781634cfd6b401461115357816351858e27146110c157816354d7be2d146110235781635c975abb14610ffc57816365d65e8614610fd45781636817031b14610f5357816368f1fb9314610f3757816375506c4714610f0a57816379396b3214610e4657816379ba509714610d9e5781637b90f21514610d375781637be4dd8414610d185781637c0b8de214610cd45781638310970814610c995781638da5cb5b14610c715781638ea9811714610bac5781639eccacf614610b83578163b0fb162f14610b5d578163bcd82de914610b13578163c56ca84e14610af7578163c92f96581461095b578163d14d3de014610469578163d7894b82146103f1578163da06a5f0146103b6578163eadf228014610379578163eb96f26c14610341578163f2fde38b14610289578163f444b6eb1461025857508063f6c599611461023c5763fbfa77cf14610211575f80fd5b3461023857816003193601126102385760035490516001600160a01b039091168152602090f35b5080fd5b5034610238578160031936011261023857602090516127108152f35b905034610285576020366003190112610285578160209360ff92358152600c855220541690519015158152f35b8280fd5b905034610285576020366003190112610285576102a4611ee2565b906102ad611fb7565b6001600160a01b03918216923384146102fe575050600180546001600160a01b031916831790558254167fed8889f560326eb138920d842192f0eb3dd22b4f139c87a2c57538e05bae12788380a380f35b906020606492519162461bcd60e51b8352820152601760248201527f43616e6e6f74207472616e7366657220746f2073656c660000000000000000006044820152fd5b5050346102385760203660031901126102385760209181906001600160a01b03610369611ee2565b168152600d845220549051908152f35b505034610238578160031936011261023857602090517f000000000000000000000000000000000000000000000000000000000000000015158152f35b505034610238578160031936011261023857602090517f00000000000000000000000000000000000000000000000000000000000000008152f35b90503461028557816003193601126102855761040b611e91565b60ff610415611ea1565b91169060028210156104595760ff1691600683101561044b5750838391602095526009855220905f528252805f20549051908152f35b835163778aa76b60e01b8152fd5b835163d694977f60e01b81528390fd5b8391503461023857606036600319011261023857610485611ee2565b9261048e611ea1565b825490946001600160a01b03946044359491928616330361094c576104b161202f565b60ff80971692600284101561093c57861692831561092c57858252602092600c845288868420541661091e57848352600d84528583205443039443861161090b5760069560065411806108f8575b6108e957438452600e85528987852054168a6007541611156108da57839784985b8b8a16888110156105555761054c8d92600192888a5260098b528c8a20905f528a528b5f205490611ef8565b9a011698610520565b50948a8c8a969597156108ca57838352600c89528683209060ff1991600183825416179055858452600d8a524388852055438452600e8a528784209182549161059f818416611fa5565b1691161790556005549061ffff63ffffffff8851918b83019467ffffffffffffffff95848110878211176108b7578b527f0000000000000000000000000000000000000000000000000000000000000000151584528a51938d63125fa26760e31b908601525115156024850152602484526060840191848310878411176108b7578d9484878f94968f94978c98888b99885261063a81611f65565b7f00000000000000000000000000000000000000000000000000000000000000008152608087017f0000000000000000000000000000000000000000000000000000000000000000815260a0880191838560c01c1683528560c08a019560a01c16855260e0890196600188526101008a01998a526002541699519d8e9b634d8e1c2f60e11b8d528c01525160248b01525160448a01525116606488015251166084860152511660a48401525160c060c48401528051908160e4850152855b82811061089c575050601f9483918261010491838382840101528819988991011681010301925af1998a15610892579085949392918c97969b610816575b505050889492857fffd996438dd23739c6097c4be73bb8e71c08fbcf9d6a5772e51e968641cd9e79959360028b9485519061077082611f65565b8b82528882018d81528783019189835260608401988642168a526080850198808a5260a0860198818a528152600f8d522093511683549160ff60a01b905160a01b16916affffffffffffffffffffff60a81b16171782555160018201550193511669ff00000000000000000068ff00000000000000008554945115158d1b169251151560481b169269ffffffffffffffffffff191617171790558651908152a451908152f35b91939a5091939495913d8c1161088a575b601f8301168301908382108b83111761087757508a9183918a52810103126102855751968893929182817fffd996438dd23739c6097c4be73bb8e71c08fbcf9d6a5772e51e968641cd9e79610736565b604190634e487b7160e01b5f525260245ffd5b3d9250610827565b89513d87823e3d90fd5b81810186015188820161010401528a965087945085016106f8565b60418d634e487b7160e01b5f525260245ffd5b86516305ce024d60e51b81528890fd5b508551634848e44360e01b8152fd5b508551630de30c2360e21b8152fd5b50808452600d85528684205415156104ff565b601182634e487b7160e01b5f525260245ffd5b855163e708082360e01b8152fd5b845163d92e233d60e01b81528390fd5b845163d694977f60e01b81528390fd5b508251630a31c3dd60e41b8152fd5b90503461028557606036600319011261028557610976611e91565b6001600160a01b0360443581811694602435949091868103610af35761099a611fb7565b60ff8516946002861015610459578715610ae35785895260209060088252848a20888b52825260ff858b205460081c1615610ad357906109f6888b979695949389895260088452868920828a52845260ff878a20541690612008565b8686526008815283862090888752528483812055837f000000000000000000000000000000000000000000000000000000000000000016936003541693803b15610acf578351632142170760e11b81526001600160a01b0395861693810193845294909116602083015260408201879052849184919082908490829060600103925af1908115610ac65750610aae575b50807f77bac95a6200e13299ace2b8162c0cdeadbaea42797662a5865192d8eaf7791491a480f35b610ab790611f3d565b610ac257835f610a86565b8380fd5b513d84823e3d90fd5b8580fd5b8451630479201160e41b81528490fd5b835163d92e233d60e01b81528390fd5b5f80fd5b5050346102385781600319360112610238576020905160068152f35b505034610238578060031936011261023857809160ff610b31611e91565b16815260086020528181206024358252602052205460ff825191818116835260081c1615156020820152f35b50503461023857816003193601126102385760209061ffff60055460c01c169051908152f35b50503461023857816003193601126102385760025490516001600160a01b039091168152602090f35b9190503461028557602036600319011261028557610bc8611ee2565b83546001600160a01b03919082163381141580610c63575b610c3b575016918215610c2d5750600280546001600160a01b03191683179055519081527fd1a6a14209a385a964d036e404cb5cfb71f4000cdb03c9366292430787261be690602090a180f35b905163d92e233d60e01b8152fd5b600254845163061db9c160e01b81523381880152602481019290925283166044820152606490fd5b508260025416331415610be0565b505034610238578160031936011261023857905490516001600160a01b039091168152602090f35b505034610238578160031936011261023857602090517f00000000000000000000000000000000000000000000000000000000000000008152f35b505034610238578160031936011261023857517f00000000000000000000000000000000000000000000000000000000000000006001600160a01b03168152602090f35b5050346102385781600319360112610238576020906006549051908152f35b919050346102855780600319360112610285577f3fa9c0902c04787995e15507b0e0ab98b30c606ee451ed0e0701bc3b1d9d5fab913560ff610d77611ea1565b610d7f611fb7565b82600655168060ff19600754161760075582519182526020820152a180f35b91905034610285578260031936011261028557600154916001600160a01b03918284163303610e0a57505082546001600160a01b03198082163390811786559316600155167f8be0079c531659141344cd1fd0a4f28419497f9722a3daafe3b4186f6b6457e08380a380f35b906020606492519162461bcd60e51b8352820152601660248201527526bab9ba10313290383937b837b9b2b21037bbb732b960511b6044820152fd5b9050346102855760209081600319360112610ac25760ff610e65611e91565b60c08551610e7281611f65565b36903716906002821015610efc57508352600b8152818320825190549261ffff84818096168452818160101c16858501528181861c1683850152818160301c1660608501528181841c16608085015260501c1660a0830152610ed382611f65565b519390845b60068310610ee55760c086f35b838060019287855116815201920192019190610ed8565b835163d694977f60e01b8152fd5b905034610285576020366003190112610285578160209360ff923581526011855220541690519015158152f35b5050346102385781600319360112610238576020905160028152f35b90503461028557602036600319011261028557610f6e611ee2565b90610f77611fb7565b6001600160a01b03918216928315610fc7575050816003549182167f16e2accad9173abff57b295b56993ec5d86b3cbf791fea02f02a6616463754ea8580a36001600160a01b0319161760035580f35b5163d92e233d60e01b8152fd5b9050346102855782600319360112610285575490516001600160a01b03909116815260209150f35b50503461023857816003193601126102385760209060ff60025460a01c1690519015158152f35b905034610285578160031936011261028557359063ffffffff8216808303610ac2576024359261ffff841690818503610af3577fc200da6168c2cb10c35e700df518f666b8b23aab8715e5fe688ae6d89bb1881b94611080611fb7565b6005805465ffffffffffff60a01b191660a09390931b63ffffffff60a01b169290921760c09190911b61ffff60c01b1617905582519182526020820152a180f35b9050346102855782600319360112610285578254336001600160a01b0391821614159081611144575b50611137575060207f62e78cea01bee320cd4e420270b5ea74000d11b0c9f74754ebdbfc544b05a2589161111c61202f565b6002805460ff60a01b1916600160a01b17905551338152a180f35b905162c2e32960e21b8152fd5b9050600554163314155f6110ea565b90503461028557602036600319011261028557803590611171611fb7565b818452600f60205282842080546001600160a01b03169390919084158015611206575b80156111f5575b6111e8575050600201805469ff000000000000000000191669010000000000000000001790557f9672a8675acc33dc98858ad3a19c110c0609694dc09dab3b056f03b93e4c2a978380a380f35b5163f41814a760e01b8152fd5b5060ff600284015460481c1661119b565b5060ff6002840154821c16611194565b50503461023857816003193601126102385760209060ff600754169051908152f35b90503461028557602036600319011261028557611253611ee2565b9061125c611fb7565b6001600160a01b03918216928315610fc7575050816005549182167fecd28f4c275f6f16f8579ec28c3e7c3658b59088d30de9ddd62b8ca1977ef6ee8580a36001600160a01b0319161760055580f35b9050346102855782600319360112610285576112c6611fb7565b6002549060ff8260a01c161561130e575060ff60a01b1916600255513381527f5db9ee0a495bf2e6ff9c91a7834c1ba4fdd244a5e8aa4e537bd38aeae4b073aa90602090a180f35b8251638dfc202b60e01b8152fd5b9190503461028557602036600319011261028557611338611ee2565b611340611fb7565b6001600160a01b0390811691821561138d57508183549182167f60c5293782c70b9080e83e261790b280285209d93c36a68814b4c9a150f047de8680a36001600160a01b03191617905580f35b5163d92e233d60e01b81528390fd5b5050346102385760203660031901126102385760209160ff9082906001600160a01b036113c7611ee2565b1681526010855220541690519015158152f35b91905034610285576080366003190112610285576113f6611ee2565b91602435926044359260ff841693848103610af35760643595611417611fb7565b61141f61202f565b60028610156115ed576001600160a01b038481169586156115df57868a526020956010875260ff868c20541680156115cb575b6115bc57888b5260088752858b208a8c52875260ff868c205460081c16156115ad57908a92918884526010885286842060ff199060018282541617905585855260118952600188862091825416179055898452600888528684208b855288526114c38b60ff89872054168098612008565b898452600888528684208b85528852868420805461ff00191690556003548316927f000000000000000000000000000000000000000000000000000000000000000016803b156115a9578751632142170760e11b81526001600160a01b03948516938101938452939091166020830152604082018b9052839183919082908490829060600103925af1801561159f57611587575b50507ffa44e081ba05562bc113adb11188fa32fc0f8b00c7f449c826d9b4cc4d1e869a938351928352820152a480f35b61159090611f3d565b61159b57875f611557565b8780fd5b85513d84823e3d90fd5b8480fd5b508451630479201160e41b8152fd5b508451630c8d9eab60e31b8152fd5b50838b526011875260ff868c205416611452565b845163d92e233d60e01b8152fd5b825163d694977f60e01b81528590fd5b905034610285576020366003190112610285578160209360ff92358152600e85522054169051908152f35b50503461023857816003193601126102385760209063ffffffff60055460a01c169051908152f35b50503461023857816003193601126102385760055490516001600160a01b039091168152602090f35b91905034610285578060031936011261028557611694611e91565b90602435926116a1611fb7565b60ff831692600284101561173c5783865260209160088352838720868852835260ff8488205460081c161561172e5750906116f58587949386865260088452848620828752845260ff858720541690612008565b8383526008815281832090858452528120557f028a4fc8b4696cbcc4f5a8f6a710136792e31ca8bdd587a3ca8e506955582a928380a380f35b8351630479201160e41b8152fd5b50905163d694977f60e01b8152fd5b83915034610af35782600319360112610af3576024928135843567ffffffffffffffff8111610af3576117819036908501611eb1565b949060018060a01b03928360025416803303611a315750805f52602093600f8552855f2092835498828a16158015611a21575b8015611a10575b611a005760028501805468ff00000000000000001916600160401b179055156119ed57359460ff809960a01c16966117f38888612104565b965f975b895f5260098452825f208c82165f528452825f205415806119e1575b1561184b5760068c6118258193611fa5565b160698168b811461183957600101976117f7565b8c60118c634e487b7160e01b5f52525ffd5b94939290918b928b8b805f5260098552835f2092868a1693845f528652845f20549081156119d157906118a59160801c06825f5260098752855f20855f52875261189781875f20611f81565b90549060031b1c9a83612050565b5f5260088452825f20885f528452825f2061ff00198154169055857f00000000000000000000000000000000000000000000000000000000000000001690866003541691878b541690803b15610af3578551632142170760e11b81526001600160a01b03948516938101938452939091166020830152604082018a90525f9183919082908490829060600103925af180156119c757611987575b5091606093917f52903fea91e0049873cd4a5863c2a0cb419afa10144da0500a8c033c19d55345959360018a549a0154928251998a528901528701528660a01c16951693a480f35b7f52903fea91e0049873cd4a5863c2a0cb419afa10144da0500a8c033c19d553459593919950916119ba60609593611f3d565b5f9991939550919361193f565b83513d5f823e3d90fd5b85516305ce024d60e51b81528490fd5b5060068c8a1610611813565b603288634e487b7160e01b5f525260245ffd5b875163f41814a760e01b81528990fd5b5060ff600286015460481c166117bb565b5060ff6002860154891c166117b4565b855163073e64fd60e21b815233818901526024810191909152604490fd5b905034610af35760e0366003190112610af357611a6a611e91565b913660e411610af357611a7b611fb7565b60ff809316926002841015611b88575f80915b600681841610611b5a5750612710915003611b4d57825f52602091600b602052815f2060245f925f5b8660068210611b215750505050555190816024915f915b60068310611afe57857fead69bde6b49ca7ed74a5fc780b639e2b515c739e118d2565f811f8f0a36dade60c087a2005b83359061ffff8216809203610af357828160019382935201940192019192611ace565b8395611b306001939495611f96565b61ffff85871b81811b19909316911690911b179501929101611ab7565b51632fb3cc0760e11b8152fd5b6001611b7e829361ffff611b77611fe08860051b16602401611f96565b1690611ef8565b9301169190611a8e565b505163d694977f60e01b8152fd5b905034610af3576060366003190112610af357611bb1611e91565b67ffffffffffffffff92602435848111610af357611bd29036908501611eb1565b929091604435868111610af357611bec9036908701611eb1565b959094611bf7611fb7565b60ff80941694600286101561045957878203611d86575f5b828110611c1857005b611c23818484611f19565b35611c2f828b8b611f19565b35878116809103610af3576006811015611d7657885f52600890602091808352885f20845f52835289895f2054821c16611d66578851808a018f811182821017611d53578a528281528381016001928382528d5f528086528b5f20875f52865261ff008d8d5f2094511691845493511515901b169161ffff1916171790558a5f526009808452895f20835f528452895f20548c5f52600a85528a5f20865f5285528a5f20558b5f528352885f20825f528352885f20805491600160401b831015611d535792611d4786611d2f8f969560019a9998957f6160b95463eef162e89880a58d5ff8c73f401ae0a3de33147826ad9b64b4d3d69782018155611f81565b90919082549060031b91821b915f19901b1916179055565b8a51908152a301611c0f565b60418a634e487b7160e01b5f525260245ffd5b8851631b74344b60e01b81528890fd5b865163778aa76b60e01b81528690fd5b83516001621398b960e31b031981528390fd5b8234610af3576020366003190112610af35760c091355f52600f60205260ff815f209181835493600260018201549101549283918382519760018060a01b038116895260a01c1660208801528187015267ffffffffffffffff821660608701521c161515608084015260481c16151560a0820152f35b90915034610af3576020906020600319360112610af35760ff9260ff611e33611e91565b16916002831015611e855750505f905f915b8483166006811015611e7b57611e728692600192855f5260098852895f20905f528752885f205490611ef8565b93011691611e45565b6020828851908152f35b63d694977f60e01b8152fd5b6004359060ff82168203610af357565b6024359060ff82168203610af357565b9181601f84011215610af35782359167ffffffffffffffff8311610af3576020808501948460051b010111610af357565b600435906001600160a01b0382168203610af357565b91908201809211611f0557565b634e487b7160e01b5f52601160045260245ffd5b9190811015611f295760051b0190565b634e487b7160e01b5f52603260045260245ffd5b67ffffffffffffffff8111611f5157604052565b634e487b7160e01b5f52604160045260245ffd5b60c0810190811067ffffffffffffffff821117611f5157604052565b8054821015611f29575f5260205f2001905f90565b3561ffff81168103610af35790565b60ff60019116019060ff8211611f0557565b5f546001600160a01b03163303611fca57565b60405162461bcd60e51b815260206004820152601660248201527527b7363c9031b0b63630b1363290313c9037bbb732b960511b6044820152606490fd5b9061202d9260ff83165f52600a60205260405f20905f5260205260405f205491612050565b565b60ff60025460a01c1661203e57565b60405163d93c066560e01b8152600490fd5b60ff909291921691825f52600960205260ff60405f2091165f5260205260405f20908154925f1993848101908111611f05578083036120c6575b505050805480156120b2578201916120a28383611f81565b909182549160031b1b1916905555565b634e487b7160e01b5f52603160045260245ffd5b6120d09084611f81565b90549060031b1c906120e682611d2f8587611f81565b5f52600a60205260405f20905f5260205260405f20555f808061208a565b909160ff8093165f52600b60205261271060405f209261ffff9182910616905f935f5b600680888316101561218957811015611f2957600495838083891c85015460f0858b1b161c16911601958387116121765750828616841061216c576001018616612127565b9450505050915090565b601190634e487b7160e01b5f525260245ffd5b505050505091505060059056fea26469706673582212204b3a528f916636b11e9e28c181699d6c0fe2c2c35715e5246a6ca9c3e350165664736f6c63430008180033","opcodes":"PUSH2 0x100 CALLVALUE PUSH3 0x5C3 JUMPI PUSH3 0x2810 PUSH1 0x1 PUSH1 0x1 PUSH1 0x40 SHL SUB CODESIZE DUP3 SWAP1 SUB PUSH1 0x1F DUP2 ADD PUSH1 0x1F NOT AND DUP5 ADD DUP3 DUP2 GT DUP6 DUP3 LT OR PUSH3 0x5C7 JUMPI DUP5 SWAP4 DUP3 SWAP2 PUSH1 0x40 MSTORE DUP5 CODECOPY PUSH2 0x180 SWAP3 DUP4 SWAP2 DUP2 ADD SUB SLT PUSH3 0x5C3 JUMPI PUSH1 0x40 MLOAD SWAP2 DUP3 ADD SWAP1 DUP2 GT DUP3 DUP3 LT OR PUSH3 0x5C7 JUMPI PUSH1 0x40 MSTORE PUSH3 0x66 DUP3 PUSH3 0x5FB JUMP JUMPDEST DUP2 MSTORE PUSH3 0x76 PUSH1 0x20 DUP4 ADD PUSH3 0x5FB JUMP JUMPDEST PUSH1 0x20 DUP3 ADD MSTORE PUSH3 0x89 PUSH1 0x40 DUP4 ADD PUSH3 0x5FB JUMP JUMPDEST PUSH1 0x40 DUP3 ADD MSTORE PUSH3 0x9C PUSH1 0x60 DUP4 ADD PUSH3 0x5FB JUMP JUMPDEST PUSH1 0x60 DUP3 ADD MSTORE PUSH3 0xAF PUSH1 0x80 DUP4 ADD PUSH3 0x5FB JUMP JUMPDEST DUP1 PUSH1 0x80 DUP4 ADD MSTORE PUSH1 0xA0 DUP4 ADD MLOAD PUSH1 0xA0 DUP4 ADD MSTORE PUSH1 0xC0 DUP4 ADD MLOAD PUSH1 0xC0 DUP4 ADD MSTORE PUSH1 0xE0 DUP4 ADD MLOAD DUP1 ISZERO ISZERO DUP2 SUB PUSH3 0x5C3 JUMPI PUSH1 0xE0 DUP4 ADD MSTORE PUSH2 0x100 DUP1 DUP5 ADD MLOAD PUSH4 0xFFFFFFFF DUP2 AND DUP2 SUB PUSH3 0x5C3 JUMPI DUP2 DUP5 ADD MSTORE PUSH2 0x120 SWAP2 DUP3 DUP6 ADD MLOAD PUSH2 0xFFFF DUP2 AND DUP2 SUB PUSH3 0x5C3 JUMPI DUP4 DUP6 ADD MSTORE PUSH2 0x140 SWAP1 DUP2 DUP7 ADD MLOAD DUP3 DUP7 ADD MSTORE PUSH2 0x160 DUP1 SWAP7 ADD MLOAD PUSH1 0xFF DUP2 AND DUP2 SUB PUSH3 0x5C3 JUMPI DUP6 DUP8 ADD MSTORE PUSH1 0x1 PUSH1 0x1 PUSH1 0xA0 SHL SUB AND CALLER ISZERO PUSH3 0x57E JUMPI PUSH0 DUP1 SLOAD PUSH1 0x1 PUSH1 0x1 PUSH1 0xA0 SHL SUB NOT AND CALLER OR SWAP1 SSTORE DUP1 ISZERO PUSH3 0x52A JUMPI PUSH1 0x2 DUP1 SLOAD PUSH1 0x1 PUSH1 0x1 PUSH1 0xA0 SHL SUB NOT AND SWAP2 SWAP1 SWAP2 OR SWAP1 SSTORE DUP4 MLOAD PUSH1 0x1 PUSH1 0x1 PUSH1 0xA0 SHL SUB AND ISZERO DUP1 ISZERO PUSH3 0x568 JUMPI JUMPDEST DUP1 ISZERO PUSH3 0x552 JUMPI JUMPDEST DUP1 ISZERO PUSH3 0x53C JUMPI JUMPDEST PUSH3 0x52A JUMPI PUSH1 0x1 DUP1 PUSH1 0xA0 SHL SUB DUP5 MLOAD AND PUSH1 0x80 MSTORE PUSH1 0xA0 DUP5 ADD MLOAD PUSH1 0xA0 MSTORE PUSH1 0xC0 DUP5 ADD MLOAD PUSH1 0xC0 MSTORE PUSH1 0xE0 DUP5 ADD MLOAD ISZERO ISZERO PUSH1 0xE0 MSTORE PUSH1 0x1 DUP1 PUSH1 0xA0 SHL SUB PUSH1 0x20 DUP6 ADD MLOAD AND PUSH1 0x1 DUP1 PUSH1 0xA0 SHL SUB NOT PUSH1 0x3 SLOAD AND OR PUSH1 0x3 SSTORE PUSH1 0x1 DUP1 PUSH1 0xA0 SHL SUB PUSH1 0x40 DUP6 ADD MLOAD AND PUSH1 0x1 DUP1 PUSH1 0xA0 SHL SUB NOT PUSH1 0x4 SLOAD AND OR PUSH1 0x4 SSTORE PUSH1 0x1 DUP1 PUSH1 0xA0 SHL SUB PUSH1 0x60 DUP6 ADD MLOAD AND PUSH1 0x5 SLOAD SWAP1 PUSH4 0xFFFFFFFF PUSH1 0xA0 SHL DUP5 DUP8 ADD MLOAD PUSH1 0xA0 SHL AND SWAP1 PUSH2 0xFFFF PUSH1 0xC0 SHL DUP7 DUP9 ADD MLOAD PUSH1 0xC0 SHL AND SWAP3 PUSH1 0x1 DUP1 PUSH1 0xD0 SHL SUB NOT AND OR OR OR PUSH1 0x5 SSTORE DUP1 DUP5 ADD MLOAD PUSH1 0x6 SSTORE PUSH1 0xFF DUP6 DUP6 ADD MLOAD AND PUSH1 0xFF NOT PUSH1 0x7 SLOAD AND OR PUSH1 0x7 SSTORE PUSH3 0x259 PUSH3 0x5DB JUMP JUMPDEST SWAP5 PUSH1 0xC0 CALLDATASIZE DUP8 CALLDATACOPY PUSH2 0xC12 DUP7 MSTORE PUSH2 0x1186 PUSH1 0x20 DUP8 ADD MSTORE PUSH2 0x82E PUSH1 0x40 DUP8 ADD MSTORE PUSH2 0x12C PUSH1 0x60 DUP8 ADD MSTORE PUSH1 0x14 PUSH1 0x80 DUP8 ADD MSTORE PUSH1 0xA PUSH1 0xA0 DUP8 ADD MSTORE PUSH0 DUP1 MSTORE PUSH1 0xB PUSH1 0x20 MSTORE PUSH1 0x40 PUSH0 KECCAK256 DUP7 SWAP1 PUSH0 SWAP2 PUSH0 JUMPDEST PUSH1 0x6 DUP2 LT PUSH3 0x4F7 JUMPI POP POP SSTORE PUSH3 0x2B2 PUSH3 0x5DB JUMP JUMPDEST PUSH1 0xC0 CALLDATASIZE DUP3 CALLDATACOPY PUSH2 0x1379 DUP2 MSTORE PUSH2 0x9BD PUSH1 0x20 DUP3 ADD MSTORE PUSH2 0x891 PUSH1 0x40 DUP3 ADD MSTORE PUSH2 0x12B PUSH1 0x60 DUP3 ADD MSTORE PUSH1 0x1E PUSH1 0x80 DUP3 ADD MSTORE PUSH0 PUSH1 0xA0 DUP3 ADD MSTORE PUSH1 0x1 PUSH0 MSTORE PUSH1 0xB PUSH1 0x20 MSTORE PUSH1 0x40 PUSH0 KECCAK256 DUP2 SWAP1 PUSH0 SWAP2 PUSH0 JUMPDEST PUSH1 0x6 DUP2 LT PUSH3 0x4C2 JUMPI POP POP PUSH1 0x40 SWAP8 SWAP7 SWAP5 PUSH4 0xFFFFFFFF SWAP5 PUSH1 0x1 PUSH3 0x390 PUSH3 0x39F PUSH2 0xFFFF SWAP11 SWAP8 PUSH0 PUSH32 0xC200DA6168C2CB10C35E700DF518F666B8B23AAB8715E5FE688AE6D89BB1881B SWAP16 DUP16 SWAP9 SWAP10 PUSH32 0x3FA9C0902C04787995E15507B0E0AB98B30C606EE451ED0E0701BC3B1D9D5FAB SWAP11 SSTORE DUP9 MLOAD DUP1 PUSH32 0xEAD69BDE6B49CA7ED74A5FC780B639E2B515C739E118D2565F811F8F0A36DADE SWAP7 DUP8 SWAP4 DUP3 PUSH3 0x610 JUMP JUMPDEST SUB SWAP1 LOG2 DUP7 MLOAD SWAP2 DUP3 SWAP2 DUP3 PUSH3 0x610 JUMP JUMPDEST SUB SWAP1 LOG2 DUP9 DUP4 ADD MLOAD DUP4 MLOAD SWAP3 PUSH1 0xFF SWAP2 PUSH1 0x1 PUSH1 0x1 PUSH1 0xA0 SHL SUB AND PUSH0 PUSH32 0x60C5293782C70B9080E83E261790B280285209D93C36A68814B4C9A150F047DE DUP2 DUP1 LOG3 PUSH1 0x20 DUP12 ADD MLOAD PUSH1 0x1 PUSH1 0x1 PUSH1 0xA0 SHL SUB AND PUSH0 PUSH32 0x16E2ACCAD9173ABFF57B295B56993EC5D86B3CBF791FEA02F02A6616463754EA DUP2 DUP1 LOG3 PUSH1 0x60 DUP12 ADD MLOAD PUSH1 0x1 PUSH1 0x1 PUSH1 0xA0 SHL SUB AND PUSH0 PUSH32 0xECD28F4C275F6F16F8579EC28C3E7C3658B59088D30DE9DDD62B8CA1977EF6EE DUP2 DUP1 LOG3 DUP11 ADD MLOAD SWAP2 DUP11 ADD MLOAD AND SWAP1 DUP3 MSTORE PUSH1 0x20 DUP3 ADD MSTORE LOG1 DUP5 ADD MLOAD AND SWAP3 ADD MLOAD AND DUP3 MLOAD SWAP2 DUP3 MSTORE PUSH1 0x20 DUP3 ADD MSTORE LOG1 PUSH1 0x40 MLOAD PUSH2 0x21CC SWAP1 DUP2 PUSH3 0x644 DUP3 CODECOPY PUSH1 0x80 MLOAD DUP2 DUP2 DUP2 PUSH2 0xA0D ADD MSTORE DUP2 DUP2 PUSH2 0xCE9 ADD MSTORE DUP2 DUP2 PUSH2 0x14E6 ADD MSTORE PUSH2 0x18C2 ADD MSTORE PUSH1 0xA0 MLOAD DUP2 DUP2 DUP2 PUSH2 0x3CE ADD MSTORE PUSH2 0x63C ADD MSTORE PUSH1 0xC0 MLOAD DUP2 DUP2 DUP2 PUSH2 0x663 ADD MSTORE PUSH2 0xCB1 ADD MSTORE PUSH1 0xE0 MLOAD DUP2 DUP2 DUP2 PUSH2 0x391 ADD MSTORE PUSH2 0x5D1 ADD MSTORE RETURN JUMPDEST SWAP1 SWAP10 SWAP3 PUSH1 0x20 PUSH3 0x4EC PUSH1 0x1 SWAP3 PUSH2 0xFFFF DUP15 MLOAD AND SWAP1 DUP6 DUP6 SHL PUSH1 0x3 SHL SWAP2 PUSH2 0xFFFF DUP1 SWAP2 AND DUP4 SHL SWAP3 SHL NOT AND OR SWAP1 JUMP JUMPDEST SWAP5 SWAP12 ADD SWAP2 ADD PUSH3 0x2F4 JUMP JUMPDEST SWAP1 SWAP3 PUSH1 0x20 PUSH3 0x520 PUSH1 0x1 SWAP3 PUSH2 0xFFFF DUP8 MLOAD AND SWAP1 DUP6 DUP6 SHL PUSH1 0x3 SHL SWAP2 PUSH2 0xFFFF DUP1 SWAP2 AND DUP4 SHL SWAP3 SHL NOT AND OR SWAP1 JUMP JUMPDEST SWAP5 ADD SWAP2 ADD PUSH3 0x29C JUMP JUMPDEST PUSH1 0x40 MLOAD PUSH4 0xD92E233D PUSH1 0xE0 SHL DUP2 MSTORE PUSH1 0x4 SWAP1 REVERT JUMPDEST POP PUSH1 0x60 DUP5 ADD MLOAD PUSH1 0x1 PUSH1 0x1 PUSH1 0xA0 SHL SUB AND ISZERO PUSH3 0x190 JUMP JUMPDEST POP PUSH1 0x40 DUP5 ADD MLOAD PUSH1 0x1 PUSH1 0x1 PUSH1 0xA0 SHL SUB AND ISZERO PUSH3 0x188 JUMP JUMPDEST POP PUSH1 0x20 DUP5 ADD MLOAD PUSH1 0x1 PUSH1 0x1 PUSH1 0xA0 SHL SUB AND ISZERO PUSH3 0x180 JUMP JUMPDEST PUSH1 0x40 MLOAD PUSH3 0x461BCD PUSH1 0xE5 SHL DUP2 MSTORE PUSH1 0x20 PUSH1 0x4 DUP3 ADD MSTORE PUSH1 0x18 PUSH1 0x24 DUP3 ADD MSTORE PUSH32 0x43616E6E6F7420736574206F776E657220746F207A65726F0000000000000000 PUSH1 0x44 DUP3 ADD MSTORE PUSH1 0x64 SWAP1 REVERT JUMPDEST PUSH0 DUP1 REVERT JUMPDEST PUSH4 0x4E487B71 PUSH1 0xE0 SHL PUSH0 MSTORE PUSH1 0x41 PUSH1 0x4 MSTORE PUSH1 0x24 PUSH0 REVERT JUMPDEST PUSH1 0x40 MLOAD SWAP1 PUSH1 0xC0 DUP3 ADD PUSH1 0x1 PUSH1 0x1 PUSH1 0x40 SHL SUB DUP2 GT DUP4 DUP3 LT OR PUSH3 0x5C7 JUMPI PUSH1 0x40 MSTORE JUMP JUMPDEST MLOAD SWAP1 PUSH1 0x1 PUSH1 0x1 PUSH1 0xA0 SHL SUB DUP3 AND DUP3 SUB PUSH3 0x5C3 JUMPI JUMP JUMPDEST PUSH1 0xC0 DUP2 ADD SWAP3 SWAP2 PUSH0 SWAP2 JUMPDEST PUSH1 0x6 DUP4 LT PUSH3 0x627 JUMPI POP POP POP JUMP JUMPDEST PUSH1 0x1 SWAP1 PUSH2 0xFFFF DUP4 MLOAD AND DUP2 MSTORE PUSH1 0x20 DUP1 SWAP2 ADD SWAP3 ADD SWAP3 ADD SWAP2 SWAP1 PUSH3 0x619 JUMP INVALID PUSH1 0x80 PUSH1 0x40 DUP2 DUP2 MSTORE PUSH1 0x4 SWAP2 DUP3 CALLDATASIZE LT ISZERO PUSH2 0x15 JUMPI PUSH0 DUP1 REVERT JUMPDEST PUSH0 SWAP3 PUSH0 CALLDATALOAD PUSH1 0xE0 SHR SWAP2 DUP3 PUSH4 0x194F9A3 EQ PUSH2 0x1E0F JUMPI POP DUP2 PUSH4 0x8A52D05 EQ PUSH2 0x1D99 JUMPI DUP2 PUSH4 0x122E934E EQ PUSH2 0x1B96 JUMPI DUP2 PUSH4 0x14EF0C2C EQ PUSH2 0x1A4F JUMPI DUP2 PUSH4 0x1FE543E3 EQ PUSH2 0x174B JUMPI DUP2 PUSH4 0x21AB305B EQ PUSH2 0x1679 JUMPI DUP2 PUSH4 0x24A3D622 EQ PUSH2 0x1650 JUMPI DUP2 PUSH4 0x24F74697 EQ PUSH2 0x1628 JUMPI DUP2 PUSH4 0x257AD931 EQ PUSH2 0x15FD JUMPI DUP2 PUSH4 0x26D3F3D8 EQ PUSH2 0x13DA JUMPI DUP2 PUSH4 0x31425294 EQ PUSH2 0x139C JUMPI DUP2 PUSH4 0x36F95670 EQ PUSH2 0x131C JUMPI DUP2 PUSH4 0x3F4BA83A EQ PUSH2 0x12AC JUMPI DUP2 PUSH4 0x48BDE20C EQ PUSH2 0x1238 JUMPI DUP2 PUSH4 0x48F87F7B EQ PUSH2 0x1216 JUMPI DUP2 PUSH4 0x4CFD6B40 EQ PUSH2 0x1153 JUMPI DUP2 PUSH4 0x51858E27 EQ PUSH2 0x10C1 JUMPI DUP2 PUSH4 0x54D7BE2D EQ PUSH2 0x1023 JUMPI DUP2 PUSH4 0x5C975ABB EQ PUSH2 0xFFC JUMPI DUP2 PUSH4 0x65D65E86 EQ PUSH2 0xFD4 JUMPI DUP2 PUSH4 0x6817031B EQ PUSH2 0xF53 JUMPI DUP2 PUSH4 0x68F1FB93 EQ PUSH2 0xF37 JUMPI DUP2 PUSH4 0x75506C47 EQ PUSH2 0xF0A JUMPI DUP2 PUSH4 0x79396B32 EQ PUSH2 0xE46 JUMPI DUP2 PUSH4 0x79BA5097 EQ PUSH2 0xD9E JUMPI DUP2 PUSH4 0x7B90F215 EQ PUSH2 0xD37 JUMPI DUP2 PUSH4 0x7BE4DD84 EQ PUSH2 0xD18 JUMPI DUP2 PUSH4 0x7C0B8DE2 EQ PUSH2 0xCD4 JUMPI DUP2 PUSH4 0x83109708 EQ PUSH2 0xC99 JUMPI DUP2 PUSH4 0x8DA5CB5B EQ PUSH2 0xC71 JUMPI DUP2 PUSH4 0x8EA98117 EQ PUSH2 0xBAC JUMPI DUP2 PUSH4 0x9ECCACF6 EQ PUSH2 0xB83 JUMPI DUP2 PUSH4 0xB0FB162F EQ PUSH2 0xB5D JUMPI DUP2 PUSH4 0xBCD82DE9 EQ PUSH2 0xB13 JUMPI DUP2 PUSH4 0xC56CA84E EQ PUSH2 0xAF7 JUMPI DUP2 PUSH4 0xC92F9658 EQ PUSH2 0x95B JUMPI DUP2 PUSH4 0xD14D3DE0 EQ PUSH2 0x469 JUMPI DUP2 PUSH4 0xD7894B82 EQ PUSH2 0x3F1 JUMPI DUP2 PUSH4 0xDA06A5F0 EQ PUSH2 0x3B6 JUMPI DUP2 PUSH4 0xEADF2280 EQ PUSH2 0x379 JUMPI DUP2 PUSH4 0xEB96F26C EQ PUSH2 0x341 JUMPI DUP2 PUSH4 0xF2FDE38B EQ PUSH2 0x289 JUMPI DUP2 PUSH4 0xF444B6EB EQ PUSH2 0x258 JUMPI POP DUP1 PUSH4 0xF6C59961 EQ PUSH2 0x23C JUMPI PUSH4 0xFBFA77CF EQ PUSH2 0x211 JUMPI PUSH0 DUP1 REVERT JUMPDEST CALLVALUE PUSH2 0x238 JUMPI DUP2 PUSH1 0x3 NOT CALLDATASIZE ADD SLT PUSH2 0x238 JUMPI PUSH1 0x3 SLOAD SWAP1 MLOAD PUSH1 0x1 PUSH1 0x1 PUSH1 0xA0 SHL SUB SWAP1 SWAP2 AND DUP2 MSTORE PUSH1 0x20 SWAP1 RETURN JUMPDEST POP DUP1 REVERT JUMPDEST POP CALLVALUE PUSH2 0x238 JUMPI DUP2 PUSH1 0x3 NOT CALLDATASIZE ADD SLT PUSH2 0x238 JUMPI PUSH1 0x20 SWAP1 MLOAD PUSH2 0x2710 DUP2 MSTORE RETURN JUMPDEST SWAP1 POP CALLVALUE PUSH2 0x285 JUMPI PUSH1 0x20 CALLDATASIZE PUSH1 0x3 NOT ADD SLT PUSH2 0x285 JUMPI DUP2 PUSH1 0x20 SWAP4 PUSH1 0xFF SWAP3 CALLDATALOAD DUP2 MSTORE PUSH1 0xC DUP6 MSTORE KECCAK256 SLOAD AND SWAP1 MLOAD SWAP1 ISZERO ISZERO DUP2 MSTORE RETURN JUMPDEST DUP3 DUP1 REVERT JUMPDEST SWAP1 POP CALLVALUE PUSH2 0x285 JUMPI PUSH1 0x20 CALLDATASIZE PUSH1 0x3 NOT ADD SLT PUSH2 0x285 JUMPI PUSH2 0x2A4 PUSH2 0x1EE2 JUMP JUMPDEST SWAP1 PUSH2 0x2AD PUSH2 0x1FB7 JUMP JUMPDEST PUSH1 0x1 PUSH1 0x1 PUSH1 0xA0 SHL SUB SWAP2 DUP3 AND SWAP3 CALLER DUP5 EQ PUSH2 0x2FE JUMPI POP POP PUSH1 0x1 DUP1 SLOAD PUSH1 0x1 PUSH1 0x1 PUSH1 0xA0 SHL SUB NOT AND DUP4 OR SWAP1 SSTORE DUP3 SLOAD AND PUSH32 0xED8889F560326EB138920D842192F0EB3DD22B4F139C87A2C57538E05BAE1278 DUP4 DUP1 LOG3 DUP1 RETURN JUMPDEST SWAP1 PUSH1 0x20 PUSH1 0x64 SWAP3 MLOAD SWAP2 PUSH3 0x461BCD PUSH1 0xE5 SHL DUP4 MSTORE DUP3 ADD MSTORE PUSH1 0x17 PUSH1 0x24 DUP3 ADD MSTORE PUSH32 0x43616E6E6F74207472616E7366657220746F2073656C66000000000000000000 PUSH1 0x44 DUP3 ADD MSTORE REVERT JUMPDEST POP POP CALLVALUE PUSH2 0x238 JUMPI PUSH1 0x20 CALLDATASIZE PUSH1 0x3 NOT ADD SLT PUSH2 0x238 JUMPI PUSH1 0x20 SWAP2 DUP2 SWAP1 PUSH1 0x1 PUSH1 0x1 PUSH1 0xA0 SHL SUB PUSH2 0x369 PUSH2 0x1EE2 JUMP JUMPDEST AND DUP2 MSTORE PUSH1 0xD DUP5 MSTORE KECCAK256 SLOAD SWAP1 MLOAD SWAP1 DUP2 MSTORE RETURN JUMPDEST POP POP CALLVALUE PUSH2 0x238 JUMPI DUP2 PUSH1 0x3 NOT CALLDATASIZE ADD SLT PUSH2 0x238 JUMPI PUSH1 0x20 SWAP1 MLOAD PUSH32 0x0 ISZERO ISZERO DUP2 MSTORE RETURN JUMPDEST POP POP CALLVALUE PUSH2 0x238 JUMPI DUP2 PUSH1 0x3 NOT CALLDATASIZE ADD SLT PUSH2 0x238 JUMPI PUSH1 0x20 SWAP1 MLOAD PUSH32 0x0 DUP2 MSTORE RETURN JUMPDEST SWAP1 POP CALLVALUE PUSH2 0x285 JUMPI DUP2 PUSH1 0x3 NOT CALLDATASIZE ADD SLT PUSH2 0x285 JUMPI PUSH2 0x40B PUSH2 0x1E91 JUMP JUMPDEST PUSH1 0xFF PUSH2 0x415 PUSH2 0x1EA1 JUMP JUMPDEST SWAP2 AND SWAP1 PUSH1 0x2 DUP3 LT ISZERO PUSH2 0x459 JUMPI PUSH1 0xFF AND SWAP2 PUSH1 0x6 DUP4 LT ISZERO PUSH2 0x44B JUMPI POP DUP4 DUP4 SWAP2 PUSH1 0x20 SWAP6 MSTORE PUSH1 0x9 DUP6 MSTORE KECCAK256 SWAP1 PUSH0 MSTORE DUP3 MSTORE DUP1 PUSH0 KECCAK256 SLOAD SWAP1 MLOAD SWAP1 DUP2 MSTORE RETURN JUMPDEST DUP4 MLOAD PUSH4 0x778AA76B PUSH1 0xE0 SHL DUP2 MSTORE REVERT JUMPDEST DUP4 MLOAD PUSH4 0xD694977F PUSH1 0xE0 SHL DUP2 MSTORE DUP4 SWAP1 REVERT JUMPDEST DUP4 SWAP2 POP CALLVALUE PUSH2 0x238 JUMPI PUSH1 0x60 CALLDATASIZE PUSH1 0x3 NOT ADD SLT PUSH2 0x238 JUMPI PUSH2 0x485 PUSH2 0x1EE2 JUMP JUMPDEST SWAP3 PUSH2 0x48E PUSH2 0x1EA1 JUMP JUMPDEST DUP3 SLOAD SWAP1 SWAP5 PUSH1 0x1 PUSH1 0x1 PUSH1 0xA0 SHL SUB SWAP5 PUSH1 0x44 CALLDATALOAD SWAP5 SWAP2 SWAP3 DUP7 AND CALLER SUB PUSH2 0x94C JUMPI PUSH2 0x4B1 PUSH2 0x202F JUMP JUMPDEST PUSH1 0xFF DUP1 SWAP8 AND SWAP3 PUSH1 0x2 DUP5 LT ISZERO PUSH2 0x93C JUMPI DUP7 AND SWAP3 DUP4 ISZERO PUSH2 0x92C JUMPI DUP6 DUP3 MSTORE PUSH1 0x20 SWAP3 PUSH1 0xC DUP5 MSTORE DUP9 DUP7 DUP5 KECCAK256 SLOAD AND PUSH2 0x91E JUMPI DUP5 DUP4 MSTORE PUSH1 0xD DUP5 MSTORE DUP6 DUP4 KECCAK256 SLOAD NUMBER SUB SWAP5 NUMBER DUP7 GT PUSH2 0x90B JUMPI PUSH1 0x6 SWAP6 PUSH1 0x6 SLOAD GT DUP1 PUSH2 0x8F8 JUMPI JUMPDEST PUSH2 0x8E9 JUMPI NUMBER DUP5 MSTORE PUSH1 0xE DUP6 MSTORE DUP10 DUP8 DUP6 KECCAK256 SLOAD AND DUP11 PUSH1 0x7 SLOAD AND GT ISZERO PUSH2 0x8DA JUMPI DUP4 SWAP8 DUP5 SWAP9 JUMPDEST DUP12 DUP11 AND DUP9 DUP2 LT ISZERO PUSH2 0x555 JUMPI PUSH2 0x54C DUP14 SWAP3 PUSH1 0x1 SWAP3 DUP9 DUP11 MSTORE PUSH1 0x9 DUP12 MSTORE DUP13 DUP11 KECCAK256 SWAP1 PUSH0 MSTORE DUP11 MSTORE DUP12 PUSH0 KECCAK256 SLOAD SWAP1 PUSH2 0x1EF8 JUMP JUMPDEST SWAP11 ADD AND SWAP9 PUSH2 0x520 JUMP JUMPDEST POP SWAP5 DUP11 DUP13 DUP11 SWAP7 SWAP6 SWAP8 ISZERO PUSH2 0x8CA JUMPI DUP4 DUP4 MSTORE PUSH1 0xC DUP10 MSTORE DUP7 DUP4 KECCAK256 SWAP1 PUSH1 0xFF NOT SWAP2 PUSH1 0x1 DUP4 DUP3 SLOAD AND OR SWAP1 SSTORE DUP6 DUP5 MSTORE PUSH1 0xD DUP11 MSTORE NUMBER DUP9 DUP6 KECCAK256 SSTORE NUMBER DUP5 MSTORE PUSH1 0xE DUP11 MSTORE DUP8 DUP5 KECCAK256 SWAP2 DUP3 SLOAD SWAP2 PUSH2 0x59F DUP2 DUP5 AND PUSH2 0x1FA5 JUMP JUMPDEST AND SWAP2 AND OR SWAP1 SSTORE PUSH1 0x5 SLOAD SWAP1 PUSH2 0xFFFF PUSH4 0xFFFFFFFF DUP9 MLOAD SWAP2 DUP12 DUP4 ADD SWAP5 PUSH8 0xFFFFFFFFFFFFFFFF SWAP6 DUP5 DUP2 LT DUP8 DUP3 GT OR PUSH2 0x8B7 JUMPI DUP12 MSTORE PUSH32 0x0 ISZERO ISZERO DUP5 MSTORE DUP11 MLOAD SWAP4 DUP14 PUSH4 0x125FA267 PUSH1 0xE3 SHL SWAP1 DUP7 ADD MSTORE MLOAD ISZERO ISZERO PUSH1 0x24 DUP6 ADD MSTORE PUSH1 0x24 DUP5 MSTORE PUSH1 0x60 DUP5 ADD SWAP2 DUP5 DUP4 LT DUP8 DUP5 GT OR PUSH2 0x8B7 JUMPI DUP14 SWAP5 DUP5 DUP8 DUP16 SWAP5 SWAP7 DUP16 SWAP5 SWAP8 DUP13 SWAP9 DUP9 DUP12 SWAP10 DUP9 MSTORE PUSH2 0x63A DUP2 PUSH2 0x1F65 JUMP JUMPDEST PUSH32 0x0 DUP2 MSTORE PUSH1 0x80 DUP8 ADD PUSH32 0x0 DUP2 MSTORE PUSH1 0xA0 DUP9 ADD SWAP2 DUP4 DUP6 PUSH1 0xC0 SHR AND DUP4 MSTORE DUP6 PUSH1 0xC0 DUP11 ADD SWAP6 PUSH1 0xA0 SHR AND DUP6 MSTORE PUSH1 0xE0 DUP10 ADD SWAP7 PUSH1 0x1 DUP9 MSTORE PUSH2 0x100 DUP11 ADD SWAP10 DUP11 MSTORE PUSH1 0x2 SLOAD AND SWAP10 MLOAD SWAP14 DUP15 SWAP12 PUSH4 0x4D8E1C2F PUSH1 0xE1 SHL DUP14 MSTORE DUP13 ADD MSTORE MLOAD PUSH1 0x24 DUP12 ADD MSTORE MLOAD PUSH1 0x44 DUP11 ADD MSTORE MLOAD AND PUSH1 0x64 DUP9 ADD MSTORE MLOAD AND PUSH1 0x84 DUP7 ADD MSTORE MLOAD AND PUSH1 0xA4 DUP5 ADD MSTORE MLOAD PUSH1 0xC0 PUSH1 0xC4 DUP5 ADD MSTORE DUP1 MLOAD SWAP1 DUP2 PUSH1 0xE4 DUP6 ADD MSTORE DUP6 JUMPDEST DUP3 DUP2 LT PUSH2 0x89C JUMPI POP POP PUSH1 0x1F SWAP5 DUP4 SWAP2 DUP3 PUSH2 0x104 SWAP2 DUP4 DUP4 DUP3 DUP5 ADD ADD MSTORE DUP9 NOT SWAP9 DUP10 SWAP2 ADD AND DUP2 ADD SUB ADD SWAP3 GAS CALL SWAP10 DUP11 ISZERO PUSH2 0x892 JUMPI SWAP1 DUP6 SWAP5 SWAP4 SWAP3 SWAP2 DUP13 SWAP8 SWAP7 SWAP12 PUSH2 0x816 JUMPI JUMPDEST POP POP POP DUP9 SWAP5 SWAP3 DUP6 PUSH32 0xFFD996438DD23739C6097C4BE73BB8E71C08FBCF9D6A5772E51E968641CD9E79 SWAP6 SWAP4 PUSH1 0x2 DUP12 SWAP5 DUP6 MLOAD SWAP1 PUSH2 0x770 DUP3 PUSH2 0x1F65 JUMP JUMPDEST DUP12 DUP3 MSTORE DUP9 DUP3 ADD DUP14 DUP2 MSTORE DUP8 DUP4 ADD SWAP2 DUP10 DUP4 MSTORE PUSH1 0x60 DUP5 ADD SWAP9 DUP7 TIMESTAMP AND DUP11 MSTORE PUSH1 0x80 DUP6 ADD SWAP9 DUP1 DUP11 MSTORE PUSH1 0xA0 DUP7 ADD SWAP9 DUP2 DUP11 MSTORE DUP2 MSTORE PUSH1 0xF DUP14 MSTORE KECCAK256 SWAP4 MLOAD AND DUP4 SLOAD SWAP2 PUSH1 0xFF PUSH1 0xA0 SHL SWAP1 MLOAD PUSH1 0xA0 SHL AND SWAP2 PUSH11 0xFFFFFFFFFFFFFFFFFFFFFF PUSH1 0xA8 SHL AND OR OR DUP3 SSTORE MLOAD PUSH1 0x1 DUP3 ADD SSTORE ADD SWAP4 MLOAD AND PUSH10 0xFF000000000000000000 PUSH9 0xFF0000000000000000 DUP6 SLOAD SWAP5 MLOAD ISZERO ISZERO DUP14 SHL AND SWAP3 MLOAD ISZERO ISZERO PUSH1 0x48 SHL AND SWAP3 PUSH10 0xFFFFFFFFFFFFFFFFFFFF NOT AND OR OR OR SWAP1 SSTORE DUP7 MLOAD SWAP1 DUP2 MSTORE LOG4 MLOAD SWAP1 DUP2 MSTORE RETURN JUMPDEST SWAP2 SWAP4 SWAP11 POP SWAP2 SWAP4 SWAP5 SWAP6 SWAP2 RETURNDATASIZE DUP13 GT PUSH2 0x88A JUMPI JUMPDEST PUSH1 0x1F DUP4 ADD AND DUP4 ADD SWAP1 DUP4 DUP3 LT DUP12 DUP4 GT OR PUSH2 0x877 JUMPI POP DUP11 SWAP2 DUP4 SWAP2 DUP11 MSTORE DUP2 ADD SUB SLT PUSH2 0x285 JUMPI MLOAD SWAP7 DUP9 SWAP4 SWAP3 SWAP2 DUP3 DUP2 PUSH32 0xFFD996438DD23739C6097C4BE73BB8E71C08FBCF9D6A5772E51E968641CD9E79 PUSH2 0x736 JUMP JUMPDEST PUSH1 0x41 SWAP1 PUSH4 0x4E487B71 PUSH1 0xE0 SHL PUSH0 MSTORE MSTORE PUSH1 0x24 PUSH0 REVERT JUMPDEST RETURNDATASIZE SWAP3 POP PUSH2 0x827 JUMP JUMPDEST DUP10 MLOAD RETURNDATASIZE DUP8 DUP3 RETURNDATACOPY RETURNDATASIZE SWAP1 REVERT JUMPDEST DUP2 DUP2 ADD DUP7 ADD MLOAD DUP9 DUP3 ADD PUSH2 0x104 ADD MSTORE DUP11 SWAP7 POP DUP8 SWAP5 POP DUP6 ADD PUSH2 0x6F8 JUMP JUMPDEST PUSH1 0x41 DUP14 PUSH4 0x4E487B71 PUSH1 0xE0 SHL PUSH0 MSTORE MSTORE PUSH1 0x24 PUSH0 REVERT JUMPDEST DUP7 MLOAD PUSH4 0x5CE024D PUSH1 0xE5 SHL DUP2 MSTORE DUP9 SWAP1 REVERT JUMPDEST POP DUP6 MLOAD PUSH4 0x4848E443 PUSH1 0xE0 SHL DUP2 MSTORE REVERT JUMPDEST POP DUP6 MLOAD PUSH4 0xDE30C23 PUSH1 0xE2 SHL DUP2 MSTORE REVERT JUMPDEST POP DUP1 DUP5 MSTORE PUSH1 0xD DUP6 MSTORE DUP7 DUP5 KECCAK256 SLOAD ISZERO ISZERO PUSH2 0x4FF JUMP JUMPDEST PUSH1 0x11 DUP3 PUSH4 0x4E487B71 PUSH1 0xE0 SHL PUSH0 MSTORE MSTORE PUSH1 0x24 PUSH0 REVERT JUMPDEST DUP6 MLOAD PUSH4 0xE7080823 PUSH1 0xE0 SHL DUP2 MSTORE REVERT JUMPDEST DUP5 MLOAD PUSH4 0xD92E233D PUSH1 0xE0 SHL DUP2 MSTORE DUP4 SWAP1 REVERT JUMPDEST DUP5 MLOAD PUSH4 0xD694977F PUSH1 0xE0 SHL DUP2 MSTORE DUP4 SWAP1 REVERT JUMPDEST POP DUP3 MLOAD PUSH4 0xA31C3DD PUSH1 0xE4 SHL DUP2 MSTORE REVERT JUMPDEST SWAP1 POP CALLVALUE PUSH2 0x285 JUMPI PUSH1 0x60 CALLDATASIZE PUSH1 0x3 NOT ADD SLT PUSH2 0x285 JUMPI PUSH2 0x976 PUSH2 0x1E91 JUMP JUMPDEST PUSH1 0x1 PUSH1 0x1 PUSH1 0xA0 SHL SUB PUSH1 0x44 CALLDATALOAD DUP2 DUP2 AND SWAP5 PUSH1 0x24 CALLDATALOAD SWAP5 SWAP1 SWAP2 DUP7 DUP2 SUB PUSH2 0xAF3 JUMPI PUSH2 0x99A PUSH2 0x1FB7 JUMP JUMPDEST PUSH1 0xFF DUP6 AND SWAP5 PUSH1 0x2 DUP7 LT ISZERO PUSH2 0x459 JUMPI DUP8 ISZERO PUSH2 0xAE3 JUMPI DUP6 DUP10 MSTORE PUSH1 0x20 SWAP1 PUSH1 0x8 DUP3 MSTORE DUP5 DUP11 KECCAK256 DUP9 DUP12 MSTORE DUP3 MSTORE PUSH1 0xFF DUP6 DUP12 KECCAK256 SLOAD PUSH1 0x8 SHR AND ISZERO PUSH2 0xAD3 JUMPI SWAP1 PUSH2 0x9F6 DUP9 DUP12 SWAP8 SWAP7 SWAP6 SWAP5 SWAP4 DUP10 DUP10 MSTORE PUSH1 0x8 DUP5 MSTORE DUP7 DUP10 KECCAK256 DUP3 DUP11 MSTORE DUP5 MSTORE PUSH1 0xFF DUP8 DUP11 KECCAK256 SLOAD AND SWAP1 PUSH2 0x2008 JUMP JUMPDEST DUP7 DUP7 MSTORE PUSH1 0x8 DUP2 MSTORE DUP4 DUP7 KECCAK256 SWAP1 DUP9 DUP8 MSTORE MSTORE DUP5 DUP4 DUP2 KECCAK256 SSTORE DUP4 PUSH32 0x0 AND SWAP4 PUSH1 0x3 SLOAD AND SWAP4 DUP1 EXTCODESIZE ISZERO PUSH2 0xACF JUMPI DUP4 MLOAD PUSH4 0x21421707 PUSH1 0xE1 SHL DUP2 MSTORE PUSH1 0x1 PUSH1 0x1 PUSH1 0xA0 SHL SUB SWAP6 DUP7 AND SWAP4 DUP2 ADD SWAP4 DUP5 MSTORE SWAP5 SWAP1 SWAP2 AND PUSH1 0x20 DUP4 ADD MSTORE PUSH1 0x40 DUP3 ADD DUP8 SWAP1 MSTORE DUP5 SWAP2 DUP5 SWAP2 SWAP1 DUP3 SWAP1 DUP5 SWAP1 DUP3 SWAP1 PUSH1 0x60 ADD SUB SWAP3 GAS CALL SWAP1 DUP2 ISZERO PUSH2 0xAC6 JUMPI POP PUSH2 0xAAE JUMPI JUMPDEST POP DUP1 PUSH32 0x77BAC95A6200E13299ACE2B8162C0CDEADBAEA42797662A5865192D8EAF77914 SWAP2 LOG4 DUP1 RETURN JUMPDEST PUSH2 0xAB7 SWAP1 PUSH2 0x1F3D JUMP JUMPDEST PUSH2 0xAC2 JUMPI DUP4 PUSH0 PUSH2 0xA86 JUMP JUMPDEST DUP4 DUP1 REVERT JUMPDEST MLOAD RETURNDATASIZE DUP5 DUP3 RETURNDATACOPY RETURNDATASIZE SWAP1 REVERT JUMPDEST DUP6 DUP1 REVERT JUMPDEST DUP5 MLOAD PUSH4 0x4792011 PUSH1 0xE4 SHL DUP2 MSTORE DUP5 SWAP1 REVERT JUMPDEST DUP4 MLOAD PUSH4 0xD92E233D PUSH1 0xE0 SHL DUP2 MSTORE DUP4 SWAP1 REVERT JUMPDEST PUSH0 DUP1 REVERT JUMPDEST POP POP CALLVALUE PUSH2 0x238 JUMPI DUP2 PUSH1 0x3 NOT CALLDATASIZE ADD SLT PUSH2 0x238 JUMPI PUSH1 0x20 SWAP1 MLOAD PUSH1 0x6 DUP2 MSTORE RETURN JUMPDEST POP POP CALLVALUE PUSH2 0x238 JUMPI DUP1 PUSH1 0x3 NOT CALLDATASIZE ADD SLT PUSH2 0x238 JUMPI DUP1 SWAP2 PUSH1 0xFF PUSH2 0xB31 PUSH2 0x1E91 JUMP JUMPDEST AND DUP2 MSTORE PUSH1 0x8 PUSH1 0x20 MSTORE DUP2 DUP2 KECCAK256 PUSH1 0x24 CALLDATALOAD DUP3 MSTORE PUSH1 0x20 MSTORE KECCAK256 SLOAD PUSH1 0xFF DUP3 MLOAD SWAP2 DUP2 DUP2 AND DUP4 MSTORE PUSH1 0x8 SHR AND ISZERO ISZERO PUSH1 0x20 DUP3 ADD MSTORE RETURN JUMPDEST POP POP CALLVALUE PUSH2 0x238 JUMPI DUP2 PUSH1 0x3 NOT CALLDATASIZE ADD SLT PUSH2 0x238 JUMPI PUSH1 0x20 SWAP1 PUSH2 0xFFFF PUSH1 0x5 SLOAD PUSH1 0xC0 SHR AND SWAP1 MLOAD SWAP1 DUP2 MSTORE RETURN JUMPDEST POP POP CALLVALUE PUSH2 0x238 JUMPI DUP2 PUSH1 0x3 NOT CALLDATASIZE ADD SLT PUSH2 0x238 JUMPI PUSH1 0x2 SLOAD SWAP1 MLOAD PUSH1 0x1 PUSH1 0x1 PUSH1 0xA0 SHL SUB SWAP1 SWAP2 AND DUP2 MSTORE PUSH1 0x20 SWAP1 RETURN JUMPDEST SWAP2 SWAP1 POP CALLVALUE PUSH2 0x285 JUMPI PUSH1 0x20 CALLDATASIZE PUSH1 0x3 NOT ADD SLT PUSH2 0x285 JUMPI PUSH2 0xBC8 PUSH2 0x1EE2 JUMP JUMPDEST DUP4 SLOAD PUSH1 0x1 PUSH1 0x1 PUSH1 0xA0 SHL SUB SWAP2 SWAP1 DUP3 AND CALLER DUP2 EQ ISZERO DUP1 PUSH2 0xC63 JUMPI JUMPDEST PUSH2 0xC3B JUMPI POP AND SWAP2 DUP3 ISZERO PUSH2 0xC2D JUMPI POP PUSH1 0x2 DUP1 SLOAD PUSH1 0x1 PUSH1 0x1 PUSH1 0xA0 SHL SUB NOT AND DUP4 OR SWAP1 SSTORE MLOAD SWAP1 DUP2 MSTORE PUSH32 0xD1A6A14209A385A964D036E404CB5CFB71F4000CDB03C9366292430787261BE6 SWAP1 PUSH1 0x20 SWAP1 LOG1 DUP1 RETURN JUMPDEST SWAP1 MLOAD PUSH4 0xD92E233D PUSH1 0xE0 SHL DUP2 MSTORE REVERT JUMPDEST PUSH1 0x2 SLOAD DUP5 MLOAD PUSH4 0x61DB9C1 PUSH1 0xE0 SHL DUP2 MSTORE CALLER DUP2 DUP9 ADD MSTORE PUSH1 0x24 DUP2 ADD SWAP3 SWAP1 SWAP3 MSTORE DUP4 AND PUSH1 0x44 DUP3 ADD MSTORE PUSH1 0x64 SWAP1 REVERT JUMPDEST POP DUP3 PUSH1 0x2 SLOAD AND CALLER EQ ISZERO PUSH2 0xBE0 JUMP JUMPDEST POP POP CALLVALUE PUSH2 0x238 JUMPI DUP2 PUSH1 0x3 NOT CALLDATASIZE ADD SLT PUSH2 0x238 JUMPI SWAP1 SLOAD SWAP1 MLOAD PUSH1 0x1 PUSH1 0x1 PUSH1 0xA0 SHL SUB SWAP1 SWAP2 AND DUP2 MSTORE PUSH1 0x20 SWAP1 RETURN JUMPDEST POP POP CALLVALUE PUSH2 0x238 JUMPI DUP2 PUSH1 0x3 NOT CALLDATASIZE ADD SLT PUSH2 0x238 JUMPI PUSH1 0x20 SWAP1 MLOAD PUSH32 0x0 DUP2 MSTORE RETURN JUMPDEST POP POP CALLVALUE PUSH2 0x238 JUMPI DUP2 PUSH1 0x3 NOT CALLDATASIZE ADD SLT PUSH2 0x238 JUMPI MLOAD PUSH32 0x0 PUSH1 0x1 PUSH1 0x1 PUSH1 0xA0 SHL SUB AND DUP2 MSTORE PUSH1 0x20 SWAP1 RETURN JUMPDEST POP POP CALLVALUE PUSH2 0x238 JUMPI DUP2 PUSH1 0x3 NOT CALLDATASIZE ADD SLT PUSH2 0x238 JUMPI PUSH1 0x20 SWAP1 PUSH1 0x6 SLOAD SWAP1 MLOAD SWAP1 DUP2 MSTORE RETURN JUMPDEST SWAP2 SWAP1 POP CALLVALUE PUSH2 0x285 JUMPI DUP1 PUSH1 0x3 NOT CALLDATASIZE ADD SLT PUSH2 0x285 JUMPI PUSH32 0x3FA9C0902C04787995E15507B0E0AB98B30C606EE451ED0E0701BC3B1D9D5FAB SWAP2 CALLDATALOAD PUSH1 0xFF PUSH2 0xD77 PUSH2 0x1EA1 JUMP JUMPDEST PUSH2 0xD7F PUSH2 0x1FB7 JUMP JUMPDEST DUP3 PUSH1 0x6 SSTORE AND DUP1 PUSH1 0xFF NOT PUSH1 0x7 SLOAD AND OR PUSH1 0x7 SSTORE DUP3 MLOAD SWAP2 DUP3 MSTORE PUSH1 0x20 DUP3 ADD MSTORE LOG1 DUP1 RETURN JUMPDEST SWAP2 SWAP1 POP CALLVALUE PUSH2 0x285 JUMPI DUP3 PUSH1 0x3 NOT CALLDATASIZE ADD SLT PUSH2 0x285 JUMPI PUSH1 0x1 SLOAD SWAP2 PUSH1 0x1 PUSH1 0x1 PUSH1 0xA0 SHL SUB SWAP2 DUP3 DUP5 AND CALLER SUB PUSH2 0xE0A JUMPI POP POP DUP3 SLOAD PUSH1 0x1 PUSH1 0x1 PUSH1 0xA0 SHL SUB NOT DUP1 DUP3 AND CALLER SWAP1 DUP2 OR DUP7 SSTORE SWAP4 AND PUSH1 0x1 SSTORE AND PUSH32 0x8BE0079C531659141344CD1FD0A4F28419497F9722A3DAAFE3B4186F6B6457E0 DUP4 DUP1 LOG3 DUP1 RETURN JUMPDEST SWAP1 PUSH1 0x20 PUSH1 0x64 SWAP3 MLOAD SWAP2 PUSH3 0x461BCD PUSH1 0xE5 SHL DUP4 MSTORE DUP3 ADD MSTORE PUSH1 0x16 PUSH1 0x24 DUP3 ADD MSTORE PUSH22 0x26BAB9BA10313290383937B837B9B2B21037BBB732B9 PUSH1 0x51 SHL PUSH1 0x44 DUP3 ADD MSTORE REVERT JUMPDEST SWAP1 POP CALLVALUE PUSH2 0x285 JUMPI PUSH1 0x20 SWAP1 DUP2 PUSH1 0x3 NOT CALLDATASIZE ADD SLT PUSH2 0xAC2 JUMPI PUSH1 0xFF PUSH2 0xE65 PUSH2 0x1E91 JUMP JUMPDEST PUSH1 0xC0 DUP6 MLOAD PUSH2 0xE72 DUP2 PUSH2 0x1F65 JUMP JUMPDEST CALLDATASIZE SWAP1 CALLDATACOPY AND SWAP1 PUSH1 0x2 DUP3 LT ISZERO PUSH2 0xEFC JUMPI POP DUP4 MSTORE PUSH1 0xB DUP2 MSTORE DUP2 DUP4 KECCAK256 DUP3 MLOAD SWAP1 SLOAD SWAP3 PUSH2 0xFFFF DUP5 DUP2 DUP1 SWAP7 AND DUP5 MSTORE DUP2 DUP2 PUSH1 0x10 SHR AND DUP6 DUP6 ADD MSTORE DUP2 DUP2 DUP7 SHR AND DUP4 DUP6 ADD MSTORE DUP2 DUP2 PUSH1 0x30 SHR AND PUSH1 0x60 DUP6 ADD MSTORE DUP2 DUP2 DUP5 SHR AND PUSH1 0x80 DUP6 ADD MSTORE PUSH1 0x50 SHR AND PUSH1 0xA0 DUP4 ADD MSTORE PUSH2 0xED3 DUP3 PUSH2 0x1F65 JUMP JUMPDEST MLOAD SWAP4 SWAP1 DUP5 JUMPDEST PUSH1 0x6 DUP4 LT PUSH2 0xEE5 JUMPI PUSH1 0xC0 DUP7 RETURN JUMPDEST DUP4 DUP1 PUSH1 0x1 SWAP3 DUP8 DUP6 MLOAD AND DUP2 MSTORE ADD SWAP3 ADD SWAP3 ADD SWAP2 SWAP1 PUSH2 0xED8 JUMP JUMPDEST DUP4 MLOAD PUSH4 0xD694977F PUSH1 0xE0 SHL DUP2 MSTORE REVERT JUMPDEST SWAP1 POP CALLVALUE PUSH2 0x285 JUMPI PUSH1 0x20 CALLDATASIZE PUSH1 0x3 NOT ADD SLT PUSH2 0x285 JUMPI DUP2 PUSH1 0x20 SWAP4 PUSH1 0xFF SWAP3 CALLDATALOAD DUP2 MSTORE PUSH1 0x11 DUP6 MSTORE KECCAK256 SLOAD AND SWAP1 MLOAD SWAP1 ISZERO ISZERO DUP2 MSTORE RETURN JUMPDEST POP POP CALLVALUE PUSH2 0x238 JUMPI DUP2 PUSH1 0x3 NOT CALLDATASIZE ADD SLT PUSH2 0x238 JUMPI PUSH1 0x20 SWAP1 MLOAD PUSH1 0x2 DUP2 MSTORE RETURN JUMPDEST SWAP1 POP CALLVALUE PUSH2 0x285 JUMPI PUSH1 0x20 CALLDATASIZE PUSH1 0x3 NOT ADD SLT PUSH2 0x285 JUMPI PUSH2 0xF6E PUSH2 0x1EE2 JUMP JUMPDEST SWAP1 PUSH2 0xF77 PUSH2 0x1FB7 JUMP JUMPDEST PUSH1 0x1 PUSH1 0x1 PUSH1 0xA0 SHL SUB SWAP2 DUP3 AND SWAP3 DUP4 ISZERO PUSH2 0xFC7 JUMPI POP POP DUP2 PUSH1 0x3 SLOAD SWAP2 DUP3 AND PUSH32 0x16E2ACCAD9173ABFF57B295B56993EC5D86B3CBF791FEA02F02A6616463754EA DUP6 DUP1 LOG3 PUSH1 0x1 PUSH1 0x1 PUSH1 0xA0 SHL SUB NOT AND OR PUSH1 0x3 SSTORE DUP1 RETURN JUMPDEST MLOAD PUSH4 0xD92E233D PUSH1 0xE0 SHL DUP2 MSTORE REVERT JUMPDEST SWAP1 POP CALLVALUE PUSH2 0x285 JUMPI DUP3 PUSH1 0x3 NOT CALLDATASIZE ADD SLT PUSH2 0x285 JUMPI SLOAD SWAP1 MLOAD PUSH1 0x1 PUSH1 0x1 PUSH1 0xA0 SHL SUB SWAP1 SWAP2 AND DUP2 MSTORE PUSH1 0x20 SWAP2 POP RETURN JUMPDEST POP POP CALLVALUE PUSH2 0x238 JUMPI DUP2 PUSH1 0x3 NOT CALLDATASIZE ADD SLT PUSH2 0x238 JUMPI PUSH1 0x20 SWAP1 PUSH1 0xFF PUSH1 0x2 SLOAD PUSH1 0xA0 SHR AND SWAP1 MLOAD SWAP1 ISZERO ISZERO DUP2 MSTORE RETURN JUMPDEST SWAP1 POP CALLVALUE PUSH2 0x285 JUMPI DUP2 PUSH1 0x3 NOT CALLDATASIZE ADD SLT PUSH2 0x285 JUMPI CALLDATALOAD SWAP1 PUSH4 0xFFFFFFFF DUP3 AND DUP1 DUP4 SUB PUSH2 0xAC2 JUMPI PUSH1 0x24 CALLDATALOAD SWAP3 PUSH2 0xFFFF DUP5 AND SWAP1 DUP2 DUP6 SUB PUSH2 0xAF3 JUMPI PUSH32 0xC200DA6168C2CB10C35E700DF518F666B8B23AAB8715E5FE688AE6D89BB1881B SWAP5 PUSH2 0x1080 PUSH2 0x1FB7 JUMP JUMPDEST PUSH1 0x5 DUP1 SLOAD PUSH6 0xFFFFFFFFFFFF PUSH1 0xA0 SHL NOT AND PUSH1 0xA0 SWAP4 SWAP1 SWAP4 SHL PUSH4 0xFFFFFFFF PUSH1 0xA0 SHL AND SWAP3 SWAP1 SWAP3 OR PUSH1 0xC0 SWAP2 SWAP1 SWAP2 SHL PUSH2 0xFFFF PUSH1 0xC0 SHL AND OR SWAP1 SSTORE DUP3 MLOAD SWAP2 DUP3 MSTORE PUSH1 0x20 DUP3 ADD MSTORE LOG1 DUP1 RETURN JUMPDEST SWAP1 POP CALLVALUE PUSH2 0x285 JUMPI DUP3 PUSH1 0x3 NOT CALLDATASIZE ADD SLT PUSH2 0x285 JUMPI DUP3 SLOAD CALLER PUSH1 0x1 PUSH1 0x1 PUSH1 0xA0 SHL SUB SWAP2 DUP3 AND EQ ISZERO SWAP1 DUP2 PUSH2 0x1144 JUMPI JUMPDEST POP PUSH2 0x1137 JUMPI POP PUSH1 0x20 PUSH32 0x62E78CEA01BEE320CD4E420270B5EA74000D11B0C9F74754EBDBFC544B05A258 SWAP2 PUSH2 0x111C PUSH2 0x202F JUMP JUMPDEST PUSH1 0x2 DUP1 SLOAD PUSH1 0xFF PUSH1 0xA0 SHL NOT AND PUSH1 0x1 PUSH1 0xA0 SHL OR SWAP1 SSTORE MLOAD CALLER DUP2 MSTORE LOG1 DUP1 RETURN JUMPDEST SWAP1 MLOAD PUSH3 0xC2E329 PUSH1 0xE2 SHL DUP2 MSTORE REVERT JUMPDEST SWAP1 POP PUSH1 0x5 SLOAD AND CALLER EQ ISZERO PUSH0 PUSH2 0x10EA JUMP JUMPDEST SWAP1 POP CALLVALUE PUSH2 0x285 JUMPI PUSH1 0x20 CALLDATASIZE PUSH1 0x3 NOT ADD SLT PUSH2 0x285 JUMPI DUP1 CALLDATALOAD SWAP1 PUSH2 0x1171 PUSH2 0x1FB7 JUMP JUMPDEST DUP2 DUP5 MSTORE PUSH1 0xF PUSH1 0x20 MSTORE DUP3 DUP5 KECCAK256 DUP1 SLOAD PUSH1 0x1 PUSH1 0x1 PUSH1 0xA0 SHL SUB AND SWAP4 SWAP1 SWAP2 SWAP1 DUP5 ISZERO DUP1 ISZERO PUSH2 0x1206 JUMPI JUMPDEST DUP1 ISZERO PUSH2 0x11F5 JUMPI JUMPDEST PUSH2 0x11E8 JUMPI POP POP PUSH1 0x2 ADD DUP1 SLOAD PUSH10 0xFF000000000000000000 NOT AND PUSH10 0x1000000000000000000 OR SWAP1 SSTORE PUSH32 0x9672A8675ACC33DC98858AD3A19C110C0609694DC09DAB3B056F03B93E4C2A97 DUP4 DUP1 LOG3 DUP1 RETURN JUMPDEST MLOAD PUSH4 0xF41814A7 PUSH1 0xE0 SHL DUP2 MSTORE REVERT JUMPDEST POP PUSH1 0xFF PUSH1 0x2 DUP5 ADD SLOAD PUSH1 0x48 SHR AND PUSH2 0x119B JUMP JUMPDEST POP PUSH1 0xFF PUSH1 0x2 DUP5 ADD SLOAD DUP3 SHR AND PUSH2 0x1194 JUMP JUMPDEST POP POP CALLVALUE PUSH2 0x238 JUMPI DUP2 PUSH1 0x3 NOT CALLDATASIZE ADD SLT PUSH2 0x238 JUMPI PUSH1 0x20 SWAP1 PUSH1 0xFF PUSH1 0x7 SLOAD AND SWAP1 MLOAD SWAP1 DUP2 MSTORE RETURN JUMPDEST SWAP1 POP CALLVALUE PUSH2 0x285 JUMPI PUSH1 0x20 CALLDATASIZE PUSH1 0x3 NOT ADD SLT PUSH2 0x285 JUMPI PUSH2 0x1253 PUSH2 0x1EE2 JUMP JUMPDEST SWAP1 PUSH2 0x125C PUSH2 0x1FB7 JUMP JUMPDEST PUSH1 0x1 PUSH1 0x1 PUSH1 0xA0 SHL SUB SWAP2 DUP3 AND SWAP3 DUP4 ISZERO PUSH2 0xFC7 JUMPI POP POP DUP2 PUSH1 0x5 SLOAD SWAP2 DUP3 AND PUSH32 0xECD28F4C275F6F16F8579EC28C3E7C3658B59088D30DE9DDD62B8CA1977EF6EE DUP6 DUP1 LOG3 PUSH1 0x1 PUSH1 0x1 PUSH1 0xA0 SHL SUB NOT AND OR PUSH1 0x5 SSTORE DUP1 RETURN JUMPDEST SWAP1 POP CALLVALUE PUSH2 0x285 JUMPI DUP3 PUSH1 0x3 NOT CALLDATASIZE ADD SLT PUSH2 0x285 JUMPI PUSH2 0x12C6 PUSH2 0x1FB7 JUMP JUMPDEST PUSH1 0x2 SLOAD SWAP1 PUSH1 0xFF DUP3 PUSH1 0xA0 SHR AND ISZERO PUSH2 0x130E JUMPI POP PUSH1 0xFF PUSH1 0xA0 SHL NOT AND PUSH1 0x2 SSTORE MLOAD CALLER DUP2 MSTORE PUSH32 0x5DB9EE0A495BF2E6FF9C91A7834C1BA4FDD244A5E8AA4E537BD38AEAE4B073AA SWAP1 PUSH1 0x20 SWAP1 LOG1 DUP1 RETURN JUMPDEST DUP3 MLOAD PUSH4 0x8DFC202B PUSH1 0xE0 SHL DUP2 MSTORE REVERT JUMPDEST SWAP2 SWAP1 POP CALLVALUE PUSH2 0x285 JUMPI PUSH1 0x20 CALLDATASIZE PUSH1 0x3 NOT ADD SLT PUSH2 0x285 JUMPI PUSH2 0x1338 PUSH2 0x1EE2 JUMP JUMPDEST PUSH2 0x1340 PUSH2 0x1FB7 JUMP JUMPDEST PUSH1 0x1 PUSH1 0x1 PUSH1 0xA0 SHL SUB SWAP1 DUP2 AND SWAP2 DUP3 ISZERO PUSH2 0x138D JUMPI POP DUP2 DUP4 SLOAD SWAP2 DUP3 AND PUSH32 0x60C5293782C70B9080E83E261790B280285209D93C36A68814B4C9A150F047DE DUP7 DUP1 LOG3 PUSH1 0x1 PUSH1 0x1 PUSH1 0xA0 SHL SUB NOT AND OR SWAP1 SSTORE DUP1 RETURN JUMPDEST MLOAD PUSH4 0xD92E233D PUSH1 0xE0 SHL DUP2 MSTORE DUP4 SWAP1 REVERT JUMPDEST POP POP CALLVALUE PUSH2 0x238 JUMPI PUSH1 0x20 CALLDATASIZE PUSH1 0x3 NOT ADD SLT PUSH2 0x238 JUMPI PUSH1 0x20 SWAP2 PUSH1 0xFF SWAP1 DUP3 SWAP1 PUSH1 0x1 PUSH1 0x1 PUSH1 0xA0 SHL SUB PUSH2 0x13C7 PUSH2 0x1EE2 JUMP JUMPDEST AND DUP2 MSTORE PUSH1 0x10 DUP6 MSTORE KECCAK256 SLOAD AND SWAP1 MLOAD SWAP1 ISZERO ISZERO DUP2 MSTORE RETURN JUMPDEST SWAP2 SWAP1 POP CALLVALUE PUSH2 0x285 JUMPI PUSH1 0x80 CALLDATASIZE PUSH1 0x3 NOT ADD SLT PUSH2 0x285 JUMPI PUSH2 0x13F6 PUSH2 0x1EE2 JUMP JUMPDEST SWAP2 PUSH1 0x24 CALLDATALOAD SWAP3 PUSH1 0x44 CALLDATALOAD SWAP3 PUSH1 0xFF DUP5 AND SWAP4 DUP5 DUP2 SUB PUSH2 0xAF3 JUMPI PUSH1 0x64 CALLDATALOAD SWAP6 PUSH2 0x1417 PUSH2 0x1FB7 JUMP JUMPDEST PUSH2 0x141F PUSH2 0x202F JUMP JUMPDEST PUSH1 0x2 DUP7 LT ISZERO PUSH2 0x15ED JUMPI PUSH1 0x1 PUSH1 0x1 PUSH1 0xA0 SHL SUB DUP5 DUP2 AND SWAP6 DUP7 ISZERO PUSH2 0x15DF JUMPI DUP7 DUP11 MSTORE PUSH1 0x20 SWAP6 PUSH1 0x10 DUP8 MSTORE PUSH1 0xFF DUP7 DUP13 KECCAK256 SLOAD AND DUP1 ISZERO PUSH2 0x15CB JUMPI JUMPDEST PUSH2 0x15BC JUMPI DUP9 DUP12 MSTORE PUSH1 0x8 DUP8 MSTORE DUP6 DUP12 KECCAK256 DUP11 DUP13 MSTORE DUP8 MSTORE PUSH1 0xFF DUP7 DUP13 KECCAK256 SLOAD PUSH1 0x8 SHR AND ISZERO PUSH2 0x15AD JUMPI SWAP1 DUP11 SWAP3 SWAP2 DUP9 DUP5 MSTORE PUSH1 0x10 DUP9 MSTORE DUP7 DUP5 KECCAK256 PUSH1 0xFF NOT SWAP1 PUSH1 0x1 DUP3 DUP3 SLOAD AND OR SWAP1 SSTORE DUP6 DUP6 MSTORE PUSH1 0x11 DUP10 MSTORE PUSH1 0x1 DUP9 DUP7 KECCAK256 SWAP2 DUP3 SLOAD AND OR SWAP1 SSTORE DUP10 DUP5 MSTORE PUSH1 0x8 DUP9 MSTORE DUP7 DUP5 KECCAK256 DUP12 DUP6 MSTORE DUP9 MSTORE PUSH2 0x14C3 DUP12 PUSH1 0xFF DUP10 DUP8 KECCAK256 SLOAD AND DUP1 SWAP9 PUSH2 0x2008 JUMP JUMPDEST DUP10 DUP5 MSTORE PUSH1 0x8 DUP9 MSTORE DUP7 DUP5 KECCAK256 DUP12 DUP6 MSTORE DUP9 MSTORE DUP7 DUP5 KECCAK256 DUP1 SLOAD PUSH2 0xFF00 NOT AND SWAP1 SSTORE PUSH1 0x3 SLOAD DUP4 AND SWAP3 PUSH32 0x0 AND DUP1 EXTCODESIZE ISZERO PUSH2 0x15A9 JUMPI DUP8 MLOAD PUSH4 0x21421707 PUSH1 0xE1 SHL DUP2 MSTORE PUSH1 0x1 PUSH1 0x1 PUSH1 0xA0 SHL SUB SWAP5 DUP6 AND SWAP4 DUP2 ADD SWAP4 DUP5 MSTORE SWAP4 SWAP1 SWAP2 AND PUSH1 0x20 DUP4 ADD MSTORE PUSH1 0x40 DUP3 ADD DUP12 SWAP1 MSTORE DUP4 SWAP2 DUP4 SWAP2 SWAP1 DUP3 SWAP1 DUP5 SWAP1 DUP3 SWAP1 PUSH1 0x60 ADD SUB SWAP3 GAS CALL DUP1 ISZERO PUSH2 0x159F JUMPI PUSH2 0x1587 JUMPI JUMPDEST POP POP PUSH32 0xFA44E081BA05562BC113ADB11188FA32FC0F8B00C7F449C826D9B4CC4D1E869A SWAP4 DUP4 MLOAD SWAP3 DUP4 MSTORE DUP3 ADD MSTORE LOG4 DUP1 RETURN JUMPDEST PUSH2 0x1590 SWAP1 PUSH2 0x1F3D JUMP JUMPDEST PUSH2 0x159B JUMPI DUP8 PUSH0 PUSH2 0x1557 JUMP JUMPDEST DUP8 DUP1 REVERT JUMPDEST DUP6 MLOAD RETURNDATASIZE DUP5 DUP3 RETURNDATACOPY RETURNDATASIZE SWAP1 REVERT JUMPDEST DUP5 DUP1 REVERT JUMPDEST POP DUP5 MLOAD PUSH4 0x4792011 PUSH1 0xE4 SHL DUP2 MSTORE REVERT JUMPDEST POP DUP5 MLOAD PUSH4 0xC8D9EAB PUSH1 0xE3 SHL DUP2 MSTORE REVERT JUMPDEST POP DUP4 DUP12 MSTORE PUSH1 0x11 DUP8 MSTORE PUSH1 0xFF DUP7 DUP13 KECCAK256 SLOAD AND PUSH2 0x1452 JUMP JUMPDEST DUP5 MLOAD PUSH4 0xD92E233D PUSH1 0xE0 SHL DUP2 MSTORE REVERT JUMPDEST DUP3 MLOAD PUSH4 0xD694977F PUSH1 0xE0 SHL DUP2 MSTORE DUP6 SWAP1 REVERT JUMPDEST SWAP1 POP CALLVALUE PUSH2 0x285 JUMPI PUSH1 0x20 CALLDATASIZE PUSH1 0x3 NOT ADD SLT PUSH2 0x285 JUMPI DUP2 PUSH1 0x20 SWAP4 PUSH1 0xFF SWAP3 CALLDATALOAD DUP2 MSTORE PUSH1 0xE DUP6 MSTORE KECCAK256 SLOAD AND SWAP1 MLOAD SWAP1 DUP2 MSTORE RETURN JUMPDEST POP POP CALLVALUE PUSH2 0x238 JUMPI DUP2 PUSH1 0x3 NOT CALLDATASIZE ADD SLT PUSH2 0x238 JUMPI PUSH1 0x20 SWAP1 PUSH4 0xFFFFFFFF PUSH1 0x5 SLOAD PUSH1 0xA0 SHR AND SWAP1 MLOAD SWAP1 DUP2 MSTORE RETURN JUMPDEST POP POP CALLVALUE PUSH2 0x238 JUMPI DUP2 PUSH1 0x3 NOT CALLDATASIZE ADD SLT PUSH2 0x238 JUMPI PUSH1 0x5 SLOAD SWAP1 MLOAD PUSH1 0x1 PUSH1 0x1 PUSH1 0xA0 SHL SUB SWAP1 SWAP2 AND DUP2 MSTORE PUSH1 0x20 SWAP1 RETURN JUMPDEST SWAP2 SWAP1 POP CALLVALUE PUSH2 0x285 JUMPI DUP1 PUSH1 0x3 NOT CALLDATASIZE ADD SLT PUSH2 0x285 JUMPI PUSH2 0x1694 PUSH2 0x1E91 JUMP JUMPDEST SWAP1 PUSH1 0x24 CALLDATALOAD SWAP3 PUSH2 0x16A1 PUSH2 0x1FB7 JUMP JUMPDEST PUSH1 0xFF DUP4 AND SWAP3 PUSH1 0x2 DUP5 LT ISZERO PUSH2 0x173C JUMPI DUP4 DUP7 MSTORE PUSH1 0x20 SWAP2 PUSH1 0x8 DUP4 MSTORE DUP4 DUP8 KECCAK256 DUP7 DUP9 MSTORE DUP4 MSTORE PUSH1 0xFF DUP5 DUP9 KECCAK256 SLOAD PUSH1 0x8 SHR AND ISZERO PUSH2 0x172E JUMPI POP SWAP1 PUSH2 0x16F5 DUP6 DUP8 SWAP5 SWAP4 DUP7 DUP7 MSTORE PUSH1 0x8 DUP5 MSTORE DUP5 DUP7 KECCAK256 DUP3 DUP8 MSTORE DUP5 MSTORE PUSH1 0xFF DUP6 DUP8 KECCAK256 SLOAD AND SWAP1 PUSH2 0x2008 JUMP JUMPDEST DUP4 DUP4 MSTORE PUSH1 0x8 DUP2 MSTORE DUP2 DUP4 KECCAK256 SWAP1 DUP6 DUP5 MSTORE MSTORE DUP2 KECCAK256 SSTORE PUSH32 0x28A4FC8B4696CBCC4F5A8F6A710136792E31CA8BDD587A3CA8E506955582A92 DUP4 DUP1 LOG3 DUP1 RETURN JUMPDEST DUP4 MLOAD PUSH4 0x4792011 PUSH1 0xE4 SHL DUP2 MSTORE REVERT JUMPDEST POP SWAP1 MLOAD PUSH4 0xD694977F PUSH1 0xE0 SHL DUP2 MSTORE REVERT JUMPDEST DUP4 SWAP2 POP CALLVALUE PUSH2 0xAF3 JUMPI DUP3 PUSH1 0x3 NOT CALLDATASIZE ADD SLT PUSH2 0xAF3 JUMPI PUSH1 0x24 SWAP3 DUP2 CALLDATALOAD DUP5 CALLDATALOAD PUSH8 0xFFFFFFFFFFFFFFFF DUP2 GT PUSH2 0xAF3 JUMPI PUSH2 0x1781 SWAP1 CALLDATASIZE SWAP1 DUP6 ADD PUSH2 0x1EB1 JUMP JUMPDEST SWAP5 SWAP1 PUSH1 0x1 DUP1 PUSH1 0xA0 SHL SUB SWAP3 DUP4 PUSH1 0x2 SLOAD AND DUP1 CALLER SUB PUSH2 0x1A31 JUMPI POP DUP1 PUSH0 MSTORE PUSH1 0x20 SWAP4 PUSH1 0xF DUP6 MSTORE DUP6 PUSH0 KECCAK256 SWAP3 DUP4 SLOAD SWAP9 DUP3 DUP11 AND ISZERO DUP1 ISZERO PUSH2 0x1A21 JUMPI JUMPDEST DUP1 ISZERO PUSH2 0x1A10 JUMPI JUMPDEST PUSH2 0x1A00 JUMPI PUSH1 0x2 DUP6 ADD DUP1 SLOAD PUSH9 0xFF0000000000000000 NOT AND PUSH1 0x1 PUSH1 0x40 SHL OR SWAP1 SSTORE ISZERO PUSH2 0x19ED JUMPI CALLDATALOAD SWAP5 PUSH1 0xFF DUP1 SWAP10 PUSH1 0xA0 SHR AND SWAP7 PUSH2 0x17F3 DUP9 DUP9 PUSH2 0x2104 JUMP JUMPDEST SWAP7 PUSH0 SWAP8 JUMPDEST DUP10 PUSH0 MSTORE PUSH1 0x9 DUP5 MSTORE DUP3 PUSH0 KECCAK256 DUP13 DUP3 AND PUSH0 MSTORE DUP5 MSTORE DUP3 PUSH0 KECCAK256 SLOAD ISZERO DUP1 PUSH2 0x19E1 JUMPI JUMPDEST ISZERO PUSH2 0x184B JUMPI PUSH1 0x6 DUP13 PUSH2 0x1825 DUP2 SWAP4 PUSH2 0x1FA5 JUMP JUMPDEST AND MOD SWAP9 AND DUP12 DUP2 EQ PUSH2 0x1839 JUMPI PUSH1 0x1 ADD SWAP8 PUSH2 0x17F7 JUMP JUMPDEST DUP13 PUSH1 0x11 DUP13 PUSH4 0x4E487B71 PUSH1 0xE0 SHL PUSH0 MSTORE MSTORE PUSH0 REVERT JUMPDEST SWAP5 SWAP4 SWAP3 SWAP1 SWAP2 DUP12 SWAP3 DUP12 DUP12 DUP1 PUSH0 MSTORE PUSH1 0x9 DUP6 MSTORE DUP4 PUSH0 KECCAK256 SWAP3 DUP7 DUP11 AND SWAP4 DUP5 PUSH0 MSTORE DUP7 MSTORE DUP5 PUSH0 KECCAK256 SLOAD SWAP1 DUP2 ISZERO PUSH2 0x19D1 JUMPI SWAP1 PUSH2 0x18A5 SWAP2 PUSH1 0x80 SHR MOD DUP3 PUSH0 MSTORE PUSH1 0x9 DUP8 MSTORE DUP6 PUSH0 KECCAK256 DUP6 PUSH0 MSTORE DUP8 MSTORE PUSH2 0x1897 DUP2 DUP8 PUSH0 KECCAK256 PUSH2 0x1F81 JUMP JUMPDEST SWAP1 SLOAD SWAP1 PUSH1 0x3 SHL SHR SWAP11 DUP4 PUSH2 0x2050 JUMP JUMPDEST PUSH0 MSTORE PUSH1 0x8 DUP5 MSTORE DUP3 PUSH0 KECCAK256 DUP9 PUSH0 MSTORE DUP5 MSTORE DUP3 PUSH0 KECCAK256 PUSH2 0xFF00 NOT DUP2 SLOAD AND SWAP1 SSTORE DUP6 PUSH32 0x0 AND SWAP1 DUP7 PUSH1 0x3 SLOAD AND SWAP2 DUP8 DUP12 SLOAD AND SWAP1 DUP1 EXTCODESIZE ISZERO PUSH2 0xAF3 JUMPI DUP6 MLOAD PUSH4 0x21421707 PUSH1 0xE1 SHL DUP2 MSTORE PUSH1 0x1 PUSH1 0x1 PUSH1 0xA0 SHL SUB SWAP5 DUP6 AND SWAP4 DUP2 ADD SWAP4 DUP5 MSTORE SWAP4 SWAP1 SWAP2 AND PUSH1 0x20 DUP4 ADD MSTORE PUSH1 0x40 DUP3 ADD DUP11 SWAP1 MSTORE PUSH0 SWAP2 DUP4 SWAP2 SWAP1 DUP3 SWAP1 DUP5 SWAP1 DUP3 SWAP1 PUSH1 0x60 ADD SUB SWAP3 GAS CALL DUP1 ISZERO PUSH2 0x19C7 JUMPI PUSH2 0x1987 JUMPI JUMPDEST POP SWAP2 PUSH1 0x60 SWAP4 SWAP2 PUSH32 0x52903FEA91E0049873CD4A5863C2A0CB419AFA10144DA0500A8C033C19D55345 SWAP6 SWAP4 PUSH1 0x1 DUP11 SLOAD SWAP11 ADD SLOAD SWAP3 DUP3 MLOAD SWAP10 DUP11 MSTORE DUP10 ADD MSTORE DUP8 ADD MSTORE DUP7 PUSH1 0xA0 SHR AND SWAP6 AND SWAP4 LOG4 DUP1 RETURN JUMPDEST PUSH32 0x52903FEA91E0049873CD4A5863C2A0CB419AFA10144DA0500A8C033C19D55345 SWAP6 SWAP4 SWAP2 SWAP10 POP SWAP2 PUSH2 0x19BA PUSH1 0x60 SWAP6 SWAP4 PUSH2 0x1F3D JUMP JUMPDEST PUSH0 SWAP10 SWAP2 SWAP4 SWAP6 POP SWAP2 SWAP4 PUSH2 0x193F JUMP JUMPDEST DUP4 MLOAD RETURNDATASIZE PUSH0 DUP3 RETURNDATACOPY RETURNDATASIZE SWAP1 REVERT JUMPDEST DUP6 MLOAD PUSH4 0x5CE024D PUSH1 0xE5 SHL DUP2 MSTORE DUP5 SWAP1 REVERT JUMPDEST POP PUSH1 0x6 DUP13 DUP11 AND LT PUSH2 0x1813 JUMP JUMPDEST PUSH1 0x32 DUP9 PUSH4 0x4E487B71 PUSH1 0xE0 SHL PUSH0 MSTORE MSTORE PUSH1 0x24 PUSH0 REVERT JUMPDEST DUP8 MLOAD PUSH4 0xF41814A7 PUSH1 0xE0 SHL DUP2 MSTORE DUP10 SWAP1 REVERT JUMPDEST POP PUSH1 0xFF PUSH1 0x2 DUP7 ADD SLOAD PUSH1 0x48 SHR AND PUSH2 0x17BB JUMP JUMPDEST POP PUSH1 0xFF PUSH1 0x2 DUP7 ADD SLOAD DUP10 SHR AND PUSH2 0x17B4 JUMP JUMPDEST DUP6 MLOAD PUSH4 0x73E64FD PUSH1 0xE2 SHL DUP2 MSTORE CALLER DUP2 DUP10 ADD MSTORE PUSH1 0x24 DUP2 ADD SWAP2 SWAP1 SWAP2 MSTORE PUSH1 0x44 SWAP1 REVERT JUMPDEST SWAP1 POP CALLVALUE PUSH2 0xAF3 JUMPI PUSH1 0xE0 CALLDATASIZE PUSH1 0x3 NOT ADD SLT PUSH2 0xAF3 JUMPI PUSH2 0x1A6A PUSH2 0x1E91 JUMP JUMPDEST SWAP2 CALLDATASIZE PUSH1 0xE4 GT PUSH2 0xAF3 JUMPI PUSH2 0x1A7B PUSH2 0x1FB7 JUMP JUMPDEST PUSH1 0xFF DUP1 SWAP4 AND SWAP3 PUSH1 0x2 DUP5 LT ISZERO PUSH2 0x1B88 JUMPI PUSH0 DUP1 SWAP2 JUMPDEST PUSH1 0x6 DUP2 DUP5 AND LT PUSH2 0x1B5A JUMPI POP PUSH2 0x2710 SWAP2 POP SUB PUSH2 0x1B4D JUMPI DUP3 PUSH0 MSTORE PUSH1 0x20 SWAP2 PUSH1 0xB PUSH1 0x20 MSTORE DUP2 PUSH0 KECCAK256 PUSH1 0x24 PUSH0 SWAP3 PUSH0 JUMPDEST DUP7 PUSH1 0x6 DUP3 LT PUSH2 0x1B21 JUMPI POP POP POP POP SSTORE MLOAD SWAP1 DUP2 PUSH1 0x24 SWAP2 PUSH0 SWAP2 JUMPDEST PUSH1 0x6 DUP4 LT PUSH2 0x1AFE JUMPI DUP6 PUSH32 0xEAD69BDE6B49CA7ED74A5FC780B639E2B515C739E118D2565F811F8F0A36DADE PUSH1 0xC0 DUP8 LOG2 STOP JUMPDEST DUP4 CALLDATALOAD SWAP1 PUSH2 0xFFFF DUP3 AND DUP1 SWAP3 SUB PUSH2 0xAF3 JUMPI DUP3 DUP2 PUSH1 0x1 SWAP4 DUP3 SWAP4 MSTORE ADD SWAP5 ADD SWAP3 ADD SWAP2 SWAP3 PUSH2 0x1ACE JUMP JUMPDEST DUP4 SWAP6 PUSH2 0x1B30 PUSH1 0x1 SWAP4 SWAP5 SWAP6 PUSH2 0x1F96 JUMP JUMPDEST PUSH2 0xFFFF DUP6 DUP8 SHL DUP2 DUP2 SHL NOT SWAP1 SWAP4 AND SWAP2 AND SWAP1 SWAP2 SHL OR SWAP6 ADD SWAP3 SWAP2 ADD PUSH2 0x1AB7 JUMP JUMPDEST MLOAD PUSH4 0x2FB3CC07 PUSH1 0xE1 SHL DUP2 MSTORE REVERT JUMPDEST PUSH1 0x1 PUSH2 0x1B7E DUP3 SWAP4 PUSH2 0xFFFF PUSH2 0x1B77 PUSH2 0x1FE0 DUP9 PUSH1 0x5 SHL AND PUSH1 0x24 ADD PUSH2 0x1F96 JUMP JUMPDEST AND SWAP1 PUSH2 0x1EF8 JUMP JUMPDEST SWAP4 ADD AND SWAP2 SWAP1 PUSH2 0x1A8E JUMP JUMPDEST POP MLOAD PUSH4 0xD694977F PUSH1 0xE0 SHL DUP2 MSTORE REVERT JUMPDEST SWAP1 POP CALLVALUE PUSH2 0xAF3 JUMPI PUSH1 0x60 CALLDATASIZE PUSH1 0x3 NOT ADD SLT PUSH2 0xAF3 JUMPI PUSH2 0x1BB1 PUSH2 0x1E91 JUMP JUMPDEST PUSH8 0xFFFFFFFFFFFFFFFF SWAP3 PUSH1 0x24 CALLDATALOAD DUP5 DUP2 GT PUSH2 0xAF3 JUMPI PUSH2 0x1BD2 SWAP1 CALLDATASIZE SWAP1 DUP6 ADD PUSH2 0x1EB1 JUMP JUMPDEST SWAP3 SWAP1 SWAP2 PUSH1 0x44 CALLDATALOAD DUP7 DUP2 GT PUSH2 0xAF3 JUMPI PUSH2 0x1BEC SWAP1 CALLDATASIZE SWAP1 DUP8 ADD PUSH2 0x1EB1 JUMP JUMPDEST SWAP6 SWAP1 SWAP5 PUSH2 0x1BF7 PUSH2 0x1FB7 JUMP JUMPDEST PUSH1 0xFF DUP1 SWAP5 AND SWAP5 PUSH1 0x2 DUP7 LT ISZERO PUSH2 0x459 JUMPI DUP8 DUP3 SUB PUSH2 0x1D86 JUMPI PUSH0 JUMPDEST DUP3 DUP2 LT PUSH2 0x1C18 JUMPI STOP JUMPDEST PUSH2 0x1C23 DUP2 DUP5 DUP5 PUSH2 0x1F19 JUMP JUMPDEST CALLDATALOAD PUSH2 0x1C2F DUP3 DUP12 DUP12 PUSH2 0x1F19 JUMP JUMPDEST CALLDATALOAD DUP8 DUP2 AND DUP1 SWAP2 SUB PUSH2 0xAF3 JUMPI PUSH1 0x6 DUP2 LT ISZERO PUSH2 0x1D76 JUMPI DUP9 PUSH0 MSTORE PUSH1 0x8 SWAP1 PUSH1 0x20 SWAP2 DUP1 DUP4 MSTORE DUP9 PUSH0 KECCAK256 DUP5 PUSH0 MSTORE DUP4 MSTORE DUP10 DUP10 PUSH0 KECCAK256 SLOAD DUP3 SHR AND PUSH2 0x1D66 JUMPI DUP9 MLOAD DUP1 DUP11 ADD DUP16 DUP2 GT DUP3 DUP3 LT OR PUSH2 0x1D53 JUMPI DUP11 MSTORE DUP3 DUP2 MSTORE DUP4 DUP2 ADD PUSH1 0x1 SWAP3 DUP4 DUP3 MSTORE DUP14 PUSH0 MSTORE DUP1 DUP7 MSTORE DUP12 PUSH0 KECCAK256 DUP8 PUSH0 MSTORE DUP7 MSTORE PUSH2 0xFF00 DUP14 DUP14 PUSH0 KECCAK256 SWAP5 MLOAD AND SWAP2 DUP5 SLOAD SWAP4 MLOAD ISZERO ISZERO SWAP1 SHL AND SWAP2 PUSH2 0xFFFF NOT AND OR OR SWAP1 SSTORE DUP11 PUSH0 MSTORE PUSH1 0x9 DUP1 DUP5 MSTORE DUP10 PUSH0 KECCAK256 DUP4 PUSH0 MSTORE DUP5 MSTORE DUP10 PUSH0 KECCAK256 SLOAD DUP13 PUSH0 MSTORE PUSH1 0xA DUP6 MSTORE DUP11 PUSH0 KECCAK256 DUP7 PUSH0 MSTORE DUP6 MSTORE DUP11 PUSH0 KECCAK256 SSTORE DUP12 PUSH0 MSTORE DUP4 MSTORE DUP9 PUSH0 KECCAK256 DUP3 PUSH0 MSTORE DUP4 MSTORE DUP9 PUSH0 KECCAK256 DUP1 SLOAD SWAP2 PUSH1 0x1 PUSH1 0x40 SHL DUP4 LT ISZERO PUSH2 0x1D53 JUMPI SWAP3 PUSH2 0x1D47 DUP7 PUSH2 0x1D2F DUP16 SWAP7 SWAP6 PUSH1 0x1 SWAP11 SWAP10 SWAP9 SWAP6 PUSH32 0x6160B95463EEF162E89880A58D5FF8C73F401AE0A3DE33147826AD9B64B4D3D6 SWAP8 DUP3 ADD DUP2 SSTORE PUSH2 0x1F81 JUMP JUMPDEST SWAP1 SWAP2 SWAP1 DUP3 SLOAD SWAP1 PUSH1 0x3 SHL SWAP2 DUP3 SHL SWAP2 PUSH0 NOT SWAP1 SHL NOT AND OR SWAP1 SSTORE JUMP JUMPDEST DUP11 MLOAD SWAP1 DUP2 MSTORE LOG3 ADD PUSH2 0x1C0F JUMP JUMPDEST PUSH1 0x41 DUP11 PUSH4 0x4E487B71 PUSH1 0xE0 SHL PUSH0 MSTORE MSTORE PUSH1 0x24 PUSH0 REVERT JUMPDEST DUP9 MLOAD PUSH4 0x1B74344B PUSH1 0xE0 SHL DUP2 MSTORE DUP9 SWAP1 REVERT JUMPDEST DUP7 MLOAD PUSH4 0x778AA76B PUSH1 0xE0 SHL DUP2 MSTORE DUP7 SWAP1 REVERT JUMPDEST DUP4 MLOAD PUSH1 0x1 PUSH3 0x1398B9 PUSH1 0xE3 SHL SUB NOT DUP2 MSTORE DUP4 SWAP1 REVERT JUMPDEST DUP3 CALLVALUE PUSH2 0xAF3 JUMPI PUSH1 0x20 CALLDATASIZE PUSH1 0x3 NOT ADD SLT PUSH2 0xAF3 JUMPI PUSH1 0xC0 SWAP2 CALLDATALOAD PUSH0 MSTORE PUSH1 0xF PUSH1 0x20 MSTORE PUSH1 0xFF DUP2 PUSH0 KECCAK256 SWAP2 DUP2 DUP4 SLOAD SWAP4 PUSH1 0x2 PUSH1 0x1 DUP3 ADD SLOAD SWAP2 ADD SLOAD SWAP3 DUP4 SWAP2 DUP4 DUP3 MLOAD SWAP8 PUSH1 0x1 DUP1 PUSH1 0xA0 SHL SUB DUP2 AND DUP10 MSTORE PUSH1 0xA0 SHR AND PUSH1 0x20 DUP9 ADD MSTORE DUP2 DUP8 ADD MSTORE PUSH8 0xFFFFFFFFFFFFFFFF DUP3 AND PUSH1 0x60 DUP8 ADD MSTORE SHR AND ISZERO ISZERO PUSH1 0x80 DUP5 ADD MSTORE PUSH1 0x48 SHR AND ISZERO ISZERO PUSH1 0xA0 DUP3 ADD MSTORE RETURN JUMPDEST SWAP1 SWAP2 POP CALLVALUE PUSH2 0xAF3 JUMPI PUSH1 0x20 SWAP1 PUSH1 0x20 PUSH1 0x3 NOT CALLDATASIZE ADD SLT PUSH2 0xAF3 JUMPI PUSH1 0xFF SWAP3 PUSH1 0xFF PUSH2 0x1E33 PUSH2 0x1E91 JUMP JUMPDEST AND SWAP2 PUSH1 0x2 DUP4 LT ISZERO PUSH2 0x1E85 JUMPI POP POP PUSH0 SWAP1 PUSH0 SWAP2 JUMPDEST DUP5 DUP4 AND PUSH1 0x6 DUP2 LT ISZERO PUSH2 0x1E7B JUMPI PUSH2 0x1E72 DUP7 SWAP3 PUSH1 0x1 SWAP3 DUP6 PUSH0 MSTORE PUSH1 0x9 DUP9 MSTORE DUP10 PUSH0 KECCAK256 SWAP1 PUSH0 MSTORE DUP8 MSTORE DUP9 PUSH0 KECCAK256 SLOAD SWAP1 PUSH2 0x1EF8 JUMP JUMPDEST SWAP4 ADD AND SWAP2 PUSH2 0x1E45 JUMP JUMPDEST PUSH1 0x20 DUP3 DUP9 MLOAD SWAP1 DUP2 MSTORE RETURN JUMPDEST PUSH4 0xD694977F PUSH1 0xE0 SHL DUP2 MSTORE REVERT JUMPDEST PUSH1 0x4 CALLDATALOAD SWAP1 PUSH1 0xFF DUP3 AND DUP3 SUB PUSH2 0xAF3 JUMPI JUMP JUMPDEST PUSH1 0x24 CALLDATALOAD SWAP1 PUSH1 0xFF DUP3 AND DUP3 SUB PUSH2 0xAF3 JUMPI JUMP JUMPDEST SWAP2 DUP2 PUSH1 0x1F DUP5 ADD SLT ISZERO PUSH2 0xAF3 JUMPI DUP3 CALLDATALOAD SWAP2 PUSH8 0xFFFFFFFFFFFFFFFF DUP4 GT PUSH2 0xAF3 JUMPI PUSH1 0x20 DUP1 DUP6 ADD SWAP5 DUP5 PUSH1 0x5 SHL ADD ADD GT PUSH2 0xAF3 JUMPI JUMP JUMPDEST PUSH1 0x4 CALLDATALOAD SWAP1 PUSH1 0x1 PUSH1 0x1 PUSH1 0xA0 SHL SUB DUP3 AND DUP3 SUB PUSH2 0xAF3 JUMPI JUMP JUMPDEST SWAP2 SWAP1 DUP3 ADD DUP1 SWAP3 GT PUSH2 0x1F05 JUMPI JUMP JUMPDEST PUSH4 0x4E487B71 PUSH1 0xE0 SHL PUSH0 MSTORE PUSH1 0x11 PUSH1 0x4 MSTORE PUSH1 0x24 PUSH0 REVERT JUMPDEST SWAP2 SWAP1 DUP2 LT ISZERO PUSH2 0x1F29 JUMPI PUSH1 0x5 SHL ADD SWAP1 JUMP JUMPDEST PUSH4 0x4E487B71 PUSH1 0xE0 SHL PUSH0 MSTORE PUSH1 0x32 PUSH1 0x4 MSTORE PUSH1 0x24 PUSH0 REVERT JUMPDEST PUSH8 0xFFFFFFFFFFFFFFFF DUP2 GT PUSH2 0x1F51 JUMPI PUSH1 0x40 MSTORE JUMP JUMPDEST PUSH4 0x4E487B71 PUSH1 0xE0 SHL PUSH0 MSTORE PUSH1 0x41 PUSH1 0x4 MSTORE PUSH1 0x24 PUSH0 REVERT JUMPDEST PUSH1 0xC0 DUP2 ADD SWAP1 DUP2 LT PUSH8 0xFFFFFFFFFFFFFFFF DUP3 GT OR PUSH2 0x1F51 JUMPI PUSH1 0x40 MSTORE JUMP JUMPDEST DUP1 SLOAD DUP3 LT ISZERO PUSH2 0x1F29 JUMPI PUSH0 MSTORE PUSH1 0x20 PUSH0 KECCAK256 ADD SWAP1 PUSH0 SWAP1 JUMP JUMPDEST CALLDATALOAD PUSH2 0xFFFF DUP2 AND DUP2 SUB PUSH2 0xAF3 JUMPI SWAP1 JUMP JUMPDEST PUSH1 0xFF PUSH1 0x1 SWAP2 AND ADD SWAP1 PUSH1 0xFF DUP3 GT PUSH2 0x1F05 JUMPI JUMP JUMPDEST PUSH0 SLOAD PUSH1 0x1 PUSH1 0x1 PUSH1 0xA0 SHL SUB AND CALLER SUB PUSH2 0x1FCA JUMPI JUMP JUMPDEST PUSH1 0x40 MLOAD PUSH3 0x461BCD PUSH1 0xE5 SHL DUP2 MSTORE PUSH1 0x20 PUSH1 0x4 DUP3 ADD MSTORE PUSH1 0x16 PUSH1 0x24 DUP3 ADD MSTORE PUSH22 0x27B7363C9031B0B63630B1363290313C9037BBB732B9 PUSH1 0x51 SHL PUSH1 0x44 DUP3 ADD MSTORE PUSH1 0x64 SWAP1 REVERT JUMPDEST SWAP1 PUSH2 0x202D SWAP3 PUSH1 0xFF DUP4 AND PUSH0 MSTORE PUSH1 0xA PUSH1 0x20 MSTORE PUSH1 0x40 PUSH0 KECCAK256 SWAP1 PUSH0 MSTORE PUSH1 0x20 MSTORE PUSH1 0x40 PUSH0 KECCAK256 SLOAD SWAP2 PUSH2 0x2050 JUMP JUMPDEST JUMP JUMPDEST PUSH1 0xFF PUSH1 0x2 SLOAD PUSH1 0xA0 SHR AND PUSH2 0x203E JUMPI JUMP JUMPDEST PUSH1 0x40 MLOAD PUSH4 0xD93C0665 PUSH1 0xE0 SHL DUP2 MSTORE PUSH1 0x4 SWAP1 REVERT JUMPDEST PUSH1 0xFF SWAP1 SWAP3 SWAP2 SWAP3 AND SWAP2 DUP3 PUSH0 MSTORE PUSH1 0x9 PUSH1 0x20 MSTORE PUSH1 0xFF PUSH1 0x40 PUSH0 KECCAK256 SWAP2 AND PUSH0 MSTORE PUSH1 0x20 MSTORE PUSH1 0x40 PUSH0 KECCAK256 SWAP1 DUP2 SLOAD SWAP3 PUSH0 NOT SWAP4 DUP5 DUP2 ADD SWAP1 DUP2 GT PUSH2 0x1F05 JUMPI DUP1 DUP4 SUB PUSH2 0x20C6 JUMPI JUMPDEST POP POP POP DUP1 SLOAD DUP1 ISZERO PUSH2 0x20B2 JUMPI DUP3 ADD SWAP2 PUSH2 0x20A2 DUP4 DUP4 PUSH2 0x1F81 JUMP JUMPDEST SWAP1 SWAP2 DUP3 SLOAD SWAP2 PUSH1 0x3 SHL SHL NOT AND SWAP1 SSTORE SSTORE JUMP JUMPDEST PUSH4 0x4E487B71 PUSH1 0xE0 SHL PUSH0 MSTORE PUSH1 0x31 PUSH1 0x4 MSTORE PUSH1 0x24 PUSH0 REVERT JUMPDEST PUSH2 0x20D0 SWAP1 DUP5 PUSH2 0x1F81 JUMP JUMPDEST SWAP1 SLOAD SWAP1 PUSH1 0x3 SHL SHR SWAP1 PUSH2 0x20E6 DUP3 PUSH2 0x1D2F DUP6 DUP8 PUSH2 0x1F81 JUMP JUMPDEST PUSH0 MSTORE PUSH1 0xA PUSH1 0x20 MSTORE PUSH1 0x40 PUSH0 KECCAK256 SWAP1 PUSH0 MSTORE PUSH1 0x20 MSTORE PUSH1 0x40 PUSH0 KECCAK256 SSTORE PUSH0 DUP1 DUP1 PUSH2 0x208A JUMP JUMPDEST SWAP1 SWAP2 PUSH1 0xFF DUP1 SWAP4 AND PUSH0 MSTORE PUSH1 0xB PUSH1 0x20 MSTORE PUSH2 0x2710 PUSH1 0x40 PUSH0 KECCAK256 SWAP3 PUSH2 0xFFFF SWAP2 DUP3 SWAP2 MOD AND SWAP1 PUSH0 SWAP4 PUSH0 JUMPDEST PUSH1 0x6 DUP1 DUP9 DUP4 AND LT ISZERO PUSH2 0x2189 JUMPI DUP2 LT ISZERO PUSH2 0x1F29 JUMPI PUSH1 0x4 SWAP6 DUP4 DUP1 DUP4 DUP10 SHR DUP6 ADD SLOAD PUSH1 0xF0 DUP6 DUP12 SHL AND SHR AND SWAP2 AND ADD SWAP6 DUP4 DUP8 GT PUSH2 0x2176 JUMPI POP DUP3 DUP7 AND DUP5 LT PUSH2 0x216C JUMPI PUSH1 0x1 ADD DUP7 AND PUSH2 0x2127 JUMP JUMPDEST SWAP5 POP POP POP POP SWAP2 POP SWAP1 JUMP JUMPDEST PUSH1 0x11 SWAP1 PUSH4 0x4E487B71 PUSH1 0xE0 SHL PUSH0 MSTORE MSTORE PUSH1 0x24 PUSH0 REVERT JUMPDEST POP POP POP POP POP SWAP2 POP POP PUSH1 0x5 SWAP1 JUMP INVALID LOG2 PUSH5 0x6970667358 0x22 SLT KECCAK256 0x4B GASPRICE MSTORE DUP16 SWAP2 PUSH7 0x36B11E9E28C181 PUSH10 0x9D6C0FE2C2C35715E524 PUSH11 0x6CA9C3E350165664736F6C PUSH4 0x43000818 STOP CALLER "},"methodIdentifiers":{"NFT()":"7c0b8de2","NUM_BUCKETS()":"c56ca84e","NUM_PACK_TIERS()":"68f1fb93","VRF_KEY_HASH()":"da06a5f0","VRF_NATIVE_PAYMENT()":"eadf2280","VRF_SUBSCRIPTION_ID()":"83109708","WEIGHT_TOTAL_BPS()":"f6c59961","acceptOwnership()":"79ba5097","addCards(uint8,uint256[],uint8[])":"122e934e","availableInBucket(uint8,uint8)":"d7894b82","availableInPack(uint8)":"0194f9a3","backendSigner()":"65d65e86","callbackGasLimit()":"24f74697","cancelPendingPull(uint256)":"4cfd6b40","cards(uint8,uint256)":"bcd82de9","emergencyPause()":"51858e27","getBucketWeights(uint8)":"79396b32","giveaway(address,bytes32,uint8,uint256)":"26d3f3d8","lastPullBlock(address)":"eb96f26c","maxPullsPerBlock()":"48f87f7b","minPullIntervalBlocks()":"7be4dd84","owner()":"8da5cb5b","pauseGuardian()":"24a3d622","paused()":"5c975abb","pendingPulls(uint256)":"08a52d05","polygonGiveawayUsed(address)":"31425294","pullsInBlock(uint256)":"257ad931","rawFulfillRandomWords(uint256,uint256[])":"1fe543e3","removeCard(uint8,uint256)":"21ab305b","requestConfirmations()":"b0fb162f","requestPull(address,uint8,bytes32)":"d14d3de0","s_vrfCoordinator()":"9eccacf6","setBackendSigner(address)":"36f95670","setBucketWeights(uint8,uint16[6])":"14ef0c2c","setCoordinator(address)":"8ea98117","setPauseGuardian(address)":"48bde20c","setRateLimits(uint256,uint8)":"7b90f215","setVault(address)":"6817031b","setVrfConfig(uint32,uint16)":"54d7be2d","solanaGiveawayUsed(bytes32)":"75506c47","transferOwnership(address)":"f2fde38b","unpause()":"3f4ba83a","usedBurnProofs(bytes32)":"f444b6eb","vault()":"fbfa77cf","withdrawCard(uint8,uint256,address)":"c92f9658"}}}}}