{"contracts/BindrGacha.sol":{"BindrGacha":{"abi":[{"inputs":[{"internalType":"address","name":"nft","type":"address"},{"internalType":"address","name":"initialVault","type":"address"},{"internalType":"address","name":"initialBackend","type":"address"}],"stateMutability":"nonpayable","type":"constructor"},{"inputs":[],"name":"AlreadyClaimed","type":"error"},{"inputs":[],"name":"CardAlreadyRegistered","type":"error"},{"inputs":[],"name":"CardNotFound","type":"error"},{"inputs":[],"name":"EnforcedPause","type":"error"},{"inputs":[],"name":"ExpectedPause","type":"error"},{"inputs":[],"name":"InvalidBucket","type":"error"},{"inputs":[],"name":"InvalidPackTier","type":"error"},{"inputs":[],"name":"LengthMismatch","type":"error"},{"inputs":[],"name":"NotBackend","type":"error"},{"inputs":[{"internalType":"address","name":"owner","type":"address"}],"name":"OwnableInvalidOwner","type":"error"},{"inputs":[{"internalType":"address","name":"account","type":"address"}],"name":"OwnableUnauthorizedAccount","type":"error"},{"inputs":[],"name":"PoolEmpty","type":"error"},{"inputs":[],"name":"WeightsDoNotSumTo10000","type":"error"},{"inputs":[],"name":"ZeroAddress","type":"error"},{"anonymous":false,"inputs":[{"indexed":true,"internalType":"address","name":"previous","type":"address"},{"indexed":true,"internalType":"address","name":"current","type":"address"}],"name":"BackendSignerChanged","type":"event"},{"anonymous":false,"inputs":[{"indexed":true,"internalType":"uint8","name":"packTier","type":"uint8"},{"indexed":true,"internalType":"uint256","name":"tokenId","type":"uint256"},{"indexed":false,"internalType":"uint8","name":"bucket","type":"uint8"}],"name":"CardAdded","type":"event"},{"anonymous":false,"inputs":[{"indexed":true,"internalType":"uint8","name":"packTier","type":"uint8"},{"indexed":true,"internalType":"uint256","name":"tokenId","type":"uint256"}],"name":"CardRemoved","type":"event"},{"anonymous":false,"inputs":[{"indexed":true,"internalType":"address","name":"user","type":"address"},{"indexed":true,"internalType":"uint8","name":"packTier","type":"uint8"},{"indexed":true,"internalType":"uint256","name":"tokenId","type":"uint256"},{"indexed":false,"internalType":"uint8","name":"bucket","type":"uint8"},{"indexed":false,"internalType":"bytes32","name":"solanaHash","type":"bytes32"}],"name":"Giveaway","type":"event"},{"anonymous":false,"inputs":[{"indexed":true,"internalType":"address","name":"previousOwner","type":"address"},{"indexed":true,"internalType":"address","name":"newOwner","type":"address"}],"name":"OwnershipTransferred","type":"event"},{"anonymous":false,"inputs":[{"indexed":false,"internalType":"address","name":"account","type":"address"}],"name":"Paused","type":"event"},{"anonymous":false,"inputs":[{"indexed":true,"internalType":"address","name":"user","type":"address"},{"indexed":true,"internalType":"uint8","name":"packTier","type":"uint8"},{"indexed":true,"internalType":"uint256","name":"tokenId","type":"uint256"},{"indexed":false,"internalType":"uint8","name":"bucket","type":"uint8"},{"indexed":false,"internalType":"bytes32","name":"burnProof","type":"bytes32"}],"name":"Pulled","type":"event"},{"anonymous":false,"inputs":[{"indexed":false,"internalType":"address","name":"account","type":"address"}],"name":"Unpaused","type":"event"},{"anonymous":false,"inputs":[{"indexed":true,"internalType":"address","name":"previous","type":"address"},{"indexed":true,"internalType":"address","name":"current","type":"address"}],"name":"VaultChanged","type":"event"},{"anonymous":false,"inputs":[{"indexed":true,"internalType":"uint8","name":"packTier","type":"uint8"},{"indexed":false,"internalType":"uint16[6]","name":"weights","type":"uint16[6]"}],"name":"WeightsUpdated","type":"event"},{"inputs":[],"name":"NFT","outputs":[{"internalType":"contract IERC721","name":"","type":"address"}],"stateMutability":"view","type":"function"},{"inputs":[],"name":"NUM_BUCKETS","outputs":[{"internalType":"uint8","name":"","type":"uint8"}],"stateMutability":"view","type":"function"},{"inputs":[],"name":"NUM_PACK_TIERS","outputs":[{"internalType":"uint8","name":"","type":"uint8"}],"stateMutability":"view","type":"function"},{"inputs":[],"name":"WEIGHT_TOTAL_BPS","outputs":[{"internalType":"uint16","name":"","type":"uint16"}],"stateMutability":"view","type":"function"},{"inputs":[{"internalType":"uint8","name":"packTier","type":"uint8"},{"internalType":"uint256[]","name":"tokenIds","type":"uint256[]"},{"internalType":"uint8[]","name":"buckets","type":"uint8[]"}],"name":"addCards","outputs":[],"stateMutability":"nonpayable","type":"function"},{"inputs":[{"internalType":"uint8","name":"packTier","type":"uint8"},{"internalType":"uint8","name":"bucket","type":"uint8"}],"name":"availableInBucket","outputs":[{"internalType":"uint256","name":"","type":"uint256"}],"stateMutability":"view","type":"function"},{"inputs":[{"internalType":"uint8","name":"packTier","type":"uint8"}],"name":"availableInPack","outputs":[{"internalType":"uint256","name":"total","type":"uint256"}],"stateMutability":"view","type":"function"},{"inputs":[],"name":"backendSigner","outputs":[{"internalType":"address","name":"","type":"address"}],"stateMutability":"view","type":"function"},{"inputs":[{"internalType":"uint8","name":"","type":"uint8"},{"internalType":"uint256","name":"","type":"uint256"}],"name":"cards","outputs":[{"internalType":"uint8","name":"bucket","type":"uint8"},{"internalType":"bool","name":"available","type":"bool"}],"stateMutability":"view","type":"function"},{"inputs":[{"internalType":"uint8","name":"packTier","type":"uint8"}],"name":"getBucketWeights","outputs":[{"internalType":"uint16[6]","name":"","type":"uint16[6]"}],"stateMutability":"view","type":"function"},{"inputs":[{"internalType":"address","name":"user","type":"address"},{"internalType":"bytes32","name":"solanaHash","type":"bytes32"},{"internalType":"uint8","name":"packTier","type":"uint8"}],"name":"giveaway","outputs":[{"internalType":"uint256","name":"tokenId","type":"uint256"},{"internalType":"uint8","name":"bucket","type":"uint8"}],"stateMutability":"nonpayable","type":"function"},{"inputs":[],"name":"owner","outputs":[{"internalType":"address","name":"","type":"address"}],"stateMutability":"view","type":"function"},{"inputs":[],"name":"paused","outputs":[{"internalType":"bool","name":"","type":"bool"}],"stateMutability":"view","type":"function"},{"inputs":[{"internalType":"address","name":"","type":"address"}],"name":"polygonGiveawayUsed","outputs":[{"internalType":"bool","name":"","type":"bool"}],"stateMutability":"view","type":"function"},{"inputs":[{"internalType":"address","name":"user","type":"address"},{"internalType":"uint8","name":"packTier","type":"uint8"},{"internalType":"bytes32","name":"burnProof","type":"bytes32"}],"name":"pull","outputs":[{"internalType":"uint256","name":"tokenId","type":"uint256"},{"internalType":"uint8","name":"bucket","type":"uint8"}],"stateMutability":"nonpayable","type":"function"},{"inputs":[{"internalType":"uint8","name":"packTier","type":"uint8"},{"internalType":"uint256","name":"tokenId","type":"uint256"}],"name":"removeCard","outputs":[],"stateMutability":"nonpayable","type":"function"},{"inputs":[],"name":"renounceOwnership","outputs":[],"stateMutability":"nonpayable","type":"function"},{"inputs":[{"internalType":"address","name":"newSigner","type":"address"}],"name":"setBackendSigner","outputs":[],"stateMutability":"nonpayable","type":"function"},{"inputs":[{"internalType":"uint8","name":"packTier","type":"uint8"},{"internalType":"uint16[6]","name":"weights","type":"uint16[6]"}],"name":"setBucketWeights","outputs":[],"stateMutability":"nonpayable","type":"function"},{"inputs":[{"internalType":"bool","name":"paused_","type":"bool"}],"name":"setPaused","outputs":[],"stateMutability":"nonpayable","type":"function"},{"inputs":[{"internalType":"address","name":"newVault","type":"address"}],"name":"setVault","outputs":[],"stateMutability":"nonpayable","type":"function"},{"inputs":[{"internalType":"bytes32","name":"","type":"bytes32"}],"name":"solanaGiveawayUsed","outputs":[{"internalType":"bool","name":"","type":"bool"}],"stateMutability":"view","type":"function"},{"inputs":[{"internalType":"address","name":"newOwner","type":"address"}],"name":"transferOwnership","outputs":[],"stateMutability":"nonpayable","type":"function"},{"inputs":[],"name":"vault","outputs":[{"internalType":"address","name":"","type":"address"}],"stateMutability":"view","type":"function"}],"evm":{"bytecode":{"linkReferences":{},"object":"60a034620002fe57601f6200161b38819003918201601f191683019291906001600160401b0384118385101762000302578160609284926040968752833981010312620002fe57620000518162000336565b9160206200006e826200006683860162000336565b940162000336565b903315620002e7575f549360018060a01b03948560018060a01b03199733898416175f55865192823391167f8be0079c531659141344cd1fd0a4f28419497f9722a3daafe3b4186f6b6457e05f80a3169081158015620002dc575b8015620002d1575b620002c25750908591608052169360019285878554161784551680956002541617600255620000ff62000316565b60c0368237610c1281526111868282015261082e8482015261012c606082015260146080820152600a60a08201525f8080526007835284812082825b868660068310620002915750505050556200015562000316565b9160c036843761137983526109bd818401526108918584015261012b6060840152601e60808401525f60a0840152835f5260078152845f20835f925f905b87600683106200025f5750505050620001ec92620001dd94925f92558651807fead69bde6b49ca7ed74a5fc780b639e2b515c739e118d2565f811f8f0a36dade968793826200034b565b0390a28451918291826200034b565b0390a251915f7f60c5293782c70b9080e83e261790b280285209d93c36a68814b4c9a150f047de8180a35f7f16e2accad9173abff57b295b56993ec5d86b3cbf791fea02f02a6616463754ea8180a361129c90816200037f82396080518181816103140152818161067e015261081e0152f35b9062000286849661ffff83959651169086851b60031b9161ffff809116831b921b19161790565b950192019062000193565b90919294620002b89061ffff8751169085851b60031b9161ffff809116831b921b19161790565b940191016200013b565b63d92e233d60e01b8152600490fd5b5086851615620000d1565b5086831615620000c9565b8251631e4fbdf760e01b81525f6004820152602490fd5b5f80fd5b634e487b7160e01b5f52604160045260245ffd5b6040519060c082016001600160401b038111838210176200030257604052565b51906001600160a01b0382168203620002fe57565b60c0810192915f915b600683106200036257505050565b60019061ffff835116815260208091019201920191906200035456fe6080806040526004361015610012575f80fd5b5f3560e01c9081630194f9a314610e1257508063122e934e14610be757806314ef0c2c14610aad57806316c38b3c146109e457806321ab305b1461090957806326a9192b1461076e5780632c4507a41461061757806331425294146105da57806336f956701461056b5780635c975abb1461054757806365d65e861461051f5780636817031b1461049e57806368f1fb9314610483578063715018a61461042c57806375506c47146103fd57806379396b32146103435780637c0b8de2146102ff5780638da5cb5b146102d8578063bcd82de91461028c578063c56ca84e14610271578063d7894b82146101f1578063f2fde38b1461016c578063f6c59961146101505763fbfa77cf14610124575f80fd5b3461014c575f36600319011261014c576001546040516001600160a01b039091168152602090f35b5f80fd5b3461014c575f36600319011261014c5760206040516127108152f35b3461014c57602036600319011261014c57610185610ee4565b61018d610f93565b6001600160a01b039081169081156101d9575f54826001600160601b0360a01b8216175f55167f8be0079c531659141344cd1fd0a4f28419497f9722a3daafe3b4186f6b6457e05f80a3005b604051631e4fbdf760e01b81525f6004820152602490fd5b3461014c57604036600319011261014c5761020a610e93565b60ff610214610ea3565b911690600282101561025f5760ff1690600682101561024d575f52600560205260405f20905f52602052602060405f2054604051908152f35b60405163778aa76b60e01b8152600490fd5b60405163d694977f60e01b8152600490fd5b3461014c575f36600319011261014c57602060405160068152f35b3461014c57604036600319011261014c5760ff6102a7610e93565b165f52600460205260405f206024355f526020526040805f205460ff825191818116835260081c1615156020820152f35b3461014c575f36600319011261014c575f546040516001600160a01b039091168152602090f35b3461014c575f36600319011261014c576040517f00000000000000000000000000000000000000000000000000000000000000006001600160a01b03168152602090f35b3461014c5760208060031936011261014c5760ff61035f610e93565b60c060405161036d81610f53565b36903716600281101561025f575f526007815260405f209060405191549061ffff82818094168552818160101c16838601528181841c166040860152818160301c166060860152818160401c16608086015260501c1660a08401526103d183610f53565b604051925f90845b600683106103e65760c086f35b8380600192878551168152019201920191906103d9565b3461014c57602036600319011261014c576004355f526009602052602060ff60405f2054166040519015158152f35b3461014c575f36600319011261014c57610444610f93565b5f80546001600160a01b0319811682556001600160a01b03167f8be0079c531659141344cd1fd0a4f28419497f9722a3daafe3b4186f6b6457e08280a3005b3461014c575f36600319011261014c57602060405160028152f35b3461014c57602036600319011261014c576104b7610ee4565b6104bf610f93565b6001600160a01b0390811690811561050d57600154826001600160601b0360a01b821617600155167f16e2accad9173abff57b295b56993ec5d86b3cbf791fea02f02a6616463754ea5f80a3005b60405163d92e233d60e01b8152600490fd5b3461014c575f36600319011261014c576002546040516001600160a01b039091168152602090f35b3461014c575f36600319011261014c57602060ff5f5460a01c166040519015158152f35b3461014c57602036600319011261014c57610584610ee4565b61058c610f93565b6001600160a01b0390811690811561050d57600254826001600160601b0360a01b821617600255167f60c5293782c70b9080e83e261790b280285209d93c36a68814b4c9a150f047de5f80a3005b3461014c57602036600319011261014c576001600160a01b036105fb610ee4565b165f526008602052602060ff60405f2054166040519015158152f35b3461014c57606036600319011261014c57610630610ee4565b610638610ea3565b6002549091906001600160a01b03908116330361075c57610657610fbe565b60ff8316600281101561025f5781831693841561050d576106789084610fde565b949093837f0000000000000000000000000000000000000000000000000000000000000000169360015416843b1561014c57604051632142170760e11b81526001600160a01b0391821660048201529116602482015260448101859052925f908490606490829084905af1928315610751578493610742575b506040805160ff8716815260443560208201527f6ca982706910d730e2729a6c3ae2a0202b7787ff8465d0695e3893677fa8ac7f91819081015b0390a46040805191825260ff929092166020820152f35b61074b90610f3f565b856106f1565b6040513d5f823e3d90fd5b604051630a31c3dd60e41b8152600490fd5b3461014c57606036600319011261014c57610787610ee4565b6044359060243560ff831680840361014c576107a1610f93565b6107a9610fbe565b600281101561025f576001600160a01b039383851690811561050d57815f52600860205260ff60405f20541680156108f3575b6108e15761081890825f52600860205260405f2060ff1990600182825416179055855f526009602052600160405f209182541617905585610fde565b959094817f0000000000000000000000000000000000000000000000000000000000000000169160015416823b1561014c57604051632142170760e11b81526001600160a01b0391821660048201529116602482015260448101869052905f908290606490829084905af180156107515785947ffa44e081ba05562bc113adb11188fa32fc0f8b00c7f449c826d9b4cc4d1e869a9261072b926108d2575b506040805160ff8a168152602081019290925290918291820190565b6108db90610f3f565b886108b6565b604051630c8d9eab60e31b8152600490fd5b50835f52600960205260ff60405f2054166107dc565b3461014c57604036600319011261014c57610922610e93565b6024359061092e610f93565b60ff811690600282101561025f57815f526020906004825260405f20845f52825260ff60405f205460081c16156109d25761099690835f526004835260405f20855f52835260ff60405f205416845f526006845260405f20865f52845260405f205491611120565b815f526004815260405f2090835f52525f60408120557f028a4fc8b4696cbcc4f5a8f6a710136792e31ca8bdd587a3ca8e506955582a925f80a3005b604051630479201160e41b8152600490fd5b3461014c57602036600319011261014c57600435801515810361014c57610a09610f93565b15610a5657610a16610fbe565b5f805460ff60a01b1916600160a01b1790556040513381527f62e78cea01bee320cd4e420270b5ea74000d11b0c9f74754ebdbfc544b05a25890602090a1005b5f5460ff8160a01c1615610a9b5760ff60a01b19165f556040513381527f5db9ee0a495bf2e6ff9c91a7834c1ba4fdd244a5e8aa4e537bd38aeae4b073aa90602090a1005b604051638dfc202b60e01b8152600490fd5b3461014c5760e036600319011261014c57610ac6610e93565b3660e41161014c57610ad6610f93565b60ff80911690600282101561025f575f80915b600681841610610bb957836127108303610ba757805f526020600760205260405f206024905f915f5b8460068210610b7d575050505560405190816024915f915b60068310610b5a57857fead69bde6b49ca7ed74a5fc780b639e2b515c739e118d2565f811f8f0a36dade60c087a2005b83359061ffff821680920361014c57828160019382935201940192019192610b2a565b8294610b8b60019394610f84565b908460041b9161ffff809116831b921b19161794019101610b12565b604051632fb3cc0760e11b8152600490fd5b6001610bdd829361ffff610bd6611fe08860051b16602401610f84565b1690610efa565b9301169190610ae9565b3461014c57606036600319011261014c57610c00610e93565b60243567ffffffffffffffff811161014c57610c20903690600401610eb3565b9060443567ffffffffffffffff811161014c57610c41903690600401610eb3565b929091610c4c610f93565b600260ff8616101561025f57838203610dfd575f5b828110610c6a57005b610c75818484610f1b565b3590610c82818787610f1b565b359160ff8316830361014c57600660ff8416101561024d5760ff88165f52600460205260405f20815f5260205260405f20549260ff600894851c16610deb5760405180604081011067ffffffffffffffff604083011117610dd7576040818101815260ff838116808452600160208086018281528f85165f818152600484528781208b8252845287812098518954935161ffff19909416971696909617911515909b1b61ff0016179095558883526005855283832082845280865284842080549a85526006875285852089865287529484208a90559190925290925290949068010000000000000000821015610dd757610d87828592600198610d9f95018155610f6f565b90919082549060031b91821b915f19901b1916179055565b60ff604051911681527f6160b95463eef162e89880a58d5ff8c73f401ae0a3de33147826ad9b64b4d3d6602060ff8b1692a301610c61565b634e487b7160e01b5f52604160045260245ffd5b604051631b74344b60e01b8152600490fd5b6040516001621398b960e31b03198152600490fd5b3461014c5760208060031936011261014c5760ff9060ff610e31610e93565b16926002841015610e8457505f92835b8385166006811015610e7957610e708592600192855f526005875260405f20905f52865260405f205490610efa565b95011693610e41565b602082604051908152f35b63d694977f60e01b8152600490fd5b6004359060ff8216820361014c57565b6024359060ff8216820361014c57565b9181601f8401121561014c5782359167ffffffffffffffff831161014c576020808501948460051b01011161014c57565b600435906001600160a01b038216820361014c57565b91908201809211610f0757565b634e487b7160e01b5f52601160045260245ffd5b9190811015610f2b5760051b0190565b634e487b7160e01b5f52603260045260245ffd5b67ffffffffffffffff8111610dd757604052565b60c0810190811067ffffffffffffffff821117610dd757604052565b8054821015610f2b575f5260205f2001905f90565b3561ffff8116810361014c5790565b5f546001600160a01b03163303610fa657565b60405163118cdaa760e01b8152336004820152602490fd5b60ff5f5460a01c16610fcc57565b60405163d93c066560e01b8152600490fd5b909160035491604090815160209182820190448252428584015260018060a01b0316606083015260ff90818816928360808201528760a082015260a0815261102581610f53565b519020600180970160035561103a88826111d4565b96805f915b6110c4575b5050825f5260058452845f2091871691825f528452845f20549081156110b35790611098929160801c0690835f5260058552855f20905f5284528661108b82875f20610f6f565b90549060031b1c98611120565b5f5260048152815f2090855f52525f2061ff00198154169055565b85516305ce024d60e51b8152600490fd5b9097845f5260058652865f209084811691825f528752875f20541580611114575b1561110d57508101838111610f0757600684809216069816838114610f07578101908061103f565b9850611044565b506006858b16106110e5565b60ff909291921691825f52600560205260ff60405f2091165f5260205260405f20908154925f1993848101908111610f0757808303611196575b50505080548015611182578201916111728383610f6f565b909182549160031b1b1916905555565b634e487b7160e01b5f52603160045260245ffd5b6111a09084610f6f565b90549060031b1c906111b682610d878587610f6f565b5f52600660205260405f20905f5260205260405f20555f808061115a565b909160ff8093165f52600760205261271060405f209261ffff9182910616905f935f5b600680888316101561125957811015610f2b57600495838083891c85015460f0858b1b161c16911601958387116112465750828616841061123c5760010186166111f7565b9450505050915090565b601190634e487b7160e01b5f525260245ffd5b505050505091505060059056fea2646970667358221220eb3f591ebe8ecbcd04bc0898ac419535be09c70089fef5a147c2f4de8c09e31364736f6c63430008180033","opcodes":"PUSH1 0xA0 CALLVALUE PUSH3 0x2FE JUMPI PUSH1 0x1F PUSH3 0x161B CODESIZE DUP2 SWAP1 SUB SWAP2 DUP3 ADD PUSH1 0x1F NOT AND DUP4 ADD SWAP3 SWAP2 SWAP1 PUSH1 0x1 PUSH1 0x1 PUSH1 0x40 SHL SUB DUP5 GT DUP4 DUP6 LT OR PUSH3 0x302 JUMPI DUP2 PUSH1 0x60 SWAP3 DUP5 SWAP3 PUSH1 0x40 SWAP7 DUP8 MSTORE DUP4 CODECOPY DUP2 ADD SUB SLT PUSH3 0x2FE JUMPI PUSH3 0x51 DUP2 PUSH3 0x336 JUMP JUMPDEST SWAP2 PUSH1 0x20 PUSH3 0x6E DUP3 PUSH3 0x66 DUP4 DUP7 ADD PUSH3 0x336 JUMP JUMPDEST SWAP5 ADD PUSH3 0x336 JUMP JUMPDEST SWAP1 CALLER ISZERO PUSH3 0x2E7 JUMPI PUSH0 SLOAD SWAP4 PUSH1 0x1 DUP1 PUSH1 0xA0 SHL SUB SWAP5 DUP6 PUSH1 0x1 DUP1 PUSH1 0xA0 SHL SUB NOT SWAP8 CALLER DUP10 DUP5 AND OR PUSH0 SSTORE DUP7 MLOAD SWAP3 DUP3 CALLER SWAP2 AND PUSH32 0x8BE0079C531659141344CD1FD0A4F28419497F9722A3DAAFE3B4186F6B6457E0 PUSH0 DUP1 LOG3 AND SWAP1 DUP2 ISZERO DUP1 ISZERO PUSH3 0x2DC JUMPI JUMPDEST DUP1 ISZERO PUSH3 0x2D1 JUMPI JUMPDEST PUSH3 0x2C2 JUMPI POP SWAP1 DUP6 SWAP2 PUSH1 0x80 MSTORE AND SWAP4 PUSH1 0x1 SWAP3 DUP6 DUP8 DUP6 SLOAD AND OR DUP5 SSTORE AND DUP1 SWAP6 PUSH1 0x2 SLOAD AND OR PUSH1 0x2 SSTORE PUSH3 0xFF PUSH3 0x316 JUMP JUMPDEST PUSH1 0xC0 CALLDATASIZE DUP3 CALLDATACOPY PUSH2 0xC12 DUP2 MSTORE PUSH2 0x1186 DUP3 DUP3 ADD MSTORE PUSH2 0x82E DUP5 DUP3 ADD MSTORE PUSH2 0x12C PUSH1 0x60 DUP3 ADD MSTORE PUSH1 0x14 PUSH1 0x80 DUP3 ADD MSTORE PUSH1 0xA PUSH1 0xA0 DUP3 ADD MSTORE PUSH0 DUP1 DUP1 MSTORE PUSH1 0x7 DUP4 MSTORE DUP5 DUP2 KECCAK256 DUP3 DUP3 JUMPDEST DUP7 DUP7 PUSH1 0x6 DUP4 LT PUSH3 0x291 JUMPI POP POP POP POP SSTORE PUSH3 0x155 PUSH3 0x316 JUMP JUMPDEST SWAP2 PUSH1 0xC0 CALLDATASIZE DUP5 CALLDATACOPY PUSH2 0x1379 DUP4 MSTORE PUSH2 0x9BD DUP2 DUP5 ADD MSTORE PUSH2 0x891 DUP6 DUP5 ADD MSTORE PUSH2 0x12B PUSH1 0x60 DUP5 ADD MSTORE PUSH1 0x1E PUSH1 0x80 DUP5 ADD MSTORE PUSH0 PUSH1 0xA0 DUP5 ADD MSTORE DUP4 PUSH0 MSTORE PUSH1 0x7 DUP2 MSTORE DUP5 PUSH0 KECCAK256 DUP4 PUSH0 SWAP3 PUSH0 SWAP1 JUMPDEST DUP8 PUSH1 0x6 DUP4 LT PUSH3 0x25F JUMPI POP POP POP POP PUSH3 0x1EC SWAP3 PUSH3 0x1DD SWAP5 SWAP3 PUSH0 SWAP3 SSTORE DUP7 MLOAD DUP1 PUSH32 0xEAD69BDE6B49CA7ED74A5FC780B639E2B515C739E118D2565F811F8F0A36DADE SWAP7 DUP8 SWAP4 DUP3 PUSH3 0x34B JUMP JUMPDEST SUB SWAP1 LOG2 DUP5 MLOAD SWAP2 DUP3 SWAP2 DUP3 PUSH3 0x34B JUMP JUMPDEST SUB SWAP1 LOG2 MLOAD SWAP2 PUSH0 PUSH32 0x60C5293782C70B9080E83E261790B280285209D93C36A68814B4C9A150F047DE DUP2 DUP1 LOG3 PUSH0 PUSH32 0x16E2ACCAD9173ABFF57B295B56993EC5D86B3CBF791FEA02F02A6616463754EA DUP2 DUP1 LOG3 PUSH2 0x129C SWAP1 DUP2 PUSH3 0x37F DUP3 CODECOPY PUSH1 0x80 MLOAD DUP2 DUP2 DUP2 PUSH2 0x314 ADD MSTORE DUP2 DUP2 PUSH2 0x67E ADD MSTORE PUSH2 0x81E ADD MSTORE RETURN JUMPDEST SWAP1 PUSH3 0x286 DUP5 SWAP7 PUSH2 0xFFFF DUP4 SWAP6 SWAP7 MLOAD AND SWAP1 DUP7 DUP6 SHL PUSH1 0x3 SHL SWAP2 PUSH2 0xFFFF DUP1 SWAP2 AND DUP4 SHL SWAP3 SHL NOT AND OR SWAP1 JUMP JUMPDEST SWAP6 ADD SWAP3 ADD SWAP1 PUSH3 0x193 JUMP JUMPDEST SWAP1 SWAP2 SWAP3 SWAP5 PUSH3 0x2B8 SWAP1 PUSH2 0xFFFF DUP8 MLOAD AND SWAP1 DUP6 DUP6 SHL PUSH1 0x3 SHL SWAP2 PUSH2 0xFFFF DUP1 SWAP2 AND DUP4 SHL SWAP3 SHL NOT AND OR SWAP1 JUMP JUMPDEST SWAP5 ADD SWAP2 ADD PUSH3 0x13B JUMP JUMPDEST PUSH4 0xD92E233D PUSH1 0xE0 SHL DUP2 MSTORE PUSH1 0x4 SWAP1 REVERT JUMPDEST POP DUP7 DUP6 AND ISZERO PUSH3 0xD1 JUMP JUMPDEST POP DUP7 DUP4 AND ISZERO PUSH3 0xC9 JUMP JUMPDEST DUP3 MLOAD PUSH4 0x1E4FBDF7 PUSH1 0xE0 SHL DUP2 MSTORE PUSH0 PUSH1 0x4 DUP3 ADD MSTORE PUSH1 0x24 SWAP1 REVERT JUMPDEST PUSH0 DUP1 REVERT JUMPDEST PUSH4 0x4E487B71 PUSH1 0xE0 SHL PUSH0 MSTORE PUSH1 0x41 PUSH1 0x4 MSTORE PUSH1 0x24 PUSH0 REVERT JUMPDEST PUSH1 0x40 MLOAD SWAP1 PUSH1 0xC0 DUP3 ADD PUSH1 0x1 PUSH1 0x1 PUSH1 0x40 SHL SUB DUP2 GT DUP4 DUP3 LT OR PUSH3 0x302 JUMPI PUSH1 0x40 MSTORE JUMP JUMPDEST MLOAD SWAP1 PUSH1 0x1 PUSH1 0x1 PUSH1 0xA0 SHL SUB DUP3 AND DUP3 SUB PUSH3 0x2FE JUMPI JUMP JUMPDEST PUSH1 0xC0 DUP2 ADD SWAP3 SWAP2 PUSH0 SWAP2 JUMPDEST PUSH1 0x6 DUP4 LT PUSH3 0x362 JUMPI POP POP POP JUMP JUMPDEST PUSH1 0x1 SWAP1 PUSH2 0xFFFF DUP4 MLOAD AND DUP2 MSTORE PUSH1 0x20 DUP1 SWAP2 ADD SWAP3 ADD SWAP3 ADD SWAP2 SWAP1 PUSH3 0x354 JUMP INVALID PUSH1 0x80 DUP1 PUSH1 0x40 MSTORE PUSH1 0x4 CALLDATASIZE LT ISZERO PUSH2 0x12 JUMPI PUSH0 DUP1 REVERT JUMPDEST PUSH0 CALLDATALOAD PUSH1 0xE0 SHR SWAP1 DUP2 PUSH4 0x194F9A3 EQ PUSH2 0xE12 JUMPI POP DUP1 PUSH4 0x122E934E EQ PUSH2 0xBE7 JUMPI DUP1 PUSH4 0x14EF0C2C EQ PUSH2 0xAAD JUMPI DUP1 PUSH4 0x16C38B3C EQ PUSH2 0x9E4 JUMPI DUP1 PUSH4 0x21AB305B EQ PUSH2 0x909 JUMPI DUP1 PUSH4 0x26A9192B EQ PUSH2 0x76E JUMPI DUP1 PUSH4 0x2C4507A4 EQ PUSH2 0x617 JUMPI DUP1 PUSH4 0x31425294 EQ PUSH2 0x5DA JUMPI DUP1 PUSH4 0x36F95670 EQ PUSH2 0x56B JUMPI DUP1 PUSH4 0x5C975ABB EQ PUSH2 0x547 JUMPI DUP1 PUSH4 0x65D65E86 EQ PUSH2 0x51F JUMPI DUP1 PUSH4 0x6817031B EQ PUSH2 0x49E JUMPI DUP1 PUSH4 0x68F1FB93 EQ PUSH2 0x483 JUMPI DUP1 PUSH4 0x715018A6 EQ PUSH2 0x42C JUMPI DUP1 PUSH4 0x75506C47 EQ PUSH2 0x3FD JUMPI DUP1 PUSH4 0x79396B32 EQ PUSH2 0x343 JUMPI DUP1 PUSH4 0x7C0B8DE2 EQ PUSH2 0x2FF JUMPI DUP1 PUSH4 0x8DA5CB5B EQ PUSH2 0x2D8 JUMPI DUP1 PUSH4 0xBCD82DE9 EQ PUSH2 0x28C JUMPI DUP1 PUSH4 0xC56CA84E EQ PUSH2 0x271 JUMPI DUP1 PUSH4 0xD7894B82 EQ PUSH2 0x1F1 JUMPI DUP1 PUSH4 0xF2FDE38B EQ PUSH2 0x16C JUMPI DUP1 PUSH4 0xF6C59961 EQ PUSH2 0x150 JUMPI PUSH4 0xFBFA77CF EQ PUSH2 0x124 JUMPI PUSH0 DUP1 REVERT JUMPDEST CALLVALUE PUSH2 0x14C JUMPI PUSH0 CALLDATASIZE PUSH1 0x3 NOT ADD SLT PUSH2 0x14C JUMPI PUSH1 0x1 SLOAD PUSH1 0x40 MLOAD PUSH1 0x1 PUSH1 0x1 PUSH1 0xA0 SHL SUB SWAP1 SWAP2 AND DUP2 MSTORE PUSH1 0x20 SWAP1 RETURN JUMPDEST PUSH0 DUP1 REVERT JUMPDEST CALLVALUE PUSH2 0x14C JUMPI PUSH0 CALLDATASIZE PUSH1 0x3 NOT ADD SLT PUSH2 0x14C JUMPI PUSH1 0x20 PUSH1 0x40 MLOAD PUSH2 0x2710 DUP2 MSTORE RETURN JUMPDEST CALLVALUE PUSH2 0x14C JUMPI PUSH1 0x20 CALLDATASIZE PUSH1 0x3 NOT ADD SLT PUSH2 0x14C JUMPI PUSH2 0x185 PUSH2 0xEE4 JUMP JUMPDEST PUSH2 0x18D PUSH2 0xF93 JUMP JUMPDEST PUSH1 0x1 PUSH1 0x1 PUSH1 0xA0 SHL SUB SWAP1 DUP2 AND SWAP1 DUP2 ISZERO PUSH2 0x1D9 JUMPI PUSH0 SLOAD DUP3 PUSH1 0x1 PUSH1 0x1 PUSH1 0x60 SHL SUB PUSH1 0xA0 SHL DUP3 AND OR PUSH0 SSTORE AND PUSH32 0x8BE0079C531659141344CD1FD0A4F28419497F9722A3DAAFE3B4186F6B6457E0 PUSH0 DUP1 LOG3 STOP JUMPDEST PUSH1 0x40 MLOAD PUSH4 0x1E4FBDF7 PUSH1 0xE0 SHL DUP2 MSTORE PUSH0 PUSH1 0x4 DUP3 ADD MSTORE PUSH1 0x24 SWAP1 REVERT JUMPDEST CALLVALUE PUSH2 0x14C JUMPI PUSH1 0x40 CALLDATASIZE PUSH1 0x3 NOT ADD SLT PUSH2 0x14C JUMPI PUSH2 0x20A PUSH2 0xE93 JUMP JUMPDEST PUSH1 0xFF PUSH2 0x214 PUSH2 0xEA3 JUMP JUMPDEST SWAP2 AND SWAP1 PUSH1 0x2 DUP3 LT ISZERO PUSH2 0x25F JUMPI PUSH1 0xFF AND SWAP1 PUSH1 0x6 DUP3 LT ISZERO PUSH2 0x24D JUMPI PUSH0 MSTORE PUSH1 0x5 PUSH1 0x20 MSTORE PUSH1 0x40 PUSH0 KECCAK256 SWAP1 PUSH0 MSTORE PUSH1 0x20 MSTORE PUSH1 0x20 PUSH1 0x40 PUSH0 KECCAK256 SLOAD PUSH1 0x40 MLOAD SWAP1 DUP2 MSTORE RETURN JUMPDEST PUSH1 0x40 MLOAD PUSH4 0x778AA76B PUSH1 0xE0 SHL DUP2 MSTORE PUSH1 0x4 SWAP1 REVERT JUMPDEST PUSH1 0x40 MLOAD PUSH4 0xD694977F PUSH1 0xE0 SHL DUP2 MSTORE PUSH1 0x4 SWAP1 REVERT JUMPDEST CALLVALUE PUSH2 0x14C JUMPI PUSH0 CALLDATASIZE PUSH1 0x3 NOT ADD SLT PUSH2 0x14C JUMPI PUSH1 0x20 PUSH1 0x40 MLOAD PUSH1 0x6 DUP2 MSTORE RETURN JUMPDEST CALLVALUE PUSH2 0x14C JUMPI PUSH1 0x40 CALLDATASIZE PUSH1 0x3 NOT ADD SLT PUSH2 0x14C JUMPI PUSH1 0xFF PUSH2 0x2A7 PUSH2 0xE93 JUMP JUMPDEST AND PUSH0 MSTORE PUSH1 0x4 PUSH1 0x20 MSTORE PUSH1 0x40 PUSH0 KECCAK256 PUSH1 0x24 CALLDATALOAD PUSH0 MSTORE PUSH1 0x20 MSTORE PUSH1 0x40 DUP1 PUSH0 KECCAK256 SLOAD PUSH1 0xFF DUP3 MLOAD SWAP2 DUP2 DUP2 AND DUP4 MSTORE PUSH1 0x8 SHR AND ISZERO ISZERO PUSH1 0x20 DUP3 ADD MSTORE RETURN JUMPDEST CALLVALUE PUSH2 0x14C JUMPI PUSH0 CALLDATASIZE PUSH1 0x3 NOT ADD SLT PUSH2 0x14C JUMPI PUSH0 SLOAD PUSH1 0x40 MLOAD PUSH1 0x1 PUSH1 0x1 PUSH1 0xA0 SHL SUB SWAP1 SWAP2 AND DUP2 MSTORE PUSH1 0x20 SWAP1 RETURN JUMPDEST CALLVALUE PUSH2 0x14C JUMPI PUSH0 CALLDATASIZE PUSH1 0x3 NOT ADD SLT PUSH2 0x14C JUMPI PUSH1 0x40 MLOAD PUSH32 0x0 PUSH1 0x1 PUSH1 0x1 PUSH1 0xA0 SHL SUB AND DUP2 MSTORE PUSH1 0x20 SWAP1 RETURN JUMPDEST CALLVALUE PUSH2 0x14C JUMPI PUSH1 0x20 DUP1 PUSH1 0x3 NOT CALLDATASIZE ADD SLT PUSH2 0x14C JUMPI PUSH1 0xFF PUSH2 0x35F PUSH2 0xE93 JUMP JUMPDEST PUSH1 0xC0 PUSH1 0x40 MLOAD PUSH2 0x36D DUP2 PUSH2 0xF53 JUMP JUMPDEST CALLDATASIZE SWAP1 CALLDATACOPY AND PUSH1 0x2 DUP2 LT ISZERO PUSH2 0x25F JUMPI PUSH0 MSTORE PUSH1 0x7 DUP2 MSTORE PUSH1 0x40 PUSH0 KECCAK256 SWAP1 PUSH1 0x40 MLOAD SWAP2 SLOAD SWAP1 PUSH2 0xFFFF DUP3 DUP2 DUP1 SWAP5 AND DUP6 MSTORE DUP2 DUP2 PUSH1 0x10 SHR AND DUP4 DUP7 ADD MSTORE DUP2 DUP2 DUP5 SHR AND PUSH1 0x40 DUP7 ADD MSTORE DUP2 DUP2 PUSH1 0x30 SHR AND PUSH1 0x60 DUP7 ADD MSTORE DUP2 DUP2 PUSH1 0x40 SHR AND PUSH1 0x80 DUP7 ADD MSTORE PUSH1 0x50 SHR AND PUSH1 0xA0 DUP5 ADD MSTORE PUSH2 0x3D1 DUP4 PUSH2 0xF53 JUMP JUMPDEST PUSH1 0x40 MLOAD SWAP3 PUSH0 SWAP1 DUP5 JUMPDEST PUSH1 0x6 DUP4 LT PUSH2 0x3E6 JUMPI PUSH1 0xC0 DUP7 RETURN JUMPDEST DUP4 DUP1 PUSH1 0x1 SWAP3 DUP8 DUP6 MLOAD AND DUP2 MSTORE ADD SWAP3 ADD SWAP3 ADD SWAP2 SWAP1 PUSH2 0x3D9 JUMP JUMPDEST CALLVALUE PUSH2 0x14C JUMPI PUSH1 0x20 CALLDATASIZE PUSH1 0x3 NOT ADD SLT PUSH2 0x14C JUMPI PUSH1 0x4 CALLDATALOAD PUSH0 MSTORE PUSH1 0x9 PUSH1 0x20 MSTORE PUSH1 0x20 PUSH1 0xFF PUSH1 0x40 PUSH0 KECCAK256 SLOAD AND PUSH1 0x40 MLOAD SWAP1 ISZERO ISZERO DUP2 MSTORE RETURN JUMPDEST CALLVALUE PUSH2 0x14C JUMPI PUSH0 CALLDATASIZE PUSH1 0x3 NOT ADD SLT PUSH2 0x14C JUMPI PUSH2 0x444 PUSH2 0xF93 JUMP JUMPDEST PUSH0 DUP1 SLOAD PUSH1 0x1 PUSH1 0x1 PUSH1 0xA0 SHL SUB NOT DUP2 AND DUP3 SSTORE PUSH1 0x1 PUSH1 0x1 PUSH1 0xA0 SHL SUB AND PUSH32 0x8BE0079C531659141344CD1FD0A4F28419497F9722A3DAAFE3B4186F6B6457E0 DUP3 DUP1 LOG3 STOP JUMPDEST CALLVALUE PUSH2 0x14C JUMPI PUSH0 CALLDATASIZE PUSH1 0x3 NOT ADD SLT PUSH2 0x14C JUMPI PUSH1 0x20 PUSH1 0x40 MLOAD PUSH1 0x2 DUP2 MSTORE RETURN JUMPDEST CALLVALUE PUSH2 0x14C JUMPI PUSH1 0x20 CALLDATASIZE PUSH1 0x3 NOT ADD SLT PUSH2 0x14C JUMPI PUSH2 0x4B7 PUSH2 0xEE4 JUMP JUMPDEST PUSH2 0x4BF PUSH2 0xF93 JUMP JUMPDEST PUSH1 0x1 PUSH1 0x1 PUSH1 0xA0 SHL SUB SWAP1 DUP2 AND SWAP1 DUP2 ISZERO PUSH2 0x50D JUMPI PUSH1 0x1 SLOAD DUP3 PUSH1 0x1 PUSH1 0x1 PUSH1 0x60 SHL SUB PUSH1 0xA0 SHL DUP3 AND OR PUSH1 0x1 SSTORE AND PUSH32 0x16E2ACCAD9173ABFF57B295B56993EC5D86B3CBF791FEA02F02A6616463754EA PUSH0 DUP1 LOG3 STOP JUMPDEST PUSH1 0x40 MLOAD PUSH4 0xD92E233D PUSH1 0xE0 SHL DUP2 MSTORE PUSH1 0x4 SWAP1 REVERT JUMPDEST CALLVALUE PUSH2 0x14C JUMPI PUSH0 CALLDATASIZE PUSH1 0x3 NOT ADD SLT PUSH2 0x14C JUMPI PUSH1 0x2 SLOAD PUSH1 0x40 MLOAD PUSH1 0x1 PUSH1 0x1 PUSH1 0xA0 SHL SUB SWAP1 SWAP2 AND DUP2 MSTORE PUSH1 0x20 SWAP1 RETURN JUMPDEST CALLVALUE PUSH2 0x14C JUMPI PUSH0 CALLDATASIZE PUSH1 0x3 NOT ADD SLT PUSH2 0x14C JUMPI PUSH1 0x20 PUSH1 0xFF PUSH0 SLOAD PUSH1 0xA0 SHR AND PUSH1 0x40 MLOAD SWAP1 ISZERO ISZERO DUP2 MSTORE RETURN JUMPDEST CALLVALUE PUSH2 0x14C JUMPI PUSH1 0x20 CALLDATASIZE PUSH1 0x3 NOT ADD SLT PUSH2 0x14C JUMPI PUSH2 0x584 PUSH2 0xEE4 JUMP JUMPDEST PUSH2 0x58C PUSH2 0xF93 JUMP JUMPDEST PUSH1 0x1 PUSH1 0x1 PUSH1 0xA0 SHL SUB SWAP1 DUP2 AND SWAP1 DUP2 ISZERO PUSH2 0x50D JUMPI PUSH1 0x2 SLOAD DUP3 PUSH1 0x1 PUSH1 0x1 PUSH1 0x60 SHL SUB PUSH1 0xA0 SHL DUP3 AND OR PUSH1 0x2 SSTORE AND PUSH32 0x60C5293782C70B9080E83E261790B280285209D93C36A68814B4C9A150F047DE PUSH0 DUP1 LOG3 STOP JUMPDEST CALLVALUE PUSH2 0x14C JUMPI PUSH1 0x20 CALLDATASIZE PUSH1 0x3 NOT ADD SLT PUSH2 0x14C JUMPI PUSH1 0x1 PUSH1 0x1 PUSH1 0xA0 SHL SUB PUSH2 0x5FB PUSH2 0xEE4 JUMP JUMPDEST AND PUSH0 MSTORE PUSH1 0x8 PUSH1 0x20 MSTORE PUSH1 0x20 PUSH1 0xFF PUSH1 0x40 PUSH0 KECCAK256 SLOAD AND PUSH1 0x40 MLOAD SWAP1 ISZERO ISZERO DUP2 MSTORE RETURN JUMPDEST CALLVALUE PUSH2 0x14C JUMPI PUSH1 0x60 CALLDATASIZE PUSH1 0x3 NOT ADD SLT PUSH2 0x14C JUMPI PUSH2 0x630 PUSH2 0xEE4 JUMP JUMPDEST PUSH2 0x638 PUSH2 0xEA3 JUMP JUMPDEST PUSH1 0x2 SLOAD SWAP1 SWAP2 SWAP1 PUSH1 0x1 PUSH1 0x1 PUSH1 0xA0 SHL SUB SWAP1 DUP2 AND CALLER SUB PUSH2 0x75C JUMPI PUSH2 0x657 PUSH2 0xFBE JUMP JUMPDEST PUSH1 0xFF DUP4 AND PUSH1 0x2 DUP2 LT ISZERO PUSH2 0x25F JUMPI DUP2 DUP4 AND SWAP4 DUP5 ISZERO PUSH2 0x50D JUMPI PUSH2 0x678 SWAP1 DUP5 PUSH2 0xFDE JUMP JUMPDEST SWAP5 SWAP1 SWAP4 DUP4 PUSH32 0x0 AND SWAP4 PUSH1 0x1 SLOAD AND DUP5 EXTCODESIZE ISZERO PUSH2 0x14C JUMPI PUSH1 0x40 MLOAD PUSH4 0x21421707 PUSH1 0xE1 SHL DUP2 MSTORE PUSH1 0x1 PUSH1 0x1 PUSH1 0xA0 SHL SUB SWAP2 DUP3 AND PUSH1 0x4 DUP3 ADD MSTORE SWAP2 AND PUSH1 0x24 DUP3 ADD MSTORE PUSH1 0x44 DUP2 ADD DUP6 SWAP1 MSTORE SWAP3 PUSH0 SWAP1 DUP5 SWAP1 PUSH1 0x64 SWAP1 DUP3 SWAP1 DUP5 SWAP1 GAS CALL SWAP3 DUP4 ISZERO PUSH2 0x751 JUMPI DUP5 SWAP4 PUSH2 0x742 JUMPI JUMPDEST POP PUSH1 0x40 DUP1 MLOAD PUSH1 0xFF DUP8 AND DUP2 MSTORE PUSH1 0x44 CALLDATALOAD PUSH1 0x20 DUP3 ADD MSTORE PUSH32 0x6CA982706910D730E2729A6C3AE2A0202B7787FF8465D0695E3893677FA8AC7F SWAP2 DUP2 SWAP1 DUP2 ADD JUMPDEST SUB SWAP1 LOG4 PUSH1 0x40 DUP1 MLOAD SWAP2 DUP3 MSTORE PUSH1 0xFF SWAP3 SWAP1 SWAP3 AND PUSH1 0x20 DUP3 ADD MSTORE RETURN JUMPDEST PUSH2 0x74B SWAP1 PUSH2 0xF3F JUMP JUMPDEST DUP6 PUSH2 0x6F1 JUMP JUMPDEST PUSH1 0x40 MLOAD RETURNDATASIZE PUSH0 DUP3 RETURNDATACOPY RETURNDATASIZE SWAP1 REVERT JUMPDEST PUSH1 0x40 MLOAD PUSH4 0xA31C3DD PUSH1 0xE4 SHL DUP2 MSTORE PUSH1 0x4 SWAP1 REVERT JUMPDEST CALLVALUE PUSH2 0x14C JUMPI PUSH1 0x60 CALLDATASIZE PUSH1 0x3 NOT ADD SLT PUSH2 0x14C JUMPI PUSH2 0x787 PUSH2 0xEE4 JUMP JUMPDEST PUSH1 0x44 CALLDATALOAD SWAP1 PUSH1 0x24 CALLDATALOAD PUSH1 0xFF DUP4 AND DUP1 DUP5 SUB PUSH2 0x14C JUMPI PUSH2 0x7A1 PUSH2 0xF93 JUMP JUMPDEST PUSH2 0x7A9 PUSH2 0xFBE JUMP JUMPDEST PUSH1 0x2 DUP2 LT ISZERO PUSH2 0x25F JUMPI PUSH1 0x1 PUSH1 0x1 PUSH1 0xA0 SHL SUB SWAP4 DUP4 DUP6 AND SWAP1 DUP2 ISZERO PUSH2 0x50D JUMPI DUP2 PUSH0 MSTORE PUSH1 0x8 PUSH1 0x20 MSTORE PUSH1 0xFF PUSH1 0x40 PUSH0 KECCAK256 SLOAD AND DUP1 ISZERO PUSH2 0x8F3 JUMPI JUMPDEST PUSH2 0x8E1 JUMPI PUSH2 0x818 SWAP1 DUP3 PUSH0 MSTORE PUSH1 0x8 PUSH1 0x20 MSTORE PUSH1 0x40 PUSH0 KECCAK256 PUSH1 0xFF NOT SWAP1 PUSH1 0x1 DUP3 DUP3 SLOAD AND OR SWAP1 SSTORE DUP6 PUSH0 MSTORE PUSH1 0x9 PUSH1 0x20 MSTORE PUSH1 0x1 PUSH1 0x40 PUSH0 KECCAK256 SWAP2 DUP3 SLOAD AND OR SWAP1 SSTORE DUP6 PUSH2 0xFDE JUMP JUMPDEST SWAP6 SWAP1 SWAP5 DUP2 PUSH32 0x0 AND SWAP2 PUSH1 0x1 SLOAD AND DUP3 EXTCODESIZE ISZERO PUSH2 0x14C JUMPI PUSH1 0x40 MLOAD PUSH4 0x21421707 PUSH1 0xE1 SHL DUP2 MSTORE PUSH1 0x1 PUSH1 0x1 PUSH1 0xA0 SHL SUB SWAP2 DUP3 AND PUSH1 0x4 DUP3 ADD MSTORE SWAP2 AND PUSH1 0x24 DUP3 ADD MSTORE PUSH1 0x44 DUP2 ADD DUP7 SWAP1 MSTORE SWAP1 PUSH0 SWAP1 DUP3 SWAP1 PUSH1 0x64 SWAP1 DUP3 SWAP1 DUP5 SWAP1 GAS CALL DUP1 ISZERO PUSH2 0x751 JUMPI DUP6 SWAP5 PUSH32 0xFA44E081BA05562BC113ADB11188FA32FC0F8B00C7F449C826D9B4CC4D1E869A SWAP3 PUSH2 0x72B SWAP3 PUSH2 0x8D2 JUMPI JUMPDEST POP PUSH1 0x40 DUP1 MLOAD PUSH1 0xFF DUP11 AND DUP2 MSTORE PUSH1 0x20 DUP2 ADD SWAP3 SWAP1 SWAP3 MSTORE SWAP1 SWAP2 DUP3 SWAP2 DUP3 ADD SWAP1 JUMP JUMPDEST PUSH2 0x8DB SWAP1 PUSH2 0xF3F JUMP JUMPDEST DUP9 PUSH2 0x8B6 JUMP JUMPDEST PUSH1 0x40 MLOAD PUSH4 0xC8D9EAB PUSH1 0xE3 SHL DUP2 MSTORE PUSH1 0x4 SWAP1 REVERT JUMPDEST POP DUP4 PUSH0 MSTORE PUSH1 0x9 PUSH1 0x20 MSTORE PUSH1 0xFF PUSH1 0x40 PUSH0 KECCAK256 SLOAD AND PUSH2 0x7DC JUMP JUMPDEST CALLVALUE PUSH2 0x14C JUMPI PUSH1 0x40 CALLDATASIZE PUSH1 0x3 NOT ADD SLT PUSH2 0x14C JUMPI PUSH2 0x922 PUSH2 0xE93 JUMP JUMPDEST PUSH1 0x24 CALLDATALOAD SWAP1 PUSH2 0x92E PUSH2 0xF93 JUMP JUMPDEST PUSH1 0xFF DUP2 AND SWAP1 PUSH1 0x2 DUP3 LT ISZERO PUSH2 0x25F JUMPI DUP2 PUSH0 MSTORE PUSH1 0x20 SWAP1 PUSH1 0x4 DUP3 MSTORE PUSH1 0x40 PUSH0 KECCAK256 DUP5 PUSH0 MSTORE DUP3 MSTORE PUSH1 0xFF PUSH1 0x40 PUSH0 KECCAK256 SLOAD PUSH1 0x8 SHR AND ISZERO PUSH2 0x9D2 JUMPI PUSH2 0x996 SWAP1 DUP4 PUSH0 MSTORE PUSH1 0x4 DUP4 MSTORE PUSH1 0x40 PUSH0 KECCAK256 DUP6 PUSH0 MSTORE DUP4 MSTORE PUSH1 0xFF PUSH1 0x40 PUSH0 KECCAK256 SLOAD AND DUP5 PUSH0 MSTORE PUSH1 0x6 DUP5 MSTORE PUSH1 0x40 PUSH0 KECCAK256 DUP7 PUSH0 MSTORE DUP5 MSTORE PUSH1 0x40 PUSH0 KECCAK256 SLOAD SWAP2 PUSH2 0x1120 JUMP JUMPDEST DUP2 PUSH0 MSTORE PUSH1 0x4 DUP2 MSTORE PUSH1 0x40 PUSH0 KECCAK256 SWAP1 DUP4 PUSH0 MSTORE MSTORE PUSH0 PUSH1 0x40 DUP2 KECCAK256 SSTORE PUSH32 0x28A4FC8B4696CBCC4F5A8F6A710136792E31CA8BDD587A3CA8E506955582A92 PUSH0 DUP1 LOG3 STOP JUMPDEST PUSH1 0x40 MLOAD PUSH4 0x4792011 PUSH1 0xE4 SHL DUP2 MSTORE PUSH1 0x4 SWAP1 REVERT JUMPDEST CALLVALUE PUSH2 0x14C JUMPI PUSH1 0x20 CALLDATASIZE PUSH1 0x3 NOT ADD SLT PUSH2 0x14C JUMPI PUSH1 0x4 CALLDATALOAD DUP1 ISZERO ISZERO DUP2 SUB PUSH2 0x14C JUMPI PUSH2 0xA09 PUSH2 0xF93 JUMP JUMPDEST ISZERO PUSH2 0xA56 JUMPI PUSH2 0xA16 PUSH2 0xFBE JUMP JUMPDEST PUSH0 DUP1 SLOAD PUSH1 0xFF PUSH1 0xA0 SHL NOT AND PUSH1 0x1 PUSH1 0xA0 SHL OR SWAP1 SSTORE PUSH1 0x40 MLOAD CALLER DUP2 MSTORE PUSH32 0x62E78CEA01BEE320CD4E420270B5EA74000D11B0C9F74754EBDBFC544B05A258 SWAP1 PUSH1 0x20 SWAP1 LOG1 STOP JUMPDEST PUSH0 SLOAD PUSH1 0xFF DUP2 PUSH1 0xA0 SHR AND ISZERO PUSH2 0xA9B JUMPI PUSH1 0xFF PUSH1 0xA0 SHL NOT AND PUSH0 SSTORE PUSH1 0x40 MLOAD CALLER DUP2 MSTORE PUSH32 0x5DB9EE0A495BF2E6FF9C91A7834C1BA4FDD244A5E8AA4E537BD38AEAE4B073AA SWAP1 PUSH1 0x20 SWAP1 LOG1 STOP JUMPDEST PUSH1 0x40 MLOAD PUSH4 0x8DFC202B PUSH1 0xE0 SHL DUP2 MSTORE PUSH1 0x4 SWAP1 REVERT JUMPDEST CALLVALUE PUSH2 0x14C JUMPI PUSH1 0xE0 CALLDATASIZE PUSH1 0x3 NOT ADD SLT PUSH2 0x14C JUMPI PUSH2 0xAC6 PUSH2 0xE93 JUMP JUMPDEST CALLDATASIZE PUSH1 0xE4 GT PUSH2 0x14C JUMPI PUSH2 0xAD6 PUSH2 0xF93 JUMP JUMPDEST PUSH1 0xFF DUP1 SWAP2 AND SWAP1 PUSH1 0x2 DUP3 LT ISZERO PUSH2 0x25F JUMPI PUSH0 DUP1 SWAP2 JUMPDEST PUSH1 0x6 DUP2 DUP5 AND LT PUSH2 0xBB9 JUMPI DUP4 PUSH2 0x2710 DUP4 SUB PUSH2 0xBA7 JUMPI DUP1 PUSH0 MSTORE PUSH1 0x20 PUSH1 0x7 PUSH1 0x20 MSTORE PUSH1 0x40 PUSH0 KECCAK256 PUSH1 0x24 SWAP1 PUSH0 SWAP2 PUSH0 JUMPDEST DUP5 PUSH1 0x6 DUP3 LT PUSH2 0xB7D JUMPI POP POP POP SSTORE PUSH1 0x40 MLOAD SWAP1 DUP2 PUSH1 0x24 SWAP2 PUSH0 SWAP2 JUMPDEST PUSH1 0x6 DUP4 LT PUSH2 0xB5A JUMPI DUP6 PUSH32 0xEAD69BDE6B49CA7ED74A5FC780B639E2B515C739E118D2565F811F8F0A36DADE PUSH1 0xC0 DUP8 LOG2 STOP JUMPDEST DUP4 CALLDATALOAD SWAP1 PUSH2 0xFFFF DUP3 AND DUP1 SWAP3 SUB PUSH2 0x14C JUMPI DUP3 DUP2 PUSH1 0x1 SWAP4 DUP3 SWAP4 MSTORE ADD SWAP5 ADD SWAP3 ADD SWAP2 SWAP3 PUSH2 0xB2A JUMP JUMPDEST DUP3 SWAP5 PUSH2 0xB8B PUSH1 0x1 SWAP4 SWAP5 PUSH2 0xF84 JUMP JUMPDEST SWAP1 DUP5 PUSH1 0x4 SHL SWAP2 PUSH2 0xFFFF DUP1 SWAP2 AND DUP4 SHL SWAP3 SHL NOT AND OR SWAP5 ADD SWAP2 ADD PUSH2 0xB12 JUMP JUMPDEST PUSH1 0x40 MLOAD PUSH4 0x2FB3CC07 PUSH1 0xE1 SHL DUP2 MSTORE PUSH1 0x4 SWAP1 REVERT JUMPDEST PUSH1 0x1 PUSH2 0xBDD DUP3 SWAP4 PUSH2 0xFFFF PUSH2 0xBD6 PUSH2 0x1FE0 DUP9 PUSH1 0x5 SHL AND PUSH1 0x24 ADD PUSH2 0xF84 JUMP JUMPDEST AND SWAP1 PUSH2 0xEFA JUMP JUMPDEST SWAP4 ADD AND SWAP2 SWAP1 PUSH2 0xAE9 JUMP JUMPDEST CALLVALUE PUSH2 0x14C JUMPI PUSH1 0x60 CALLDATASIZE PUSH1 0x3 NOT ADD SLT PUSH2 0x14C JUMPI PUSH2 0xC00 PUSH2 0xE93 JUMP JUMPDEST PUSH1 0x24 CALLDATALOAD PUSH8 0xFFFFFFFFFFFFFFFF DUP2 GT PUSH2 0x14C JUMPI PUSH2 0xC20 SWAP1 CALLDATASIZE SWAP1 PUSH1 0x4 ADD PUSH2 0xEB3 JUMP JUMPDEST SWAP1 PUSH1 0x44 CALLDATALOAD PUSH8 0xFFFFFFFFFFFFFFFF DUP2 GT PUSH2 0x14C JUMPI PUSH2 0xC41 SWAP1 CALLDATASIZE SWAP1 PUSH1 0x4 ADD PUSH2 0xEB3 JUMP JUMPDEST SWAP3 SWAP1 SWAP2 PUSH2 0xC4C PUSH2 0xF93 JUMP JUMPDEST PUSH1 0x2 PUSH1 0xFF DUP7 AND LT ISZERO PUSH2 0x25F JUMPI DUP4 DUP3 SUB PUSH2 0xDFD JUMPI PUSH0 JUMPDEST DUP3 DUP2 LT PUSH2 0xC6A JUMPI STOP JUMPDEST PUSH2 0xC75 DUP2 DUP5 DUP5 PUSH2 0xF1B JUMP JUMPDEST CALLDATALOAD SWAP1 PUSH2 0xC82 DUP2 DUP8 DUP8 PUSH2 0xF1B JUMP JUMPDEST CALLDATALOAD SWAP2 PUSH1 0xFF DUP4 AND DUP4 SUB PUSH2 0x14C JUMPI PUSH1 0x6 PUSH1 0xFF DUP5 AND LT ISZERO PUSH2 0x24D JUMPI PUSH1 0xFF DUP9 AND PUSH0 MSTORE PUSH1 0x4 PUSH1 0x20 MSTORE PUSH1 0x40 PUSH0 KECCAK256 DUP2 PUSH0 MSTORE PUSH1 0x20 MSTORE PUSH1 0x40 PUSH0 KECCAK256 SLOAD SWAP3 PUSH1 0xFF PUSH1 0x8 SWAP5 DUP6 SHR AND PUSH2 0xDEB JUMPI PUSH1 0x40 MLOAD DUP1 PUSH1 0x40 DUP2 ADD LT PUSH8 0xFFFFFFFFFFFFFFFF PUSH1 0x40 DUP4 ADD GT OR PUSH2 0xDD7 JUMPI PUSH1 0x40 DUP2 DUP2 ADD DUP2 MSTORE PUSH1 0xFF DUP4 DUP2 AND DUP1 DUP5 MSTORE PUSH1 0x1 PUSH1 0x20 DUP1 DUP7 ADD DUP3 DUP2 MSTORE DUP16 DUP6 AND PUSH0 DUP2 DUP2 MSTORE PUSH1 0x4 DUP5 MSTORE DUP8 DUP2 KECCAK256 DUP12 DUP3 MSTORE DUP5 MSTORE DUP8 DUP2 KECCAK256 SWAP9 MLOAD DUP10 SLOAD SWAP4 MLOAD PUSH2 0xFFFF NOT SWAP1 SWAP5 AND SWAP8 AND SWAP7 SWAP1 SWAP7 OR SWAP2 ISZERO ISZERO SWAP1 SWAP12 SHL PUSH2 0xFF00 AND OR SWAP1 SWAP6 SSTORE DUP9 DUP4 MSTORE PUSH1 0x5 DUP6 MSTORE DUP4 DUP4 KECCAK256 DUP3 DUP5 MSTORE DUP1 DUP7 MSTORE DUP5 DUP5 KECCAK256 DUP1 SLOAD SWAP11 DUP6 MSTORE PUSH1 0x6 DUP8 MSTORE DUP6 DUP6 KECCAK256 DUP10 DUP7 MSTORE DUP8 MSTORE SWAP5 DUP5 KECCAK256 DUP11 SWAP1 SSTORE SWAP2 SWAP1 SWAP3 MSTORE SWAP1 SWAP3 MSTORE SWAP1 SWAP5 SWAP1 PUSH9 0x10000000000000000 DUP3 LT ISZERO PUSH2 0xDD7 JUMPI PUSH2 0xD87 DUP3 DUP6 SWAP3 PUSH1 0x1 SWAP9 PUSH2 0xD9F SWAP6 ADD DUP2 SSTORE PUSH2 0xF6F JUMP JUMPDEST SWAP1 SWAP2 SWAP1 DUP3 SLOAD SWAP1 PUSH1 0x3 SHL SWAP2 DUP3 SHL SWAP2 PUSH0 NOT SWAP1 SHL NOT AND OR SWAP1 SSTORE JUMP JUMPDEST PUSH1 0xFF PUSH1 0x40 MLOAD SWAP2 AND DUP2 MSTORE PUSH32 0x6160B95463EEF162E89880A58D5FF8C73F401AE0A3DE33147826AD9B64B4D3D6 PUSH1 0x20 PUSH1 0xFF DUP12 AND SWAP3 LOG3 ADD PUSH2 0xC61 JUMP JUMPDEST PUSH4 0x4E487B71 PUSH1 0xE0 SHL PUSH0 MSTORE PUSH1 0x41 PUSH1 0x4 MSTORE PUSH1 0x24 PUSH0 REVERT JUMPDEST PUSH1 0x40 MLOAD PUSH4 0x1B74344B PUSH1 0xE0 SHL DUP2 MSTORE PUSH1 0x4 SWAP1 REVERT JUMPDEST PUSH1 0x40 MLOAD PUSH1 0x1 PUSH3 0x1398B9 PUSH1 0xE3 SHL SUB NOT DUP2 MSTORE PUSH1 0x4 SWAP1 REVERT JUMPDEST CALLVALUE PUSH2 0x14C JUMPI PUSH1 0x20 DUP1 PUSH1 0x3 NOT CALLDATASIZE ADD SLT PUSH2 0x14C JUMPI PUSH1 0xFF SWAP1 PUSH1 0xFF PUSH2 0xE31 PUSH2 0xE93 JUMP JUMPDEST AND SWAP3 PUSH1 0x2 DUP5 LT ISZERO PUSH2 0xE84 JUMPI POP PUSH0 SWAP3 DUP4 JUMPDEST DUP4 DUP6 AND PUSH1 0x6 DUP2 LT ISZERO PUSH2 0xE79 JUMPI PUSH2 0xE70 DUP6 SWAP3 PUSH1 0x1 SWAP3 DUP6 PUSH0 MSTORE PUSH1 0x5 DUP8 MSTORE PUSH1 0x40 PUSH0 KECCAK256 SWAP1 PUSH0 MSTORE DUP7 MSTORE PUSH1 0x40 PUSH0 KECCAK256 SLOAD SWAP1 PUSH2 0xEFA JUMP JUMPDEST SWAP6 ADD AND SWAP4 PUSH2 0xE41 JUMP JUMPDEST PUSH1 0x20 DUP3 PUSH1 0x40 MLOAD SWAP1 DUP2 MSTORE RETURN JUMPDEST PUSH4 0xD694977F PUSH1 0xE0 SHL DUP2 MSTORE PUSH1 0x4 SWAP1 REVERT JUMPDEST PUSH1 0x4 CALLDATALOAD SWAP1 PUSH1 0xFF DUP3 AND DUP3 SUB PUSH2 0x14C JUMPI JUMP JUMPDEST PUSH1 0x24 CALLDATALOAD SWAP1 PUSH1 0xFF DUP3 AND DUP3 SUB PUSH2 0x14C JUMPI JUMP JUMPDEST SWAP2 DUP2 PUSH1 0x1F DUP5 ADD SLT ISZERO PUSH2 0x14C JUMPI DUP3 CALLDATALOAD SWAP2 PUSH8 0xFFFFFFFFFFFFFFFF DUP4 GT PUSH2 0x14C JUMPI PUSH1 0x20 DUP1 DUP6 ADD SWAP5 DUP5 PUSH1 0x5 SHL ADD ADD GT PUSH2 0x14C JUMPI JUMP JUMPDEST PUSH1 0x4 CALLDATALOAD SWAP1 PUSH1 0x1 PUSH1 0x1 PUSH1 0xA0 SHL SUB DUP3 AND DUP3 SUB PUSH2 0x14C JUMPI JUMP JUMPDEST SWAP2 SWAP1 DUP3 ADD DUP1 SWAP3 GT PUSH2 0xF07 JUMPI JUMP JUMPDEST PUSH4 0x4E487B71 PUSH1 0xE0 SHL PUSH0 MSTORE PUSH1 0x11 PUSH1 0x4 MSTORE PUSH1 0x24 PUSH0 REVERT JUMPDEST SWAP2 SWAP1 DUP2 LT ISZERO PUSH2 0xF2B JUMPI PUSH1 0x5 SHL ADD SWAP1 JUMP JUMPDEST PUSH4 0x4E487B71 PUSH1 0xE0 SHL PUSH0 MSTORE PUSH1 0x32 PUSH1 0x4 MSTORE PUSH1 0x24 PUSH0 REVERT JUMPDEST PUSH8 0xFFFFFFFFFFFFFFFF DUP2 GT PUSH2 0xDD7 JUMPI PUSH1 0x40 MSTORE JUMP JUMPDEST PUSH1 0xC0 DUP2 ADD SWAP1 DUP2 LT PUSH8 0xFFFFFFFFFFFFFFFF DUP3 GT OR PUSH2 0xDD7 JUMPI PUSH1 0x40 MSTORE JUMP JUMPDEST DUP1 SLOAD DUP3 LT ISZERO PUSH2 0xF2B JUMPI PUSH0 MSTORE PUSH1 0x20 PUSH0 KECCAK256 ADD SWAP1 PUSH0 SWAP1 JUMP JUMPDEST CALLDATALOAD PUSH2 0xFFFF DUP2 AND DUP2 SUB PUSH2 0x14C JUMPI SWAP1 JUMP JUMPDEST PUSH0 SLOAD PUSH1 0x1 PUSH1 0x1 PUSH1 0xA0 SHL SUB AND CALLER SUB PUSH2 0xFA6 JUMPI JUMP JUMPDEST PUSH1 0x40 MLOAD PUSH4 0x118CDAA7 PUSH1 0xE0 SHL DUP2 MSTORE CALLER PUSH1 0x4 DUP3 ADD MSTORE PUSH1 0x24 SWAP1 REVERT JUMPDEST PUSH1 0xFF PUSH0 SLOAD PUSH1 0xA0 SHR AND PUSH2 0xFCC JUMPI JUMP JUMPDEST PUSH1 0x40 MLOAD PUSH4 0xD93C0665 PUSH1 0xE0 SHL DUP2 MSTORE PUSH1 0x4 SWAP1 REVERT JUMPDEST SWAP1 SWAP2 PUSH1 0x3 SLOAD SWAP2 PUSH1 0x40 SWAP1 DUP2 MLOAD PUSH1 0x20 SWAP2 DUP3 DUP3 ADD SWAP1 PREVRANDAO DUP3 MSTORE TIMESTAMP DUP6 DUP5 ADD MSTORE PUSH1 0x1 DUP1 PUSH1 0xA0 SHL SUB AND PUSH1 0x60 DUP4 ADD MSTORE PUSH1 0xFF SWAP1 DUP2 DUP9 AND SWAP3 DUP4 PUSH1 0x80 DUP3 ADD MSTORE DUP8 PUSH1 0xA0 DUP3 ADD MSTORE PUSH1 0xA0 DUP2 MSTORE PUSH2 0x1025 DUP2 PUSH2 0xF53 JUMP JUMPDEST MLOAD SWAP1 KECCAK256 PUSH1 0x1 DUP1 SWAP8 ADD PUSH1 0x3 SSTORE PUSH2 0x103A DUP9 DUP3 PUSH2 0x11D4 JUMP JUMPDEST SWAP7 DUP1 PUSH0 SWAP2 JUMPDEST PUSH2 0x10C4 JUMPI JUMPDEST POP POP DUP3 PUSH0 MSTORE PUSH1 0x5 DUP5 MSTORE DUP5 PUSH0 KECCAK256 SWAP2 DUP8 AND SWAP2 DUP3 PUSH0 MSTORE DUP5 MSTORE DUP5 PUSH0 KECCAK256 SLOAD SWAP1 DUP2 ISZERO PUSH2 0x10B3 JUMPI SWAP1 PUSH2 0x1098 SWAP3 SWAP2 PUSH1 0x80 SHR MOD SWAP1 DUP4 PUSH0 MSTORE PUSH1 0x5 DUP6 MSTORE DUP6 PUSH0 KECCAK256 SWAP1 PUSH0 MSTORE DUP5 MSTORE DUP7 PUSH2 0x108B DUP3 DUP8 PUSH0 KECCAK256 PUSH2 0xF6F JUMP JUMPDEST SWAP1 SLOAD SWAP1 PUSH1 0x3 SHL SHR SWAP9 PUSH2 0x1120 JUMP JUMPDEST PUSH0 MSTORE PUSH1 0x4 DUP2 MSTORE DUP2 PUSH0 KECCAK256 SWAP1 DUP6 PUSH0 MSTORE MSTORE PUSH0 KECCAK256 PUSH2 0xFF00 NOT DUP2 SLOAD AND SWAP1 SSTORE JUMP JUMPDEST DUP6 MLOAD PUSH4 0x5CE024D PUSH1 0xE5 SHL DUP2 MSTORE PUSH1 0x4 SWAP1 REVERT JUMPDEST SWAP1 SWAP8 DUP5 PUSH0 MSTORE PUSH1 0x5 DUP7 MSTORE DUP7 PUSH0 KECCAK256 SWAP1 DUP5 DUP2 AND SWAP2 DUP3 PUSH0 MSTORE DUP8 MSTORE DUP8 PUSH0 KECCAK256 SLOAD ISZERO DUP1 PUSH2 0x1114 JUMPI JUMPDEST ISZERO PUSH2 0x110D JUMPI POP DUP2 ADD DUP4 DUP2 GT PUSH2 0xF07 JUMPI PUSH1 0x6 DUP5 DUP1 SWAP3 AND MOD SWAP9 AND DUP4 DUP2 EQ PUSH2 0xF07 JUMPI DUP2 ADD SWAP1 DUP1 PUSH2 0x103F JUMP JUMPDEST SWAP9 POP PUSH2 0x1044 JUMP JUMPDEST POP PUSH1 0x6 DUP6 DUP12 AND LT PUSH2 0x10E5 JUMP JUMPDEST PUSH1 0xFF SWAP1 SWAP3 SWAP2 SWAP3 AND SWAP2 DUP3 PUSH0 MSTORE PUSH1 0x5 PUSH1 0x20 MSTORE PUSH1 0xFF PUSH1 0x40 PUSH0 KECCAK256 SWAP2 AND PUSH0 MSTORE PUSH1 0x20 MSTORE PUSH1 0x40 PUSH0 KECCAK256 SWAP1 DUP2 SLOAD SWAP3 PUSH0 NOT SWAP4 DUP5 DUP2 ADD SWAP1 DUP2 GT PUSH2 0xF07 JUMPI DUP1 DUP4 SUB PUSH2 0x1196 JUMPI JUMPDEST POP POP POP DUP1 SLOAD DUP1 ISZERO PUSH2 0x1182 JUMPI DUP3 ADD SWAP2 PUSH2 0x1172 DUP4 DUP4 PUSH2 0xF6F JUMP JUMPDEST SWAP1 SWAP2 DUP3 SLOAD SWAP2 PUSH1 0x3 SHL SHL NOT AND SWAP1 SSTORE SSTORE JUMP JUMPDEST PUSH4 0x4E487B71 PUSH1 0xE0 SHL PUSH0 MSTORE PUSH1 0x31 PUSH1 0x4 MSTORE PUSH1 0x24 PUSH0 REVERT JUMPDEST PUSH2 0x11A0 SWAP1 DUP5 PUSH2 0xF6F JUMP JUMPDEST SWAP1 SLOAD SWAP1 PUSH1 0x3 SHL SHR SWAP1 PUSH2 0x11B6 DUP3 PUSH2 0xD87 DUP6 DUP8 PUSH2 0xF6F JUMP JUMPDEST PUSH0 MSTORE PUSH1 0x6 PUSH1 0x20 MSTORE PUSH1 0x40 PUSH0 KECCAK256 SWAP1 PUSH0 MSTORE PUSH1 0x20 MSTORE PUSH1 0x40 PUSH0 KECCAK256 SSTORE PUSH0 DUP1 DUP1 PUSH2 0x115A JUMP JUMPDEST SWAP1 SWAP2 PUSH1 0xFF DUP1 SWAP4 AND PUSH0 MSTORE PUSH1 0x7 PUSH1 0x20 MSTORE PUSH2 0x2710 PUSH1 0x40 PUSH0 KECCAK256 SWAP3 PUSH2 0xFFFF SWAP2 DUP3 SWAP2 MOD AND SWAP1 PUSH0 SWAP4 PUSH0 JUMPDEST PUSH1 0x6 DUP1 DUP9 DUP4 AND LT ISZERO PUSH2 0x1259 JUMPI DUP2 LT ISZERO PUSH2 0xF2B JUMPI PUSH1 0x4 SWAP6 DUP4 DUP1 DUP4 DUP10 SHR DUP6 ADD SLOAD PUSH1 0xF0 DUP6 DUP12 SHL AND SHR AND SWAP2 AND ADD SWAP6 DUP4 DUP8 GT PUSH2 0x1246 JUMPI POP DUP3 DUP7 AND DUP5 LT PUSH2 0x123C JUMPI PUSH1 0x1 ADD DUP7 AND PUSH2 0x11F7 JUMP JUMPDEST SWAP5 POP POP POP POP SWAP2 POP SWAP1 JUMP JUMPDEST PUSH1 0x11 SWAP1 PUSH4 0x4E487B71 PUSH1 0xE0 SHL PUSH0 MSTORE MSTORE PUSH1 0x24 PUSH0 REVERT JUMPDEST POP POP POP POP POP SWAP2 POP POP PUSH1 0x5 SWAP1 JUMP INVALID LOG2 PUSH5 0x6970667358 0x22 SLT KECCAK256 0xEB EXTCODEHASH MSIZE 0x1E 0xBE DUP15 0xCB 0xCD DIV 0xBC ADDMOD SWAP9 0xAC COINBASE SWAP6 CALLDATALOAD 0xBE MULMOD 0xC7 STOP DUP10 INVALID CREATE2 LOG1 SELFBALANCE 0xC2 DELEGATECALL 0xDE DUP13 MULMOD 0xE3 SGT PUSH5 0x736F6C6343 STOP ADDMOD XOR STOP CALLER "},"methodIdentifiers":{"NFT()":"7c0b8de2","NUM_BUCKETS()":"c56ca84e","NUM_PACK_TIERS()":"68f1fb93","WEIGHT_TOTAL_BPS()":"f6c59961","addCards(uint8,uint256[],uint8[])":"122e934e","availableInBucket(uint8,uint8)":"d7894b82","availableInPack(uint8)":"0194f9a3","backendSigner()":"65d65e86","cards(uint8,uint256)":"bcd82de9","getBucketWeights(uint8)":"79396b32","giveaway(address,bytes32,uint8)":"26a9192b","owner()":"8da5cb5b","paused()":"5c975abb","polygonGiveawayUsed(address)":"31425294","pull(address,uint8,bytes32)":"2c4507a4","removeCard(uint8,uint256)":"21ab305b","renounceOwnership()":"715018a6","setBackendSigner(address)":"36f95670","setBucketWeights(uint8,uint16[6])":"14ef0c2c","setPaused(bool)":"16c38b3c","setVault(address)":"6817031b","solanaGiveawayUsed(bytes32)":"75506c47","transferOwnership(address)":"f2fde38b","vault()":"fbfa77cf"}}}}}