{"contracts/BindrGachaV2.sol":{"BindrGachaV2":{"abi":[{"inputs":[{"components":[{"internalType":"address","name":"nft","type":"address"},{"internalType":"address","name":"initialVault","type":"address"},{"internalType":"address","name":"initialBackend","type":"address"},{"internalType":"address","name":"initialPauseGuardian","type":"address"},{"internalType":"address","name":"vrfCoordinator","type":"address"},{"internalType":"bytes32","name":"vrfKeyHash","type":"bytes32"},{"internalType":"uint256","name":"vrfSubscriptionId","type":"uint256"},{"internalType":"bool","name":"vrfNativePayment","type":"bool"},{"internalType":"uint32","name":"callbackGasLimit","type":"uint32"},{"internalType":"uint16","name":"requestConfirmations","type":"uint16"},{"internalType":"uint256","name":"minPullIntervalBlocks","type":"uint256"},{"internalType":"uint8","name":"maxPullsPerBlock","type":"uint8"}],"internalType":"struct BindrGachaV2.InitConfig","name":"cfg","type":"tuple"}],"stateMutability":"nonpayable","type":"constructor"},{"inputs":[],"name":"AlreadyClaimed","type":"error"},{"inputs":[],"name":"BlockPullCapReached","type":"error"},{"inputs":[],"name":"BurnProofAlreadyUsed","type":"error"},{"inputs":[],"name":"BurnProofZero","type":"error"},{"inputs":[],"name":"CardAlreadyRegistered","type":"error"},{"inputs":[],"name":"CardNotFound","type":"error"},{"inputs":[],"name":"EnforcedPause","type":"error"},{"inputs":[],"name":"ExpectedPause","type":"error"},{"inputs":[],"name":"InvalidBucket","type":"error"},{"inputs":[],"name":"InvalidPackTier","type":"error"},{"inputs":[],"name":"InvalidVrfConfig","type":"error"},{"inputs":[],"name":"LengthMismatch","type":"error"},{"inputs":[],"name":"NotAuthorizedToPause","type":"error"},{"inputs":[],"name":"NotBackend","type":"error"},{"inputs":[],"name":"NothingToClaim","type":"error"},{"inputs":[{"internalType":"address","name":"have","type":"address"},{"internalType":"address","name":"want","type":"address"}],"name":"OnlyCoordinatorCanFulfill","type":"error"},{"inputs":[{"internalType":"address","name":"have","type":"address"},{"internalType":"address","name":"owner","type":"address"},{"internalType":"address","name":"coordinator","type":"address"}],"name":"OnlyOwnerOrCoordinator","type":"error"},{"inputs":[],"name":"PoolEmpty","type":"error"},{"inputs":[],"name":"PullCooldownActive","type":"error"},{"inputs":[],"name":"ReentrancyGuardReentrantCall","type":"error"},{"inputs":[],"name":"RequestAlreadyFulfilled","type":"error"},{"inputs":[],"name":"RequestNotPending","type":"error"},{"inputs":[],"name":"WeightsDoNotSumTo10000","type":"error"},{"inputs":[],"name":"ZeroAddress","type":"error"},{"anonymous":false,"inputs":[{"indexed":true,"internalType":"address","name":"previous","type":"address"},{"indexed":true,"internalType":"address","name":"current","type":"address"}],"name":"BackendSignerChanged","type":"event"},{"anonymous":false,"inputs":[{"indexed":true,"internalType":"uint8","name":"packTier","type":"uint8"},{"indexed":true,"internalType":"uint256","name":"tokenId","type":"uint256"},{"indexed":false,"internalType":"uint8","name":"bucket","type":"uint8"}],"name":"CardAdded","type":"event"},{"anonymous":false,"inputs":[{"indexed":true,"internalType":"uint8","name":"packTier","type":"uint8"},{"indexed":true,"internalType":"uint256","name":"tokenId","type":"uint256"}],"name":"CardRemoved","type":"event"},{"anonymous":false,"inputs":[{"indexed":true,"internalType":"uint8","name":"packTier","type":"uint8"},{"indexed":true,"internalType":"uint256","name":"tokenId","type":"uint256"},{"indexed":true,"internalType":"address","name":"to","type":"address"}],"name":"CardWithdrawn","type":"event"},{"anonymous":false,"inputs":[{"indexed":false,"internalType":"address","name":"vrfCoordinator","type":"address"}],"name":"CoordinatorSet","type":"event"},{"anonymous":false,"inputs":[{"indexed":true,"internalType":"address","name":"user","type":"address"},{"indexed":true,"internalType":"uint8","name":"packTier","type":"uint8"},{"indexed":true,"internalType":"uint256","name":"tokenId","type":"uint256"},{"indexed":false,"internalType":"uint8","name":"bucket","type":"uint8"},{"indexed":false,"internalType":"bytes32","name":"solanaHash","type":"bytes32"}],"name":"Giveaway","type":"event"},{"anonymous":false,"inputs":[{"indexed":true,"internalType":"address","name":"from","type":"address"},{"indexed":true,"internalType":"address","name":"to","type":"address"}],"name":"OwnershipTransferRequested","type":"event"},{"anonymous":false,"inputs":[{"indexed":true,"internalType":"address","name":"from","type":"address"},{"indexed":true,"internalType":"address","name":"to","type":"address"}],"name":"OwnershipTransferred","type":"event"},{"anonymous":false,"inputs":[{"indexed":true,"internalType":"address","name":"previous","type":"address"},{"indexed":true,"internalType":"address","name":"current","type":"address"}],"name":"PauseGuardianChanged","type":"event"},{"anonymous":false,"inputs":[{"indexed":false,"internalType":"address","name":"account","type":"address"}],"name":"Paused","type":"event"},{"anonymous":false,"inputs":[{"indexed":true,"internalType":"uint256","name":"requestId","type":"uint256"},{"indexed":true,"internalType":"address","name":"user","type":"address"},{"indexed":false,"internalType":"uint256","name":"tokenId","type":"uint256"},{"indexed":false,"internalType":"uint8","name":"bucket","type":"uint8"},{"indexed":false,"internalType":"bytes32","name":"reason","type":"bytes32"}],"name":"PullAwaitingClaim","type":"event"},{"anonymous":false,"inputs":[{"indexed":true,"internalType":"uint256","name":"requestId","type":"uint256"},{"indexed":true,"internalType":"address","name":"user","type":"address"},{"indexed":false,"internalType":"bytes32","name":"burnProof","type":"bytes32"},{"indexed":false,"internalType":"uint8","name":"packTier","type":"uint8"}],"name":"PullCancelled","type":"event"},{"anonymous":false,"inputs":[{"indexed":true,"internalType":"uint256","name":"requestId","type":"uint256"},{"indexed":true,"internalType":"address","name":"to","type":"address"},{"indexed":false,"internalType":"uint256","name":"tokenId","type":"uint256"}],"name":"PullClaimed","type":"event"},{"anonymous":false,"inputs":[{"indexed":true,"internalType":"uint256","name":"requestId","type":"uint256"},{"indexed":true,"internalType":"address","name":"user","type":"address"},{"indexed":true,"internalType":"uint8","name":"packTier","type":"uint8"},{"indexed":false,"internalType":"bytes32","name":"burnProof","type":"bytes32"}],"name":"PullRequested","type":"event"},{"anonymous":false,"inputs":[{"indexed":true,"internalType":"uint256","name":"requestId","type":"uint256"},{"indexed":true,"internalType":"address","name":"user","type":"address"},{"indexed":true,"internalType":"uint8","name":"packTier","type":"uint8"},{"indexed":false,"internalType":"uint256","name":"tokenId","type":"uint256"},{"indexed":false,"internalType":"uint8","name":"bucket","type":"uint8"},{"indexed":false,"internalType":"bytes32","name":"burnProof","type":"bytes32"}],"name":"Pulled","type":"event"},{"anonymous":false,"inputs":[{"indexed":false,"internalType":"uint256","name":"minPullIntervalBlocks","type":"uint256"},{"indexed":false,"internalType":"uint8","name":"maxPullsPerBlock","type":"uint8"}],"name":"RateLimitsUpdated","type":"event"},{"anonymous":false,"inputs":[{"indexed":false,"internalType":"address","name":"account","type":"address"}],"name":"Unpaused","type":"event"},{"anonymous":false,"inputs":[{"indexed":true,"internalType":"address","name":"previous","type":"address"},{"indexed":true,"internalType":"address","name":"current","type":"address"}],"name":"VaultChanged","type":"event"},{"anonymous":false,"inputs":[{"indexed":false,"internalType":"uint32","name":"callbackGasLimit","type":"uint32"},{"indexed":false,"internalType":"uint16","name":"requestConfirmations","type":"uint16"}],"name":"VrfConfigUpdated","type":"event"},{"anonymous":false,"inputs":[{"indexed":true,"internalType":"uint8","name":"packTier","type":"uint8"},{"indexed":false,"internalType":"uint16[6]","name":"weights","type":"uint16[6]"}],"name":"WeightsUpdated","type":"event"},{"inputs":[],"name":"NFT","outputs":[{"internalType":"contract IERC721","name":"","type":"address"}],"stateMutability":"view","type":"function"},{"inputs":[],"name":"NUM_BUCKETS","outputs":[{"internalType":"uint8","name":"","type":"uint8"}],"stateMutability":"view","type":"function"},{"inputs":[],"name":"NUM_PACK_TIERS","outputs":[{"internalType":"uint8","name":"","type":"uint8"}],"stateMutability":"view","type":"function"},{"inputs":[],"name":"VRF_KEY_HASH","outputs":[{"internalType":"bytes32","name":"","type":"bytes32"}],"stateMutability":"view","type":"function"},{"inputs":[],"name":"VRF_NATIVE_PAYMENT","outputs":[{"internalType":"bool","name":"","type":"bool"}],"stateMutability":"view","type":"function"},{"inputs":[],"name":"VRF_SUBSCRIPTION_ID","outputs":[{"internalType":"uint256","name":"","type":"uint256"}],"stateMutability":"view","type":"function"},{"inputs":[],"name":"WEIGHT_TOTAL_BPS","outputs":[{"internalType":"uint16","name":"","type":"uint16"}],"stateMutability":"view","type":"function"},{"inputs":[],"name":"acceptOwnership","outputs":[],"stateMutability":"nonpayable","type":"function"},{"inputs":[{"internalType":"uint8","name":"packTier","type":"uint8"},{"internalType":"uint256[]","name":"tokenIds","type":"uint256[]"},{"internalType":"uint8[]","name":"buckets","type":"uint8[]"}],"name":"addCards","outputs":[],"stateMutability":"nonpayable","type":"function"},{"inputs":[{"internalType":"uint8","name":"packTier","type":"uint8"},{"internalType":"uint8","name":"bucket","type":"uint8"}],"name":"availableInBucket","outputs":[{"internalType":"uint256","name":"","type":"uint256"}],"stateMutability":"view","type":"function"},{"inputs":[{"internalType":"uint8","name":"packTier","type":"uint8"}],"name":"availableInPack","outputs":[{"internalType":"uint256","name":"total","type":"uint256"}],"stateMutability":"view","type":"function"},{"inputs":[],"name":"backendSigner","outputs":[{"internalType":"address","name":"","type":"address"}],"stateMutability":"view","type":"function"},{"inputs":[],"name":"callbackGasLimit","outputs":[{"internalType":"uint32","name":"","type":"uint32"}],"stateMutability":"view","type":"function"},{"inputs":[{"internalType":"uint256","name":"requestId","type":"uint256"}],"name":"cancelPendingPull","outputs":[],"stateMutability":"nonpayable","type":"function"},{"inputs":[{"internalType":"uint8","name":"","type":"uint8"},{"internalType":"uint256","name":"","type":"uint256"}],"name":"cards","outputs":[{"internalType":"uint8","name":"bucket","type":"uint8"},{"internalType":"bool","name":"available","type":"bool"}],"stateMutability":"view","type":"function"},{"inputs":[{"internalType":"uint256","name":"requestId","type":"uint256"},{"internalType":"address","name":"to","type":"address"}],"name":"claimPending","outputs":[],"stateMutability":"nonpayable","type":"function"},{"inputs":[],"name":"emergencyPause","outputs":[],"stateMutability":"nonpayable","type":"function"},{"inputs":[{"internalType":"uint8","name":"packTier","type":"uint8"}],"name":"getBucketWeights","outputs":[{"internalType":"uint16[6]","name":"","type":"uint16[6]"}],"stateMutability":"view","type":"function"},{"inputs":[{"internalType":"address","name":"user","type":"address"},{"internalType":"bytes32","name":"solanaHash","type":"bytes32"},{"internalType":"uint8","name":"packTier","type":"uint8"},{"internalType":"uint256","name":"tokenId","type":"uint256"}],"name":"giveaway","outputs":[],"stateMutability":"nonpayable","type":"function"},{"inputs":[],"name":"isVaultReady","outputs":[{"internalType":"bool","name":"","type":"bool"}],"stateMutability":"view","type":"function"},{"inputs":[{"internalType":"address","name":"","type":"address"}],"name":"lastPullBlock","outputs":[{"internalType":"uint256","name":"","type":"uint256"}],"stateMutability":"view","type":"function"},{"inputs":[],"name":"maxPullsPerBlock","outputs":[{"internalType":"uint8","name":"","type":"uint8"}],"stateMutability":"view","type":"function"},{"inputs":[],"name":"minPullIntervalBlocks","outputs":[{"internalType":"uint256","name":"","type":"uint256"}],"stateMutability":"view","type":"function"},{"inputs":[],"name":"owner","outputs":[{"internalType":"address","name":"","type":"address"}],"stateMutability":"view","type":"function"},{"inputs":[],"name":"pauseGuardian","outputs":[{"internalType":"address","name":"","type":"address"}],"stateMutability":"view","type":"function"},{"inputs":[],"name":"paused","outputs":[{"internalType":"bool","name":"","type":"bool"}],"stateMutability":"view","type":"function"},{"inputs":[{"internalType":"uint256","name":"","type":"uint256"}],"name":"pendingPulls","outputs":[{"internalType":"address","name":"user","type":"address"},{"internalType":"uint8","name":"packTier","type":"uint8"},{"internalType":"bytes32","name":"burnProof","type":"bytes32"},{"internalType":"uint64","name":"timestamp","type":"uint64"},{"internalType":"bool","name":"fulfilled","type":"bool"},{"internalType":"bool","name":"cancelled","type":"bool"},{"internalType":"address","name":"vaultAtRequest","type":"address"},{"internalType":"uint256","name":"awaitingClaimTokenId","type":"uint256"},{"internalType":"uint8","name":"awaitingClaimBucket","type":"uint8"},{"internalType":"bool","name":"awaitingClaim","type":"bool"}],"stateMutability":"view","type":"function"},{"inputs":[{"internalType":"address","name":"","type":"address"}],"name":"polygonGiveawayUsed","outputs":[{"internalType":"bool","name":"","type":"bool"}],"stateMutability":"view","type":"function"},{"inputs":[{"internalType":"uint256","name":"","type":"uint256"}],"name":"pullsInBlock","outputs":[{"internalType":"uint8","name":"","type":"uint8"}],"stateMutability":"view","type":"function"},{"inputs":[{"internalType":"uint256","name":"requestId","type":"uint256"},{"internalType":"uint256[]","name":"randomWords","type":"uint256[]"}],"name":"rawFulfillRandomWords","outputs":[],"stateMutability":"nonpayable","type":"function"},{"inputs":[{"internalType":"uint8","name":"packTier","type":"uint8"},{"internalType":"uint256","name":"tokenId","type":"uint256"}],"name":"removeCard","outputs":[],"stateMutability":"nonpayable","type":"function"},{"inputs":[],"name":"requestConfirmations","outputs":[{"internalType":"uint16","name":"","type":"uint16"}],"stateMutability":"view","type":"function"},{"inputs":[{"internalType":"address","name":"user","type":"address"},{"internalType":"uint8","name":"packTier","type":"uint8"},{"internalType":"bytes32","name":"burnProof","type":"bytes32"}],"name":"requestPull","outputs":[{"internalType":"uint256","name":"requestId","type":"uint256"}],"stateMutability":"nonpayable","type":"function"},{"inputs":[],"name":"s_vrfCoordinator","outputs":[{"internalType":"contract IVRFCoordinatorV2Plus","name":"","type":"address"}],"stateMutability":"view","type":"function"},{"inputs":[{"internalType":"address","name":"newSigner","type":"address"}],"name":"setBackendSigner","outputs":[],"stateMutability":"nonpayable","type":"function"},{"inputs":[{"internalType":"uint8","name":"packTier","type":"uint8"},{"internalType":"uint16[6]","name":"weights","type":"uint16[6]"}],"name":"setBucketWeights","outputs":[],"stateMutability":"nonpayable","type":"function"},{"inputs":[{"internalType":"address","name":"_vrfCoordinator","type":"address"}],"name":"setCoordinator","outputs":[],"stateMutability":"nonpayable","type":"function"},{"inputs":[{"internalType":"address","name":"newGuardian","type":"address"}],"name":"setPauseGuardian","outputs":[],"stateMutability":"nonpayable","type":"function"},{"inputs":[{"internalType":"uint256","name":"newMinPullIntervalBlocks","type":"uint256"},{"internalType":"uint8","name":"newMaxPullsPerBlock","type":"uint8"}],"name":"setRateLimits","outputs":[],"stateMutability":"nonpayable","type":"function"},{"inputs":[{"internalType":"address","name":"newVault","type":"address"}],"name":"setVault","outputs":[],"stateMutability":"nonpayable","type":"function"},{"inputs":[{"internalType":"uint32","name":"newCallbackGasLimit","type":"uint32"},{"internalType":"uint16","name":"newRequestConfirmations","type":"uint16"}],"name":"setVrfConfig","outputs":[],"stateMutability":"nonpayable","type":"function"},{"inputs":[{"internalType":"bytes32","name":"","type":"bytes32"}],"name":"solanaGiveawayUsed","outputs":[{"internalType":"bool","name":"","type":"bool"}],"stateMutability":"view","type":"function"},{"inputs":[{"internalType":"address","name":"to","type":"address"}],"name":"transferOwnership","outputs":[],"stateMutability":"nonpayable","type":"function"},{"inputs":[],"name":"unpause","outputs":[],"stateMutability":"nonpayable","type":"function"},{"inputs":[{"internalType":"bytes32","name":"","type":"bytes32"}],"name":"usedBurnProofs","outputs":[{"internalType":"bool","name":"","type":"bool"}],"stateMutability":"view","type":"function"},{"inputs":[],"name":"vault","outputs":[{"internalType":"address","name":"","type":"address"}],"stateMutability":"view","type":"function"},{"inputs":[{"internalType":"uint8","name":"packTier","type":"uint8"},{"internalType":"uint256","name":"tokenId","type":"uint256"},{"internalType":"address","name":"to","type":"address"}],"name":"withdrawCard","outputs":[],"stateMutability":"nonpayable","type":"function"}],"evm":{"bytecode":{"linkReferences":{},"object":"610100346200065b5762002c926001600160401b0338829003601f8101601f19168401828111858210176200065f57849382916040528439610180928391810103126200065b57604051918201908111828210176200065f57604052620000668262000693565b8152620000766020830162000693565b6020820152620000896040830162000693565b60408201526200009c6060830162000693565b6060820152620000af6080830162000693565b80608083015260a083015160a083015260c083015160c083015260e083015180151581036200065b5760e08301526101008084015163ffffffff811681036200065b5781840152610120918285015161ffff811681036200065b57838501526101409081860151828601526101608096015160ff811681036200065b57858701526001600160a01b0316331562000616575f80546001600160a01b031916331790558015620005c257600280546001600160a01b03191691909117905560017f9b779b17422d0df92223018b32b4d1fa46e071723d6817e2486d003becc55f005583516001600160a01b031615801562000600575b8015620005ea575b8015620005d4575b620005c25763ffffffff82850151166203d0908110908115620005b4575b50620005965761ffff838501511660038110908115620005a8575b50620005965760018060a01b0384511660805260a084015160a05260c084015160c05260e0840151151560e05260018060a01b0360208501511660018060a01b0319600354161760035560018060a01b0360408501511660018060a01b0319600454161760045560018060a01b036060850151166005549063ffffffff60a01b8487015160a01b169061ffff60c01b8688015160c01b169260018060d01b0319161717176005558084015160065560ff858501511660ff196007541617600755620002b762000673565b9460c0368737610c128652611186602087015261082e604087015261012c606087015260146080870152600a60a08701525f8052600b60205260405f2086905f915f5b6006811062000563575050556200031062000673565b60c036823761137981526109bd6020820152610891604082015261012b6060820152601e60808201525f60a082015260015f52600b60205260405f2081905f915f5b600681106200052e575050604097969463ffffffff946001620003ee620003fd61ffff9a975f7fc200da6168c2cb10c35e700df518f666b8b23aab8715e5fe688ae6d89bb1881b9f8f98997f3fa9c0902c04787995e15507b0e0ab98b30c606ee451ed0e0701bc3b1d9d5fab9a558851807fead69bde6b49ca7ed74a5fc780b639e2b515c739e118d2565f811f8f0a36dade96879382620006a8565b0390a2865191829182620006a8565b0390a28883015183519260ff916001600160a01b03165f7f60c5293782c70b9080e83e261790b280285209d93c36a68814b4c9a150f047de8180a360208b01516001600160a01b03165f7f16e2accad9173abff57b295b56993ec5d86b3cbf791fea02f02a6616463754ea8180a360608b01516001600160a01b03165f7fecd28f4c275f6f16f8579ec28c3e7c3658b59088d30de9ddd62b8ca1977ef6ee8180a38a0151918a0151169082526020820152a1840151169201511682519182526020820152a16040516125b69081620006dc8239608051818181610b0e01528181610d2201528181610f7c015281816115b90152818161186e0152611c2d015260a0518181816103de0152610694015260c0518181816106ba0152610f43015260e0518181816103a1015261060b0152f35b90999260206200055860019261ffff8e51169085851b60031b9161ffff809116831b921b19161790565b949b01910162000352565b909260206200058c60019261ffff8751169085851b60031b9161ffff809116831b921b19161790565b94019101620002fa565b6040516339c1852160e01b8152600490fd5b60c89150115f620001ed565b622625a09150115f620001d2565b60405163d92e233d60e01b8152600490fd5b5060608401516001600160a01b031615620001b4565b5060408401516001600160a01b031615620001ac565b5060208401516001600160a01b031615620001a4565b60405162461bcd60e51b815260206004820152601860248201527f43616e6e6f7420736574206f776e657220746f207a65726f00000000000000006044820152606490fd5b5f80fd5b634e487b7160e01b5f52604160045260245ffd5b6040519060c082016001600160401b038111838210176200065f57604052565b51906001600160a01b03821682036200065b57565b60c0810192915f915b60068310620006bf57505050565b60019061ffff83511681526020809101920192019190620006b156fe6080806040526004361015610012575f80fd5b5f905f3560e01c9081630194f9a3146121b55750806308a52d051461210a578063122e934e14611f0e57806314ef0c2c14611dd45780631fe543e314611a9857806321ab305b146119e157806324a3d622146119b857806324f7469714611991578063257ad9311461196457806326d3f3d81461175b578063314252941461171c57806336f95670146116ac5780633f4ba83a1461163957806344898f521461157557806348bde20c1461150557806348f87f7b146114e45780634cfd6b401461140c57806351858e271461138657806354d7be2d1461129d5780635c975abb1461127757806365d65e861461124e5780636817031b146111de57806368f1fb93146111c257806375506c471461119357806379396b32146110d657806379ba5097146110325780637b90f21514610fc95780637be4dd8414610fab5780637c0b8de214610f665780638310970814610f2b5780638da5cb5b14610f045780638ea9811714610e495780639eccacf614610e20578063a4d6a12e14610c79578063b0fb162f14610c54578063bcd82de914610c08578063c56ca84e14610bec578063c92f965814610a57578063d14d3de014610482578063d7894b8214610401578063da06a5f0146103c6578063eadf228014610389578063eb96f26c14610350578063f2fde38b1461029a578063f444b6eb1461026b578063f6c599611461024e5763fbfa77cf14610223575f80fd5b3461024b578060031936011261024b576003546040516001600160a01b039091168152602090f35b80fd5b503461024b578060031936011261024b5760206040516127108152f35b503461024b57602036600319011261024b5760ff60406020926004358152600c84522054166040519015158152f35b503461024b57602036600319011261024b576102b4612286565b6102bc612352565b6001600160a01b039081169033821461030b57600180546001600160a01b031916831790558254167fed8889f560326eb138920d842192f0eb3dd22b4f139c87a2c57538e05bae12788380a380f35b60405162461bcd60e51b815260206004820152601760248201527f43616e6e6f74207472616e7366657220746f2073656c660000000000000000006044820152606490fd5b503461024b57602036600319011261024b576020906040906001600160a01b03610378612286565b168152600d83522054604051908152f35b503461024b578060031936011261024b5760206040517f000000000000000000000000000000000000000000000000000000000000000015158152f35b503461024b578060031936011261024b5760206040517f00000000000000000000000000000000000000000000000000000000000000008152f35b503461024b57604036600319011261024b5761041b612236565b60ff610425612246565b91169060028210156104705760ff1691600683101561045e576040918152600960205220905f52602052602060405f2054604051908152f35b60405163778aa76b60e01b8152600490fd5b60405163d694977f60e01b8152600490fd5b503461024b57606036600319011261024b5761049c612286565b6104a4612246565b6004549092906001600160a01b03163303610a45576104c16123ca565b600260ff84161015610470576104d56123eb565b6001600160a01b03821615610a335760443515610a21576044358152600c60205260ff604082205416610a0f576001600160a01b0382168152600d602052604081205460068054909291610529919061229c565b43106109fd57438152600e60205260ff60408220541660ff6007541611156109eb57809381945b60ff86168481101561058d5761058460ff926001928486168752600960205260408720905f5260205260405f20549061229c565b96011694610550565b508490156109d9576044358352600c60205260408320600160ff1982541617905560018060a01b0381168352600d602052436040842055438352600e60205260408320805460ff6105df818316612340565b169060ff19161790556005549160405192602084018481106001600160401b03821117610966576040527f0000000000000000000000000000000000000000000000000000000000000000151584526040519363125fa26760e31b60208601525115156024850152602484528360608101106001600160401b0360608601111761096657606084016101208501106001600160401b0361012086011117610966579263ffffffff6101009461012083016040527f000000000000000000000000000000000000000000000000000000000000000060608401527f0000000000000000000000000000000000000000000000000000000000000000608084015261ffff8160c01c1660a084015260a01c1660c0820152600160e0820152808481015260018060a01b03600254169085604051958692634d8e1c2f60e11b845260206004850152606081015160248501526080810151604485015261ffff60a082015116606485015263ffffffff60c082015116608485015263ffffffff60e08201511660a4850152015160c060c48401528051908160e4850152825b8281106109bd575050602093918391826101049183838284010152601f801991011681010301925af19283156109b257849361097a575b5060018060a01b036003541693604051806101408101106001600160401b03610140830111176109665761012060046040610913946020996101408601835260018060a01b038916865260ff88168b870152604435838701526001600160401b03421660608701528160808701528160a087015260c08601528060e0860152806101008601528084860152888152600f8a522060018060a01b0384511681549060ff60a01b8b87015160a01b16916affffffffffffffffffffff60a81b161717815560408401516001820155600281016001600160401b0360608601511681549068ff00000000000000006080880151151560401b1660ff60481b60a0890151151560481b1691600160501b600160f01b0360c08a015160501b169361ffff60f01b1617171717905560e08401516003820155019160ff6101008201511660ff198454161783550151151561ff00825491151560081b169061ff001916179055565b827fffd996438dd23739c6097c4be73bb8e71c08fbcf9d6a5772e51e968641cd9e798560ff604051946044358652169460018060a01b031693a460015f8051602061256183398151915255604051908152f35b634e487b7160e01b5f52604160045260245ffd5b9092506020813d6020116109aa575b81610996602093836122fb565b810103126109a6575191846107b1565b8380fd5b3d9150610989565b6040513d86823e3d90fd5b60208183018101516101048b840101528995508a94500161077a565b6040516305ce024d60e51b8152600490fd5b604051634848e44360e01b8152600490fd5b604051630de30c2360e21b8152600490fd5b60405163e708082360e01b8152600490fd5b604051635002a1f560e11b8152600490fd5b60405163d92e233d60e01b8152600490fd5b604051630a31c3dd60e41b8152600490fd5b503461024b57606036600319011261024b57610a71612236565b6001600160a01b036044358181169260243592848303610be857610a93612352565b60ff821692600284101561047057610aa96123eb565b8515610a335783875260206008815260408820868952815260ff604089205460081c1615610bd657610af58689958787526008845260408720828852845260ff604088205416906123a3565b84845260088152604084209086855252826040812055817f0000000000000000000000000000000000000000000000000000000000000000169160035416823b156109a657604051632142170760e11b81526001600160a01b03918216600482015291166024820152604481018590529082908290606490829084905af18015610bcb57610bb7575b50807f77bac95a6200e13299ace2b8162c0cdeadbaea42797662a5865192d8eaf7791491a460015f805160206125618339815191525580f35b610bc0906122cd565b6109a657835f610b7e565b6040513d84823e3d90fd5b604051630479201160e41b8152600490fd5b5f80fd5b503461024b578060031936011261024b57602060405160068152f35b503461024b57604036600319011261024b576040809160ff610c28612236565b16815260086020528181206024358252602052205460ff825191818116835260081c1615156020820152f35b503461024b578060031936011261024b57602061ffff60055460c01c16604051908152f35b503461024b57604036600319011261024b576001600160a01b03600435602435828116808203610be857610cab6123ca565b610cb36123eb565b828552600f6020526040852093600485019182549360ff8560081c1615610e0e5782875416918233141580610e01575b610df057610de957505b818116958615610a335760028189956003869401549761ff0019169055015460501c1680155f14610de357508160035416915b7f00000000000000000000000000000000000000000000000000000000000000001691823b156109a657604051632142170760e11b81526001600160a01b03918216600482015291166024820152604481018490529082908290606490829084905af18015610bcb57610dcf575b505060207f4e9c4100e47b501014542956ca7825d68d91613e346bf65352a306d551abaac591604051908152a360015f805160206125618339815191525580f35b610dd8906122cd565b6109a657835f610d8e565b91610d20565b9050610ced565b60405162c2e32960e21b8152600490fd5b5083895416331415610ce3565b6040516312d37ee560e31b8152600490fd5b503461024b578060031936011261024b576002546040516001600160a01b039091168152602090f35b503461024b57602036600319011261024b57610e63612286565b81546001600160a01b03919082163381141580610ef6575b610ece5750168015610a33576020817fd1a6a14209a385a964d036e404cb5cfb71f4000cdb03c9366292430787261be6926bffffffffffffffffffffffff60a01b6002541617600255604051908152a180f35b60649083600254166040519163061db9c160e01b835233600484015260248301526044820152fd5b508260025416331415610e7b565b503461024b578060031936011261024b57546040516001600160a01b039091168152602090f35b503461024b578060031936011261024b5760206040517f00000000000000000000000000000000000000000000000000000000000000008152f35b503461024b578060031936011261024b576040517f00000000000000000000000000000000000000000000000000000000000000006001600160a01b03168152602090f35b503461024b578060031936011261024b576020600654604051908152f35b503461024b57604036600319011261024b577f3fa9c0902c04787995e15507b0e0ab98b30c606ee451ed0e0701bc3b1d9d5fab604060043560ff61100b612246565b611013612352565b82600655168060ff19600754161760075582519182526020820152a180f35b503461024b578060031936011261024b576001546001600160a01b0380821633036110985782546001600160a01b03198082163390811786559316600155167f8be0079c531659141344cd1fd0a4f28419497f9722a3daafe3b4186f6b6457e08380a380f35b60405162461bcd60e51b815260206004820152601660248201527526bab9ba10313290383937b837b9b2b21037bbb732b960511b6044820152606490fd5b503461024b576020908160031936011261024b5760ff6110f4612236565b60c0604051611102816122e0565b3690371660028110156104705781929152600b8152604082209060405191549161ffff83818095168352818160101c16848401528181851c166040840152818160301c166060840152818160401c16608084015260501c1660a0820152611168816122e0565b6040519390845b6006831061117c5760c086f35b83806001928785511681520192019201919061116f565b503461024b57602036600319011261024b5760ff60406020926004358152601184522054166040519015158152f35b503461024b578060031936011261024b57602060405160028152f35b503461024b57602036600319011261024b576111f8612286565b611200612352565b6001600160a01b03908116908115610a3357816003549182167f16e2accad9173abff57b295b56993ec5d86b3cbf791fea02f02a6616463754ea8580a36001600160a01b0319161760035580f35b503461024b578060031936011261024b576004546040516001600160a01b039091168152602090f35b503461024b578060031936011261024b57602060ff60025460a01c166040519015158152f35b503461024b57604036600319011261024b5760043563ffffffff8116808203611382576024359061ffff8216808303610be8576112d8612352565b6203d09082108015611376575b61135a5760038110801561136c575b61135a577fc200da6168c2cb10c35e700df518f666b8b23aab8715e5fe688ae6d89bb1881b936040936005549061ffff60c01b9060c01b169163ffffffff60a01b9060a01b169065ffffffffffff60a01b1916171760055582519182526020820152a180f35b6040516339c1852160e01b8152600490fd5b5060c881116112f4565b50622625a082116112e5565b8280fd5b503461024b578060031936011261024b578054336001600160a01b03918216141590816113fd575b50610df0576113bb6123ca565b6002805460ff60a01b1916600160a01b1790556040513381527f62e78cea01bee320cd4e420270b5ea74000d11b0c9f74754ebdbfc544b05a25890602090a180f35b9050600554163314155f6113ae565b503461024b57602036600319011261024b57600435611429612352565b808252600f6020526040822080546001600160a01b0381169291831580156114d3575b80156114c2575b6114b0577fc374ef6dbe6c46419e08970c387a25a0f74326d611c4f880a42da3a6d246d3589160ff600183600260409501690100000000000000000060ff60481b19825416179055015491835192835260a01c166020820152a380f35b60405163f41814a760e01b8152600490fd5b5060ff600282015460481c16611453565b5060ff600282015460401c1661144c565b503461024b578060031936011261024b57602060ff60075416604051908152f35b503461024b57602036600319011261024b5761151f612286565b611527612352565b6001600160a01b03908116908115610a3357816005549182167fecd28f4c275f6f16f8579ec28c3e7c3658b59088d30de9ddd62b8ca1977ef6ee8580a36001600160a01b0319161760055580f35b503461024b578060031936011261024b5760035460405163e985e9c560e01b81526001600160a01b03918216600482015230602482015290602090829060449082907f0000000000000000000000000000000000000000000000000000000000000000165afa908115610bcb5782916115f6575b6020826040519015158152f35b90506020813d602011611631575b81611611602093836122fb565b8101031261162d5751801515810361162d57602091505f6115e9565b5080fd5b3d9150611604565b503461024b578060031936011261024b57611652612352565b60025460ff8160a01c161561169a5760ff60a01b19166002556040513381527f5db9ee0a495bf2e6ff9c91a7834c1ba4fdd244a5e8aa4e537bd38aeae4b073aa90602090a180f35b604051638dfc202b60e01b8152600490fd5b503461024b57602036600319011261024b576116c6612286565b6116ce612352565b6001600160a01b03908116908115610a3357816004549182167f60c5293782c70b9080e83e261790b280285209d93c36a68814b4c9a150f047de8580a36001600160a01b0319161760045580f35b503461024b57602036600319011261024b5760209060ff906040906001600160a01b03611747612286565b168152601084522054166040519015158152f35b503461024b57608036600319011261024b57611775612286565b6024356044359160ff831691828403610be85760643593611794612352565b61179c6123ca565b6002841015610470576117ad6123eb565b6001600160a01b03838116938415610a33578488526020916010835260ff60408a205416801561194f575b61193d578689526008835260408920888a52835260ff60408a205460081c1615610bd6578891868352601084526040832060ff199060018282541617905586845260118552600160408520918254161790558783526008845260408320898452845261184d8960ff60408620541680976123a3565b8783526008845260408084208a855285528320805461ff00191690556003547f000000000000000000000000000000000000000000000000000000000000000083169216823b156109a657604051632142170760e11b81526001600160a01b03918216600482015291166024820152604481018990529082908290606490829084905af18015610bcb57611921575b5050907ffa44e081ba05562bc113adb11188fa32fc0f8b00c7f449c826d9b4cc4d1e869a926040928351928352820152a460015f805160206125618339815191525580f35b61192d909392936122cd565b6119395790865f6118dc565b8680fd5b604051630c8d9eab60e31b8152600490fd5b508489526011835260ff60408a2054166117d8565b503461024b57602036600319011261024b5760ff60406020926004358152600e8452205416604051908152f35b503461024b578060031936011261024b57602063ffffffff60055460a01c16604051908152f35b503461024b578060031936011261024b576005546040516001600160a01b039091168152602090f35b503461024b57604036600319011261024b576119fb612236565b60243590611a07612352565b60ff8116906002821015610470578184526020906008825260408520848652825260ff604086205460081c1615610bd65783611a5b918487526008845260408720828852845260ff604088205416906123a3565b818452600881526040842090838552528260408120557f028a4fc8b4696cbcc4f5a8f6a710136792e31ca8bdd587a3ca8e506955582a928380a380f35b5034610be8576040366003190112610be857602460043581356001600160401b038111610be857611acd903690600401612256565b909160018060a01b03908160025416803303611dab5750805f526020600f815260405f2091825495848716158015611d9a575b8015611d89575b6114b05760028401805468ff00000000000000001916600160401b1781559515611d7557359360ff809760a01c1690611b4082876124ce565b955f965b835f526009865260405f208a82165f52865260405f20541580611d69575b15611b9b5760068a611b748193612340565b16069716898114611b885760010196611b44565b8a634e487b7160e01b5f5260116004525ffd5b939495965088908b98845f526009885260405f209483871695865f52895260405f20549283156109d9578593611bfa9160801c06825f5260098b5260405f20885f528b52611bec8160405f2061231c565b90549060031b1c988361241a565b5f526008885260405f20865f52885260405f2061ff001981541690555460501c1680155f14611d64575081600354165b827f000000000000000000000000000000000000000000000000000000000000000016908389541690823b15610be857604051632142170760e11b81526001600160a01b0391821660048201529116602482015260448101869052905f908290606490829084905af19081611d51575b50611d09575090606092918660047fbacc287f496b3e28cda1ac162de931b3c4a5b3354620ea3fdbdf4a09d169b7549697980161010084825487600386015561ffff1916171790555416956040519283528201526d1d1c985b9cd9995c91985a5b195960921b6040820152a380f35b7f52903fea91e0049873cd4a5863c2a0cb419afa10144da0500a8c033c19d553459395606093600189549901549160405198895288015260408701528660a01c16951693a480f35b611d5c9199506122cd565b5f9789611c9a565b611c2a565b5060068a891610611b62565b634e487b7160e01b5f52603260045260245ffd5b5060ff600285015460481c16611b07565b5060ff600285015460401c16611b00565b60405163073e64fd60e21b81523360048201526001600160a01b03919091166024820152604490fd5b34610be85760e0366003190112610be857611ded612236565b3660e411610be857611dfd612352565b60ff809116906002821015610470575f80915b600681841610611ee057836127108303611ece57805f526020600b60205260405f206024905f915f5b8460068210611ea4575050505560405190816024915f915b60068310611e8157857fead69bde6b49ca7ed74a5fc780b639e2b515c739e118d2565f811f8f0a36dade60c087a2005b83359061ffff8216809203610be857828160019382935201940192019192611e51565b8294611eb260019394612331565b908460041b9161ffff809116831b921b19161794019101611e39565b604051632fb3cc0760e11b8152600490fd5b6001611f04829361ffff611efd611fe08860051b16602401612331565b169061229c565b9301169190611e10565b34610be8576060366003190112610be857611f27612236565b6001600160401b03602435818111610be857611f47903690600401612256565b90604435838111610be857611f60903690600401612256565b939092611f6b612352565b60ff809616926002841015610470578582036120f5575f5b828110611f8c57005b611f978184846122bd565b3590611fa48189896122bd565b3591898316809303610be857600683101561045e57865f52600860209080825260405f20835f5282528b60405f2054821c166120e35760405160408101908082108a8311176109665761203a916040528681528d848201906001948583528d5f52865260405f20875f52865260405f2092511660ff1983541617825551151561ff00825491151560081b169061ff001916179055565b885f52600980835260405f20865f52835260405f20548a5f52600a845260405f20855f52845260405f2055895f52825260405f20855f52825260405f2091825495600160401b871015610966576120d6856120be898e977f6160b95463eef162e89880a58d5ff8c73f401ae0a3de33147826ad9b64b4d3d69760019c01815561231c565b90919082549060031b91821b915f19901b1916179055565b604051908152a301611f83565b604051631b74344b60e01b8152600490fd5b6040516001621398b960e31b03198152600490fd5b34610be8576020366003190112610be8576004355f52600f60205261014060405f2060ff81549160018060a01b0390600181015491600282015460046003840154930154938560405197848116895260a01c16602088015260408701526001600160401b0381166060870152848160401c1615156080870152848160481c16151560a087015260501c1660c085015260e084015281811661010084015260081c161515610120820152f35b34610be857602080600319360112610be85760ff9060ff6121d4612236565b1692600284101561222757505f92835b838516600681101561221c576122138592600192855f526009875260405f20905f52865260405f20549061229c565b950116936121e4565b602082604051908152f35b63d694977f60e01b8152600490fd5b6004359060ff82168203610be857565b6024359060ff82168203610be857565b9181601f84011215610be8578235916001600160401b038311610be8576020808501948460051b010111610be857565b600435906001600160a01b0382168203610be857565b919082018092116122a957565b634e487b7160e01b5f52601160045260245ffd5b9190811015611d755760051b0190565b6001600160401b03811161096657604052565b60c081019081106001600160401b0382111761096657604052565b90601f801991011681019081106001600160401b0382111761096657604052565b8054821015611d75575f5260205f2001905f90565b3561ffff81168103610be85790565b60ff60019116019060ff82116122a957565b5f546001600160a01b0316330361236557565b60405162461bcd60e51b815260206004820152601660248201527527b7363c9031b0b63630b1363290313c9037bbb732b960511b6044820152606490fd5b906123c89260ff83165f52600a60205260405f20905f5260205260405f20549161241a565b565b60ff60025460a01c166123d957565b60405163d93c066560e01b8152600490fd5b5f8051602061256183398151915260028154146124085760029055565b604051633ee5aeb560e01b8152600490fd5b60ff909291921691825f52600960205260ff60405f2091165f5260205260405f20908154925f19938481019081116122a957808303612490575b5050508054801561247c5782019161246c838361231c565b909182549160031b1b1916905555565b634e487b7160e01b5f52603160045260245ffd5b61249a908461231c565b90549060031b1c906124b0826120be858761231c565b5f52600a60205260405f20905f5260205260405f20555f8080612454565b909160ff8093165f52600b60205261271060405f209261ffff9182910616905f935f5b600680888316101561255357811015611d7557600495838083891c85015460f0858b1b161c1691160195838711612540575082861684106125365760010186166124f1565b9450505050915090565b601190634e487b7160e01b5f525260245ffd5b505050505091505060059056fe9b779b17422d0df92223018b32b4d1fa46e071723d6817e2486d003becc55f00a2646970667358221220ff47ebdd9398645d934c1bde70edcf43fab267e31f65ff544a25400ee2a23d4464736f6c63430008180033","opcodes":"PUSH2 0x100 CALLVALUE PUSH3 0x65B JUMPI PUSH3 0x2C92 PUSH1 0x1 PUSH1 0x1 PUSH1 0x40 SHL SUB CODESIZE DUP3 SWAP1 SUB PUSH1 0x1F DUP2 ADD PUSH1 0x1F NOT AND DUP5 ADD DUP3 DUP2 GT DUP6 DUP3 LT OR PUSH3 0x65F JUMPI DUP5 SWAP4 DUP3 SWAP2 PUSH1 0x40 MSTORE DUP5 CODECOPY PUSH2 0x180 SWAP3 DUP4 SWAP2 DUP2 ADD SUB SLT PUSH3 0x65B JUMPI PUSH1 0x40 MLOAD SWAP2 DUP3 ADD SWAP1 DUP2 GT DUP3 DUP3 LT OR PUSH3 0x65F JUMPI PUSH1 0x40 MSTORE PUSH3 0x66 DUP3 PUSH3 0x693 JUMP JUMPDEST DUP2 MSTORE PUSH3 0x76 PUSH1 0x20 DUP4 ADD PUSH3 0x693 JUMP JUMPDEST PUSH1 0x20 DUP3 ADD MSTORE PUSH3 0x89 PUSH1 0x40 DUP4 ADD PUSH3 0x693 JUMP JUMPDEST PUSH1 0x40 DUP3 ADD MSTORE PUSH3 0x9C PUSH1 0x60 DUP4 ADD PUSH3 0x693 JUMP JUMPDEST PUSH1 0x60 DUP3 ADD MSTORE PUSH3 0xAF PUSH1 0x80 DUP4 ADD PUSH3 0x693 JUMP JUMPDEST DUP1 PUSH1 0x80 DUP4 ADD MSTORE PUSH1 0xA0 DUP4 ADD MLOAD PUSH1 0xA0 DUP4 ADD MSTORE PUSH1 0xC0 DUP4 ADD MLOAD PUSH1 0xC0 DUP4 ADD MSTORE PUSH1 0xE0 DUP4 ADD MLOAD DUP1 ISZERO ISZERO DUP2 SUB PUSH3 0x65B JUMPI PUSH1 0xE0 DUP4 ADD MSTORE PUSH2 0x100 DUP1 DUP5 ADD MLOAD PUSH4 0xFFFFFFFF DUP2 AND DUP2 SUB PUSH3 0x65B JUMPI DUP2 DUP5 ADD MSTORE PUSH2 0x120 SWAP2 DUP3 DUP6 ADD MLOAD PUSH2 0xFFFF DUP2 AND DUP2 SUB PUSH3 0x65B JUMPI DUP4 DUP6 ADD MSTORE PUSH2 0x140 SWAP1 DUP2 DUP7 ADD MLOAD DUP3 DUP7 ADD MSTORE PUSH2 0x160 DUP1 SWAP7 ADD MLOAD PUSH1 0xFF DUP2 AND DUP2 SUB PUSH3 0x65B JUMPI DUP6 DUP8 ADD MSTORE PUSH1 0x1 PUSH1 0x1 PUSH1 0xA0 SHL SUB AND CALLER ISZERO PUSH3 0x616 JUMPI PUSH0 DUP1 SLOAD PUSH1 0x1 PUSH1 0x1 PUSH1 0xA0 SHL SUB NOT AND CALLER OR SWAP1 SSTORE DUP1 ISZERO PUSH3 0x5C2 JUMPI PUSH1 0x2 DUP1 SLOAD PUSH1 0x1 PUSH1 0x1 PUSH1 0xA0 SHL SUB NOT AND SWAP2 SWAP1 SWAP2 OR SWAP1 SSTORE PUSH1 0x1 PUSH32 0x9B779B17422D0DF92223018B32B4D1FA46E071723D6817E2486D003BECC55F00 SSTORE DUP4 MLOAD PUSH1 0x1 PUSH1 0x1 PUSH1 0xA0 SHL SUB AND ISZERO DUP1 ISZERO PUSH3 0x600 JUMPI JUMPDEST DUP1 ISZERO PUSH3 0x5EA JUMPI JUMPDEST DUP1 ISZERO PUSH3 0x5D4 JUMPI JUMPDEST PUSH3 0x5C2 JUMPI PUSH4 0xFFFFFFFF DUP3 DUP6 ADD MLOAD AND PUSH3 0x3D090 DUP2 LT SWAP1 DUP2 ISZERO PUSH3 0x5B4 JUMPI JUMPDEST POP PUSH3 0x596 JUMPI PUSH2 0xFFFF DUP4 DUP6 ADD MLOAD AND PUSH1 0x3 DUP2 LT SWAP1 DUP2 ISZERO PUSH3 0x5A8 JUMPI JUMPDEST POP PUSH3 0x596 JUMPI PUSH1 0x1 DUP1 PUSH1 0xA0 SHL SUB DUP5 MLOAD AND PUSH1 0x80 MSTORE PUSH1 0xA0 DUP5 ADD MLOAD PUSH1 0xA0 MSTORE PUSH1 0xC0 DUP5 ADD MLOAD PUSH1 0xC0 MSTORE PUSH1 0xE0 DUP5 ADD MLOAD ISZERO ISZERO PUSH1 0xE0 MSTORE PUSH1 0x1 DUP1 PUSH1 0xA0 SHL SUB PUSH1 0x20 DUP6 ADD MLOAD AND PUSH1 0x1 DUP1 PUSH1 0xA0 SHL SUB NOT PUSH1 0x3 SLOAD AND OR PUSH1 0x3 SSTORE PUSH1 0x1 DUP1 PUSH1 0xA0 SHL SUB PUSH1 0x40 DUP6 ADD MLOAD AND PUSH1 0x1 DUP1 PUSH1 0xA0 SHL SUB NOT PUSH1 0x4 SLOAD AND OR PUSH1 0x4 SSTORE PUSH1 0x1 DUP1 PUSH1 0xA0 SHL SUB PUSH1 0x60 DUP6 ADD MLOAD AND PUSH1 0x5 SLOAD SWAP1 PUSH4 0xFFFFFFFF PUSH1 0xA0 SHL DUP5 DUP8 ADD MLOAD PUSH1 0xA0 SHL AND SWAP1 PUSH2 0xFFFF PUSH1 0xC0 SHL DUP7 DUP9 ADD MLOAD PUSH1 0xC0 SHL AND SWAP3 PUSH1 0x1 DUP1 PUSH1 0xD0 SHL SUB NOT AND OR OR OR PUSH1 0x5 SSTORE DUP1 DUP5 ADD MLOAD PUSH1 0x6 SSTORE PUSH1 0xFF DUP6 DUP6 ADD MLOAD AND PUSH1 0xFF NOT PUSH1 0x7 SLOAD AND OR PUSH1 0x7 SSTORE PUSH3 0x2B7 PUSH3 0x673 JUMP JUMPDEST SWAP5 PUSH1 0xC0 CALLDATASIZE DUP8 CALLDATACOPY PUSH2 0xC12 DUP7 MSTORE PUSH2 0x1186 PUSH1 0x20 DUP8 ADD MSTORE PUSH2 0x82E PUSH1 0x40 DUP8 ADD MSTORE PUSH2 0x12C PUSH1 0x60 DUP8 ADD MSTORE PUSH1 0x14 PUSH1 0x80 DUP8 ADD MSTORE PUSH1 0xA PUSH1 0xA0 DUP8 ADD MSTORE PUSH0 DUP1 MSTORE PUSH1 0xB PUSH1 0x20 MSTORE PUSH1 0x40 PUSH0 KECCAK256 DUP7 SWAP1 PUSH0 SWAP2 PUSH0 JUMPDEST PUSH1 0x6 DUP2 LT PUSH3 0x563 JUMPI POP POP SSTORE PUSH3 0x310 PUSH3 0x673 JUMP JUMPDEST PUSH1 0xC0 CALLDATASIZE DUP3 CALLDATACOPY PUSH2 0x1379 DUP2 MSTORE PUSH2 0x9BD PUSH1 0x20 DUP3 ADD MSTORE PUSH2 0x891 PUSH1 0x40 DUP3 ADD MSTORE PUSH2 0x12B PUSH1 0x60 DUP3 ADD MSTORE PUSH1 0x1E PUSH1 0x80 DUP3 ADD MSTORE PUSH0 PUSH1 0xA0 DUP3 ADD MSTORE PUSH1 0x1 PUSH0 MSTORE PUSH1 0xB PUSH1 0x20 MSTORE PUSH1 0x40 PUSH0 KECCAK256 DUP2 SWAP1 PUSH0 SWAP2 PUSH0 JUMPDEST PUSH1 0x6 DUP2 LT PUSH3 0x52E JUMPI POP POP PUSH1 0x40 SWAP8 SWAP7 SWAP5 PUSH4 0xFFFFFFFF SWAP5 PUSH1 0x1 PUSH3 0x3EE PUSH3 0x3FD PUSH2 0xFFFF SWAP11 SWAP8 PUSH0 PUSH32 0xC200DA6168C2CB10C35E700DF518F666B8B23AAB8715E5FE688AE6D89BB1881B SWAP16 DUP16 SWAP9 SWAP10 PUSH32 0x3FA9C0902C04787995E15507B0E0AB98B30C606EE451ED0E0701BC3B1D9D5FAB SWAP11 SSTORE DUP9 MLOAD DUP1 PUSH32 0xEAD69BDE6B49CA7ED74A5FC780B639E2B515C739E118D2565F811F8F0A36DADE SWAP7 DUP8 SWAP4 DUP3 PUSH3 0x6A8 JUMP JUMPDEST SUB SWAP1 LOG2 DUP7 MLOAD SWAP2 DUP3 SWAP2 DUP3 PUSH3 0x6A8 JUMP JUMPDEST SUB SWAP1 LOG2 DUP9 DUP4 ADD MLOAD DUP4 MLOAD SWAP3 PUSH1 0xFF SWAP2 PUSH1 0x1 PUSH1 0x1 PUSH1 0xA0 SHL SUB AND PUSH0 PUSH32 0x60C5293782C70B9080E83E261790B280285209D93C36A68814B4C9A150F047DE DUP2 DUP1 LOG3 PUSH1 0x20 DUP12 ADD MLOAD PUSH1 0x1 PUSH1 0x1 PUSH1 0xA0 SHL SUB AND PUSH0 PUSH32 0x16E2ACCAD9173ABFF57B295B56993EC5D86B3CBF791FEA02F02A6616463754EA DUP2 DUP1 LOG3 PUSH1 0x60 DUP12 ADD MLOAD PUSH1 0x1 PUSH1 0x1 PUSH1 0xA0 SHL SUB AND PUSH0 PUSH32 0xECD28F4C275F6F16F8579EC28C3E7C3658B59088D30DE9DDD62B8CA1977EF6EE DUP2 DUP1 LOG3 DUP11 ADD MLOAD SWAP2 DUP11 ADD MLOAD AND SWAP1 DUP3 MSTORE PUSH1 0x20 DUP3 ADD MSTORE LOG1 DUP5 ADD MLOAD AND SWAP3 ADD MLOAD AND DUP3 MLOAD SWAP2 DUP3 MSTORE PUSH1 0x20 DUP3 ADD MSTORE LOG1 PUSH1 0x40 MLOAD PUSH2 0x25B6 SWAP1 DUP2 PUSH3 0x6DC DUP3 CODECOPY PUSH1 0x80 MLOAD DUP2 DUP2 DUP2 PUSH2 0xB0E ADD MSTORE DUP2 DUP2 PUSH2 0xD22 ADD MSTORE DUP2 DUP2 PUSH2 0xF7C ADD MSTORE DUP2 DUP2 PUSH2 0x15B9 ADD MSTORE DUP2 DUP2 PUSH2 0x186E ADD MSTORE PUSH2 0x1C2D ADD MSTORE PUSH1 0xA0 MLOAD DUP2 DUP2 DUP2 PUSH2 0x3DE ADD MSTORE PUSH2 0x694 ADD MSTORE PUSH1 0xC0 MLOAD DUP2 DUP2 DUP2 PUSH2 0x6BA ADD MSTORE PUSH2 0xF43 ADD MSTORE PUSH1 0xE0 MLOAD DUP2 DUP2 DUP2 PUSH2 0x3A1 ADD MSTORE PUSH2 0x60B ADD MSTORE RETURN JUMPDEST SWAP1 SWAP10 SWAP3 PUSH1 0x20 PUSH3 0x558 PUSH1 0x1 SWAP3 PUSH2 0xFFFF DUP15 MLOAD AND SWAP1 DUP6 DUP6 SHL PUSH1 0x3 SHL SWAP2 PUSH2 0xFFFF DUP1 SWAP2 AND DUP4 SHL SWAP3 SHL NOT AND OR SWAP1 JUMP JUMPDEST SWAP5 SWAP12 ADD SWAP2 ADD PUSH3 0x352 JUMP JUMPDEST SWAP1 SWAP3 PUSH1 0x20 PUSH3 0x58C PUSH1 0x1 SWAP3 PUSH2 0xFFFF DUP8 MLOAD AND SWAP1 DUP6 DUP6 SHL PUSH1 0x3 SHL SWAP2 PUSH2 0xFFFF DUP1 SWAP2 AND DUP4 SHL SWAP3 SHL NOT AND OR SWAP1 JUMP JUMPDEST SWAP5 ADD SWAP2 ADD PUSH3 0x2FA JUMP JUMPDEST PUSH1 0x40 MLOAD PUSH4 0x39C18521 PUSH1 0xE0 SHL DUP2 MSTORE PUSH1 0x4 SWAP1 REVERT JUMPDEST PUSH1 0xC8 SWAP2 POP GT PUSH0 PUSH3 0x1ED JUMP JUMPDEST PUSH3 0x2625A0 SWAP2 POP GT PUSH0 PUSH3 0x1D2 JUMP JUMPDEST PUSH1 0x40 MLOAD PUSH4 0xD92E233D PUSH1 0xE0 SHL DUP2 MSTORE PUSH1 0x4 SWAP1 REVERT JUMPDEST POP PUSH1 0x60 DUP5 ADD MLOAD PUSH1 0x1 PUSH1 0x1 PUSH1 0xA0 SHL SUB AND ISZERO PUSH3 0x1B4 JUMP JUMPDEST POP PUSH1 0x40 DUP5 ADD MLOAD PUSH1 0x1 PUSH1 0x1 PUSH1 0xA0 SHL SUB AND ISZERO PUSH3 0x1AC JUMP JUMPDEST POP PUSH1 0x20 DUP5 ADD MLOAD PUSH1 0x1 PUSH1 0x1 PUSH1 0xA0 SHL SUB AND ISZERO PUSH3 0x1A4 JUMP JUMPDEST PUSH1 0x40 MLOAD PUSH3 0x461BCD PUSH1 0xE5 SHL DUP2 MSTORE PUSH1 0x20 PUSH1 0x4 DUP3 ADD MSTORE PUSH1 0x18 PUSH1 0x24 DUP3 ADD MSTORE PUSH32 0x43616E6E6F7420736574206F776E657220746F207A65726F0000000000000000 PUSH1 0x44 DUP3 ADD MSTORE PUSH1 0x64 SWAP1 REVERT JUMPDEST PUSH0 DUP1 REVERT JUMPDEST PUSH4 0x4E487B71 PUSH1 0xE0 SHL PUSH0 MSTORE PUSH1 0x41 PUSH1 0x4 MSTORE PUSH1 0x24 PUSH0 REVERT JUMPDEST PUSH1 0x40 MLOAD SWAP1 PUSH1 0xC0 DUP3 ADD PUSH1 0x1 PUSH1 0x1 PUSH1 0x40 SHL SUB DUP2 GT DUP4 DUP3 LT OR PUSH3 0x65F JUMPI PUSH1 0x40 MSTORE JUMP JUMPDEST MLOAD SWAP1 PUSH1 0x1 PUSH1 0x1 PUSH1 0xA0 SHL SUB DUP3 AND DUP3 SUB PUSH3 0x65B JUMPI JUMP JUMPDEST PUSH1 0xC0 DUP2 ADD SWAP3 SWAP2 PUSH0 SWAP2 JUMPDEST PUSH1 0x6 DUP4 LT PUSH3 0x6BF JUMPI POP POP POP JUMP JUMPDEST PUSH1 0x1 SWAP1 PUSH2 0xFFFF DUP4 MLOAD AND DUP2 MSTORE PUSH1 0x20 DUP1 SWAP2 ADD SWAP3 ADD SWAP3 ADD SWAP2 SWAP1 PUSH3 0x6B1 JUMP INVALID PUSH1 0x80 DUP1 PUSH1 0x40 MSTORE PUSH1 0x4 CALLDATASIZE LT ISZERO PUSH2 0x12 JUMPI PUSH0 DUP1 REVERT JUMPDEST PUSH0 SWAP1 PUSH0 CALLDATALOAD PUSH1 0xE0 SHR SWAP1 DUP2 PUSH4 0x194F9A3 EQ PUSH2 0x21B5 JUMPI POP DUP1 PUSH4 0x8A52D05 EQ PUSH2 0x210A JUMPI DUP1 PUSH4 0x122E934E EQ PUSH2 0x1F0E JUMPI DUP1 PUSH4 0x14EF0C2C EQ PUSH2 0x1DD4 JUMPI DUP1 PUSH4 0x1FE543E3 EQ PUSH2 0x1A98 JUMPI DUP1 PUSH4 0x21AB305B EQ PUSH2 0x19E1 JUMPI DUP1 PUSH4 0x24A3D622 EQ PUSH2 0x19B8 JUMPI DUP1 PUSH4 0x24F74697 EQ PUSH2 0x1991 JUMPI DUP1 PUSH4 0x257AD931 EQ PUSH2 0x1964 JUMPI DUP1 PUSH4 0x26D3F3D8 EQ PUSH2 0x175B JUMPI DUP1 PUSH4 0x31425294 EQ PUSH2 0x171C JUMPI DUP1 PUSH4 0x36F95670 EQ PUSH2 0x16AC JUMPI DUP1 PUSH4 0x3F4BA83A EQ PUSH2 0x1639 JUMPI DUP1 PUSH4 0x44898F52 EQ PUSH2 0x1575 JUMPI DUP1 PUSH4 0x48BDE20C EQ PUSH2 0x1505 JUMPI DUP1 PUSH4 0x48F87F7B EQ PUSH2 0x14E4 JUMPI DUP1 PUSH4 0x4CFD6B40 EQ PUSH2 0x140C JUMPI DUP1 PUSH4 0x51858E27 EQ PUSH2 0x1386 JUMPI DUP1 PUSH4 0x54D7BE2D EQ PUSH2 0x129D JUMPI DUP1 PUSH4 0x5C975ABB EQ PUSH2 0x1277 JUMPI DUP1 PUSH4 0x65D65E86 EQ PUSH2 0x124E JUMPI DUP1 PUSH4 0x6817031B EQ PUSH2 0x11DE JUMPI DUP1 PUSH4 0x68F1FB93 EQ PUSH2 0x11C2 JUMPI DUP1 PUSH4 0x75506C47 EQ PUSH2 0x1193 JUMPI DUP1 PUSH4 0x79396B32 EQ PUSH2 0x10D6 JUMPI DUP1 PUSH4 0x79BA5097 EQ PUSH2 0x1032 JUMPI DUP1 PUSH4 0x7B90F215 EQ PUSH2 0xFC9 JUMPI DUP1 PUSH4 0x7BE4DD84 EQ PUSH2 0xFAB JUMPI DUP1 PUSH4 0x7C0B8DE2 EQ PUSH2 0xF66 JUMPI DUP1 PUSH4 0x83109708 EQ PUSH2 0xF2B JUMPI DUP1 PUSH4 0x8DA5CB5B EQ PUSH2 0xF04 JUMPI DUP1 PUSH4 0x8EA98117 EQ PUSH2 0xE49 JUMPI DUP1 PUSH4 0x9ECCACF6 EQ PUSH2 0xE20 JUMPI DUP1 PUSH4 0xA4D6A12E EQ PUSH2 0xC79 JUMPI DUP1 PUSH4 0xB0FB162F EQ PUSH2 0xC54 JUMPI DUP1 PUSH4 0xBCD82DE9 EQ PUSH2 0xC08 JUMPI DUP1 PUSH4 0xC56CA84E EQ PUSH2 0xBEC JUMPI DUP1 PUSH4 0xC92F9658 EQ PUSH2 0xA57 JUMPI DUP1 PUSH4 0xD14D3DE0 EQ PUSH2 0x482 JUMPI DUP1 PUSH4 0xD7894B82 EQ PUSH2 0x401 JUMPI DUP1 PUSH4 0xDA06A5F0 EQ PUSH2 0x3C6 JUMPI DUP1 PUSH4 0xEADF2280 EQ PUSH2 0x389 JUMPI DUP1 PUSH4 0xEB96F26C EQ PUSH2 0x350 JUMPI DUP1 PUSH4 0xF2FDE38B EQ PUSH2 0x29A JUMPI DUP1 PUSH4 0xF444B6EB EQ PUSH2 0x26B JUMPI DUP1 PUSH4 0xF6C59961 EQ PUSH2 0x24E JUMPI PUSH4 0xFBFA77CF EQ PUSH2 0x223 JUMPI PUSH0 DUP1 REVERT JUMPDEST CALLVALUE PUSH2 0x24B JUMPI DUP1 PUSH1 0x3 NOT CALLDATASIZE ADD SLT PUSH2 0x24B JUMPI PUSH1 0x3 SLOAD PUSH1 0x40 MLOAD PUSH1 0x1 PUSH1 0x1 PUSH1 0xA0 SHL SUB SWAP1 SWAP2 AND DUP2 MSTORE PUSH1 0x20 SWAP1 RETURN JUMPDEST DUP1 REVERT JUMPDEST POP CALLVALUE PUSH2 0x24B JUMPI DUP1 PUSH1 0x3 NOT CALLDATASIZE ADD SLT PUSH2 0x24B JUMPI PUSH1 0x20 PUSH1 0x40 MLOAD PUSH2 0x2710 DUP2 MSTORE RETURN JUMPDEST POP CALLVALUE PUSH2 0x24B JUMPI PUSH1 0x20 CALLDATASIZE PUSH1 0x3 NOT ADD SLT PUSH2 0x24B JUMPI PUSH1 0xFF PUSH1 0x40 PUSH1 0x20 SWAP3 PUSH1 0x4 CALLDATALOAD DUP2 MSTORE PUSH1 0xC DUP5 MSTORE KECCAK256 SLOAD AND PUSH1 0x40 MLOAD SWAP1 ISZERO ISZERO DUP2 MSTORE RETURN JUMPDEST POP CALLVALUE PUSH2 0x24B JUMPI PUSH1 0x20 CALLDATASIZE PUSH1 0x3 NOT ADD SLT PUSH2 0x24B JUMPI PUSH2 0x2B4 PUSH2 0x2286 JUMP JUMPDEST PUSH2 0x2BC PUSH2 0x2352 JUMP JUMPDEST PUSH1 0x1 PUSH1 0x1 PUSH1 0xA0 SHL SUB SWAP1 DUP2 AND SWAP1 CALLER DUP3 EQ PUSH2 0x30B JUMPI PUSH1 0x1 DUP1 SLOAD PUSH1 0x1 PUSH1 0x1 PUSH1 0xA0 SHL SUB NOT AND DUP4 OR SWAP1 SSTORE DUP3 SLOAD AND PUSH32 0xED8889F560326EB138920D842192F0EB3DD22B4F139C87A2C57538E05BAE1278 DUP4 DUP1 LOG3 DUP1 RETURN JUMPDEST PUSH1 0x40 MLOAD PUSH3 0x461BCD PUSH1 0xE5 SHL DUP2 MSTORE PUSH1 0x20 PUSH1 0x4 DUP3 ADD MSTORE PUSH1 0x17 PUSH1 0x24 DUP3 ADD MSTORE PUSH32 0x43616E6E6F74207472616E7366657220746F2073656C66000000000000000000 PUSH1 0x44 DUP3 ADD MSTORE PUSH1 0x64 SWAP1 REVERT JUMPDEST POP CALLVALUE PUSH2 0x24B JUMPI PUSH1 0x20 CALLDATASIZE PUSH1 0x3 NOT ADD SLT PUSH2 0x24B JUMPI PUSH1 0x20 SWAP1 PUSH1 0x40 SWAP1 PUSH1 0x1 PUSH1 0x1 PUSH1 0xA0 SHL SUB PUSH2 0x378 PUSH2 0x2286 JUMP JUMPDEST AND DUP2 MSTORE PUSH1 0xD DUP4 MSTORE KECCAK256 SLOAD PUSH1 0x40 MLOAD SWAP1 DUP2 MSTORE RETURN JUMPDEST POP CALLVALUE PUSH2 0x24B JUMPI DUP1 PUSH1 0x3 NOT CALLDATASIZE ADD SLT PUSH2 0x24B JUMPI PUSH1 0x20 PUSH1 0x40 MLOAD PUSH32 0x0 ISZERO ISZERO DUP2 MSTORE RETURN JUMPDEST POP CALLVALUE PUSH2 0x24B JUMPI DUP1 PUSH1 0x3 NOT CALLDATASIZE ADD SLT PUSH2 0x24B JUMPI PUSH1 0x20 PUSH1 0x40 MLOAD PUSH32 0x0 DUP2 MSTORE RETURN JUMPDEST POP CALLVALUE PUSH2 0x24B JUMPI PUSH1 0x40 CALLDATASIZE PUSH1 0x3 NOT ADD SLT PUSH2 0x24B JUMPI PUSH2 0x41B PUSH2 0x2236 JUMP JUMPDEST PUSH1 0xFF PUSH2 0x425 PUSH2 0x2246 JUMP JUMPDEST SWAP2 AND SWAP1 PUSH1 0x2 DUP3 LT ISZERO PUSH2 0x470 JUMPI PUSH1 0xFF AND SWAP2 PUSH1 0x6 DUP4 LT ISZERO PUSH2 0x45E JUMPI PUSH1 0x40 SWAP2 DUP2 MSTORE PUSH1 0x9 PUSH1 0x20 MSTORE KECCAK256 SWAP1 PUSH0 MSTORE PUSH1 0x20 MSTORE PUSH1 0x20 PUSH1 0x40 PUSH0 KECCAK256 SLOAD PUSH1 0x40 MLOAD SWAP1 DUP2 MSTORE RETURN JUMPDEST PUSH1 0x40 MLOAD PUSH4 0x778AA76B PUSH1 0xE0 SHL DUP2 MSTORE PUSH1 0x4 SWAP1 REVERT JUMPDEST PUSH1 0x40 MLOAD PUSH4 0xD694977F PUSH1 0xE0 SHL DUP2 MSTORE PUSH1 0x4 SWAP1 REVERT JUMPDEST POP CALLVALUE PUSH2 0x24B JUMPI PUSH1 0x60 CALLDATASIZE PUSH1 0x3 NOT ADD SLT PUSH2 0x24B JUMPI PUSH2 0x49C PUSH2 0x2286 JUMP JUMPDEST PUSH2 0x4A4 PUSH2 0x2246 JUMP JUMPDEST PUSH1 0x4 SLOAD SWAP1 SWAP3 SWAP1 PUSH1 0x1 PUSH1 0x1 PUSH1 0xA0 SHL SUB AND CALLER SUB PUSH2 0xA45 JUMPI PUSH2 0x4C1 PUSH2 0x23CA JUMP JUMPDEST PUSH1 0x2 PUSH1 0xFF DUP5 AND LT ISZERO PUSH2 0x470 JUMPI PUSH2 0x4D5 PUSH2 0x23EB JUMP JUMPDEST PUSH1 0x1 PUSH1 0x1 PUSH1 0xA0 SHL SUB DUP3 AND ISZERO PUSH2 0xA33 JUMPI PUSH1 0x44 CALLDATALOAD ISZERO PUSH2 0xA21 JUMPI PUSH1 0x44 CALLDATALOAD DUP2 MSTORE PUSH1 0xC PUSH1 0x20 MSTORE PUSH1 0xFF PUSH1 0x40 DUP3 KECCAK256 SLOAD AND PUSH2 0xA0F JUMPI PUSH1 0x1 PUSH1 0x1 PUSH1 0xA0 SHL SUB DUP3 AND DUP2 MSTORE PUSH1 0xD PUSH1 0x20 MSTORE PUSH1 0x40 DUP2 KECCAK256 SLOAD PUSH1 0x6 DUP1 SLOAD SWAP1 SWAP3 SWAP2 PUSH2 0x529 SWAP2 SWAP1 PUSH2 0x229C JUMP JUMPDEST NUMBER LT PUSH2 0x9FD JUMPI NUMBER DUP2 MSTORE PUSH1 0xE PUSH1 0x20 MSTORE PUSH1 0xFF PUSH1 0x40 DUP3 KECCAK256 SLOAD AND PUSH1 0xFF PUSH1 0x7 SLOAD AND GT ISZERO PUSH2 0x9EB JUMPI DUP1 SWAP4 DUP2 SWAP5 JUMPDEST PUSH1 0xFF DUP7 AND DUP5 DUP2 LT ISZERO PUSH2 0x58D JUMPI PUSH2 0x584 PUSH1 0xFF SWAP3 PUSH1 0x1 SWAP3 DUP5 DUP7 AND DUP8 MSTORE PUSH1 0x9 PUSH1 0x20 MSTORE PUSH1 0x40 DUP8 KECCAK256 SWAP1 PUSH0 MSTORE PUSH1 0x20 MSTORE PUSH1 0x40 PUSH0 KECCAK256 SLOAD SWAP1 PUSH2 0x229C JUMP JUMPDEST SWAP7 ADD AND SWAP5 PUSH2 0x550 JUMP JUMPDEST POP DUP5 SWAP1 ISZERO PUSH2 0x9D9 JUMPI PUSH1 0x44 CALLDATALOAD DUP4 MSTORE PUSH1 0xC PUSH1 0x20 MSTORE PUSH1 0x40 DUP4 KECCAK256 PUSH1 0x1 PUSH1 0xFF NOT DUP3 SLOAD AND OR SWAP1 SSTORE PUSH1 0x1 DUP1 PUSH1 0xA0 SHL SUB DUP2 AND DUP4 MSTORE PUSH1 0xD PUSH1 0x20 MSTORE NUMBER PUSH1 0x40 DUP5 KECCAK256 SSTORE NUMBER DUP4 MSTORE PUSH1 0xE PUSH1 0x20 MSTORE PUSH1 0x40 DUP4 KECCAK256 DUP1 SLOAD PUSH1 0xFF PUSH2 0x5DF DUP2 DUP4 AND PUSH2 0x2340 JUMP JUMPDEST AND SWAP1 PUSH1 0xFF NOT AND OR SWAP1 SSTORE PUSH1 0x5 SLOAD SWAP2 PUSH1 0x40 MLOAD SWAP3 PUSH1 0x20 DUP5 ADD DUP5 DUP2 LT PUSH1 0x1 PUSH1 0x1 PUSH1 0x40 SHL SUB DUP3 GT OR PUSH2 0x966 JUMPI PUSH1 0x40 MSTORE PUSH32 0x0 ISZERO ISZERO DUP5 MSTORE PUSH1 0x40 MLOAD SWAP4 PUSH4 0x125FA267 PUSH1 0xE3 SHL PUSH1 0x20 DUP7 ADD MSTORE MLOAD ISZERO ISZERO PUSH1 0x24 DUP6 ADD MSTORE PUSH1 0x24 DUP5 MSTORE DUP4 PUSH1 0x60 DUP2 ADD LT PUSH1 0x1 PUSH1 0x1 PUSH1 0x40 SHL SUB PUSH1 0x60 DUP7 ADD GT OR PUSH2 0x966 JUMPI PUSH1 0x60 DUP5 ADD PUSH2 0x120 DUP6 ADD LT PUSH1 0x1 PUSH1 0x1 PUSH1 0x40 SHL SUB PUSH2 0x120 DUP7 ADD GT OR PUSH2 0x966 JUMPI SWAP3 PUSH4 0xFFFFFFFF PUSH2 0x100 SWAP5 PUSH2 0x120 DUP4 ADD PUSH1 0x40 MSTORE PUSH32 0x0 PUSH1 0x60 DUP5 ADD MSTORE PUSH32 0x0 PUSH1 0x80 DUP5 ADD MSTORE PUSH2 0xFFFF DUP2 PUSH1 0xC0 SHR AND PUSH1 0xA0 DUP5 ADD MSTORE PUSH1 0xA0 SHR AND PUSH1 0xC0 DUP3 ADD MSTORE PUSH1 0x1 PUSH1 0xE0 DUP3 ADD MSTORE DUP1 DUP5 DUP2 ADD MSTORE PUSH1 0x1 DUP1 PUSH1 0xA0 SHL SUB PUSH1 0x2 SLOAD AND SWAP1 DUP6 PUSH1 0x40 MLOAD SWAP6 DUP7 SWAP3 PUSH4 0x4D8E1C2F PUSH1 0xE1 SHL DUP5 MSTORE PUSH1 0x20 PUSH1 0x4 DUP6 ADD MSTORE PUSH1 0x60 DUP2 ADD MLOAD PUSH1 0x24 DUP6 ADD MSTORE PUSH1 0x80 DUP2 ADD MLOAD PUSH1 0x44 DUP6 ADD MSTORE PUSH2 0xFFFF PUSH1 0xA0 DUP3 ADD MLOAD AND PUSH1 0x64 DUP6 ADD MSTORE PUSH4 0xFFFFFFFF PUSH1 0xC0 DUP3 ADD MLOAD AND PUSH1 0x84 DUP6 ADD MSTORE PUSH4 0xFFFFFFFF PUSH1 0xE0 DUP3 ADD MLOAD AND PUSH1 0xA4 DUP6 ADD MSTORE ADD MLOAD PUSH1 0xC0 PUSH1 0xC4 DUP5 ADD MSTORE DUP1 MLOAD SWAP1 DUP2 PUSH1 0xE4 DUP6 ADD MSTORE DUP3 JUMPDEST DUP3 DUP2 LT PUSH2 0x9BD JUMPI POP POP PUSH1 0x20 SWAP4 SWAP2 DUP4 SWAP2 DUP3 PUSH2 0x104 SWAP2 DUP4 DUP4 DUP3 DUP5 ADD ADD MSTORE PUSH1 0x1F DUP1 NOT SWAP2 ADD AND DUP2 ADD SUB ADD SWAP3 GAS CALL SWAP3 DUP4 ISZERO PUSH2 0x9B2 JUMPI DUP5 SWAP4 PUSH2 0x97A JUMPI JUMPDEST POP PUSH1 0x1 DUP1 PUSH1 0xA0 SHL SUB PUSH1 0x3 SLOAD AND SWAP4 PUSH1 0x40 MLOAD DUP1 PUSH2 0x140 DUP2 ADD LT PUSH1 0x1 PUSH1 0x1 PUSH1 0x40 SHL SUB PUSH2 0x140 DUP4 ADD GT OR PUSH2 0x966 JUMPI PUSH2 0x120 PUSH1 0x4 PUSH1 0x40 PUSH2 0x913 SWAP5 PUSH1 0x20 SWAP10 PUSH2 0x140 DUP7 ADD DUP4 MSTORE PUSH1 0x1 DUP1 PUSH1 0xA0 SHL SUB DUP10 AND DUP7 MSTORE PUSH1 0xFF DUP9 AND DUP12 DUP8 ADD MSTORE PUSH1 0x44 CALLDATALOAD DUP4 DUP8 ADD MSTORE PUSH1 0x1 PUSH1 0x1 PUSH1 0x40 SHL SUB TIMESTAMP AND PUSH1 0x60 DUP8 ADD MSTORE DUP2 PUSH1 0x80 DUP8 ADD MSTORE DUP2 PUSH1 0xA0 DUP8 ADD MSTORE PUSH1 0xC0 DUP7 ADD MSTORE DUP1 PUSH1 0xE0 DUP7 ADD MSTORE DUP1 PUSH2 0x100 DUP7 ADD MSTORE DUP1 DUP5 DUP7 ADD MSTORE DUP9 DUP2 MSTORE PUSH1 0xF DUP11 MSTORE KECCAK256 PUSH1 0x1 DUP1 PUSH1 0xA0 SHL SUB DUP5 MLOAD AND DUP2 SLOAD SWAP1 PUSH1 0xFF PUSH1 0xA0 SHL DUP12 DUP8 ADD MLOAD PUSH1 0xA0 SHL AND SWAP2 PUSH11 0xFFFFFFFFFFFFFFFFFFFFFF PUSH1 0xA8 SHL AND OR OR DUP2 SSTORE PUSH1 0x40 DUP5 ADD MLOAD PUSH1 0x1 DUP3 ADD SSTORE PUSH1 0x2 DUP2 ADD PUSH1 0x1 PUSH1 0x1 PUSH1 0x40 SHL SUB PUSH1 0x60 DUP7 ADD MLOAD AND DUP2 SLOAD SWAP1 PUSH9 0xFF0000000000000000 PUSH1 0x80 DUP9 ADD MLOAD ISZERO ISZERO PUSH1 0x40 SHL AND PUSH1 0xFF PUSH1 0x48 SHL PUSH1 0xA0 DUP10 ADD MLOAD ISZERO ISZERO PUSH1 0x48 SHL AND SWAP2 PUSH1 0x1 PUSH1 0x50 SHL PUSH1 0x1 PUSH1 0xF0 SHL SUB PUSH1 0xC0 DUP11 ADD MLOAD PUSH1 0x50 SHL AND SWAP4 PUSH2 0xFFFF PUSH1 0xF0 SHL AND OR OR OR OR SWAP1 SSTORE PUSH1 0xE0 DUP5 ADD MLOAD PUSH1 0x3 DUP3 ADD SSTORE ADD SWAP2 PUSH1 0xFF PUSH2 0x100 DUP3 ADD MLOAD AND PUSH1 0xFF NOT DUP5 SLOAD AND OR DUP4 SSTORE ADD MLOAD ISZERO ISZERO PUSH2 0xFF00 DUP3 SLOAD SWAP2 ISZERO ISZERO PUSH1 0x8 SHL AND SWAP1 PUSH2 0xFF00 NOT AND OR SWAP1 SSTORE JUMP JUMPDEST DUP3 PUSH32 0xFFD996438DD23739C6097C4BE73BB8E71C08FBCF9D6A5772E51E968641CD9E79 DUP6 PUSH1 0xFF PUSH1 0x40 MLOAD SWAP5 PUSH1 0x44 CALLDATALOAD DUP7 MSTORE AND SWAP5 PUSH1 0x1 DUP1 PUSH1 0xA0 SHL SUB AND SWAP4 LOG4 PUSH1 0x1 PUSH0 DUP1 MLOAD PUSH1 0x20 PUSH2 0x2561 DUP4 CODECOPY DUP2 MLOAD SWAP2 MSTORE SSTORE PUSH1 0x40 MLOAD SWAP1 DUP2 MSTORE RETURN JUMPDEST PUSH4 0x4E487B71 PUSH1 0xE0 SHL PUSH0 MSTORE PUSH1 0x41 PUSH1 0x4 MSTORE PUSH1 0x24 PUSH0 REVERT JUMPDEST SWAP1 SWAP3 POP PUSH1 0x20 DUP2 RETURNDATASIZE PUSH1 0x20 GT PUSH2 0x9AA JUMPI JUMPDEST DUP2 PUSH2 0x996 PUSH1 0x20 SWAP4 DUP4 PUSH2 0x22FB JUMP JUMPDEST DUP2 ADD SUB SLT PUSH2 0x9A6 JUMPI MLOAD SWAP2 DUP5 PUSH2 0x7B1 JUMP JUMPDEST DUP4 DUP1 REVERT JUMPDEST RETURNDATASIZE SWAP2 POP PUSH2 0x989 JUMP JUMPDEST PUSH1 0x40 MLOAD RETURNDATASIZE DUP7 DUP3 RETURNDATACOPY RETURNDATASIZE SWAP1 REVERT JUMPDEST PUSH1 0x20 DUP2 DUP4 ADD DUP2 ADD MLOAD PUSH2 0x104 DUP12 DUP5 ADD ADD MSTORE DUP10 SWAP6 POP DUP11 SWAP5 POP ADD PUSH2 0x77A JUMP JUMPDEST PUSH1 0x40 MLOAD PUSH4 0x5CE024D PUSH1 0xE5 SHL DUP2 MSTORE PUSH1 0x4 SWAP1 REVERT JUMPDEST PUSH1 0x40 MLOAD PUSH4 0x4848E443 PUSH1 0xE0 SHL DUP2 MSTORE PUSH1 0x4 SWAP1 REVERT JUMPDEST PUSH1 0x40 MLOAD PUSH4 0xDE30C23 PUSH1 0xE2 SHL DUP2 MSTORE PUSH1 0x4 SWAP1 REVERT JUMPDEST PUSH1 0x40 MLOAD PUSH4 0xE7080823 PUSH1 0xE0 SHL DUP2 MSTORE PUSH1 0x4 SWAP1 REVERT JUMPDEST PUSH1 0x40 MLOAD PUSH4 0x5002A1F5 PUSH1 0xE1 SHL DUP2 MSTORE PUSH1 0x4 SWAP1 REVERT JUMPDEST PUSH1 0x40 MLOAD PUSH4 0xD92E233D PUSH1 0xE0 SHL DUP2 MSTORE PUSH1 0x4 SWAP1 REVERT JUMPDEST PUSH1 0x40 MLOAD PUSH4 0xA31C3DD PUSH1 0xE4 SHL DUP2 MSTORE PUSH1 0x4 SWAP1 REVERT JUMPDEST POP CALLVALUE PUSH2 0x24B JUMPI PUSH1 0x60 CALLDATASIZE PUSH1 0x3 NOT ADD SLT PUSH2 0x24B JUMPI PUSH2 0xA71 PUSH2 0x2236 JUMP JUMPDEST PUSH1 0x1 PUSH1 0x1 PUSH1 0xA0 SHL SUB PUSH1 0x44 CALLDATALOAD DUP2 DUP2 AND SWAP3 PUSH1 0x24 CALLDATALOAD SWAP3 DUP5 DUP4 SUB PUSH2 0xBE8 JUMPI PUSH2 0xA93 PUSH2 0x2352 JUMP JUMPDEST PUSH1 0xFF DUP3 AND SWAP3 PUSH1 0x2 DUP5 LT ISZERO PUSH2 0x470 JUMPI PUSH2 0xAA9 PUSH2 0x23EB JUMP JUMPDEST DUP6 ISZERO PUSH2 0xA33 JUMPI DUP4 DUP8 MSTORE PUSH1 0x20 PUSH1 0x8 DUP2 MSTORE PUSH1 0x40 DUP9 KECCAK256 DUP7 DUP10 MSTORE DUP2 MSTORE PUSH1 0xFF PUSH1 0x40 DUP10 KECCAK256 SLOAD PUSH1 0x8 SHR AND ISZERO PUSH2 0xBD6 JUMPI PUSH2 0xAF5 DUP7 DUP10 SWAP6 DUP8 DUP8 MSTORE PUSH1 0x8 DUP5 MSTORE PUSH1 0x40 DUP8 KECCAK256 DUP3 DUP9 MSTORE DUP5 MSTORE PUSH1 0xFF PUSH1 0x40 DUP9 KECCAK256 SLOAD AND SWAP1 PUSH2 0x23A3 JUMP JUMPDEST DUP5 DUP5 MSTORE PUSH1 0x8 DUP2 MSTORE PUSH1 0x40 DUP5 KECCAK256 SWAP1 DUP7 DUP6 MSTORE MSTORE DUP3 PUSH1 0x40 DUP2 KECCAK256 SSTORE DUP2 PUSH32 0x0 AND SWAP2 PUSH1 0x3 SLOAD AND DUP3 EXTCODESIZE ISZERO PUSH2 0x9A6 JUMPI PUSH1 0x40 MLOAD PUSH4 0x21421707 PUSH1 0xE1 SHL DUP2 MSTORE PUSH1 0x1 PUSH1 0x1 PUSH1 0xA0 SHL SUB SWAP2 DUP3 AND PUSH1 0x4 DUP3 ADD MSTORE SWAP2 AND PUSH1 0x24 DUP3 ADD MSTORE PUSH1 0x44 DUP2 ADD DUP6 SWAP1 MSTORE SWAP1 DUP3 SWAP1 DUP3 SWAP1 PUSH1 0x64 SWAP1 DUP3 SWAP1 DUP5 SWAP1 GAS CALL DUP1 ISZERO PUSH2 0xBCB JUMPI PUSH2 0xBB7 JUMPI JUMPDEST POP DUP1 PUSH32 0x77BAC95A6200E13299ACE2B8162C0CDEADBAEA42797662A5865192D8EAF77914 SWAP2 LOG4 PUSH1 0x1 PUSH0 DUP1 MLOAD PUSH1 0x20 PUSH2 0x2561 DUP4 CODECOPY DUP2 MLOAD SWAP2 MSTORE SSTORE DUP1 RETURN JUMPDEST PUSH2 0xBC0 SWAP1 PUSH2 0x22CD JUMP JUMPDEST PUSH2 0x9A6 JUMPI DUP4 PUSH0 PUSH2 0xB7E JUMP JUMPDEST PUSH1 0x40 MLOAD RETURNDATASIZE DUP5 DUP3 RETURNDATACOPY RETURNDATASIZE SWAP1 REVERT JUMPDEST PUSH1 0x40 MLOAD PUSH4 0x4792011 PUSH1 0xE4 SHL DUP2 MSTORE PUSH1 0x4 SWAP1 REVERT JUMPDEST PUSH0 DUP1 REVERT JUMPDEST POP CALLVALUE PUSH2 0x24B JUMPI DUP1 PUSH1 0x3 NOT CALLDATASIZE ADD SLT PUSH2 0x24B JUMPI PUSH1 0x20 PUSH1 0x40 MLOAD PUSH1 0x6 DUP2 MSTORE RETURN JUMPDEST POP CALLVALUE PUSH2 0x24B JUMPI PUSH1 0x40 CALLDATASIZE PUSH1 0x3 NOT ADD SLT PUSH2 0x24B JUMPI PUSH1 0x40 DUP1 SWAP2 PUSH1 0xFF PUSH2 0xC28 PUSH2 0x2236 JUMP JUMPDEST AND DUP2 MSTORE PUSH1 0x8 PUSH1 0x20 MSTORE DUP2 DUP2 KECCAK256 PUSH1 0x24 CALLDATALOAD DUP3 MSTORE PUSH1 0x20 MSTORE KECCAK256 SLOAD PUSH1 0xFF DUP3 MLOAD SWAP2 DUP2 DUP2 AND DUP4 MSTORE PUSH1 0x8 SHR AND ISZERO ISZERO PUSH1 0x20 DUP3 ADD MSTORE RETURN JUMPDEST POP CALLVALUE PUSH2 0x24B JUMPI DUP1 PUSH1 0x3 NOT CALLDATASIZE ADD SLT PUSH2 0x24B JUMPI PUSH1 0x20 PUSH2 0xFFFF PUSH1 0x5 SLOAD PUSH1 0xC0 SHR AND PUSH1 0x40 MLOAD SWAP1 DUP2 MSTORE RETURN JUMPDEST POP CALLVALUE PUSH2 0x24B JUMPI PUSH1 0x40 CALLDATASIZE PUSH1 0x3 NOT ADD SLT PUSH2 0x24B JUMPI PUSH1 0x1 PUSH1 0x1 PUSH1 0xA0 SHL SUB PUSH1 0x4 CALLDATALOAD PUSH1 0x24 CALLDATALOAD DUP3 DUP2 AND DUP1 DUP3 SUB PUSH2 0xBE8 JUMPI PUSH2 0xCAB PUSH2 0x23CA JUMP JUMPDEST PUSH2 0xCB3 PUSH2 0x23EB JUMP JUMPDEST DUP3 DUP6 MSTORE PUSH1 0xF PUSH1 0x20 MSTORE PUSH1 0x40 DUP6 KECCAK256 SWAP4 PUSH1 0x4 DUP6 ADD SWAP2 DUP3 SLOAD SWAP4 PUSH1 0xFF DUP6 PUSH1 0x8 SHR AND ISZERO PUSH2 0xE0E JUMPI DUP3 DUP8 SLOAD AND SWAP2 DUP3 CALLER EQ ISZERO DUP1 PUSH2 0xE01 JUMPI JUMPDEST PUSH2 0xDF0 JUMPI PUSH2 0xDE9 JUMPI POP JUMPDEST DUP2 DUP2 AND SWAP6 DUP7 ISZERO PUSH2 0xA33 JUMPI PUSH1 0x2 DUP2 DUP10 SWAP6 PUSH1 0x3 DUP7 SWAP5 ADD SLOAD SWAP8 PUSH2 0xFF00 NOT AND SWAP1 SSTORE ADD SLOAD PUSH1 0x50 SHR AND DUP1 ISZERO PUSH0 EQ PUSH2 0xDE3 JUMPI POP DUP2 PUSH1 0x3 SLOAD AND SWAP2 JUMPDEST PUSH32 0x0 AND SWAP2 DUP3 EXTCODESIZE ISZERO PUSH2 0x9A6 JUMPI PUSH1 0x40 MLOAD PUSH4 0x21421707 PUSH1 0xE1 SHL DUP2 MSTORE PUSH1 0x1 PUSH1 0x1 PUSH1 0xA0 SHL SUB SWAP2 DUP3 AND PUSH1 0x4 DUP3 ADD MSTORE SWAP2 AND PUSH1 0x24 DUP3 ADD MSTORE PUSH1 0x44 DUP2 ADD DUP5 SWAP1 MSTORE SWAP1 DUP3 SWAP1 DUP3 SWAP1 PUSH1 0x64 SWAP1 DUP3 SWAP1 DUP5 SWAP1 GAS CALL DUP1 ISZERO PUSH2 0xBCB JUMPI PUSH2 0xDCF JUMPI JUMPDEST POP POP PUSH1 0x20 PUSH32 0x4E9C4100E47B501014542956CA7825D68D91613E346BF65352A306D551ABAAC5 SWAP2 PUSH1 0x40 MLOAD SWAP1 DUP2 MSTORE LOG3 PUSH1 0x1 PUSH0 DUP1 MLOAD PUSH1 0x20 PUSH2 0x2561 DUP4 CODECOPY DUP2 MLOAD SWAP2 MSTORE SSTORE DUP1 RETURN JUMPDEST PUSH2 0xDD8 SWAP1 PUSH2 0x22CD JUMP JUMPDEST PUSH2 0x9A6 JUMPI DUP4 PUSH0 PUSH2 0xD8E JUMP JUMPDEST SWAP2 PUSH2 0xD20 JUMP JUMPDEST SWAP1 POP PUSH2 0xCED JUMP JUMPDEST PUSH1 0x40 MLOAD PUSH3 0xC2E329 PUSH1 0xE2 SHL DUP2 MSTORE PUSH1 0x4 SWAP1 REVERT JUMPDEST POP DUP4 DUP10 SLOAD AND CALLER EQ ISZERO PUSH2 0xCE3 JUMP JUMPDEST PUSH1 0x40 MLOAD PUSH4 0x12D37EE5 PUSH1 0xE3 SHL DUP2 MSTORE PUSH1 0x4 SWAP1 REVERT JUMPDEST POP CALLVALUE PUSH2 0x24B JUMPI DUP1 PUSH1 0x3 NOT CALLDATASIZE ADD SLT PUSH2 0x24B JUMPI PUSH1 0x2 SLOAD PUSH1 0x40 MLOAD PUSH1 0x1 PUSH1 0x1 PUSH1 0xA0 SHL SUB SWAP1 SWAP2 AND DUP2 MSTORE PUSH1 0x20 SWAP1 RETURN JUMPDEST POP CALLVALUE PUSH2 0x24B JUMPI PUSH1 0x20 CALLDATASIZE PUSH1 0x3 NOT ADD SLT PUSH2 0x24B JUMPI PUSH2 0xE63 PUSH2 0x2286 JUMP JUMPDEST DUP2 SLOAD PUSH1 0x1 PUSH1 0x1 PUSH1 0xA0 SHL SUB SWAP2 SWAP1 DUP3 AND CALLER DUP2 EQ ISZERO DUP1 PUSH2 0xEF6 JUMPI JUMPDEST PUSH2 0xECE JUMPI POP AND DUP1 ISZERO PUSH2 0xA33 JUMPI PUSH1 0x20 DUP2 PUSH32 0xD1A6A14209A385A964D036E404CB5CFB71F4000CDB03C9366292430787261BE6 SWAP3 PUSH12 0xFFFFFFFFFFFFFFFFFFFFFFFF PUSH1 0xA0 SHL PUSH1 0x2 SLOAD AND OR PUSH1 0x2 SSTORE PUSH1 0x40 MLOAD SWAP1 DUP2 MSTORE LOG1 DUP1 RETURN JUMPDEST PUSH1 0x64 SWAP1 DUP4 PUSH1 0x2 SLOAD AND PUSH1 0x40 MLOAD SWAP2 PUSH4 0x61DB9C1 PUSH1 0xE0 SHL DUP4 MSTORE CALLER PUSH1 0x4 DUP5 ADD MSTORE PUSH1 0x24 DUP4 ADD MSTORE PUSH1 0x44 DUP3 ADD MSTORE REVERT JUMPDEST POP DUP3 PUSH1 0x2 SLOAD AND CALLER EQ ISZERO PUSH2 0xE7B JUMP JUMPDEST POP CALLVALUE PUSH2 0x24B JUMPI DUP1 PUSH1 0x3 NOT CALLDATASIZE ADD SLT PUSH2 0x24B JUMPI SLOAD PUSH1 0x40 MLOAD PUSH1 0x1 PUSH1 0x1 PUSH1 0xA0 SHL SUB SWAP1 SWAP2 AND DUP2 MSTORE PUSH1 0x20 SWAP1 RETURN JUMPDEST POP CALLVALUE PUSH2 0x24B JUMPI DUP1 PUSH1 0x3 NOT CALLDATASIZE ADD SLT PUSH2 0x24B JUMPI PUSH1 0x20 PUSH1 0x40 MLOAD PUSH32 0x0 DUP2 MSTORE RETURN JUMPDEST POP CALLVALUE PUSH2 0x24B JUMPI DUP1 PUSH1 0x3 NOT CALLDATASIZE ADD SLT PUSH2 0x24B JUMPI PUSH1 0x40 MLOAD PUSH32 0x0 PUSH1 0x1 PUSH1 0x1 PUSH1 0xA0 SHL SUB AND DUP2 MSTORE PUSH1 0x20 SWAP1 RETURN JUMPDEST POP CALLVALUE PUSH2 0x24B JUMPI DUP1 PUSH1 0x3 NOT CALLDATASIZE ADD SLT PUSH2 0x24B JUMPI PUSH1 0x20 PUSH1 0x6 SLOAD PUSH1 0x40 MLOAD SWAP1 DUP2 MSTORE RETURN JUMPDEST POP CALLVALUE PUSH2 0x24B JUMPI PUSH1 0x40 CALLDATASIZE PUSH1 0x3 NOT ADD SLT PUSH2 0x24B JUMPI PUSH32 0x3FA9C0902C04787995E15507B0E0AB98B30C606EE451ED0E0701BC3B1D9D5FAB PUSH1 0x40 PUSH1 0x4 CALLDATALOAD PUSH1 0xFF PUSH2 0x100B PUSH2 0x2246 JUMP JUMPDEST PUSH2 0x1013 PUSH2 0x2352 JUMP JUMPDEST DUP3 PUSH1 0x6 SSTORE AND DUP1 PUSH1 0xFF NOT PUSH1 0x7 SLOAD AND OR PUSH1 0x7 SSTORE DUP3 MLOAD SWAP2 DUP3 MSTORE PUSH1 0x20 DUP3 ADD MSTORE LOG1 DUP1 RETURN JUMPDEST POP CALLVALUE PUSH2 0x24B JUMPI DUP1 PUSH1 0x3 NOT CALLDATASIZE ADD SLT PUSH2 0x24B JUMPI PUSH1 0x1 SLOAD PUSH1 0x1 PUSH1 0x1 PUSH1 0xA0 SHL SUB DUP1 DUP3 AND CALLER SUB PUSH2 0x1098 JUMPI DUP3 SLOAD PUSH1 0x1 PUSH1 0x1 PUSH1 0xA0 SHL SUB NOT DUP1 DUP3 AND CALLER SWAP1 DUP2 OR DUP7 SSTORE SWAP4 AND PUSH1 0x1 SSTORE AND PUSH32 0x8BE0079C531659141344CD1FD0A4F28419497F9722A3DAAFE3B4186F6B6457E0 DUP4 DUP1 LOG3 DUP1 RETURN JUMPDEST PUSH1 0x40 MLOAD PUSH3 0x461BCD PUSH1 0xE5 SHL DUP2 MSTORE PUSH1 0x20 PUSH1 0x4 DUP3 ADD MSTORE PUSH1 0x16 PUSH1 0x24 DUP3 ADD MSTORE PUSH22 0x26BAB9BA10313290383937B837B9B2B21037BBB732B9 PUSH1 0x51 SHL PUSH1 0x44 DUP3 ADD MSTORE PUSH1 0x64 SWAP1 REVERT JUMPDEST POP CALLVALUE PUSH2 0x24B JUMPI PUSH1 0x20 SWAP1 DUP2 PUSH1 0x3 NOT CALLDATASIZE ADD SLT PUSH2 0x24B JUMPI PUSH1 0xFF PUSH2 0x10F4 PUSH2 0x2236 JUMP JUMPDEST PUSH1 0xC0 PUSH1 0x40 MLOAD PUSH2 0x1102 DUP2 PUSH2 0x22E0 JUMP JUMPDEST CALLDATASIZE SWAP1 CALLDATACOPY AND PUSH1 0x2 DUP2 LT ISZERO PUSH2 0x470 JUMPI DUP2 SWAP3 SWAP2 MSTORE PUSH1 0xB DUP2 MSTORE PUSH1 0x40 DUP3 KECCAK256 SWAP1 PUSH1 0x40 MLOAD SWAP2 SLOAD SWAP2 PUSH2 0xFFFF DUP4 DUP2 DUP1 SWAP6 AND DUP4 MSTORE DUP2 DUP2 PUSH1 0x10 SHR AND DUP5 DUP5 ADD MSTORE DUP2 DUP2 DUP6 SHR AND PUSH1 0x40 DUP5 ADD MSTORE DUP2 DUP2 PUSH1 0x30 SHR AND PUSH1 0x60 DUP5 ADD MSTORE DUP2 DUP2 PUSH1 0x40 SHR AND PUSH1 0x80 DUP5 ADD MSTORE PUSH1 0x50 SHR AND PUSH1 0xA0 DUP3 ADD MSTORE PUSH2 0x1168 DUP2 PUSH2 0x22E0 JUMP JUMPDEST PUSH1 0x40 MLOAD SWAP4 SWAP1 DUP5 JUMPDEST PUSH1 0x6 DUP4 LT PUSH2 0x117C JUMPI PUSH1 0xC0 DUP7 RETURN JUMPDEST DUP4 DUP1 PUSH1 0x1 SWAP3 DUP8 DUP6 MLOAD AND DUP2 MSTORE ADD SWAP3 ADD SWAP3 ADD SWAP2 SWAP1 PUSH2 0x116F JUMP JUMPDEST POP CALLVALUE PUSH2 0x24B JUMPI PUSH1 0x20 CALLDATASIZE PUSH1 0x3 NOT ADD SLT PUSH2 0x24B JUMPI PUSH1 0xFF PUSH1 0x40 PUSH1 0x20 SWAP3 PUSH1 0x4 CALLDATALOAD DUP2 MSTORE PUSH1 0x11 DUP5 MSTORE KECCAK256 SLOAD AND PUSH1 0x40 MLOAD SWAP1 ISZERO ISZERO DUP2 MSTORE RETURN JUMPDEST POP CALLVALUE PUSH2 0x24B JUMPI DUP1 PUSH1 0x3 NOT CALLDATASIZE ADD SLT PUSH2 0x24B JUMPI PUSH1 0x20 PUSH1 0x40 MLOAD PUSH1 0x2 DUP2 MSTORE RETURN JUMPDEST POP CALLVALUE PUSH2 0x24B JUMPI PUSH1 0x20 CALLDATASIZE PUSH1 0x3 NOT ADD SLT PUSH2 0x24B JUMPI PUSH2 0x11F8 PUSH2 0x2286 JUMP JUMPDEST PUSH2 0x1200 PUSH2 0x2352 JUMP JUMPDEST PUSH1 0x1 PUSH1 0x1 PUSH1 0xA0 SHL SUB SWAP1 DUP2 AND SWAP1 DUP2 ISZERO PUSH2 0xA33 JUMPI DUP2 PUSH1 0x3 SLOAD SWAP2 DUP3 AND PUSH32 0x16E2ACCAD9173ABFF57B295B56993EC5D86B3CBF791FEA02F02A6616463754EA DUP6 DUP1 LOG3 PUSH1 0x1 PUSH1 0x1 PUSH1 0xA0 SHL SUB NOT AND OR PUSH1 0x3 SSTORE DUP1 RETURN JUMPDEST POP CALLVALUE PUSH2 0x24B JUMPI DUP1 PUSH1 0x3 NOT CALLDATASIZE ADD SLT PUSH2 0x24B JUMPI PUSH1 0x4 SLOAD PUSH1 0x40 MLOAD PUSH1 0x1 PUSH1 0x1 PUSH1 0xA0 SHL SUB SWAP1 SWAP2 AND DUP2 MSTORE PUSH1 0x20 SWAP1 RETURN JUMPDEST POP CALLVALUE PUSH2 0x24B JUMPI DUP1 PUSH1 0x3 NOT CALLDATASIZE ADD SLT PUSH2 0x24B JUMPI PUSH1 0x20 PUSH1 0xFF PUSH1 0x2 SLOAD PUSH1 0xA0 SHR AND PUSH1 0x40 MLOAD SWAP1 ISZERO ISZERO DUP2 MSTORE RETURN JUMPDEST POP CALLVALUE PUSH2 0x24B JUMPI PUSH1 0x40 CALLDATASIZE PUSH1 0x3 NOT ADD SLT PUSH2 0x24B JUMPI PUSH1 0x4 CALLDATALOAD PUSH4 0xFFFFFFFF DUP2 AND DUP1 DUP3 SUB PUSH2 0x1382 JUMPI PUSH1 0x24 CALLDATALOAD SWAP1 PUSH2 0xFFFF DUP3 AND DUP1 DUP4 SUB PUSH2 0xBE8 JUMPI PUSH2 0x12D8 PUSH2 0x2352 JUMP JUMPDEST PUSH3 0x3D090 DUP3 LT DUP1 ISZERO PUSH2 0x1376 JUMPI JUMPDEST PUSH2 0x135A JUMPI PUSH1 0x3 DUP2 LT DUP1 ISZERO PUSH2 0x136C JUMPI JUMPDEST PUSH2 0x135A JUMPI PUSH32 0xC200DA6168C2CB10C35E700DF518F666B8B23AAB8715E5FE688AE6D89BB1881B SWAP4 PUSH1 0x40 SWAP4 PUSH1 0x5 SLOAD SWAP1 PUSH2 0xFFFF PUSH1 0xC0 SHL SWAP1 PUSH1 0xC0 SHL AND SWAP2 PUSH4 0xFFFFFFFF PUSH1 0xA0 SHL SWAP1 PUSH1 0xA0 SHL AND SWAP1 PUSH6 0xFFFFFFFFFFFF PUSH1 0xA0 SHL NOT AND OR OR PUSH1 0x5 SSTORE DUP3 MLOAD SWAP2 DUP3 MSTORE PUSH1 0x20 DUP3 ADD MSTORE LOG1 DUP1 RETURN JUMPDEST PUSH1 0x40 MLOAD PUSH4 0x39C18521 PUSH1 0xE0 SHL DUP2 MSTORE PUSH1 0x4 SWAP1 REVERT JUMPDEST POP PUSH1 0xC8 DUP2 GT PUSH2 0x12F4 JUMP JUMPDEST POP PUSH3 0x2625A0 DUP3 GT PUSH2 0x12E5 JUMP JUMPDEST DUP3 DUP1 REVERT JUMPDEST POP CALLVALUE PUSH2 0x24B JUMPI DUP1 PUSH1 0x3 NOT CALLDATASIZE ADD SLT PUSH2 0x24B JUMPI DUP1 SLOAD CALLER PUSH1 0x1 PUSH1 0x1 PUSH1 0xA0 SHL SUB SWAP2 DUP3 AND EQ ISZERO SWAP1 DUP2 PUSH2 0x13FD JUMPI JUMPDEST POP PUSH2 0xDF0 JUMPI PUSH2 0x13BB PUSH2 0x23CA JUMP JUMPDEST PUSH1 0x2 DUP1 SLOAD PUSH1 0xFF PUSH1 0xA0 SHL NOT AND PUSH1 0x1 PUSH1 0xA0 SHL OR SWAP1 SSTORE PUSH1 0x40 MLOAD CALLER DUP2 MSTORE PUSH32 0x62E78CEA01BEE320CD4E420270B5EA74000D11B0C9F74754EBDBFC544B05A258 SWAP1 PUSH1 0x20 SWAP1 LOG1 DUP1 RETURN JUMPDEST SWAP1 POP PUSH1 0x5 SLOAD AND CALLER EQ ISZERO PUSH0 PUSH2 0x13AE JUMP JUMPDEST POP CALLVALUE PUSH2 0x24B JUMPI PUSH1 0x20 CALLDATASIZE PUSH1 0x3 NOT ADD SLT PUSH2 0x24B JUMPI PUSH1 0x4 CALLDATALOAD PUSH2 0x1429 PUSH2 0x2352 JUMP JUMPDEST DUP1 DUP3 MSTORE PUSH1 0xF PUSH1 0x20 MSTORE PUSH1 0x40 DUP3 KECCAK256 DUP1 SLOAD PUSH1 0x1 PUSH1 0x1 PUSH1 0xA0 SHL SUB DUP2 AND SWAP3 SWAP2 DUP4 ISZERO DUP1 ISZERO PUSH2 0x14D3 JUMPI JUMPDEST DUP1 ISZERO PUSH2 0x14C2 JUMPI JUMPDEST PUSH2 0x14B0 JUMPI PUSH32 0xC374EF6DBE6C46419E08970C387A25A0F74326D611C4F880A42DA3A6D246D358 SWAP2 PUSH1 0xFF PUSH1 0x1 DUP4 PUSH1 0x2 PUSH1 0x40 SWAP6 ADD PUSH10 0x1000000000000000000 PUSH1 0xFF PUSH1 0x48 SHL NOT DUP3 SLOAD AND OR SWAP1 SSTORE ADD SLOAD SWAP2 DUP4 MLOAD SWAP3 DUP4 MSTORE PUSH1 0xA0 SHR AND PUSH1 0x20 DUP3 ADD MSTORE LOG3 DUP1 RETURN JUMPDEST PUSH1 0x40 MLOAD PUSH4 0xF41814A7 PUSH1 0xE0 SHL DUP2 MSTORE PUSH1 0x4 SWAP1 REVERT JUMPDEST POP PUSH1 0xFF PUSH1 0x2 DUP3 ADD SLOAD PUSH1 0x48 SHR AND PUSH2 0x1453 JUMP JUMPDEST POP PUSH1 0xFF PUSH1 0x2 DUP3 ADD SLOAD PUSH1 0x40 SHR AND PUSH2 0x144C JUMP JUMPDEST POP CALLVALUE PUSH2 0x24B JUMPI DUP1 PUSH1 0x3 NOT CALLDATASIZE ADD SLT PUSH2 0x24B JUMPI PUSH1 0x20 PUSH1 0xFF PUSH1 0x7 SLOAD AND PUSH1 0x40 MLOAD SWAP1 DUP2 MSTORE RETURN JUMPDEST POP CALLVALUE PUSH2 0x24B JUMPI PUSH1 0x20 CALLDATASIZE PUSH1 0x3 NOT ADD SLT PUSH2 0x24B JUMPI PUSH2 0x151F PUSH2 0x2286 JUMP JUMPDEST PUSH2 0x1527 PUSH2 0x2352 JUMP JUMPDEST PUSH1 0x1 PUSH1 0x1 PUSH1 0xA0 SHL SUB SWAP1 DUP2 AND SWAP1 DUP2 ISZERO PUSH2 0xA33 JUMPI DUP2 PUSH1 0x5 SLOAD SWAP2 DUP3 AND PUSH32 0xECD28F4C275F6F16F8579EC28C3E7C3658B59088D30DE9DDD62B8CA1977EF6EE DUP6 DUP1 LOG3 PUSH1 0x1 PUSH1 0x1 PUSH1 0xA0 SHL SUB NOT AND OR PUSH1 0x5 SSTORE DUP1 RETURN JUMPDEST POP CALLVALUE PUSH2 0x24B JUMPI DUP1 PUSH1 0x3 NOT CALLDATASIZE ADD SLT PUSH2 0x24B JUMPI PUSH1 0x3 SLOAD PUSH1 0x40 MLOAD PUSH4 0xE985E9C5 PUSH1 0xE0 SHL DUP2 MSTORE PUSH1 0x1 PUSH1 0x1 PUSH1 0xA0 SHL SUB SWAP2 DUP3 AND PUSH1 0x4 DUP3 ADD MSTORE ADDRESS PUSH1 0x24 DUP3 ADD MSTORE SWAP1 PUSH1 0x20 SWAP1 DUP3 SWAP1 PUSH1 0x44 SWAP1 DUP3 SWAP1 PUSH32 0x0 AND GAS STATICCALL SWAP1 DUP2 ISZERO PUSH2 0xBCB JUMPI DUP3 SWAP2 PUSH2 0x15F6 JUMPI JUMPDEST PUSH1 0x20 DUP3 PUSH1 0x40 MLOAD SWAP1 ISZERO ISZERO DUP2 MSTORE RETURN JUMPDEST SWAP1 POP PUSH1 0x20 DUP2 RETURNDATASIZE PUSH1 0x20 GT PUSH2 0x1631 JUMPI JUMPDEST DUP2 PUSH2 0x1611 PUSH1 0x20 SWAP4 DUP4 PUSH2 0x22FB JUMP JUMPDEST DUP2 ADD SUB SLT PUSH2 0x162D JUMPI MLOAD DUP1 ISZERO ISZERO DUP2 SUB PUSH2 0x162D JUMPI PUSH1 0x20 SWAP2 POP PUSH0 PUSH2 0x15E9 JUMP JUMPDEST POP DUP1 REVERT JUMPDEST RETURNDATASIZE SWAP2 POP PUSH2 0x1604 JUMP JUMPDEST POP CALLVALUE PUSH2 0x24B JUMPI DUP1 PUSH1 0x3 NOT CALLDATASIZE ADD SLT PUSH2 0x24B JUMPI PUSH2 0x1652 PUSH2 0x2352 JUMP JUMPDEST PUSH1 0x2 SLOAD PUSH1 0xFF DUP2 PUSH1 0xA0 SHR AND ISZERO PUSH2 0x169A JUMPI PUSH1 0xFF PUSH1 0xA0 SHL NOT AND PUSH1 0x2 SSTORE PUSH1 0x40 MLOAD CALLER DUP2 MSTORE PUSH32 0x5DB9EE0A495BF2E6FF9C91A7834C1BA4FDD244A5E8AA4E537BD38AEAE4B073AA SWAP1 PUSH1 0x20 SWAP1 LOG1 DUP1 RETURN JUMPDEST PUSH1 0x40 MLOAD PUSH4 0x8DFC202B PUSH1 0xE0 SHL DUP2 MSTORE PUSH1 0x4 SWAP1 REVERT JUMPDEST POP CALLVALUE PUSH2 0x24B JUMPI PUSH1 0x20 CALLDATASIZE PUSH1 0x3 NOT ADD SLT PUSH2 0x24B JUMPI PUSH2 0x16C6 PUSH2 0x2286 JUMP JUMPDEST PUSH2 0x16CE PUSH2 0x2352 JUMP JUMPDEST PUSH1 0x1 PUSH1 0x1 PUSH1 0xA0 SHL SUB SWAP1 DUP2 AND SWAP1 DUP2 ISZERO PUSH2 0xA33 JUMPI DUP2 PUSH1 0x4 SLOAD SWAP2 DUP3 AND PUSH32 0x60C5293782C70B9080E83E261790B280285209D93C36A68814B4C9A150F047DE DUP6 DUP1 LOG3 PUSH1 0x1 PUSH1 0x1 PUSH1 0xA0 SHL SUB NOT AND OR PUSH1 0x4 SSTORE DUP1 RETURN JUMPDEST POP CALLVALUE PUSH2 0x24B JUMPI PUSH1 0x20 CALLDATASIZE PUSH1 0x3 NOT ADD SLT PUSH2 0x24B JUMPI PUSH1 0x20 SWAP1 PUSH1 0xFF SWAP1 PUSH1 0x40 SWAP1 PUSH1 0x1 PUSH1 0x1 PUSH1 0xA0 SHL SUB PUSH2 0x1747 PUSH2 0x2286 JUMP JUMPDEST AND DUP2 MSTORE PUSH1 0x10 DUP5 MSTORE KECCAK256 SLOAD AND PUSH1 0x40 MLOAD SWAP1 ISZERO ISZERO DUP2 MSTORE RETURN JUMPDEST POP CALLVALUE PUSH2 0x24B JUMPI PUSH1 0x80 CALLDATASIZE PUSH1 0x3 NOT ADD SLT PUSH2 0x24B JUMPI PUSH2 0x1775 PUSH2 0x2286 JUMP JUMPDEST PUSH1 0x24 CALLDATALOAD PUSH1 0x44 CALLDATALOAD SWAP2 PUSH1 0xFF DUP4 AND SWAP2 DUP3 DUP5 SUB PUSH2 0xBE8 JUMPI PUSH1 0x64 CALLDATALOAD SWAP4 PUSH2 0x1794 PUSH2 0x2352 JUMP JUMPDEST PUSH2 0x179C PUSH2 0x23CA JUMP JUMPDEST PUSH1 0x2 DUP5 LT ISZERO PUSH2 0x470 JUMPI PUSH2 0x17AD PUSH2 0x23EB JUMP JUMPDEST PUSH1 0x1 PUSH1 0x1 PUSH1 0xA0 SHL SUB DUP4 DUP2 AND SWAP4 DUP5 ISZERO PUSH2 0xA33 JUMPI DUP5 DUP9 MSTORE PUSH1 0x20 SWAP2 PUSH1 0x10 DUP4 MSTORE PUSH1 0xFF PUSH1 0x40 DUP11 KECCAK256 SLOAD AND DUP1 ISZERO PUSH2 0x194F JUMPI JUMPDEST PUSH2 0x193D JUMPI DUP7 DUP10 MSTORE PUSH1 0x8 DUP4 MSTORE PUSH1 0x40 DUP10 KECCAK256 DUP9 DUP11 MSTORE DUP4 MSTORE PUSH1 0xFF PUSH1 0x40 DUP11 KECCAK256 SLOAD PUSH1 0x8 SHR AND ISZERO PUSH2 0xBD6 JUMPI DUP9 SWAP2 DUP7 DUP4 MSTORE PUSH1 0x10 DUP5 MSTORE PUSH1 0x40 DUP4 KECCAK256 PUSH1 0xFF NOT SWAP1 PUSH1 0x1 DUP3 DUP3 SLOAD AND OR SWAP1 SSTORE DUP7 DUP5 MSTORE PUSH1 0x11 DUP6 MSTORE PUSH1 0x1 PUSH1 0x40 DUP6 KECCAK256 SWAP2 DUP3 SLOAD AND OR SWAP1 SSTORE DUP8 DUP4 MSTORE PUSH1 0x8 DUP5 MSTORE PUSH1 0x40 DUP4 KECCAK256 DUP10 DUP5 MSTORE DUP5 MSTORE PUSH2 0x184D DUP10 PUSH1 0xFF PUSH1 0x40 DUP7 KECCAK256 SLOAD AND DUP1 SWAP8 PUSH2 0x23A3 JUMP JUMPDEST DUP8 DUP4 MSTORE PUSH1 0x8 DUP5 MSTORE PUSH1 0x40 DUP1 DUP5 KECCAK256 DUP11 DUP6 MSTORE DUP6 MSTORE DUP4 KECCAK256 DUP1 SLOAD PUSH2 0xFF00 NOT AND SWAP1 SSTORE PUSH1 0x3 SLOAD PUSH32 0x0 DUP4 AND SWAP3 AND DUP3 EXTCODESIZE ISZERO PUSH2 0x9A6 JUMPI PUSH1 0x40 MLOAD PUSH4 0x21421707 PUSH1 0xE1 SHL DUP2 MSTORE PUSH1 0x1 PUSH1 0x1 PUSH1 0xA0 SHL SUB SWAP2 DUP3 AND PUSH1 0x4 DUP3 ADD MSTORE SWAP2 AND PUSH1 0x24 DUP3 ADD MSTORE PUSH1 0x44 DUP2 ADD DUP10 SWAP1 MSTORE SWAP1 DUP3 SWAP1 DUP3 SWAP1 PUSH1 0x64 SWAP1 DUP3 SWAP1 DUP5 SWAP1 GAS CALL DUP1 ISZERO PUSH2 0xBCB JUMPI PUSH2 0x1921 JUMPI JUMPDEST POP POP SWAP1 PUSH32 0xFA44E081BA05562BC113ADB11188FA32FC0F8B00C7F449C826D9B4CC4D1E869A SWAP3 PUSH1 0x40 SWAP3 DUP4 MLOAD SWAP3 DUP4 MSTORE DUP3 ADD MSTORE LOG4 PUSH1 0x1 PUSH0 DUP1 MLOAD PUSH1 0x20 PUSH2 0x2561 DUP4 CODECOPY DUP2 MLOAD SWAP2 MSTORE SSTORE DUP1 RETURN JUMPDEST PUSH2 0x192D SWAP1 SWAP4 SWAP3 SWAP4 PUSH2 0x22CD JUMP JUMPDEST PUSH2 0x1939 JUMPI SWAP1 DUP7 PUSH0 PUSH2 0x18DC JUMP JUMPDEST DUP7 DUP1 REVERT JUMPDEST PUSH1 0x40 MLOAD PUSH4 0xC8D9EAB PUSH1 0xE3 SHL DUP2 MSTORE PUSH1 0x4 SWAP1 REVERT JUMPDEST POP DUP5 DUP10 MSTORE PUSH1 0x11 DUP4 MSTORE PUSH1 0xFF PUSH1 0x40 DUP11 KECCAK256 SLOAD AND PUSH2 0x17D8 JUMP JUMPDEST POP CALLVALUE PUSH2 0x24B JUMPI PUSH1 0x20 CALLDATASIZE PUSH1 0x3 NOT ADD SLT PUSH2 0x24B JUMPI PUSH1 0xFF PUSH1 0x40 PUSH1 0x20 SWAP3 PUSH1 0x4 CALLDATALOAD DUP2 MSTORE PUSH1 0xE DUP5 MSTORE KECCAK256 SLOAD AND PUSH1 0x40 MLOAD SWAP1 DUP2 MSTORE RETURN JUMPDEST POP CALLVALUE PUSH2 0x24B JUMPI DUP1 PUSH1 0x3 NOT CALLDATASIZE ADD SLT PUSH2 0x24B JUMPI PUSH1 0x20 PUSH4 0xFFFFFFFF PUSH1 0x5 SLOAD PUSH1 0xA0 SHR AND PUSH1 0x40 MLOAD SWAP1 DUP2 MSTORE RETURN JUMPDEST POP CALLVALUE PUSH2 0x24B JUMPI DUP1 PUSH1 0x3 NOT CALLDATASIZE ADD SLT PUSH2 0x24B JUMPI PUSH1 0x5 SLOAD PUSH1 0x40 MLOAD PUSH1 0x1 PUSH1 0x1 PUSH1 0xA0 SHL SUB SWAP1 SWAP2 AND DUP2 MSTORE PUSH1 0x20 SWAP1 RETURN JUMPDEST POP CALLVALUE PUSH2 0x24B JUMPI PUSH1 0x40 CALLDATASIZE PUSH1 0x3 NOT ADD SLT PUSH2 0x24B JUMPI PUSH2 0x19FB PUSH2 0x2236 JUMP JUMPDEST PUSH1 0x24 CALLDATALOAD SWAP1 PUSH2 0x1A07 PUSH2 0x2352 JUMP JUMPDEST PUSH1 0xFF DUP2 AND SWAP1 PUSH1 0x2 DUP3 LT ISZERO PUSH2 0x470 JUMPI DUP2 DUP5 MSTORE PUSH1 0x20 SWAP1 PUSH1 0x8 DUP3 MSTORE PUSH1 0x40 DUP6 KECCAK256 DUP5 DUP7 MSTORE DUP3 MSTORE PUSH1 0xFF PUSH1 0x40 DUP7 KECCAK256 SLOAD PUSH1 0x8 SHR AND ISZERO PUSH2 0xBD6 JUMPI DUP4 PUSH2 0x1A5B SWAP2 DUP5 DUP8 MSTORE PUSH1 0x8 DUP5 MSTORE PUSH1 0x40 DUP8 KECCAK256 DUP3 DUP9 MSTORE DUP5 MSTORE PUSH1 0xFF PUSH1 0x40 DUP9 KECCAK256 SLOAD AND SWAP1 PUSH2 0x23A3 JUMP JUMPDEST DUP2 DUP5 MSTORE PUSH1 0x8 DUP2 MSTORE PUSH1 0x40 DUP5 KECCAK256 SWAP1 DUP4 DUP6 MSTORE MSTORE DUP3 PUSH1 0x40 DUP2 KECCAK256 SSTORE PUSH32 0x28A4FC8B4696CBCC4F5A8F6A710136792E31CA8BDD587A3CA8E506955582A92 DUP4 DUP1 LOG3 DUP1 RETURN JUMPDEST POP CALLVALUE PUSH2 0xBE8 JUMPI PUSH1 0x40 CALLDATASIZE PUSH1 0x3 NOT ADD SLT PUSH2 0xBE8 JUMPI PUSH1 0x24 PUSH1 0x4 CALLDATALOAD DUP2 CALLDATALOAD PUSH1 0x1 PUSH1 0x1 PUSH1 0x40 SHL SUB DUP2 GT PUSH2 0xBE8 JUMPI PUSH2 0x1ACD SWAP1 CALLDATASIZE SWAP1 PUSH1 0x4 ADD PUSH2 0x2256 JUMP JUMPDEST SWAP1 SWAP2 PUSH1 0x1 DUP1 PUSH1 0xA0 SHL SUB SWAP1 DUP2 PUSH1 0x2 SLOAD AND DUP1 CALLER SUB PUSH2 0x1DAB JUMPI POP DUP1 PUSH0 MSTORE PUSH1 0x20 PUSH1 0xF DUP2 MSTORE PUSH1 0x40 PUSH0 KECCAK256 SWAP2 DUP3 SLOAD SWAP6 DUP5 DUP8 AND ISZERO DUP1 ISZERO PUSH2 0x1D9A JUMPI JUMPDEST DUP1 ISZERO PUSH2 0x1D89 JUMPI JUMPDEST PUSH2 0x14B0 JUMPI PUSH1 0x2 DUP5 ADD DUP1 SLOAD PUSH9 0xFF0000000000000000 NOT AND PUSH1 0x1 PUSH1 0x40 SHL OR DUP2 SSTORE SWAP6 ISZERO PUSH2 0x1D75 JUMPI CALLDATALOAD SWAP4 PUSH1 0xFF DUP1 SWAP8 PUSH1 0xA0 SHR AND SWAP1 PUSH2 0x1B40 DUP3 DUP8 PUSH2 0x24CE JUMP JUMPDEST SWAP6 PUSH0 SWAP7 JUMPDEST DUP4 PUSH0 MSTORE PUSH1 0x9 DUP7 MSTORE PUSH1 0x40 PUSH0 KECCAK256 DUP11 DUP3 AND PUSH0 MSTORE DUP7 MSTORE PUSH1 0x40 PUSH0 KECCAK256 SLOAD ISZERO DUP1 PUSH2 0x1D69 JUMPI JUMPDEST ISZERO PUSH2 0x1B9B JUMPI PUSH1 0x6 DUP11 PUSH2 0x1B74 DUP2 SWAP4 PUSH2 0x2340 JUMP JUMPDEST AND MOD SWAP8 AND DUP10 DUP2 EQ PUSH2 0x1B88 JUMPI PUSH1 0x1 ADD SWAP7 PUSH2 0x1B44 JUMP JUMPDEST DUP11 PUSH4 0x4E487B71 PUSH1 0xE0 SHL PUSH0 MSTORE PUSH1 0x11 PUSH1 0x4 MSTORE PUSH0 REVERT JUMPDEST SWAP4 SWAP5 SWAP6 SWAP7 POP DUP9 SWAP1 DUP12 SWAP9 DUP5 PUSH0 MSTORE PUSH1 0x9 DUP9 MSTORE PUSH1 0x40 PUSH0 KECCAK256 SWAP5 DUP4 DUP8 AND SWAP6 DUP7 PUSH0 MSTORE DUP10 MSTORE PUSH1 0x40 PUSH0 KECCAK256 SLOAD SWAP3 DUP4 ISZERO PUSH2 0x9D9 JUMPI DUP6 SWAP4 PUSH2 0x1BFA SWAP2 PUSH1 0x80 SHR MOD DUP3 PUSH0 MSTORE PUSH1 0x9 DUP12 MSTORE PUSH1 0x40 PUSH0 KECCAK256 DUP9 PUSH0 MSTORE DUP12 MSTORE PUSH2 0x1BEC DUP2 PUSH1 0x40 PUSH0 KECCAK256 PUSH2 0x231C JUMP JUMPDEST SWAP1 SLOAD SWAP1 PUSH1 0x3 SHL SHR SWAP9 DUP4 PUSH2 0x241A JUMP JUMPDEST PUSH0 MSTORE PUSH1 0x8 DUP9 MSTORE PUSH1 0x40 PUSH0 KECCAK256 DUP7 PUSH0 MSTORE DUP9 MSTORE PUSH1 0x40 PUSH0 KECCAK256 PUSH2 0xFF00 NOT DUP2 SLOAD AND SWAP1 SSTORE SLOAD PUSH1 0x50 SHR AND DUP1 ISZERO PUSH0 EQ PUSH2 0x1D64 JUMPI POP DUP2 PUSH1 0x3 SLOAD AND JUMPDEST DUP3 PUSH32 0x0 AND SWAP1 DUP4 DUP10 SLOAD AND SWAP1 DUP3 EXTCODESIZE ISZERO PUSH2 0xBE8 JUMPI PUSH1 0x40 MLOAD PUSH4 0x21421707 PUSH1 0xE1 SHL DUP2 MSTORE PUSH1 0x1 PUSH1 0x1 PUSH1 0xA0 SHL SUB SWAP2 DUP3 AND PUSH1 0x4 DUP3 ADD MSTORE SWAP2 AND PUSH1 0x24 DUP3 ADD MSTORE PUSH1 0x44 DUP2 ADD DUP7 SWAP1 MSTORE SWAP1 PUSH0 SWAP1 DUP3 SWAP1 PUSH1 0x64 SWAP1 DUP3 SWAP1 DUP5 SWAP1 GAS CALL SWAP1 DUP2 PUSH2 0x1D51 JUMPI JUMPDEST POP PUSH2 0x1D09 JUMPI POP SWAP1 PUSH1 0x60 SWAP3 SWAP2 DUP7 PUSH1 0x4 PUSH32 0xBACC287F496B3E28CDA1AC162DE931B3C4A5B3354620EA3FDBDF4A09D169B754 SWAP7 SWAP8 SWAP9 ADD PUSH2 0x100 DUP5 DUP3 SLOAD DUP8 PUSH1 0x3 DUP7 ADD SSTORE PUSH2 0xFFFF NOT AND OR OR SWAP1 SSTORE SLOAD AND SWAP6 PUSH1 0x40 MLOAD SWAP3 DUP4 MSTORE DUP3 ADD MSTORE PUSH14 0x1D1C985B9CD9995C91985A5B1959 PUSH1 0x92 SHL PUSH1 0x40 DUP3 ADD MSTORE LOG3 DUP1 RETURN JUMPDEST PUSH32 0x52903FEA91E0049873CD4A5863C2A0CB419AFA10144DA0500A8C033C19D55345 SWAP4 SWAP6 PUSH1 0x60 SWAP4 PUSH1 0x1 DUP10 SLOAD SWAP10 ADD SLOAD SWAP2 PUSH1 0x40 MLOAD SWAP9 DUP10 MSTORE DUP9 ADD MSTORE PUSH1 0x40 DUP8 ADD MSTORE DUP7 PUSH1 0xA0 SHR AND SWAP6 AND SWAP4 LOG4 DUP1 RETURN JUMPDEST PUSH2 0x1D5C SWAP2 SWAP10 POP PUSH2 0x22CD JUMP JUMPDEST PUSH0 SWAP8 DUP10 PUSH2 0x1C9A JUMP JUMPDEST PUSH2 0x1C2A JUMP JUMPDEST POP PUSH1 0x6 DUP11 DUP10 AND LT PUSH2 0x1B62 JUMP JUMPDEST PUSH4 0x4E487B71 PUSH1 0xE0 SHL PUSH0 MSTORE PUSH1 0x32 PUSH1 0x4 MSTORE PUSH1 0x24 PUSH0 REVERT JUMPDEST POP PUSH1 0xFF PUSH1 0x2 DUP6 ADD SLOAD PUSH1 0x48 SHR AND PUSH2 0x1B07 JUMP JUMPDEST POP PUSH1 0xFF PUSH1 0x2 DUP6 ADD SLOAD PUSH1 0x40 SHR AND PUSH2 0x1B00 JUMP JUMPDEST PUSH1 0x40 MLOAD PUSH4 0x73E64FD PUSH1 0xE2 SHL DUP2 MSTORE CALLER PUSH1 0x4 DUP3 ADD MSTORE PUSH1 0x1 PUSH1 0x1 PUSH1 0xA0 SHL SUB SWAP2 SWAP1 SWAP2 AND PUSH1 0x24 DUP3 ADD MSTORE PUSH1 0x44 SWAP1 REVERT JUMPDEST CALLVALUE PUSH2 0xBE8 JUMPI PUSH1 0xE0 CALLDATASIZE PUSH1 0x3 NOT ADD SLT PUSH2 0xBE8 JUMPI PUSH2 0x1DED PUSH2 0x2236 JUMP JUMPDEST CALLDATASIZE PUSH1 0xE4 GT PUSH2 0xBE8 JUMPI PUSH2 0x1DFD PUSH2 0x2352 JUMP JUMPDEST PUSH1 0xFF DUP1 SWAP2 AND SWAP1 PUSH1 0x2 DUP3 LT ISZERO PUSH2 0x470 JUMPI PUSH0 DUP1 SWAP2 JUMPDEST PUSH1 0x6 DUP2 DUP5 AND LT PUSH2 0x1EE0 JUMPI DUP4 PUSH2 0x2710 DUP4 SUB PUSH2 0x1ECE JUMPI DUP1 PUSH0 MSTORE PUSH1 0x20 PUSH1 0xB PUSH1 0x20 MSTORE PUSH1 0x40 PUSH0 KECCAK256 PUSH1 0x24 SWAP1 PUSH0 SWAP2 PUSH0 JUMPDEST DUP5 PUSH1 0x6 DUP3 LT PUSH2 0x1EA4 JUMPI POP POP POP SSTORE PUSH1 0x40 MLOAD SWAP1 DUP2 PUSH1 0x24 SWAP2 PUSH0 SWAP2 JUMPDEST PUSH1 0x6 DUP4 LT PUSH2 0x1E81 JUMPI DUP6 PUSH32 0xEAD69BDE6B49CA7ED74A5FC780B639E2B515C739E118D2565F811F8F0A36DADE PUSH1 0xC0 DUP8 LOG2 STOP JUMPDEST DUP4 CALLDATALOAD SWAP1 PUSH2 0xFFFF DUP3 AND DUP1 SWAP3 SUB PUSH2 0xBE8 JUMPI DUP3 DUP2 PUSH1 0x1 SWAP4 DUP3 SWAP4 MSTORE ADD SWAP5 ADD SWAP3 ADD SWAP2 SWAP3 PUSH2 0x1E51 JUMP JUMPDEST DUP3 SWAP5 PUSH2 0x1EB2 PUSH1 0x1 SWAP4 SWAP5 PUSH2 0x2331 JUMP JUMPDEST SWAP1 DUP5 PUSH1 0x4 SHL SWAP2 PUSH2 0xFFFF DUP1 SWAP2 AND DUP4 SHL SWAP3 SHL NOT AND OR SWAP5 ADD SWAP2 ADD PUSH2 0x1E39 JUMP JUMPDEST PUSH1 0x40 MLOAD PUSH4 0x2FB3CC07 PUSH1 0xE1 SHL DUP2 MSTORE PUSH1 0x4 SWAP1 REVERT JUMPDEST PUSH1 0x1 PUSH2 0x1F04 DUP3 SWAP4 PUSH2 0xFFFF PUSH2 0x1EFD PUSH2 0x1FE0 DUP9 PUSH1 0x5 SHL AND PUSH1 0x24 ADD PUSH2 0x2331 JUMP JUMPDEST AND SWAP1 PUSH2 0x229C JUMP JUMPDEST SWAP4 ADD AND SWAP2 SWAP1 PUSH2 0x1E10 JUMP JUMPDEST CALLVALUE PUSH2 0xBE8 JUMPI PUSH1 0x60 CALLDATASIZE PUSH1 0x3 NOT ADD SLT PUSH2 0xBE8 JUMPI PUSH2 0x1F27 PUSH2 0x2236 JUMP JUMPDEST PUSH1 0x1 PUSH1 0x1 PUSH1 0x40 SHL SUB PUSH1 0x24 CALLDATALOAD DUP2 DUP2 GT PUSH2 0xBE8 JUMPI PUSH2 0x1F47 SWAP1 CALLDATASIZE SWAP1 PUSH1 0x4 ADD PUSH2 0x2256 JUMP JUMPDEST SWAP1 PUSH1 0x44 CALLDATALOAD DUP4 DUP2 GT PUSH2 0xBE8 JUMPI PUSH2 0x1F60 SWAP1 CALLDATASIZE SWAP1 PUSH1 0x4 ADD PUSH2 0x2256 JUMP JUMPDEST SWAP4 SWAP1 SWAP3 PUSH2 0x1F6B PUSH2 0x2352 JUMP JUMPDEST PUSH1 0xFF DUP1 SWAP7 AND SWAP3 PUSH1 0x2 DUP5 LT ISZERO PUSH2 0x470 JUMPI DUP6 DUP3 SUB PUSH2 0x20F5 JUMPI PUSH0 JUMPDEST DUP3 DUP2 LT PUSH2 0x1F8C JUMPI STOP JUMPDEST PUSH2 0x1F97 DUP2 DUP5 DUP5 PUSH2 0x22BD JUMP JUMPDEST CALLDATALOAD SWAP1 PUSH2 0x1FA4 DUP2 DUP10 DUP10 PUSH2 0x22BD JUMP JUMPDEST CALLDATALOAD SWAP2 DUP10 DUP4 AND DUP1 SWAP4 SUB PUSH2 0xBE8 JUMPI PUSH1 0x6 DUP4 LT ISZERO PUSH2 0x45E JUMPI DUP7 PUSH0 MSTORE PUSH1 0x8 PUSH1 0x20 SWAP1 DUP1 DUP3 MSTORE PUSH1 0x40 PUSH0 KECCAK256 DUP4 PUSH0 MSTORE DUP3 MSTORE DUP12 PUSH1 0x40 PUSH0 KECCAK256 SLOAD DUP3 SHR AND PUSH2 0x20E3 JUMPI PUSH1 0x40 MLOAD PUSH1 0x40 DUP2 ADD SWAP1 DUP1 DUP3 LT DUP11 DUP4 GT OR PUSH2 0x966 JUMPI PUSH2 0x203A SWAP2 PUSH1 0x40 MSTORE DUP7 DUP2 MSTORE DUP14 DUP5 DUP3 ADD SWAP1 PUSH1 0x1 SWAP5 DUP6 DUP4 MSTORE DUP14 PUSH0 MSTORE DUP7 MSTORE PUSH1 0x40 PUSH0 KECCAK256 DUP8 PUSH0 MSTORE DUP7 MSTORE PUSH1 0x40 PUSH0 KECCAK256 SWAP3 MLOAD AND PUSH1 0xFF NOT DUP4 SLOAD AND OR DUP3 SSTORE MLOAD ISZERO ISZERO PUSH2 0xFF00 DUP3 SLOAD SWAP2 ISZERO ISZERO PUSH1 0x8 SHL AND SWAP1 PUSH2 0xFF00 NOT AND OR SWAP1 SSTORE JUMP JUMPDEST DUP9 PUSH0 MSTORE PUSH1 0x9 DUP1 DUP4 MSTORE PUSH1 0x40 PUSH0 KECCAK256 DUP7 PUSH0 MSTORE DUP4 MSTORE PUSH1 0x40 PUSH0 KECCAK256 SLOAD DUP11 PUSH0 MSTORE PUSH1 0xA DUP5 MSTORE PUSH1 0x40 PUSH0 KECCAK256 DUP6 PUSH0 MSTORE DUP5 MSTORE PUSH1 0x40 PUSH0 KECCAK256 SSTORE DUP10 PUSH0 MSTORE DUP3 MSTORE PUSH1 0x40 PUSH0 KECCAK256 DUP6 PUSH0 MSTORE DUP3 MSTORE PUSH1 0x40 PUSH0 KECCAK256 SWAP2 DUP3 SLOAD SWAP6 PUSH1 0x1 PUSH1 0x40 SHL DUP8 LT ISZERO PUSH2 0x966 JUMPI PUSH2 0x20D6 DUP6 PUSH2 0x20BE DUP10 DUP15 SWAP8 PUSH32 0x6160B95463EEF162E89880A58D5FF8C73F401AE0A3DE33147826AD9B64B4D3D6 SWAP8 PUSH1 0x1 SWAP13 ADD DUP2 SSTORE PUSH2 0x231C JUMP JUMPDEST SWAP1 SWAP2 SWAP1 DUP3 SLOAD SWAP1 PUSH1 0x3 SHL SWAP2 DUP3 SHL SWAP2 PUSH0 NOT SWAP1 SHL NOT AND OR SWAP1 SSTORE JUMP JUMPDEST PUSH1 0x40 MLOAD SWAP1 DUP2 MSTORE LOG3 ADD PUSH2 0x1F83 JUMP JUMPDEST PUSH1 0x40 MLOAD PUSH4 0x1B74344B PUSH1 0xE0 SHL DUP2 MSTORE PUSH1 0x4 SWAP1 REVERT JUMPDEST PUSH1 0x40 MLOAD PUSH1 0x1 PUSH3 0x1398B9 PUSH1 0xE3 SHL SUB NOT DUP2 MSTORE PUSH1 0x4 SWAP1 REVERT JUMPDEST CALLVALUE PUSH2 0xBE8 JUMPI PUSH1 0x20 CALLDATASIZE PUSH1 0x3 NOT ADD SLT PUSH2 0xBE8 JUMPI PUSH1 0x4 CALLDATALOAD PUSH0 MSTORE PUSH1 0xF PUSH1 0x20 MSTORE PUSH2 0x140 PUSH1 0x40 PUSH0 KECCAK256 PUSH1 0xFF DUP2 SLOAD SWAP2 PUSH1 0x1 DUP1 PUSH1 0xA0 SHL SUB SWAP1 PUSH1 0x1 DUP2 ADD SLOAD SWAP2 PUSH1 0x2 DUP3 ADD SLOAD PUSH1 0x4 PUSH1 0x3 DUP5 ADD SLOAD SWAP4 ADD SLOAD SWAP4 DUP6 PUSH1 0x40 MLOAD SWAP8 DUP5 DUP2 AND DUP10 MSTORE PUSH1 0xA0 SHR AND PUSH1 0x20 DUP9 ADD MSTORE PUSH1 0x40 DUP8 ADD MSTORE PUSH1 0x1 PUSH1 0x1 PUSH1 0x40 SHL SUB DUP2 AND PUSH1 0x60 DUP8 ADD MSTORE DUP5 DUP2 PUSH1 0x40 SHR AND ISZERO ISZERO PUSH1 0x80 DUP8 ADD MSTORE DUP5 DUP2 PUSH1 0x48 SHR AND ISZERO ISZERO PUSH1 0xA0 DUP8 ADD MSTORE PUSH1 0x50 SHR AND PUSH1 0xC0 DUP6 ADD MSTORE PUSH1 0xE0 DUP5 ADD MSTORE DUP2 DUP2 AND PUSH2 0x100 DUP5 ADD MSTORE PUSH1 0x8 SHR AND ISZERO ISZERO PUSH2 0x120 DUP3 ADD MSTORE RETURN JUMPDEST CALLVALUE PUSH2 0xBE8 JUMPI PUSH1 0x20 DUP1 PUSH1 0x3 NOT CALLDATASIZE ADD SLT PUSH2 0xBE8 JUMPI PUSH1 0xFF SWAP1 PUSH1 0xFF PUSH2 0x21D4 PUSH2 0x2236 JUMP JUMPDEST AND SWAP3 PUSH1 0x2 DUP5 LT ISZERO PUSH2 0x2227 JUMPI POP PUSH0 SWAP3 DUP4 JUMPDEST DUP4 DUP6 AND PUSH1 0x6 DUP2 LT ISZERO PUSH2 0x221C JUMPI PUSH2 0x2213 DUP6 SWAP3 PUSH1 0x1 SWAP3 DUP6 PUSH0 MSTORE PUSH1 0x9 DUP8 MSTORE PUSH1 0x40 PUSH0 KECCAK256 SWAP1 PUSH0 MSTORE DUP7 MSTORE PUSH1 0x40 PUSH0 KECCAK256 SLOAD SWAP1 PUSH2 0x229C JUMP JUMPDEST SWAP6 ADD AND SWAP4 PUSH2 0x21E4 JUMP JUMPDEST PUSH1 0x20 DUP3 PUSH1 0x40 MLOAD SWAP1 DUP2 MSTORE RETURN JUMPDEST PUSH4 0xD694977F PUSH1 0xE0 SHL DUP2 MSTORE PUSH1 0x4 SWAP1 REVERT JUMPDEST PUSH1 0x4 CALLDATALOAD SWAP1 PUSH1 0xFF DUP3 AND DUP3 SUB PUSH2 0xBE8 JUMPI JUMP JUMPDEST PUSH1 0x24 CALLDATALOAD SWAP1 PUSH1 0xFF DUP3 AND DUP3 SUB PUSH2 0xBE8 JUMPI JUMP JUMPDEST SWAP2 DUP2 PUSH1 0x1F DUP5 ADD SLT ISZERO PUSH2 0xBE8 JUMPI DUP3 CALLDATALOAD SWAP2 PUSH1 0x1 PUSH1 0x1 PUSH1 0x40 SHL SUB DUP4 GT PUSH2 0xBE8 JUMPI PUSH1 0x20 DUP1 DUP6 ADD SWAP5 DUP5 PUSH1 0x5 SHL ADD ADD GT PUSH2 0xBE8 JUMPI JUMP JUMPDEST PUSH1 0x4 CALLDATALOAD SWAP1 PUSH1 0x1 PUSH1 0x1 PUSH1 0xA0 SHL SUB DUP3 AND DUP3 SUB PUSH2 0xBE8 JUMPI JUMP JUMPDEST SWAP2 SWAP1 DUP3 ADD DUP1 SWAP3 GT PUSH2 0x22A9 JUMPI JUMP JUMPDEST PUSH4 0x4E487B71 PUSH1 0xE0 SHL PUSH0 MSTORE PUSH1 0x11 PUSH1 0x4 MSTORE PUSH1 0x24 PUSH0 REVERT JUMPDEST SWAP2 SWAP1 DUP2 LT ISZERO PUSH2 0x1D75 JUMPI PUSH1 0x5 SHL ADD SWAP1 JUMP JUMPDEST PUSH1 0x1 PUSH1 0x1 PUSH1 0x40 SHL SUB DUP2 GT PUSH2 0x966 JUMPI PUSH1 0x40 MSTORE JUMP JUMPDEST PUSH1 0xC0 DUP2 ADD SWAP1 DUP2 LT PUSH1 0x1 PUSH1 0x1 PUSH1 0x40 SHL SUB DUP3 GT OR PUSH2 0x966 JUMPI PUSH1 0x40 MSTORE JUMP JUMPDEST SWAP1 PUSH1 0x1F DUP1 NOT SWAP2 ADD AND DUP2 ADD SWAP1 DUP2 LT PUSH1 0x1 PUSH1 0x1 PUSH1 0x40 SHL SUB DUP3 GT OR PUSH2 0x966 JUMPI PUSH1 0x40 MSTORE JUMP JUMPDEST DUP1 SLOAD DUP3 LT ISZERO PUSH2 0x1D75 JUMPI PUSH0 MSTORE PUSH1 0x20 PUSH0 KECCAK256 ADD SWAP1 PUSH0 SWAP1 JUMP JUMPDEST CALLDATALOAD PUSH2 0xFFFF DUP2 AND DUP2 SUB PUSH2 0xBE8 JUMPI SWAP1 JUMP JUMPDEST PUSH1 0xFF PUSH1 0x1 SWAP2 AND ADD SWAP1 PUSH1 0xFF DUP3 GT PUSH2 0x22A9 JUMPI JUMP JUMPDEST PUSH0 SLOAD PUSH1 0x1 PUSH1 0x1 PUSH1 0xA0 SHL SUB AND CALLER SUB PUSH2 0x2365 JUMPI JUMP JUMPDEST PUSH1 0x40 MLOAD PUSH3 0x461BCD PUSH1 0xE5 SHL DUP2 MSTORE PUSH1 0x20 PUSH1 0x4 DUP3 ADD MSTORE PUSH1 0x16 PUSH1 0x24 DUP3 ADD MSTORE PUSH22 0x27B7363C9031B0B63630B1363290313C9037BBB732B9 PUSH1 0x51 SHL PUSH1 0x44 DUP3 ADD MSTORE PUSH1 0x64 SWAP1 REVERT JUMPDEST SWAP1 PUSH2 0x23C8 SWAP3 PUSH1 0xFF DUP4 AND PUSH0 MSTORE PUSH1 0xA PUSH1 0x20 MSTORE PUSH1 0x40 PUSH0 KECCAK256 SWAP1 PUSH0 MSTORE PUSH1 0x20 MSTORE PUSH1 0x40 PUSH0 KECCAK256 SLOAD SWAP2 PUSH2 0x241A JUMP JUMPDEST JUMP JUMPDEST PUSH1 0xFF PUSH1 0x2 SLOAD PUSH1 0xA0 SHR AND PUSH2 0x23D9 JUMPI JUMP JUMPDEST PUSH1 0x40 MLOAD PUSH4 0xD93C0665 PUSH1 0xE0 SHL DUP2 MSTORE PUSH1 0x4 SWAP1 REVERT JUMPDEST PUSH0 DUP1 MLOAD PUSH1 0x20 PUSH2 0x2561 DUP4 CODECOPY DUP2 MLOAD SWAP2 MSTORE PUSH1 0x2 DUP2 SLOAD EQ PUSH2 0x2408 JUMPI PUSH1 0x2 SWAP1 SSTORE JUMP JUMPDEST PUSH1 0x40 MLOAD PUSH4 0x3EE5AEB5 PUSH1 0xE0 SHL DUP2 MSTORE PUSH1 0x4 SWAP1 REVERT JUMPDEST PUSH1 0xFF SWAP1 SWAP3 SWAP2 SWAP3 AND SWAP2 DUP3 PUSH0 MSTORE PUSH1 0x9 PUSH1 0x20 MSTORE PUSH1 0xFF PUSH1 0x40 PUSH0 KECCAK256 SWAP2 AND PUSH0 MSTORE PUSH1 0x20 MSTORE PUSH1 0x40 PUSH0 KECCAK256 SWAP1 DUP2 SLOAD SWAP3 PUSH0 NOT SWAP4 DUP5 DUP2 ADD SWAP1 DUP2 GT PUSH2 0x22A9 JUMPI DUP1 DUP4 SUB PUSH2 0x2490 JUMPI JUMPDEST POP POP POP DUP1 SLOAD DUP1 ISZERO PUSH2 0x247C JUMPI DUP3 ADD SWAP2 PUSH2 0x246C DUP4 DUP4 PUSH2 0x231C JUMP JUMPDEST SWAP1 SWAP2 DUP3 SLOAD SWAP2 PUSH1 0x3 SHL SHL NOT AND SWAP1 SSTORE SSTORE JUMP JUMPDEST PUSH4 0x4E487B71 PUSH1 0xE0 SHL PUSH0 MSTORE PUSH1 0x31 PUSH1 0x4 MSTORE PUSH1 0x24 PUSH0 REVERT JUMPDEST PUSH2 0x249A SWAP1 DUP5 PUSH2 0x231C JUMP JUMPDEST SWAP1 SLOAD SWAP1 PUSH1 0x3 SHL SHR SWAP1 PUSH2 0x24B0 DUP3 PUSH2 0x20BE DUP6 DUP8 PUSH2 0x231C JUMP JUMPDEST PUSH0 MSTORE PUSH1 0xA PUSH1 0x20 MSTORE PUSH1 0x40 PUSH0 KECCAK256 SWAP1 PUSH0 MSTORE PUSH1 0x20 MSTORE PUSH1 0x40 PUSH0 KECCAK256 SSTORE PUSH0 DUP1 DUP1 PUSH2 0x2454 JUMP JUMPDEST SWAP1 SWAP2 PUSH1 0xFF DUP1 SWAP4 AND PUSH0 MSTORE PUSH1 0xB PUSH1 0x20 MSTORE PUSH2 0x2710 PUSH1 0x40 PUSH0 KECCAK256 SWAP3 PUSH2 0xFFFF SWAP2 DUP3 SWAP2 MOD AND SWAP1 PUSH0 SWAP4 PUSH0 JUMPDEST PUSH1 0x6 DUP1 DUP9 DUP4 AND LT ISZERO PUSH2 0x2553 JUMPI DUP2 LT ISZERO PUSH2 0x1D75 JUMPI PUSH1 0x4 SWAP6 DUP4 DUP1 DUP4 DUP10 SHR DUP6 ADD SLOAD PUSH1 0xF0 DUP6 DUP12 SHL AND SHR AND SWAP2 AND ADD SWAP6 DUP4 DUP8 GT PUSH2 0x2540 JUMPI POP DUP3 DUP7 AND DUP5 LT PUSH2 0x2536 JUMPI PUSH1 0x1 ADD DUP7 AND PUSH2 0x24F1 JUMP JUMPDEST SWAP5 POP POP POP POP SWAP2 POP SWAP1 JUMP JUMPDEST PUSH1 0x11 SWAP1 PUSH4 0x4E487B71 PUSH1 0xE0 SHL PUSH0 MSTORE MSTORE PUSH1 0x24 PUSH0 REVERT JUMPDEST POP POP POP POP POP SWAP2 POP POP PUSH1 0x5 SWAP1 JUMP INVALID SWAP12 PUSH24 0x9B17422D0DF92223018B32B4D1FA46E071723D6817E2486D STOP EXTCODESIZE 0xEC 0xC5 PUSH0 STOP LOG2 PUSH5 0x6970667358 0x22 SLT KECCAK256 SELFDESTRUCT SELFBALANCE 0xEB 0xDD SWAP4 SWAP9 PUSH5 0x5D934C1BDE PUSH17 0xEDCF43FAB267E31F65FF544A25400EE2A2 RETURNDATASIZE PREVRANDAO PUSH5 0x736F6C6343 STOP ADDMOD XOR STOP CALLER "},"methodIdentifiers":{"NFT()":"7c0b8de2","NUM_BUCKETS()":"c56ca84e","NUM_PACK_TIERS()":"68f1fb93","VRF_KEY_HASH()":"da06a5f0","VRF_NATIVE_PAYMENT()":"eadf2280","VRF_SUBSCRIPTION_ID()":"83109708","WEIGHT_TOTAL_BPS()":"f6c59961","acceptOwnership()":"79ba5097","addCards(uint8,uint256[],uint8[])":"122e934e","availableInBucket(uint8,uint8)":"d7894b82","availableInPack(uint8)":"0194f9a3","backendSigner()":"65d65e86","callbackGasLimit()":"24f74697","cancelPendingPull(uint256)":"4cfd6b40","cards(uint8,uint256)":"bcd82de9","claimPending(uint256,address)":"a4d6a12e","emergencyPause()":"51858e27","getBucketWeights(uint8)":"79396b32","giveaway(address,bytes32,uint8,uint256)":"26d3f3d8","isVaultReady()":"44898f52","lastPullBlock(address)":"eb96f26c","maxPullsPerBlock()":"48f87f7b","minPullIntervalBlocks()":"7be4dd84","owner()":"8da5cb5b","pauseGuardian()":"24a3d622","paused()":"5c975abb","pendingPulls(uint256)":"08a52d05","polygonGiveawayUsed(address)":"31425294","pullsInBlock(uint256)":"257ad931","rawFulfillRandomWords(uint256,uint256[])":"1fe543e3","removeCard(uint8,uint256)":"21ab305b","requestConfirmations()":"b0fb162f","requestPull(address,uint8,bytes32)":"d14d3de0","s_vrfCoordinator()":"9eccacf6","setBackendSigner(address)":"36f95670","setBucketWeights(uint8,uint16[6])":"14ef0c2c","setCoordinator(address)":"8ea98117","setPauseGuardian(address)":"48bde20c","setRateLimits(uint256,uint8)":"7b90f215","setVault(address)":"6817031b","setVrfConfig(uint32,uint16)":"54d7be2d","solanaGiveawayUsed(bytes32)":"75506c47","transferOwnership(address)":"f2fde38b","unpause()":"3f4ba83a","usedBurnProofs(bytes32)":"f444b6eb","vault()":"fbfa77cf","withdrawCard(uint8,uint256,address)":"c92f9658"}}}}}