{"contracts/test/MockVRFCoordinatorV2Plus.sol":{"MockVRFCoordinatorV2Plus":{"abi":[{"anonymous":false,"inputs":[{"indexed":true,"internalType":"uint256","name":"requestId","type":"uint256"},{"indexed":true,"internalType":"address","name":"consumer","type":"address"}],"name":"RandomWordsRequested","type":"event"},{"inputs":[{"internalType":"uint256","name":"requestId","type":"uint256"},{"internalType":"address","name":"consumer","type":"address"},{"internalType":"uint256[]","name":"words","type":"uint256[]"}],"name":"fulfillRandomWordsWithOverride","outputs":[],"stateMutability":"nonpayable","type":"function"},{"inputs":[],"name":"lastRequestId","outputs":[{"internalType":"uint256","name":"","type":"uint256"}],"stateMutability":"view","type":"function"},{"inputs":[{"components":[{"internalType":"bytes32","name":"keyHash","type":"bytes32"},{"internalType":"uint256","name":"subId","type":"uint256"},{"internalType":"uint16","name":"requestConfirmations","type":"uint16"},{"internalType":"uint32","name":"callbackGasLimit","type":"uint32"},{"internalType":"uint32","name":"numWords","type":"uint32"},{"internalType":"bytes","name":"extraArgs","type":"bytes"}],"internalType":"struct VRFV2PlusClient.RandomWordsRequest","name":"","type":"tuple"}],"name":"requestRandomWords","outputs":[{"internalType":"uint256","name":"requestId","type":"uint256"}],"stateMutability":"nonpayable","type":"function"}],"evm":{"bytecode":{"linkReferences":{},"object":"6080806040523461001657610212908161001b8239f35b5f80fdfe6080604081815260049182361015610015575f80fd5b5f925f3560e01c91826308e3898e146100ef575081639b1c385e14610062575063fc2a88c314610043575f80fd5b3461005e578160031936011261005e57602091549051908152f35b5080fd5b83833461005e576003196020368201126100eb57833567ffffffffffffffff81116100e7579060c0913603011261005e57815490600182018092116100d457602093508183555191817f5afc92f47019f6f981dbe48fba0d8bc10298b161505d2ead5ad4b975bfde77f4339280a38152f35b634e487b7160e01b835260118452602483fd5b8380fd5b8280fd5b929150346101d85760603660031901126101d8576024356001600160a01b038116908190036101d85767ffffffffffffffff906044358281116101d857366023820112156101d85780840135918383116101d8578260051b9236602485850101116101d857813b156101d857631fe543e360e01b885285358689015260248801879052604488018190526001600160fb1b03106101d857865f60648286839760248398018484013781010301925af180156101ce576101ac578480f35b909192809450116101bb575052005b604190634e487b7160e01b5f525260245ffd5b83513d5f823e3d90fd5b5f80fdfea264697066735822122082bac4f2b0878d0d7580d4ba3baafd5aadcf656245e0634282c130e7c2b1a7e564736f6c63430008180033","opcodes":"PUSH1 0x80 DUP1 PUSH1 0x40 MSTORE CALLVALUE PUSH2 0x16 JUMPI PUSH2 0x212 SWAP1 DUP2 PUSH2 0x1B DUP3 CODECOPY RETURN JUMPDEST PUSH0 DUP1 REVERT INVALID PUSH1 0x80 PUSH1 0x40 DUP2 DUP2 MSTORE PUSH1 0x4 SWAP2 DUP3 CALLDATASIZE LT ISZERO PUSH2 0x15 JUMPI PUSH0 DUP1 REVERT JUMPDEST PUSH0 SWAP3 PUSH0 CALLDATALOAD PUSH1 0xE0 SHR SWAP2 DUP3 PUSH4 0x8E3898E EQ PUSH2 0xEF JUMPI POP DUP2 PUSH4 0x9B1C385E EQ PUSH2 0x62 JUMPI POP PUSH4 0xFC2A88C3 EQ PUSH2 0x43 JUMPI PUSH0 DUP1 REVERT JUMPDEST CALLVALUE PUSH2 0x5E JUMPI DUP2 PUSH1 0x3 NOT CALLDATASIZE ADD SLT PUSH2 0x5E JUMPI PUSH1 0x20 SWAP2 SLOAD SWAP1 MLOAD SWAP1 DUP2 MSTORE RETURN JUMPDEST POP DUP1 REVERT JUMPDEST DUP4 DUP4 CALLVALUE PUSH2 0x5E JUMPI PUSH1 0x3 NOT PUSH1 0x20 CALLDATASIZE DUP3 ADD SLT PUSH2 0xEB JUMPI DUP4 CALLDATALOAD PUSH8 0xFFFFFFFFFFFFFFFF DUP2 GT PUSH2 0xE7 JUMPI SWAP1 PUSH1 0xC0 SWAP2 CALLDATASIZE SUB ADD SLT PUSH2 0x5E JUMPI DUP2 SLOAD SWAP1 PUSH1 0x1 DUP3 ADD DUP1 SWAP3 GT PUSH2 0xD4 JUMPI PUSH1 0x20 SWAP4 POP DUP2 DUP4 SSTORE MLOAD SWAP2 DUP2 PUSH32 0x5AFC92F47019F6F981DBE48FBA0D8BC10298B161505D2EAD5AD4B975BFDE77F4 CALLER SWAP3 DUP1 LOG3 DUP2 MSTORE RETURN JUMPDEST PUSH4 0x4E487B71 PUSH1 0xE0 SHL DUP4 MSTORE PUSH1 0x11 DUP5 MSTORE PUSH1 0x24 DUP4 REVERT JUMPDEST DUP4 DUP1 REVERT JUMPDEST DUP3 DUP1 REVERT JUMPDEST SWAP3 SWAP2 POP CALLVALUE PUSH2 0x1D8 JUMPI PUSH1 0x60 CALLDATASIZE PUSH1 0x3 NOT ADD SLT PUSH2 0x1D8 JUMPI PUSH1 0x24 CALLDATALOAD PUSH1 0x1 PUSH1 0x1 PUSH1 0xA0 SHL SUB DUP2 AND SWAP1 DUP2 SWAP1 SUB PUSH2 0x1D8 JUMPI PUSH8 0xFFFFFFFFFFFFFFFF SWAP1 PUSH1 0x44 CALLDATALOAD DUP3 DUP2 GT PUSH2 0x1D8 JUMPI CALLDATASIZE PUSH1 0x23 DUP3 ADD SLT ISZERO PUSH2 0x1D8 JUMPI DUP1 DUP5 ADD CALLDATALOAD SWAP2 DUP4 DUP4 GT PUSH2 0x1D8 JUMPI DUP3 PUSH1 0x5 SHL SWAP3 CALLDATASIZE PUSH1 0x24 DUP6 DUP6 ADD ADD GT PUSH2 0x1D8 JUMPI DUP2 EXTCODESIZE ISZERO PUSH2 0x1D8 JUMPI PUSH4 0x1FE543E3 PUSH1 0xE0 SHL DUP9 MSTORE DUP6 CALLDATALOAD DUP7 DUP10 ADD MSTORE PUSH1 0x24 DUP9 ADD DUP8 SWAP1 MSTORE PUSH1 0x44 DUP9 ADD DUP2 SWAP1 MSTORE PUSH1 0x1 PUSH1 0x1 PUSH1 0xFB SHL SUB LT PUSH2 0x1D8 JUMPI DUP7 PUSH0 PUSH1 0x64 DUP3 DUP7 DUP4 SWAP8 PUSH1 0x24 DUP4 SWAP9 ADD DUP5 DUP5 ADD CALLDATACOPY DUP2 ADD SUB ADD SWAP3 GAS CALL DUP1 ISZERO PUSH2 0x1CE JUMPI PUSH2 0x1AC JUMPI DUP5 DUP1 RETURN JUMPDEST SWAP1 SWAP2 SWAP3 DUP1 SWAP5 POP GT PUSH2 0x1BB JUMPI POP MSTORE STOP JUMPDEST PUSH1 0x41 SWAP1 PUSH4 0x4E487B71 PUSH1 0xE0 SHL PUSH0 MSTORE MSTORE PUSH1 0x24 PUSH0 REVERT JUMPDEST DUP4 MLOAD RETURNDATASIZE PUSH0 DUP3 RETURNDATACOPY RETURNDATASIZE SWAP1 REVERT JUMPDEST PUSH0 DUP1 REVERT INVALID LOG2 PUSH5 0x6970667358 0x22 SLT KECCAK256 DUP3 0xBA 0xC4 CALLCODE 0xB0 DUP8 DUP14 0xD PUSH22 0x80D4BA3BAAFD5AADCF656245E0634282C130E7C2B1A7 0xE5 PUSH5 0x736F6C6343 STOP ADDMOD XOR STOP CALLER "},"methodIdentifiers":{"fulfillRandomWordsWithOverride(uint256,address,uint256[])":"08e3898e","lastRequestId()":"fc2a88c3","requestRandomWords((bytes32,uint256,uint16,uint32,uint32,bytes))":"9b1c385e"}}}}}