{"@chainlink/contracts/src/v0.8/vrf/dev/libraries/VRFV2PlusClient.sol":{"VRFV2PlusClient":{"abi":[{"inputs":[],"name":"EXTRA_ARGS_V1_TAG","outputs":[{"internalType":"bytes4","name":"","type":"bytes4"}],"stateMutability":"view","type":"function"}],"evm":{"bytecode":{"linkReferences":{},"object":"608080604052346018576076908161001d823930815050f35b5f80fdfe60808060405260043610156011575f80fd5b5f3560e01c63f7514ab4146023575f80fd5b5f366003190112603c5763125fa26760e31b8152602090f35b5f80fdfea264697066735822122071cb5f0c6d02d67abf9ba39f947494190781e703a8181b39562203c5e90a011a64736f6c63430008180033","opcodes":"PUSH1 0x80 DUP1 PUSH1 0x40 MSTORE CALLVALUE PUSH1 0x18 JUMPI PUSH1 0x76 SWAP1 DUP2 PUSH2 0x1D DUP3 CODECOPY ADDRESS DUP2 POP POP RETURN JUMPDEST PUSH0 DUP1 REVERT INVALID PUSH1 0x80 DUP1 PUSH1 0x40 MSTORE PUSH1 0x4 CALLDATASIZE LT ISZERO PUSH1 0x11 JUMPI PUSH0 DUP1 REVERT JUMPDEST PUSH0 CALLDATALOAD PUSH1 0xE0 SHR PUSH4 0xF7514AB4 EQ PUSH1 0x23 JUMPI PUSH0 DUP1 REVERT JUMPDEST PUSH0 CALLDATASIZE PUSH1 0x3 NOT ADD SLT PUSH1 0x3C JUMPI PUSH4 0x125FA267 PUSH1 0xE3 SHL DUP2 MSTORE PUSH1 0x20 SWAP1 RETURN JUMPDEST PUSH0 DUP1 REVERT INVALID LOG2 PUSH5 0x6970667358 0x22 SLT KECCAK256 PUSH18 0xCB5F0C6D02D67ABF9BA39F947494190781E7 SUB 0xA8 XOR SHL CODECOPY JUMP 0x22 SUB 0xC5 0xE9 EXP ADD BYTE PUSH5 0x736F6C6343 STOP ADDMOD XOR STOP CALLER "},"methodIdentifiers":{"EXTRA_ARGS_V1_TAG()":"f7514ab4"}}}}}