{
  "_format": "hh-sol-artifact-1",
  "contractName": "BindrGacha",
  "sourceName": "contracts/BindrGacha.sol",
  "abi": [
    {
      "inputs": [
        {
          "internalType": "address",
          "name": "nft",
          "type": "address"
        },
        {
          "internalType": "address",
          "name": "initialVault",
          "type": "address"
        },
        {
          "internalType": "address",
          "name": "initialBackend",
          "type": "address"
        }
      ],
      "stateMutability": "nonpayable",
      "type": "constructor"
    },
    {
      "inputs": [],
      "name": "AlreadyClaimed",
      "type": "error"
    },
    {
      "inputs": [],
      "name": "CardAlreadyRegistered",
      "type": "error"
    },
    {
      "inputs": [],
      "name": "CardNotFound",
      "type": "error"
    },
    {
      "inputs": [],
      "name": "EnforcedPause",
      "type": "error"
    },
    {
      "inputs": [],
      "name": "ExpectedPause",
      "type": "error"
    },
    {
      "inputs": [],
      "name": "InvalidBucket",
      "type": "error"
    },
    {
      "inputs": [],
      "name": "InvalidPackTier",
      "type": "error"
    },
    {
      "inputs": [],
      "name": "LengthMismatch",
      "type": "error"
    },
    {
      "inputs": [],
      "name": "NotBackend",
      "type": "error"
    },
    {
      "inputs": [
        {
          "internalType": "address",
          "name": "owner",
          "type": "address"
        }
      ],
      "name": "OwnableInvalidOwner",
      "type": "error"
    },
    {
      "inputs": [
        {
          "internalType": "address",
          "name": "account",
          "type": "address"
        }
      ],
      "name": "OwnableUnauthorizedAccount",
      "type": "error"
    },
    {
      "inputs": [],
      "name": "PoolEmpty",
      "type": "error"
    },
    {
      "inputs": [],
      "name": "WeightsDoNotSumTo10000",
      "type": "error"
    },
    {
      "inputs": [],
      "name": "ZeroAddress",
      "type": "error"
    },
    {
      "anonymous": false,
      "inputs": [
        {
          "indexed": true,
          "internalType": "address",
          "name": "previous",
          "type": "address"
        },
        {
          "indexed": true,
          "internalType": "address",
          "name": "current",
          "type": "address"
        }
      ],
      "name": "BackendSignerChanged",
      "type": "event"
    },
    {
      "anonymous": false,
      "inputs": [
        {
          "indexed": true,
          "internalType": "uint8",
          "name": "packTier",
          "type": "uint8"
        },
        {
          "indexed": true,
          "internalType": "uint256",
          "name": "tokenId",
          "type": "uint256"
        },
        {
          "indexed": false,
          "internalType": "uint8",
          "name": "bucket",
          "type": "uint8"
        }
      ],
      "name": "CardAdded",
      "type": "event"
    },
    {
      "anonymous": false,
      "inputs": [
        {
          "indexed": true,
          "internalType": "uint8",
          "name": "packTier",
          "type": "uint8"
        },
        {
          "indexed": true,
          "internalType": "uint256",
          "name": "tokenId",
          "type": "uint256"
        }
      ],
      "name": "CardRemoved",
      "type": "event"
    },
    {
      "anonymous": false,
      "inputs": [
        {
          "indexed": true,
          "internalType": "address",
          "name": "user",
          "type": "address"
        },
        {
          "indexed": true,
          "internalType": "uint8",
          "name": "packTier",
          "type": "uint8"
        },
        {
          "indexed": true,
          "internalType": "uint256",
          "name": "tokenId",
          "type": "uint256"
        },
        {
          "indexed": false,
          "internalType": "uint8",
          "name": "bucket",
          "type": "uint8"
        },
        {
          "indexed": false,
          "internalType": "bytes32",
          "name": "solanaHash",
          "type": "bytes32"
        }
      ],
      "name": "Giveaway",
      "type": "event"
    },
    {
      "anonymous": false,
      "inputs": [
        {
          "indexed": true,
          "internalType": "address",
          "name": "previousOwner",
          "type": "address"
        },
        {
          "indexed": true,
          "internalType": "address",
          "name": "newOwner",
          "type": "address"
        }
      ],
      "name": "OwnershipTransferred",
      "type": "event"
    },
    {
      "anonymous": false,
      "inputs": [
        {
          "indexed": false,
          "internalType": "address",
          "name": "account",
          "type": "address"
        }
      ],
      "name": "Paused",
      "type": "event"
    },
    {
      "anonymous": false,
      "inputs": [
        {
          "indexed": true,
          "internalType": "address",
          "name": "user",
          "type": "address"
        },
        {
          "indexed": true,
          "internalType": "uint8",
          "name": "packTier",
          "type": "uint8"
        },
        {
          "indexed": true,
          "internalType": "uint256",
          "name": "tokenId",
          "type": "uint256"
        },
        {
          "indexed": false,
          "internalType": "uint8",
          "name": "bucket",
          "type": "uint8"
        },
        {
          "indexed": false,
          "internalType": "bytes32",
          "name": "burnProof",
          "type": "bytes32"
        }
      ],
      "name": "Pulled",
      "type": "event"
    },
    {
      "anonymous": false,
      "inputs": [
        {
          "indexed": false,
          "internalType": "address",
          "name": "account",
          "type": "address"
        }
      ],
      "name": "Unpaused",
      "type": "event"
    },
    {
      "anonymous": false,
      "inputs": [
        {
          "indexed": true,
          "internalType": "address",
          "name": "previous",
          "type": "address"
        },
        {
          "indexed": true,
          "internalType": "address",
          "name": "current",
          "type": "address"
        }
      ],
      "name": "VaultChanged",
      "type": "event"
    },
    {
      "anonymous": false,
      "inputs": [
        {
          "indexed": true,
          "internalType": "uint8",
          "name": "packTier",
          "type": "uint8"
        },
        {
          "indexed": false,
          "internalType": "uint16[6]",
          "name": "weights",
          "type": "uint16[6]"
        }
      ],
      "name": "WeightsUpdated",
      "type": "event"
    },
    {
      "inputs": [],
      "name": "NFT",
      "outputs": [
        {
          "internalType": "contract IERC721",
          "name": "",
          "type": "address"
        }
      ],
      "stateMutability": "view",
      "type": "function"
    },
    {
      "inputs": [],
      "name": "NUM_BUCKETS",
      "outputs": [
        {
          "internalType": "uint8",
          "name": "",
          "type": "uint8"
        }
      ],
      "stateMutability": "view",
      "type": "function"
    },
    {
      "inputs": [],
      "name": "NUM_PACK_TIERS",
      "outputs": [
        {
          "internalType": "uint8",
          "name": "",
          "type": "uint8"
        }
      ],
      "stateMutability": "view",
      "type": "function"
    },
    {
      "inputs": [],
      "name": "WEIGHT_TOTAL_BPS",
      "outputs": [
        {
          "internalType": "uint16",
          "name": "",
          "type": "uint16"
        }
      ],
      "stateMutability": "view",
      "type": "function"
    },
    {
      "inputs": [
        {
          "internalType": "uint8",
          "name": "packTier",
          "type": "uint8"
        },
        {
          "internalType": "uint256[]",
          "name": "tokenIds",
          "type": "uint256[]"
        },
        {
          "internalType": "uint8[]",
          "name": "buckets",
          "type": "uint8[]"
        }
      ],
      "name": "addCards",
      "outputs": [],
      "stateMutability": "nonpayable",
      "type": "function"
    },
    {
      "inputs": [
        {
          "internalType": "uint8",
          "name": "packTier",
          "type": "uint8"
        },
        {
          "internalType": "uint8",
          "name": "bucket",
          "type": "uint8"
        }
      ],
      "name": "availableInBucket",
      "outputs": [
        {
          "internalType": "uint256",
          "name": "",
          "type": "uint256"
        }
      ],
      "stateMutability": "view",
      "type": "function"
    },
    {
      "inputs": [
        {
          "internalType": "uint8",
          "name": "packTier",
          "type": "uint8"
        }
      ],
      "name": "availableInPack",
      "outputs": [
        {
          "internalType": "uint256",
          "name": "total",
          "type": "uint256"
        }
      ],
      "stateMutability": "view",
      "type": "function"
    },
    {
      "inputs": [],
      "name": "backendSigner",
      "outputs": [
        {
          "internalType": "address",
          "name": "",
          "type": "address"
        }
      ],
      "stateMutability": "view",
      "type": "function"
    },
    {
      "inputs": [
        {
          "internalType": "uint8",
          "name": "",
          "type": "uint8"
        },
        {
          "internalType": "uint256",
          "name": "",
          "type": "uint256"
        }
      ],
      "name": "cards",
      "outputs": [
        {
          "internalType": "uint8",
          "name": "bucket",
          "type": "uint8"
        },
        {
          "internalType": "bool",
          "name": "available",
          "type": "bool"
        }
      ],
      "stateMutability": "view",
      "type": "function"
    },
    {
      "inputs": [
        {
          "internalType": "uint8",
          "name": "packTier",
          "type": "uint8"
        }
      ],
      "name": "getBucketWeights",
      "outputs": [
        {
          "internalType": "uint16[6]",
          "name": "",
          "type": "uint16[6]"
        }
      ],
      "stateMutability": "view",
      "type": "function"
    },
    {
      "inputs": [
        {
          "internalType": "address",
          "name": "user",
          "type": "address"
        },
        {
          "internalType": "bytes32",
          "name": "solanaHash",
          "type": "bytes32"
        },
        {
          "internalType": "uint8",
          "name": "packTier",
          "type": "uint8"
        }
      ],
      "name": "giveaway",
      "outputs": [
        {
          "internalType": "uint256",
          "name": "tokenId",
          "type": "uint256"
        },
        {
          "internalType": "uint8",
          "name": "bucket",
          "type": "uint8"
        }
      ],
      "stateMutability": "nonpayable",
      "type": "function"
    },
    {
      "inputs": [],
      "name": "owner",
      "outputs": [
        {
          "internalType": "address",
          "name": "",
          "type": "address"
        }
      ],
      "stateMutability": "view",
      "type": "function"
    },
    {
      "inputs": [],
      "name": "paused",
      "outputs": [
        {
          "internalType": "bool",
          "name": "",
          "type": "bool"
        }
      ],
      "stateMutability": "view",
      "type": "function"
    },
    {
      "inputs": [
        {
          "internalType": "address",
          "name": "",
          "type": "address"
        }
      ],
      "name": "polygonGiveawayUsed",
      "outputs": [
        {
          "internalType": "bool",
          "name": "",
          "type": "bool"
        }
      ],
      "stateMutability": "view",
      "type": "function"
    },
    {
      "inputs": [
        {
          "internalType": "address",
          "name": "user",
          "type": "address"
        },
        {
          "internalType": "uint8",
          "name": "packTier",
          "type": "uint8"
        },
        {
          "internalType": "bytes32",
          "name": "burnProof",
          "type": "bytes32"
        }
      ],
      "name": "pull",
      "outputs": [
        {
          "internalType": "uint256",
          "name": "tokenId",
          "type": "uint256"
        },
        {
          "internalType": "uint8",
          "name": "bucket",
          "type": "uint8"
        }
      ],
      "stateMutability": "nonpayable",
      "type": "function"
    },
    {
      "inputs": [
        {
          "internalType": "uint8",
          "name": "packTier",
          "type": "uint8"
        },
        {
          "internalType": "uint256",
          "name": "tokenId",
          "type": "uint256"
        }
      ],
      "name": "removeCard",
      "outputs": [],
      "stateMutability": "nonpayable",
      "type": "function"
    },
    {
      "inputs": [],
      "name": "renounceOwnership",
      "outputs": [],
      "stateMutability": "nonpayable",
      "type": "function"
    },
    {
      "inputs": [
        {
          "internalType": "address",
          "name": "newSigner",
          "type": "address"
        }
      ],
      "name": "setBackendSigner",
      "outputs": [],
      "stateMutability": "nonpayable",
      "type": "function"
    },
    {
      "inputs": [
        {
          "internalType": "uint8",
          "name": "packTier",
          "type": "uint8"
        },
        {
          "internalType": "uint16[6]",
          "name": "weights",
          "type": "uint16[6]"
        }
      ],
      "name": "setBucketWeights",
      "outputs": [],
      "stateMutability": "nonpayable",
      "type": "function"
    },
    {
      "inputs": [
        {
          "internalType": "bool",
          "name": "paused_",
          "type": "bool"
        }
      ],
      "name": "setPaused",
      "outputs": [],
      "stateMutability": "nonpayable",
      "type": "function"
    },
    {
      "inputs": [
        {
          "internalType": "address",
          "name": "newVault",
          "type": "address"
        }
      ],
      "name": "setVault",
      "outputs": [],
      "stateMutability": "nonpayable",
      "type": "function"
    },
    {
      "inputs": [
        {
          "internalType": "bytes32",
          "name": "",
          "type": "bytes32"
        }
      ],
      "name": "solanaGiveawayUsed",
      "outputs": [
        {
          "internalType": "bool",
          "name": "",
          "type": "bool"
        }
      ],
      "stateMutability": "view",
      "type": "function"
    },
    {
      "inputs": [
        {
          "internalType": "address",
          "name": "newOwner",
          "type": "address"
        }
      ],
      "name": "transferOwnership",
      "outputs": [],
      "stateMutability": "nonpayable",
      "type": "function"
    },
    {
      "inputs": [],
      "name": "vault",
      "outputs": [
        {
          "internalType": "address",
          "name": "",
          "type": "address"
        }
      ],
      "stateMutability": "view",
      "type": "function"
    }
  ],
  "bytecode": "0x60a034620002fe57601f6200161b38819003918201601f191683019291906001600160401b0384118385101762000302578160609284926040968752833981010312620002fe57620000518162000336565b9160206200006e826200006683860162000336565b940162000336565b903315620002e7575f549360018060a01b03948560018060a01b03199733898416175f55865192823391167f8be0079c531659141344cd1fd0a4f28419497f9722a3daafe3b4186f6b6457e05f80a3169081158015620002dc575b8015620002d1575b620002c25750908591608052169360019285878554161784551680956002541617600255620000ff62000316565b60c0368237610c1281526111868282015261082e8482015261012c606082015260146080820152600a60a08201525f8080526007835284812082825b868660068310620002915750505050556200015562000316565b9160c036843761137983526109bd818401526108918584015261012b6060840152601e60808401525f60a0840152835f5260078152845f20835f925f905b87600683106200025f5750505050620001ec92620001dd94925f92558651807fead69bde6b49ca7ed74a5fc780b639e2b515c739e118d2565f811f8f0a36dade968793826200034b565b0390a28451918291826200034b565b0390a251915f7f60c5293782c70b9080e83e261790b280285209d93c36a68814b4c9a150f047de8180a35f7f16e2accad9173abff57b295b56993ec5d86b3cbf791fea02f02a6616463754ea8180a361129c90816200037f82396080518181816103140152818161067e015261081e0152f35b9062000286849661ffff83959651169086851b60031b9161ffff809116831b921b19161790565b950192019062000193565b90919294620002b89061ffff8751169085851b60031b9161ffff809116831b921b19161790565b940191016200013b565b63d92e233d60e01b8152600490fd5b5086851615620000d1565b5086831615620000c9565b8251631e4fbdf760e01b81525f6004820152602490fd5b5f80fd5b634e487b7160e01b5f52604160045260245ffd5b6040519060c082016001600160401b038111838210176200030257604052565b51906001600160a01b0382168203620002fe57565b60c0810192915f915b600683106200036257505050565b60019061ffff835116815260208091019201920191906200035456fe6080806040526004361015610012575f80fd5b5f3560e01c9081630194f9a314610e1257508063122e934e14610be757806314ef0c2c14610aad57806316c38b3c146109e457806321ab305b1461090957806326a9192b1461076e5780632c4507a41461061757806331425294146105da57806336f956701461056b5780635c975abb1461054757806365d65e861461051f5780636817031b1461049e57806368f1fb9314610483578063715018a61461042c57806375506c47146103fd57806379396b32146103435780637c0b8de2146102ff5780638da5cb5b146102d8578063bcd82de91461028c578063c56ca84e14610271578063d7894b82146101f1578063f2fde38b1461016c578063f6c59961146101505763fbfa77cf14610124575f80fd5b3461014c575f36600319011261014c576001546040516001600160a01b039091168152602090f35b5f80fd5b3461014c575f36600319011261014c5760206040516127108152f35b3461014c57602036600319011261014c57610185610ee4565b61018d610f93565b6001600160a01b039081169081156101d9575f54826001600160601b0360a01b8216175f55167f8be0079c531659141344cd1fd0a4f28419497f9722a3daafe3b4186f6b6457e05f80a3005b604051631e4fbdf760e01b81525f6004820152602490fd5b3461014c57604036600319011261014c5761020a610e93565b60ff610214610ea3565b911690600282101561025f5760ff1690600682101561024d575f52600560205260405f20905f52602052602060405f2054604051908152f35b60405163778aa76b60e01b8152600490fd5b60405163d694977f60e01b8152600490fd5b3461014c575f36600319011261014c57602060405160068152f35b3461014c57604036600319011261014c5760ff6102a7610e93565b165f52600460205260405f206024355f526020526040805f205460ff825191818116835260081c1615156020820152f35b3461014c575f36600319011261014c575f546040516001600160a01b039091168152602090f35b3461014c575f36600319011261014c576040517f00000000000000000000000000000000000000000000000000000000000000006001600160a01b03168152602090f35b3461014c5760208060031936011261014c5760ff61035f610e93565b60c060405161036d81610f53565b36903716600281101561025f575f526007815260405f209060405191549061ffff82818094168552818160101c16838601528181841c166040860152818160301c166060860152818160401c16608086015260501c1660a08401526103d183610f53565b604051925f90845b600683106103e65760c086f35b8380600192878551168152019201920191906103d9565b3461014c57602036600319011261014c576004355f526009602052602060ff60405f2054166040519015158152f35b3461014c575f36600319011261014c57610444610f93565b5f80546001600160a01b0319811682556001600160a01b03167f8be0079c531659141344cd1fd0a4f28419497f9722a3daafe3b4186f6b6457e08280a3005b3461014c575f36600319011261014c57602060405160028152f35b3461014c57602036600319011261014c576104b7610ee4565b6104bf610f93565b6001600160a01b0390811690811561050d57600154826001600160601b0360a01b821617600155167f16e2accad9173abff57b295b56993ec5d86b3cbf791fea02f02a6616463754ea5f80a3005b60405163d92e233d60e01b8152600490fd5b3461014c575f36600319011261014c576002546040516001600160a01b039091168152602090f35b3461014c575f36600319011261014c57602060ff5f5460a01c166040519015158152f35b3461014c57602036600319011261014c57610584610ee4565b61058c610f93565b6001600160a01b0390811690811561050d57600254826001600160601b0360a01b821617600255167f60c5293782c70b9080e83e261790b280285209d93c36a68814b4c9a150f047de5f80a3005b3461014c57602036600319011261014c576001600160a01b036105fb610ee4565b165f526008602052602060ff60405f2054166040519015158152f35b3461014c57606036600319011261014c57610630610ee4565b610638610ea3565b6002549091906001600160a01b03908116330361075c57610657610fbe565b60ff8316600281101561025f5781831693841561050d576106789084610fde565b949093837f0000000000000000000000000000000000000000000000000000000000000000169360015416843b1561014c57604051632142170760e11b81526001600160a01b0391821660048201529116602482015260448101859052925f908490606490829084905af1928315610751578493610742575b506040805160ff8716815260443560208201527f6ca982706910d730e2729a6c3ae2a0202b7787ff8465d0695e3893677fa8ac7f91819081015b0390a46040805191825260ff929092166020820152f35b61074b90610f3f565b856106f1565b6040513d5f823e3d90fd5b604051630a31c3dd60e41b8152600490fd5b3461014c57606036600319011261014c57610787610ee4565b6044359060243560ff831680840361014c576107a1610f93565b6107a9610fbe565b600281101561025f576001600160a01b039383851690811561050d57815f52600860205260ff60405f20541680156108f3575b6108e15761081890825f52600860205260405f2060ff1990600182825416179055855f526009602052600160405f209182541617905585610fde565b959094817f0000000000000000000000000000000000000000000000000000000000000000169160015416823b1561014c57604051632142170760e11b81526001600160a01b0391821660048201529116602482015260448101869052905f908290606490829084905af180156107515785947ffa44e081ba05562bc113adb11188fa32fc0f8b00c7f449c826d9b4cc4d1e869a9261072b926108d2575b506040805160ff8a168152602081019290925290918291820190565b6108db90610f3f565b886108b6565b604051630c8d9eab60e31b8152600490fd5b50835f52600960205260ff60405f2054166107dc565b3461014c57604036600319011261014c57610922610e93565b6024359061092e610f93565b60ff811690600282101561025f57815f526020906004825260405f20845f52825260ff60405f205460081c16156109d25761099690835f526004835260405f20855f52835260ff60405f205416845f526006845260405f20865f52845260405f205491611120565b815f526004815260405f2090835f52525f60408120557f028a4fc8b4696cbcc4f5a8f6a710136792e31ca8bdd587a3ca8e506955582a925f80a3005b604051630479201160e41b8152600490fd5b3461014c57602036600319011261014c57600435801515810361014c57610a09610f93565b15610a5657610a16610fbe565b5f805460ff60a01b1916600160a01b1790556040513381527f62e78cea01bee320cd4e420270b5ea74000d11b0c9f74754ebdbfc544b05a25890602090a1005b5f5460ff8160a01c1615610a9b5760ff60a01b19165f556040513381527f5db9ee0a495bf2e6ff9c91a7834c1ba4fdd244a5e8aa4e537bd38aeae4b073aa90602090a1005b604051638dfc202b60e01b8152600490fd5b3461014c5760e036600319011261014c57610ac6610e93565b3660e41161014c57610ad6610f93565b60ff80911690600282101561025f575f80915b600681841610610bb957836127108303610ba757805f526020600760205260405f206024905f915f5b8460068210610b7d575050505560405190816024915f915b60068310610b5a57857fead69bde6b49ca7ed74a5fc780b639e2b515c739e118d2565f811f8f0a36dade60c087a2005b83359061ffff821680920361014c57828160019382935201940192019192610b2a565b8294610b8b60019394610f84565b908460041b9161ffff809116831b921b19161794019101610b12565b604051632fb3cc0760e11b8152600490fd5b6001610bdd829361ffff610bd6611fe08860051b16602401610f84565b1690610efa565b9301169190610ae9565b3461014c57606036600319011261014c57610c00610e93565b60243567ffffffffffffffff811161014c57610c20903690600401610eb3565b9060443567ffffffffffffffff811161014c57610c41903690600401610eb3565b929091610c4c610f93565b600260ff8616101561025f57838203610dfd575f5b828110610c6a57005b610c75818484610f1b565b3590610c82818787610f1b565b359160ff8316830361014c57600660ff8416101561024d5760ff88165f52600460205260405f20815f5260205260405f20549260ff600894851c16610deb5760405180604081011067ffffffffffffffff604083011117610dd7576040818101815260ff838116808452600160208086018281528f85165f818152600484528781208b8252845287812098518954935161ffff19909416971696909617911515909b1b61ff0016179095558883526005855283832082845280865284842080549a85526006875285852089865287529484208a90559190925290925290949068010000000000000000821015610dd757610d87828592600198610d9f95018155610f6f565b90919082549060031b91821b915f19901b1916179055565b60ff604051911681527f6160b95463eef162e89880a58d5ff8c73f401ae0a3de33147826ad9b64b4d3d6602060ff8b1692a301610c61565b634e487b7160e01b5f52604160045260245ffd5b604051631b74344b60e01b8152600490fd5b6040516001621398b960e31b03198152600490fd5b3461014c5760208060031936011261014c5760ff9060ff610e31610e93565b16926002841015610e8457505f92835b8385166006811015610e7957610e708592600192855f526005875260405f20905f52865260405f205490610efa565b95011693610e41565b602082604051908152f35b63d694977f60e01b8152600490fd5b6004359060ff8216820361014c57565b6024359060ff8216820361014c57565b9181601f8401121561014c5782359167ffffffffffffffff831161014c576020808501948460051b01011161014c57565b600435906001600160a01b038216820361014c57565b91908201809211610f0757565b634e487b7160e01b5f52601160045260245ffd5b9190811015610f2b5760051b0190565b634e487b7160e01b5f52603260045260245ffd5b67ffffffffffffffff8111610dd757604052565b60c0810190811067ffffffffffffffff821117610dd757604052565b8054821015610f2b575f5260205f2001905f90565b3561ffff8116810361014c5790565b5f546001600160a01b03163303610fa657565b60405163118cdaa760e01b8152336004820152602490fd5b60ff5f5460a01c16610fcc57565b60405163d93c066560e01b8152600490fd5b909160035491604090815160209182820190448252428584015260018060a01b0316606083015260ff90818816928360808201528760a082015260a0815261102581610f53565b519020600180970160035561103a88826111d4565b96805f915b6110c4575b5050825f5260058452845f2091871691825f528452845f20549081156110b35790611098929160801c0690835f5260058552855f20905f5284528661108b82875f20610f6f565b90549060031b1c98611120565b5f5260048152815f2090855f52525f2061ff00198154169055565b85516305ce024d60e51b8152600490fd5b9097845f5260058652865f209084811691825f528752875f20541580611114575b1561110d57508101838111610f0757600684809216069816838114610f07578101908061103f565b9850611044565b506006858b16106110e5565b60ff909291921691825f52600560205260ff60405f2091165f5260205260405f20908154925f1993848101908111610f0757808303611196575b50505080548015611182578201916111728383610f6f565b909182549160031b1b1916905555565b634e487b7160e01b5f52603160045260245ffd5b6111a09084610f6f565b90549060031b1c906111b682610d878587610f6f565b5f52600660205260405f20905f5260205260405f20555f808061115a565b909160ff8093165f52600760205261271060405f209261ffff9182910616905f935f5b600680888316101561125957811015610f2b57600495838083891c85015460f0858b1b161c16911601958387116112465750828616841061123c5760010186166111f7565b9450505050915090565b601190634e487b7160e01b5f525260245ffd5b505050505091505060059056fea2646970667358221220eb3f591ebe8ecbcd04bc0898ac419535be09c70089fef5a147c2f4de8c09e31364736f6c63430008180033",
  "linkReferences": {},
  "deployedLinkReferences": {}
}