{
  "_format": "hh-sol-artifact-1",
  "contractName": "MockVRFCoordinatorV2Plus",
  "sourceName": "contracts/test/MockVRFCoordinatorV2Plus.sol",
  "abi": [
    {
      "anonymous": false,
      "inputs": [
        {
          "indexed": true,
          "internalType": "uint256",
          "name": "requestId",
          "type": "uint256"
        },
        {
          "indexed": true,
          "internalType": "address",
          "name": "consumer",
          "type": "address"
        }
      ],
      "name": "RandomWordsRequested",
      "type": "event"
    },
    {
      "inputs": [
        {
          "internalType": "uint256",
          "name": "requestId",
          "type": "uint256"
        },
        {
          "internalType": "address",
          "name": "consumer",
          "type": "address"
        },
        {
          "internalType": "uint256[]",
          "name": "words",
          "type": "uint256[]"
        }
      ],
      "name": "fulfillRandomWordsWithOverride",
      "outputs": [],
      "stateMutability": "nonpayable",
      "type": "function"
    },
    {
      "inputs": [],
      "name": "lastRequestId",
      "outputs": [
        {
          "internalType": "uint256",
          "name": "",
          "type": "uint256"
        }
      ],
      "stateMutability": "view",
      "type": "function"
    },
    {
      "inputs": [
        {
          "components": [
            {
              "internalType": "bytes32",
              "name": "keyHash",
              "type": "bytes32"
            },
            {
              "internalType": "uint256",
              "name": "subId",
              "type": "uint256"
            },
            {
              "internalType": "uint16",
              "name": "requestConfirmations",
              "type": "uint16"
            },
            {
              "internalType": "uint32",
              "name": "callbackGasLimit",
              "type": "uint32"
            },
            {
              "internalType": "uint32",
              "name": "numWords",
              "type": "uint32"
            },
            {
              "internalType": "bytes",
              "name": "extraArgs",
              "type": "bytes"
            }
          ],
          "internalType": "struct VRFV2PlusClient.RandomWordsRequest",
          "name": "",
          "type": "tuple"
        }
      ],
      "name": "requestRandomWords",
      "outputs": [
        {
          "internalType": "uint256",
          "name": "requestId",
          "type": "uint256"
        }
      ],
      "stateMutability": "nonpayable",
      "type": "function"
    }
  ],
  "bytecode": "0x6080806040523461001657610212908161001b8239f35b5f80fdfe6080604081815260049182361015610015575f80fd5b5f925f3560e01c91826308e3898e146100ef575081639b1c385e14610062575063fc2a88c314610043575f80fd5b3461005e578160031936011261005e57602091549051908152f35b5080fd5b83833461005e576003196020368201126100eb57833567ffffffffffffffff81116100e7579060c0913603011261005e57815490600182018092116100d457602093508183555191817f5afc92f47019f6f981dbe48fba0d8bc10298b161505d2ead5ad4b975bfde77f4339280a38152f35b634e487b7160e01b835260118452602483fd5b8380fd5b8280fd5b929150346101d85760603660031901126101d8576024356001600160a01b038116908190036101d85767ffffffffffffffff906044358281116101d857366023820112156101d85780840135918383116101d8578260051b9236602485850101116101d857813b156101d857631fe543e360e01b885285358689015260248801879052604488018190526001600160fb1b03106101d857865f60648286839760248398018484013781010301925af180156101ce576101ac578480f35b909192809450116101bb575052005b604190634e487b7160e01b5f525260245ffd5b83513d5f823e3d90fd5b5f80fdfea264697066735822122082bac4f2b0878d0d7580d4ba3baafd5aadcf656245e0634282c130e7c2b1a7e564736f6c63430008180033",
  "linkReferences": {},
  "deployedLinkReferences": {}
}